{
	"contracts/Daulat Hussain/Real Estate Smart contract.sol": {
		"RealEstate": {
			"abi": [
				{
					"anonymous": false,
					"inputs": [
						{
							"indexed": false,
							"internalType": "uint256",
							"name": "propertyID",
							"type": "uint256"
						}
					],
					"name": "propertysold",
					"type": "event"
				},
				{
					"inputs": [
						{
							"internalType": "uint256",
							"name": "_propertyID",
							"type": "uint256"
						}
					],
					"name": "buyproperty",
					"outputs": [],
					"stateMutability": "payable",
					"type": "function"
				},
				{
					"inputs": [
						{
							"internalType": "string",
							"name": "_location",
							"type": "string"
						},
						{
							"internalType": "string",
							"name": "_description",
							"type": "string"
						},
						{
							"internalType": "uint256",
							"name": "_price",
							"type": "uint256"
						},
						{
							"internalType": "string",
							"name": "_title",
							"type": "string"
						},
						{
							"internalType": "uint256",
							"name": "_propertyID",
							"type": "uint256"
						}
					],
					"name": "listpropertyforsale",
					"outputs": [],
					"stateMutability": "nonpayable",
					"type": "function"
				},
				{
					"inputs": [
						{
							"internalType": "uint256",
							"name": "",
							"type": "uint256"
						}
					],
					"name": "propertyID",
					"outputs": [
						{
							"internalType": "uint256",
							"name": "",
							"type": "uint256"
						}
					],
					"stateMutability": "view",
					"type": "function"
				},
				{
					"inputs": [
						{
							"internalType": "uint256",
							"name": "",
							"type": "uint256"
						}
					],
					"name": "propertylist",
					"outputs": [
						{
							"internalType": "string",
							"name": "location",
							"type": "string"
						},
						{
							"internalType": "string",
							"name": "description",
							"type": "string"
						},
						{
							"internalType": "uint256",
							"name": "price",
							"type": "uint256"
						},
						{
							"internalType": "bool",
							"name": "forsale",
							"type": "bool"
						},
						{
							"internalType": "address",
							"name": "owner",
							"type": "address"
						},
						{
							"internalType": "string",
							"name": "title",
							"type": "string"
						}
					],
					"stateMutability": "view",
					"type": "function"
				}
			],
			"devdoc": {
				"kind": "dev",
				"methods": {},
				"version": 1
			},
			"evm": {
				"assembly": "    /* \"contracts/Daulat Hussain/Real Estate Smart contract.sol\":171:1602  contract RealEstate... */\n  mstore(0x40, 0x80)\n  callvalue\n  dup1\n  iszero\n  tag_1\n  jumpi\n  0x00\n  dup1\n  revert\ntag_1:\n  pop\n  dataSize(sub_0)\n  dup1\n  dataOffset(sub_0)\n  0x00\n  codecopy\n  0x00\n  return\nstop\n\nsub_0: assembly {\n        /* \"contracts/Daulat Hussain/Real Estate Smart contract.sol\":171:1602  contract RealEstate... */\n      mstore(0x40, 0x80)\n      jumpi(tag_1, lt(calldatasize, 0x04))\n      shr(0xe0, calldataload(0x00))\n      dup1\n      0x0afd486f\n      eq\n      tag_2\n      jumpi\n      dup1\n      0x0cc03e36\n      eq\n      tag_3\n      jumpi\n      dup1\n      0xc960de2c\n      eq\n      tag_4\n      jumpi\n      dup1\n      0xf0e29636\n      eq\n      tag_5\n      jumpi\n    tag_1:\n      0x00\n      dup1\n      revert\n        /* \"contracts/Daulat Hussain/Real Estate Smart contract.sol\":418:467  mapping (uint256 => Property) public propertylist */\n    tag_2:\n      callvalue\n      dup1\n      iszero\n      tag_6\n      jumpi\n      0x00\n      dup1\n      revert\n    tag_6:\n      pop\n      tag_7\n      0x04\n      dup1\n      calldatasize\n      sub\n      dup2\n      add\n      swap1\n      tag_8\n      swap2\n      swap1\n      tag_9\n      jump\t// in\n    tag_8:\n      tag_10\n      jump\t// in\n    tag_7:\n      mload(0x40)\n      tag_11\n      swap7\n      swap6\n      swap5\n      swap4\n      swap3\n      swap2\n      swap1\n      tag_12\n      jump\t// in\n    tag_11:\n      mload(0x40)\n      dup1\n      swap2\n      sub\n      swap1\n      return\n        /* \"contracts/Daulat Hussain/Real Estate Smart contract.sol\":557:1136  function listpropertyforsale... */\n    tag_3:\n      callvalue\n      dup1\n      iszero\n      tag_13\n      jumpi\n      0x00\n      dup1\n      revert\n    tag_13:\n      pop\n      tag_14\n      0x04\n      dup1\n      calldatasize\n      sub\n      dup2\n      add\n      swap1\n      tag_15\n      swap2\n      swap1\n      tag_16\n      jump\t// in\n    tag_15:\n      tag_17\n      jump\t// in\n    tag_14:\n      stop\n        /* \"contracts/Daulat Hussain/Real Estate Smart contract.sol\":476:500  uint[] public propertyID */\n    tag_4:\n      callvalue\n      dup1\n      iszero\n      tag_18\n      jumpi\n      0x00\n      dup1\n      revert\n    tag_18:\n      pop\n      tag_19\n      0x04\n      dup1\n      calldatasize\n      sub\n      dup2\n      add\n      swap1\n      tag_20\n      swap2\n      swap1\n      tag_9\n      jump\t// in\n    tag_20:\n      tag_21\n      jump\t// in\n    tag_19:\n      mload(0x40)\n      tag_22\n      swap2\n      swap1\n      tag_23\n      jump\t// in\n    tag_22:\n      mload(0x40)\n      dup1\n      swap2\n      sub\n      swap1\n      return\n        /* \"contracts/Daulat Hussain/Real Estate Smart contract.sol\":1146:1597  function buyproperty(uint256 _propertyID) public payable... */\n    tag_5:\n      tag_24\n      0x04\n      dup1\n      calldatasize\n      sub\n      dup2\n      add\n      swap1\n      tag_25\n      swap2\n      swap1\n      tag_9\n      jump\t// in\n    tag_25:\n      tag_26\n      jump\t// in\n    tag_24:\n      stop\n        /* \"contracts/Daulat Hussain/Real Estate Smart contract.sol\":418:467  mapping (uint256 => Property) public propertylist */\n    tag_10:\n      mstore(0x20, 0x00)\n      dup1\n      0x00\n      mstore\n      keccak256(0x00, 0x40)\n      0x00\n      swap2\n      pop\n      swap1\n      pop\n      dup1\n      0x00\n      add\n      dup1\n      sload\n      tag_27\n      swap1\n      tag_28\n      jump\t// in\n    tag_27:\n      dup1\n      0x1f\n      add\n      0x20\n      dup1\n      swap2\n      div\n      mul\n      0x20\n      add\n      mload(0x40)\n      swap1\n      dup2\n      add\n      0x40\n      mstore\n      dup1\n      swap3\n      swap2\n      swap1\n      dup2\n      dup2\n      mstore\n      0x20\n      add\n      dup3\n      dup1\n      sload\n      tag_29\n      swap1\n      tag_28\n      jump\t// in\n    tag_29:\n      dup1\n      iszero\n      tag_30\n      jumpi\n      dup1\n      0x1f\n      lt\n      tag_31\n      jumpi\n      0x0100\n      dup1\n      dup4\n      sload\n      div\n      mul\n      dup4\n      mstore\n      swap2\n      0x20\n      add\n      swap2\n      jump(tag_30)\n    tag_31:\n      dup3\n      add\n      swap2\n      swap1\n      0x00\n      mstore\n      keccak256(0x00, 0x20)\n      swap1\n    tag_32:\n      dup2\n      sload\n      dup2\n      mstore\n      swap1\n      0x01\n      add\n      swap1\n      0x20\n      add\n      dup1\n      dup4\n      gt\n      tag_32\n      jumpi\n      dup3\n      swap1\n      sub\n      0x1f\n      and\n      dup3\n      add\n      swap2\n    tag_30:\n      pop\n      pop\n      pop\n      pop\n      pop\n      swap1\n      dup1\n      0x01\n      add\n      dup1\n      sload\n      tag_33\n      swap1\n      tag_28\n      jump\t// in\n    tag_33:\n      dup1\n      0x1f\n      add\n      0x20\n      dup1\n      swap2\n      div\n      mul\n      0x20\n      add\n      mload(0x40)\n      swap1\n      dup2\n      add\n      0x40\n      mstore\n      dup1\n      swap3\n      swap2\n      swap1\n      dup2\n      dup2\n      mstore\n      0x20\n      add\n      dup3\n      dup1\n      sload\n      tag_34\n      swap1\n      tag_28\n      jump\t// in\n    tag_34:\n      dup1\n      iszero\n      tag_35\n      jumpi\n      dup1\n      0x1f\n      lt\n      tag_36\n      jumpi\n      0x0100\n      dup1\n      dup4\n      sload\n      div\n      mul\n      dup4\n      mstore\n      swap2\n      0x20\n      add\n      swap2\n      jump(tag_35)\n    tag_36:\n      dup3\n      add\n      swap2\n      swap1\n      0x00\n      mstore\n      keccak256(0x00, 0x20)\n      swap1\n    tag_37:\n      dup2\n      sload\n      dup2\n      mstore\n      swap1\n      0x01\n      add\n      swap1\n      0x20\n      add\n      dup1\n      dup4\n      gt\n      tag_37\n      jumpi\n      dup3\n      swap1\n      sub\n      0x1f\n      and\n      dup3\n      add\n      swap2\n    tag_35:\n      pop\n      pop\n      pop\n      pop\n      pop\n      swap1\n      dup1\n      0x02\n      add\n      sload\n      swap1\n      dup1\n      0x03\n      add\n      0x00\n      swap1\n      sload\n      swap1\n      0x0100\n      exp\n      swap1\n      div\n      0xff\n      and\n      swap1\n      dup1\n      0x03\n      add\n      0x01\n      swap1\n      sload\n      swap1\n      0x0100\n      exp\n      swap1\n      div\n      0xffffffffffffffffffffffffffffffffffffffff\n      and\n      swap1\n      dup1\n      0x04\n      add\n      dup1\n      sload\n      tag_38\n      swap1\n      tag_28\n      jump\t// in\n    tag_38:\n      dup1\n      0x1f\n      add\n      0x20\n      dup1\n      swap2\n      div\n      mul\n      0x20\n      add\n      mload(0x40)\n      swap1\n      dup2\n      add\n      0x40\n      mstore\n      dup1\n      swap3\n      swap2\n      swap1\n      dup2\n      dup2\n      mstore\n      0x20\n      add\n      dup3\n      dup1\n      sload\n      tag_39\n      swap1\n      tag_28\n      jump\t// in\n    tag_39:\n      dup1\n      iszero\n      tag_40\n      jumpi\n      dup1\n      0x1f\n      lt\n      tag_41\n      jumpi\n      0x0100\n      dup1\n      dup4\n      sload\n      div\n      mul\n      dup4\n      mstore\n      swap2\n      0x20\n      add\n      swap2\n      jump(tag_40)\n    tag_41:\n      dup3\n      add\n      swap2\n      swap1\n      0x00\n      mstore\n      keccak256(0x00, 0x20)\n      swap1\n    tag_42:\n      dup2\n      sload\n      dup2\n      mstore\n      swap1\n      0x01\n      add\n      swap1\n      0x20\n      add\n      dup1\n      dup4\n      gt\n      tag_42\n      jumpi\n      dup3\n      swap1\n      sub\n      0x1f\n      and\n      dup3\n      add\n      swap2\n    tag_40:\n      pop\n      pop\n      pop\n      pop\n      pop\n      swap1\n      pop\n      dup7\n      jump\t// out\n        /* \"contracts/Daulat Hussain/Real Estate Smart contract.sol\":557:1136  function listpropertyforsale... */\n    tag_17:\n        /* \"contracts/Daulat Hussain/Real Estate Smart contract.sol\":778:805  Property memory newproperty */\n      0x00\n        /* \"contracts/Daulat Hussain/Real Estate Smart contract.sol\":808:1029  Property... */\n      mload(0x40)\n      dup1\n      0xc0\n      add\n      0x40\n      mstore\n      dup1\n        /* \"contracts/Daulat Hussain/Real Estate Smart contract.sol\":852:861  _location */\n      dup8\n        /* \"contracts/Daulat Hussain/Real Estate Smart contract.sol\":808:1029  Property... */\n      dup2\n      mstore\n      0x20\n      add\n        /* \"contracts/Daulat Hussain/Real Estate Smart contract.sol\":889:901  _description */\n      dup7\n        /* \"contracts/Daulat Hussain/Real Estate Smart contract.sol\":808:1029  Property... */\n      dup2\n      mstore\n      0x20\n      add\n        /* \"contracts/Daulat Hussain/Real Estate Smart contract.sol\":923:929  _price */\n      dup6\n        /* \"contracts/Daulat Hussain/Real Estate Smart contract.sol\":808:1029  Property... */\n      dup2\n      mstore\n      0x20\n      add\n        /* \"contracts/Daulat Hussain/Real Estate Smart contract.sol\":953:957  true */\n      0x01\n        /* \"contracts/Daulat Hussain/Real Estate Smart contract.sol\":808:1029  Property... */\n      iszero\n      iszero\n      dup2\n      mstore\n      0x20\n      add\n        /* \"contracts/Daulat Hussain/Real Estate Smart contract.sol\":979:989  msg.sender */\n      caller\n        /* \"contracts/Daulat Hussain/Real Estate Smart contract.sol\":808:1029  Property... */\n      0xffffffffffffffffffffffffffffffffffffffff\n      and\n      dup2\n      mstore\n      0x20\n      add\n        /* \"contracts/Daulat Hussain/Real Estate Smart contract.sol\":1011:1017  _title */\n      dup5\n        /* \"contracts/Daulat Hussain/Real Estate Smart contract.sol\":808:1029  Property... */\n      dup2\n      mstore\n      pop\n        /* \"contracts/Daulat Hussain/Real Estate Smart contract.sol\":778:1029  Property memory newproperty = Property... */\n      swap1\n      pop\n        /* \"contracts/Daulat Hussain/Real Estate Smart contract.sol\":1078:1089  newproperty */\n      dup1\n        /* \"contracts/Daulat Hussain/Real Estate Smart contract.sol\":1050:1062  propertylist */\n      0x00\n        /* \"contracts/Daulat Hussain/Real Estate Smart contract.sol\":1050:1075  propertylist[_propertyID] */\n      dup1\n        /* \"contracts/Daulat Hussain/Real Estate Smart contract.sol\":1063:1074  _propertyID */\n      dup5\n        /* \"contracts/Daulat Hussain/Real Estate Smart contract.sol\":1050:1075  propertylist[_propertyID] */\n      dup2\n      mstore\n      0x20\n      add\n      swap1\n      dup2\n      mstore\n      0x20\n      add\n      0x00\n      keccak256\n        /* \"contracts/Daulat Hussain/Real Estate Smart contract.sol\":1050:1089  propertylist[_propertyID] = newproperty */\n      0x00\n      dup3\n      add\n      mload\n      dup2\n      0x00\n      add\n      swap1\n      dup2\n      tag_44\n      swap2\n      swap1\n      tag_45\n      jump\t// in\n    tag_44:\n      pop\n      0x20\n      dup3\n      add\n      mload\n      dup2\n      0x01\n      add\n      swap1\n      dup2\n      tag_46\n      swap2\n      swap1\n      tag_45\n      jump\t// in\n    tag_46:\n      pop\n      0x40\n      dup3\n      add\n      mload\n      dup2\n      0x02\n      add\n      sstore\n      0x60\n      dup3\n      add\n      mload\n      dup2\n      0x03\n      add\n      exp(0x0100, 0x00)\n      dup2\n      sload\n      dup2\n      0xff\n      mul\n      not\n      and\n      swap1\n      dup4\n      iszero\n      iszero\n      mul\n      or\n      swap1\n      sstore\n      pop\n      0x80\n      dup3\n      add\n      mload\n      dup2\n      0x03\n      add\n      exp(0x0100, 0x01)\n      dup2\n      sload\n      dup2\n      0xffffffffffffffffffffffffffffffffffffffff\n      mul\n      not\n      and\n      swap1\n      dup4\n      0xffffffffffffffffffffffffffffffffffffffff\n      and\n      mul\n      or\n      swap1\n      sstore\n      pop\n      0xa0\n      dup3\n      add\n      mload\n      dup2\n      0x04\n      add\n      swap1\n      dup2\n      tag_47\n      swap2\n      swap1\n      tag_45\n      jump\t// in\n    tag_47:\n      pop\n      swap1\n      pop\n      pop\n        /* \"contracts/Daulat Hussain/Real Estate Smart contract.sol\":1100:1110  propertyID */\n      0x01\n        /* \"contracts/Daulat Hussain/Real Estate Smart contract.sol\":1116:1127  _propertyID */\n      dup3\n        /* \"contracts/Daulat Hussain/Real Estate Smart contract.sol\":1100:1128  propertyID.push(_propertyID) */\n      swap1\n      dup1\n      0x01\n      dup2\n      sload\n      add\n      dup1\n      dup3\n      sstore\n      dup1\n      swap2\n      pop\n      pop\n      0x01\n      swap1\n      sub\n      swap1\n      0x00\n      mstore\n      keccak256(0x00, 0x20)\n      add\n      0x00\n      swap1\n      swap2\n      swap1\n      swap2\n      swap1\n      swap2\n      pop\n      sstore\n        /* \"contracts/Daulat Hussain/Real Estate Smart contract.sol\":767:1136  {... */\n      pop\n        /* \"contracts/Daulat Hussain/Real Estate Smart contract.sol\":557:1136  function listpropertyforsale... */\n      pop\n      pop\n      pop\n      pop\n      pop\n      jump\t// out\n        /* \"contracts/Daulat Hussain/Real Estate Smart contract.sol\":476:500  uint[] public propertyID */\n    tag_21:\n      0x01\n      dup2\n      dup2\n      sload\n      dup2\n      lt\n      tag_49\n      jumpi\n      0x00\n      dup1\n      revert\n    tag_49:\n      swap1\n      0x00\n      mstore\n      keccak256(0x00, 0x20)\n      add\n      0x00\n      swap2\n      pop\n      swap1\n      pop\n      sload\n      dup2\n      jump\t// out\n        /* \"contracts/Daulat Hussain/Real Estate Smart contract.sol\":1146:1597  function buyproperty(uint256 _propertyID) public payable... */\n    tag_26:\n        /* \"contracts/Daulat Hussain/Real Estate Smart contract.sol\":1219:1244  Property storage property */\n      0x00\n        /* \"contracts/Daulat Hussain/Real Estate Smart contract.sol\":1247:1259  propertylist */\n      dup1\n        /* \"contracts/Daulat Hussain/Real Estate Smart contract.sol\":1247:1272  propertylist[_propertyID] */\n      0x00\n        /* \"contracts/Daulat Hussain/Real Estate Smart contract.sol\":1260:1271  _propertyID */\n      dup4\n        /* \"contracts/Daulat Hussain/Real Estate Smart contract.sol\":1247:1272  propertylist[_propertyID] */\n      dup2\n      mstore\n      0x20\n      add\n      swap1\n      dup2\n      mstore\n      0x20\n      add\n      0x00\n      keccak256\n        /* \"contracts/Daulat Hussain/Real Estate Smart contract.sol\":1219:1272  Property storage property = propertylist[_propertyID] */\n      swap1\n      pop\n        /* \"contracts/Daulat Hussain/Real Estate Smart contract.sol\":1293:1301  property */\n      dup1\n        /* \"contracts/Daulat Hussain/Real Estate Smart contract.sol\":1293:1309  property.forsale */\n      0x03\n      add\n      0x00\n      swap1\n      sload\n      swap1\n      0x0100\n      exp\n      swap1\n      div\n      0xff\n      and\n        /* \"contracts/Daulat Hussain/Real Estate Smart contract.sol\":1285:1338  require(property.forsale, \"Property is not for sale\") */\n      tag_52\n      jumpi\n      mload(0x40)\n      0x08c379a000000000000000000000000000000000000000000000000000000000\n      dup2\n      mstore\n      0x04\n      add\n      tag_53\n      swap1\n      tag_54\n      jump\t// in\n    tag_53:\n      mload(0x40)\n      dup1\n      swap2\n      sub\n      swap1\n      revert\n    tag_52:\n        /* \"contracts/Daulat Hussain/Real Estate Smart contract.sol\":1375:1384  msg.value */\n      callvalue\n        /* \"contracts/Daulat Hussain/Real Estate Smart contract.sol\":1357:1365  property */\n      dup2\n        /* \"contracts/Daulat Hussain/Real Estate Smart contract.sol\":1357:1371  property.price */\n      0x02\n      add\n      sload\n        /* \"contracts/Daulat Hussain/Real Estate Smart contract.sol\":1357:1384  property.price <= msg.value */\n      gt\n      iszero\n        /* \"contracts/Daulat Hussain/Real Estate Smart contract.sol\":1349:1407  require(property.price <= msg.value, \"Insufficient funds\") */\n      tag_55\n      jumpi\n      mload(0x40)\n      0x08c379a000000000000000000000000000000000000000000000000000000000\n      dup2\n      mstore\n      0x04\n      add\n      tag_56\n      swap1\n      tag_57\n      jump\t// in\n    tag_56:\n      mload(0x40)\n      dup1\n      swap2\n      sub\n      swap1\n      revert\n    tag_55:\n        /* \"contracts/Daulat Hussain/Real Estate Smart contract.sol\":1437:1447  msg.sender */\n      caller\n        /* \"contracts/Daulat Hussain/Real Estate Smart contract.sol\":1420:1428  property */\n      dup2\n        /* \"contracts/Daulat Hussain/Real Estate Smart contract.sol\":1420:1434  property.owner */\n      0x03\n      add\n      0x01\n        /* \"contracts/Daulat Hussain/Real Estate Smart contract.sol\":1420:1447  property.owner = msg.sender */\n      0x0100\n      exp\n      dup2\n      sload\n      dup2\n      0xffffffffffffffffffffffffffffffffffffffff\n      mul\n      not\n      and\n      swap1\n      dup4\n      0xffffffffffffffffffffffffffffffffffffffff\n      and\n      mul\n      or\n      swap1\n      sstore\n      pop\n        /* \"contracts/Daulat Hussain/Real Estate Smart contract.sol\":1477:1482  false */\n      0x00\n        /* \"contracts/Daulat Hussain/Real Estate Smart contract.sol\":1458:1466  property */\n      dup2\n        /* \"contracts/Daulat Hussain/Real Estate Smart contract.sol\":1458:1474  property.forsale */\n      0x03\n      add\n      0x00\n        /* \"contracts/Daulat Hussain/Real Estate Smart contract.sol\":1458:1482  property.forsale = false */\n      0x0100\n      exp\n      dup2\n      sload\n      dup2\n      0xff\n      mul\n      not\n      and\n      swap1\n      dup4\n      iszero\n      iszero\n      mul\n      or\n      swap1\n      sstore\n      pop\n        /* \"contracts/Daulat Hussain/Real Estate Smart contract.sol\":1504:1512  property */\n      dup1\n        /* \"contracts/Daulat Hussain/Real Estate Smart contract.sol\":1504:1518  property.owner */\n      0x03\n      add\n      0x01\n      swap1\n      sload\n      swap1\n      0x0100\n      exp\n      swap1\n      div\n      0xffffffffffffffffffffffffffffffffffffffff\n      and\n        /* \"contracts/Daulat Hussain/Real Estate Smart contract.sol\":1495:1528  payable (property.owner).transfer */\n      0xffffffffffffffffffffffffffffffffffffffff\n      and\n        /* \"contracts/Daulat Hussain/Real Estate Smart contract.sol\":1495:1544  payable (property.owner).transfer(property.price) */\n      0x08fc\n        /* \"contracts/Daulat Hussain/Real Estate Smart contract.sol\":1529:1537  property */\n      dup3\n        /* \"contracts/Daulat Hussain/Real Estate Smart contract.sol\":1529:1543  property.price */\n      0x02\n      add\n      sload\n        /* \"contracts/Daulat Hussain/Real Estate Smart contract.sol\":1495:1544  payable (property.owner).transfer(property.price) */\n      swap1\n      dup2\n      iszero\n      mul\n      swap1\n      mload(0x40)\n      0x00\n      mload(0x40)\n      dup1\n      dup4\n      sub\n      dup2\n      dup6\n      dup9\n      dup9\n      call\n      swap4\n      pop\n      pop\n      pop\n      pop\n      iszero\n      dup1\n      iszero\n      tag_59\n      jumpi\n      returndatasize\n      0x00\n      dup1\n      returndatacopy\n      revert(0x00, returndatasize)\n    tag_59:\n      pop\n        /* \"contracts/Daulat Hussain/Real Estate Smart contract.sol\":1562:1587  propertysold(_propertyID) */\n      0x73d05632d7c5d108e8d22dfb9b1113d590819be3b610f10ba6471656939faa75\n        /* \"contracts/Daulat Hussain/Real Estate Smart contract.sol\":1575:1586  _propertyID */\n      dup3\n        /* \"contracts/Daulat Hussain/Real Estate Smart contract.sol\":1562:1587  propertysold(_propertyID) */\n      mload(0x40)\n      tag_60\n      swap2\n      swap1\n      tag_23\n      jump\t// in\n    tag_60:\n      mload(0x40)\n      dup1\n      swap2\n      sub\n      swap1\n      log1\n        /* \"contracts/Daulat Hussain/Real Estate Smart contract.sol\":1208:1597  {... */\n      pop\n        /* \"contracts/Daulat Hussain/Real Estate Smart contract.sol\":1146:1597  function buyproperty(uint256 _propertyID) public payable... */\n      pop\n      jump\t// out\n        /* \"#utility.yul\":7:82   */\n    tag_61:\n        /* \"#utility.yul\":40:46   */\n      0x00\n        /* \"#utility.yul\":73:75   */\n      0x40\n        /* \"#utility.yul\":67:76   */\n      mload\n        /* \"#utility.yul\":57:76   */\n      swap1\n      pop\n        /* \"#utility.yul\":7:82   */\n      swap1\n      jump\t// out\n        /* \"#utility.yul\":88:205   */\n    tag_62:\n        /* \"#utility.yul\":197:198   */\n      0x00\n        /* \"#utility.yul\":194:195   */\n      dup1\n        /* \"#utility.yul\":187:199   */\n      revert\n        /* \"#utility.yul\":211:328   */\n    tag_63:\n        /* \"#utility.yul\":320:321   */\n      0x00\n        /* \"#utility.yul\":317:318   */\n      dup1\n        /* \"#utility.yul\":310:322   */\n      revert\n        /* \"#utility.yul\":334:411   */\n    tag_64:\n        /* \"#utility.yul\":371:378   */\n      0x00\n        /* \"#utility.yul\":400:405   */\n      dup2\n        /* \"#utility.yul\":389:405   */\n      swap1\n      pop\n        /* \"#utility.yul\":334:411   */\n      swap2\n      swap1\n      pop\n      jump\t// out\n        /* \"#utility.yul\":417:539   */\n    tag_65:\n        /* \"#utility.yul\":490:514   */\n      tag_113\n        /* \"#utility.yul\":508:513   */\n      dup2\n        /* \"#utility.yul\":490:514   */\n      tag_64\n      jump\t// in\n    tag_113:\n        /* \"#utility.yul\":483:488   */\n      dup2\n        /* \"#utility.yul\":480:515   */\n      eq\n        /* \"#utility.yul\":470:533   */\n      tag_114\n      jumpi\n        /* \"#utility.yul\":529:530   */\n      0x00\n        /* \"#utility.yul\":526:527   */\n      dup1\n        /* \"#utility.yul\":519:531   */\n      revert\n        /* \"#utility.yul\":470:533   */\n    tag_114:\n        /* \"#utility.yul\":417:539   */\n      pop\n      jump\t// out\n        /* \"#utility.yul\":545:684   */\n    tag_66:\n        /* \"#utility.yul\":591:596   */\n      0x00\n        /* \"#utility.yul\":629:635   */\n      dup2\n        /* \"#utility.yul\":616:636   */\n      calldataload\n        /* \"#utility.yul\":607:636   */\n      swap1\n      pop\n        /* \"#utility.yul\":645:678   */\n      tag_116\n        /* \"#utility.yul\":672:677   */\n      dup2\n        /* \"#utility.yul\":645:678   */\n      tag_65\n      jump\t// in\n    tag_116:\n        /* \"#utility.yul\":545:684   */\n      swap3\n      swap2\n      pop\n      pop\n      jump\t// out\n        /* \"#utility.yul\":690:1019   */\n    tag_9:\n        /* \"#utility.yul\":749:755   */\n      0x00\n        /* \"#utility.yul\":798:800   */\n      0x20\n        /* \"#utility.yul\":786:795   */\n      dup3\n        /* \"#utility.yul\":777:784   */\n      dup5\n        /* \"#utility.yul\":773:796   */\n      sub\n        /* \"#utility.yul\":769:801   */\n      slt\n        /* \"#utility.yul\":766:885   */\n      iszero\n      tag_118\n      jumpi\n        /* \"#utility.yul\":804:883   */\n      tag_119\n      tag_62\n      jump\t// in\n    tag_119:\n        /* \"#utility.yul\":766:885   */\n    tag_118:\n        /* \"#utility.yul\":924:925   */\n      0x00\n        /* \"#utility.yul\":949:1002   */\n      tag_120\n        /* \"#utility.yul\":994:1001   */\n      dup5\n        /* \"#utility.yul\":985:991   */\n      dup3\n        /* \"#utility.yul\":974:983   */\n      dup6\n        /* \"#utility.yul\":970:992   */\n      add\n        /* \"#utility.yul\":949:1002   */\n      tag_66\n      jump\t// in\n    tag_120:\n        /* \"#utility.yul\":939:1002   */\n      swap2\n      pop\n        /* \"#utility.yul\":895:1012   */\n      pop\n        /* \"#utility.yul\":690:1019   */\n      swap3\n      swap2\n      pop\n      pop\n      jump\t// out\n        /* \"#utility.yul\":1025:1124   */\n    tag_67:\n        /* \"#utility.yul\":1077:1083   */\n      0x00\n        /* \"#utility.yul\":1111:1116   */\n      dup2\n        /* \"#utility.yul\":1105:1117   */\n      mload\n        /* \"#utility.yul\":1095:1117   */\n      swap1\n      pop\n        /* \"#utility.yul\":1025:1124   */\n      swap2\n      swap1\n      pop\n      jump\t// out\n        /* \"#utility.yul\":1130:1299   */\n    tag_68:\n        /* \"#utility.yul\":1214:1225   */\n      0x00\n        /* \"#utility.yul\":1248:1254   */\n      dup3\n        /* \"#utility.yul\":1243:1246   */\n      dup3\n        /* \"#utility.yul\":1236:1255   */\n      mstore\n        /* \"#utility.yul\":1288:1292   */\n      0x20\n        /* \"#utility.yul\":1283:1286   */\n      dup3\n        /* \"#utility.yul\":1279:1293   */\n      add\n        /* \"#utility.yul\":1264:1293   */\n      swap1\n      pop\n        /* \"#utility.yul\":1130:1299   */\n      swap3\n      swap2\n      pop\n      pop\n      jump\t// out\n        /* \"#utility.yul\":1305:1444   */\n    tag_69:\n        /* \"#utility.yul\":1394:1400   */\n      dup3\n        /* \"#utility.yul\":1389:1392   */\n      dup2\n        /* \"#utility.yul\":1384:1387   */\n      dup4\n        /* \"#utility.yul\":1378:1401   */\n      mcopy\n        /* \"#utility.yul\":1435:1436   */\n      0x00\n        /* \"#utility.yul\":1426:1432   */\n      dup4\n        /* \"#utility.yul\":1421:1424   */\n      dup4\n        /* \"#utility.yul\":1417:1433   */\n      add\n        /* \"#utility.yul\":1410:1437   */\n      mstore\n        /* \"#utility.yul\":1305:1444   */\n      pop\n      pop\n      pop\n      jump\t// out\n        /* \"#utility.yul\":1450:1552   */\n    tag_70:\n        /* \"#utility.yul\":1491:1497   */\n      0x00\n        /* \"#utility.yul\":1542:1544   */\n      0x1f\n        /* \"#utility.yul\":1538:1545   */\n      not\n        /* \"#utility.yul\":1533:1535   */\n      0x1f\n        /* \"#utility.yul\":1526:1531   */\n      dup4\n        /* \"#utility.yul\":1522:1536   */\n      add\n        /* \"#utility.yul\":1518:1546   */\n      and\n        /* \"#utility.yul\":1508:1546   */\n      swap1\n      pop\n        /* \"#utility.yul\":1450:1552   */\n      swap2\n      swap1\n      pop\n      jump\t// out\n        /* \"#utility.yul\":1558:1935   */\n    tag_71:\n        /* \"#utility.yul\":1646:1649   */\n      0x00\n        /* \"#utility.yul\":1674:1713   */\n      tag_126\n        /* \"#utility.yul\":1707:1712   */\n      dup3\n        /* \"#utility.yul\":1674:1713   */\n      tag_67\n      jump\t// in\n    tag_126:\n        /* \"#utility.yul\":1729:1800   */\n      tag_127\n        /* \"#utility.yul\":1793:1799   */\n      dup2\n        /* \"#utility.yul\":1788:1791   */\n      dup6\n        /* \"#utility.yul\":1729:1800   */\n      tag_68\n      jump\t// in\n    tag_127:\n        /* \"#utility.yul\":1722:1800   */\n      swap4\n      pop\n        /* \"#utility.yul\":1809:1874   */\n      tag_128\n        /* \"#utility.yul\":1867:1873   */\n      dup2\n        /* \"#utility.yul\":1862:1865   */\n      dup6\n        /* \"#utility.yul\":1855:1859   */\n      0x20\n        /* \"#utility.yul\":1848:1853   */\n      dup7\n        /* \"#utility.yul\":1844:1860   */\n      add\n        /* \"#utility.yul\":1809:1874   */\n      tag_69\n      jump\t// in\n    tag_128:\n        /* \"#utility.yul\":1899:1928   */\n      tag_129\n        /* \"#utility.yul\":1921:1927   */\n      dup2\n        /* \"#utility.yul\":1899:1928   */\n      tag_70\n      jump\t// in\n    tag_129:\n        /* \"#utility.yul\":1894:1897   */\n      dup5\n        /* \"#utility.yul\":1890:1929   */\n      add\n        /* \"#utility.yul\":1883:1929   */\n      swap2\n      pop\n        /* \"#utility.yul\":1650:1935   */\n      pop\n        /* \"#utility.yul\":1558:1935   */\n      swap3\n      swap2\n      pop\n      pop\n      jump\t// out\n        /* \"#utility.yul\":1941:2059   */\n    tag_72:\n        /* \"#utility.yul\":2028:2052   */\n      tag_131\n        /* \"#utility.yul\":2046:2051   */\n      dup2\n        /* \"#utility.yul\":2028:2052   */\n      tag_64\n      jump\t// in\n    tag_131:\n        /* \"#utility.yul\":2023:2026   */\n      dup3\n        /* \"#utility.yul\":2016:2053   */\n      mstore\n        /* \"#utility.yul\":1941:2059   */\n      pop\n      pop\n      jump\t// out\n        /* \"#utility.yul\":2065:2155   */\n    tag_73:\n        /* \"#utility.yul\":2099:2106   */\n      0x00\n        /* \"#utility.yul\":2142:2147   */\n      dup2\n        /* \"#utility.yul\":2135:2148   */\n      iszero\n        /* \"#utility.yul\":2128:2149   */\n      iszero\n        /* \"#utility.yul\":2117:2149   */\n      swap1\n      pop\n        /* \"#utility.yul\":2065:2155   */\n      swap2\n      swap1\n      pop\n      jump\t// out\n        /* \"#utility.yul\":2161:2270   */\n    tag_74:\n        /* \"#utility.yul\":2242:2263   */\n      tag_134\n        /* \"#utility.yul\":2257:2262   */\n      dup2\n        /* \"#utility.yul\":2242:2263   */\n      tag_73\n      jump\t// in\n    tag_134:\n        /* \"#utility.yul\":2237:2240   */\n      dup3\n        /* \"#utility.yul\":2230:2264   */\n      mstore\n        /* \"#utility.yul\":2161:2270   */\n      pop\n      pop\n      jump\t// out\n        /* \"#utility.yul\":2276:2402   */\n    tag_75:\n        /* \"#utility.yul\":2313:2320   */\n      0x00\n        /* \"#utility.yul\":2353:2395   */\n      0xffffffffffffffffffffffffffffffffffffffff\n        /* \"#utility.yul\":2346:2351   */\n      dup3\n        /* \"#utility.yul\":2342:2396   */\n      and\n        /* \"#utility.yul\":2331:2396   */\n      swap1\n      pop\n        /* \"#utility.yul\":2276:2402   */\n      swap2\n      swap1\n      pop\n      jump\t// out\n        /* \"#utility.yul\":2408:2504   */\n    tag_76:\n        /* \"#utility.yul\":2445:2452   */\n      0x00\n        /* \"#utility.yul\":2474:2498   */\n      tag_137\n        /* \"#utility.yul\":2492:2497   */\n      dup3\n        /* \"#utility.yul\":2474:2498   */\n      tag_75\n      jump\t// in\n    tag_137:\n        /* \"#utility.yul\":2463:2498   */\n      swap1\n      pop\n        /* \"#utility.yul\":2408:2504   */\n      swap2\n      swap1\n      pop\n      jump\t// out\n        /* \"#utility.yul\":2510:2628   */\n    tag_77:\n        /* \"#utility.yul\":2597:2621   */\n      tag_139\n        /* \"#utility.yul\":2615:2620   */\n      dup2\n        /* \"#utility.yul\":2597:2621   */\n      tag_76\n      jump\t// in\n    tag_139:\n        /* \"#utility.yul\":2592:2595   */\n      dup3\n        /* \"#utility.yul\":2585:2622   */\n      mstore\n        /* \"#utility.yul\":2510:2628   */\n      pop\n      pop\n      jump\t// out\n        /* \"#utility.yul\":2634:3670   */\n    tag_12:\n        /* \"#utility.yul\":2921:2925   */\n      0x00\n        /* \"#utility.yul\":2959:2962   */\n      0xc0\n        /* \"#utility.yul\":2948:2957   */\n      dup3\n        /* \"#utility.yul\":2944:2963   */\n      add\n        /* \"#utility.yul\":2936:2963   */\n      swap1\n      pop\n        /* \"#utility.yul\":3009:3018   */\n      dup2\n        /* \"#utility.yul\":3003:3007   */\n      dup2\n        /* \"#utility.yul\":2999:3019   */\n      sub\n        /* \"#utility.yul\":2995:2996   */\n      0x00\n        /* \"#utility.yul\":2984:2993   */\n      dup4\n        /* \"#utility.yul\":2980:2997   */\n      add\n        /* \"#utility.yul\":2973:3020   */\n      mstore\n        /* \"#utility.yul\":3037:3115   */\n      tag_141\n        /* \"#utility.yul\":3110:3114   */\n      dup2\n        /* \"#utility.yul\":3101:3107   */\n      dup10\n        /* \"#utility.yul\":3037:3115   */\n      tag_71\n      jump\t// in\n    tag_141:\n        /* \"#utility.yul\":3029:3115   */\n      swap1\n      pop\n        /* \"#utility.yul\":3162:3171   */\n      dup2\n        /* \"#utility.yul\":3156:3160   */\n      dup2\n        /* \"#utility.yul\":3152:3172   */\n      sub\n        /* \"#utility.yul\":3147:3149   */\n      0x20\n        /* \"#utility.yul\":3136:3145   */\n      dup4\n        /* \"#utility.yul\":3132:3150   */\n      add\n        /* \"#utility.yul\":3125:3173   */\n      mstore\n        /* \"#utility.yul\":3190:3268   */\n      tag_142\n        /* \"#utility.yul\":3263:3267   */\n      dup2\n        /* \"#utility.yul\":3254:3260   */\n      dup9\n        /* \"#utility.yul\":3190:3268   */\n      tag_71\n      jump\t// in\n    tag_142:\n        /* \"#utility.yul\":3182:3268   */\n      swap1\n      pop\n        /* \"#utility.yul\":3278:3350   */\n      tag_143\n        /* \"#utility.yul\":3346:3348   */\n      0x40\n        /* \"#utility.yul\":3335:3344   */\n      dup4\n        /* \"#utility.yul\":3331:3349   */\n      add\n        /* \"#utility.yul\":3322:3328   */\n      dup8\n        /* \"#utility.yul\":3278:3350   */\n      tag_72\n      jump\t// in\n    tag_143:\n        /* \"#utility.yul\":3360:3426   */\n      tag_144\n        /* \"#utility.yul\":3422:3424   */\n      0x60\n        /* \"#utility.yul\":3411:3420   */\n      dup4\n        /* \"#utility.yul\":3407:3425   */\n      add\n        /* \"#utility.yul\":3398:3404   */\n      dup7\n        /* \"#utility.yul\":3360:3426   */\n      tag_74\n      jump\t// in\n    tag_144:\n        /* \"#utility.yul\":3436:3509   */\n      tag_145\n        /* \"#utility.yul\":3504:3507   */\n      0x80\n        /* \"#utility.yul\":3493:3502   */\n      dup4\n        /* \"#utility.yul\":3489:3508   */\n      add\n        /* \"#utility.yul\":3480:3486   */\n      dup6\n        /* \"#utility.yul\":3436:3509   */\n      tag_77\n      jump\t// in\n    tag_145:\n        /* \"#utility.yul\":3557:3566   */\n      dup2\n        /* \"#utility.yul\":3551:3555   */\n      dup2\n        /* \"#utility.yul\":3547:3567   */\n      sub\n        /* \"#utility.yul\":3541:3544   */\n      0xa0\n        /* \"#utility.yul\":3530:3539   */\n      dup4\n        /* \"#utility.yul\":3526:3545   */\n      add\n        /* \"#utility.yul\":3519:3568   */\n      mstore\n        /* \"#utility.yul\":3585:3663   */\n      tag_146\n        /* \"#utility.yul\":3658:3662   */\n      dup2\n        /* \"#utility.yul\":3649:3655   */\n      dup5\n        /* \"#utility.yul\":3585:3663   */\n      tag_71\n      jump\t// in\n    tag_146:\n        /* \"#utility.yul\":3577:3663   */\n      swap1\n      pop\n        /* \"#utility.yul\":2634:3670   */\n      swap8\n      swap7\n      pop\n      pop\n      pop\n      pop\n      pop\n      pop\n      pop\n      jump\t// out\n        /* \"#utility.yul\":3676:3793   */\n    tag_78:\n        /* \"#utility.yul\":3785:3786   */\n      0x00\n        /* \"#utility.yul\":3782:3783   */\n      dup1\n        /* \"#utility.yul\":3775:3787   */\n      revert\n        /* \"#utility.yul\":3799:3916   */\n    tag_79:\n        /* \"#utility.yul\":3908:3909   */\n      0x00\n        /* \"#utility.yul\":3905:3906   */\n      dup1\n        /* \"#utility.yul\":3898:3910   */\n      revert\n        /* \"#utility.yul\":3922:4102   */\n    tag_80:\n        /* \"#utility.yul\":3970:4047   */\n      0x4e487b7100000000000000000000000000000000000000000000000000000000\n        /* \"#utility.yul\":3967:3968   */\n      0x00\n        /* \"#utility.yul\":3960:4048   */\n      mstore\n        /* \"#utility.yul\":4067:4071   */\n      0x41\n        /* \"#utility.yul\":4064:4065   */\n      0x04\n        /* \"#utility.yul\":4057:4072   */\n      mstore\n        /* \"#utility.yul\":4091:4095   */\n      0x24\n        /* \"#utility.yul\":4088:4089   */\n      0x00\n        /* \"#utility.yul\":4081:4096   */\n      revert\n        /* \"#utility.yul\":4108:4389   */\n    tag_81:\n        /* \"#utility.yul\":4191:4218   */\n      tag_151\n        /* \"#utility.yul\":4213:4217   */\n      dup3\n        /* \"#utility.yul\":4191:4218   */\n      tag_70\n      jump\t// in\n    tag_151:\n        /* \"#utility.yul\":4183:4189   */\n      dup2\n        /* \"#utility.yul\":4179:4219   */\n      add\n        /* \"#utility.yul\":4321:4327   */\n      dup2\n        /* \"#utility.yul\":4309:4319   */\n      dup2\n        /* \"#utility.yul\":4306:4328   */\n      lt\n        /* \"#utility.yul\":4285:4303   */\n      0xffffffffffffffff\n        /* \"#utility.yul\":4273:4283   */\n      dup3\n        /* \"#utility.yul\":4270:4304   */\n      gt\n        /* \"#utility.yul\":4267:4329   */\n      or\n        /* \"#utility.yul\":4264:4352   */\n      iszero\n      tag_152\n      jumpi\n        /* \"#utility.yul\":4332:4350   */\n      tag_153\n      tag_80\n      jump\t// in\n    tag_153:\n        /* \"#utility.yul\":4264:4352   */\n    tag_152:\n        /* \"#utility.yul\":4372:4382   */\n      dup1\n        /* \"#utility.yul\":4368:4370   */\n      0x40\n        /* \"#utility.yul\":4361:4383   */\n      mstore\n        /* \"#utility.yul\":4151:4389   */\n      pop\n        /* \"#utility.yul\":4108:4389   */\n      pop\n      pop\n      jump\t// out\n        /* \"#utility.yul\":4395:4524   */\n    tag_82:\n        /* \"#utility.yul\":4429:4435   */\n      0x00\n        /* \"#utility.yul\":4456:4476   */\n      tag_155\n      tag_61\n      jump\t// in\n    tag_155:\n        /* \"#utility.yul\":4446:4476   */\n      swap1\n      pop\n        /* \"#utility.yul\":4485:4518   */\n      tag_156\n        /* \"#utility.yul\":4513:4517   */\n      dup3\n        /* \"#utility.yul\":4505:4511   */\n      dup3\n        /* \"#utility.yul\":4485:4518   */\n      tag_81\n      jump\t// in\n    tag_156:\n        /* \"#utility.yul\":4395:4524   */\n      swap2\n      swap1\n      pop\n      jump\t// out\n        /* \"#utility.yul\":4530:4838   */\n    tag_83:\n        /* \"#utility.yul\":4592:4596   */\n      0x00\n        /* \"#utility.yul\":4682:4700   */\n      0xffffffffffffffff\n        /* \"#utility.yul\":4674:4680   */\n      dup3\n        /* \"#utility.yul\":4671:4701   */\n      gt\n        /* \"#utility.yul\":4668:4724   */\n      iszero\n      tag_158\n      jumpi\n        /* \"#utility.yul\":4704:4722   */\n      tag_159\n      tag_80\n      jump\t// in\n    tag_159:\n        /* \"#utility.yul\":4668:4724   */\n    tag_158:\n        /* \"#utility.yul\":4742:4771   */\n      tag_160\n        /* \"#utility.yul\":4764:4770   */\n      dup3\n        /* \"#utility.yul\":4742:4771   */\n      tag_70\n      jump\t// in\n    tag_160:\n        /* \"#utility.yul\":4734:4771   */\n      swap1\n      pop\n        /* \"#utility.yul\":4826:4830   */\n      0x20\n        /* \"#utility.yul\":4820:4824   */\n      dup2\n        /* \"#utility.yul\":4816:4831   */\n      add\n        /* \"#utility.yul\":4808:4831   */\n      swap1\n      pop\n        /* \"#utility.yul\":4530:4838   */\n      swap2\n      swap1\n      pop\n      jump\t// out\n        /* \"#utility.yul\":4844:4992   */\n    tag_84:\n        /* \"#utility.yul\":4942:4948   */\n      dup3\n        /* \"#utility.yul\":4937:4940   */\n      dup2\n        /* \"#utility.yul\":4932:4935   */\n      dup4\n        /* \"#utility.yul\":4919:4949   */\n      calldatacopy\n        /* \"#utility.yul\":4983:4984   */\n      0x00\n        /* \"#utility.yul\":4974:4980   */\n      dup4\n        /* \"#utility.yul\":4969:4972   */\n      dup4\n        /* \"#utility.yul\":4965:4981   */\n      add\n        /* \"#utility.yul\":4958:4985   */\n      mstore\n        /* \"#utility.yul\":4844:4992   */\n      pop\n      pop\n      pop\n      jump\t// out\n        /* \"#utility.yul\":4998:5423   */\n    tag_85:\n        /* \"#utility.yul\":5076:5081   */\n      0x00\n        /* \"#utility.yul\":5101:5167   */\n      tag_163\n        /* \"#utility.yul\":5117:5166   */\n      tag_164\n        /* \"#utility.yul\":5159:5165   */\n      dup5\n        /* \"#utility.yul\":5117:5166   */\n      tag_83\n      jump\t// in\n    tag_164:\n        /* \"#utility.yul\":5101:5167   */\n      tag_82\n      jump\t// in\n    tag_163:\n        /* \"#utility.yul\":5092:5167   */\n      swap1\n      pop\n        /* \"#utility.yul\":5190:5196   */\n      dup3\n        /* \"#utility.yul\":5183:5188   */\n      dup2\n        /* \"#utility.yul\":5176:5197   */\n      mstore\n        /* \"#utility.yul\":5228:5232   */\n      0x20\n        /* \"#utility.yul\":5221:5226   */\n      dup2\n        /* \"#utility.yul\":5217:5233   */\n      add\n        /* \"#utility.yul\":5266:5269   */\n      dup5\n        /* \"#utility.yul\":5257:5263   */\n      dup5\n        /* \"#utility.yul\":5252:5255   */\n      dup5\n        /* \"#utility.yul\":5248:5264   */\n      add\n        /* \"#utility.yul\":5245:5270   */\n      gt\n        /* \"#utility.yul\":5242:5354   */\n      iszero\n      tag_165\n      jumpi\n        /* \"#utility.yul\":5273:5352   */\n      tag_166\n      tag_79\n      jump\t// in\n    tag_166:\n        /* \"#utility.yul\":5242:5354   */\n    tag_165:\n        /* \"#utility.yul\":5363:5417   */\n      tag_167\n        /* \"#utility.yul\":5410:5416   */\n      dup5\n        /* \"#utility.yul\":5405:5408   */\n      dup3\n        /* \"#utility.yul\":5400:5403   */\n      dup6\n        /* \"#utility.yul\":5363:5417   */\n      tag_84\n      jump\t// in\n    tag_167:\n        /* \"#utility.yul\":5082:5423   */\n      pop\n        /* \"#utility.yul\":4998:5423   */\n      swap4\n      swap3\n      pop\n      pop\n      pop\n      jump\t// out\n        /* \"#utility.yul\":5443:5783   */\n    tag_86:\n        /* \"#utility.yul\":5499:5504   */\n      0x00\n        /* \"#utility.yul\":5548:5551   */\n      dup3\n        /* \"#utility.yul\":5541:5545   */\n      0x1f\n        /* \"#utility.yul\":5533:5539   */\n      dup4\n        /* \"#utility.yul\":5529:5546   */\n      add\n        /* \"#utility.yul\":5525:5552   */\n      slt\n        /* \"#utility.yul\":5515:5637   */\n      tag_169\n      jumpi\n        /* \"#utility.yul\":5556:5635   */\n      tag_170\n      tag_78\n      jump\t// in\n    tag_170:\n        /* \"#utility.yul\":5515:5637   */\n    tag_169:\n        /* \"#utility.yul\":5673:5679   */\n      dup2\n        /* \"#utility.yul\":5660:5680   */\n      calldataload\n        /* \"#utility.yul\":5698:5777   */\n      tag_171\n        /* \"#utility.yul\":5773:5776   */\n      dup5\n        /* \"#utility.yul\":5765:5771   */\n      dup3\n        /* \"#utility.yul\":5758:5762   */\n      0x20\n        /* \"#utility.yul\":5750:5756   */\n      dup7\n        /* \"#utility.yul\":5746:5763   */\n      add\n        /* \"#utility.yul\":5698:5777   */\n      tag_85\n      jump\t// in\n    tag_171:\n        /* \"#utility.yul\":5689:5777   */\n      swap2\n      pop\n        /* \"#utility.yul\":5505:5783   */\n      pop\n        /* \"#utility.yul\":5443:5783   */\n      swap3\n      swap2\n      pop\n      pop\n      jump\t// out\n        /* \"#utility.yul\":5789:7240   */\n    tag_16:\n        /* \"#utility.yul\":5914:5920   */\n      0x00\n        /* \"#utility.yul\":5922:5928   */\n      dup1\n        /* \"#utility.yul\":5930:5936   */\n      0x00\n        /* \"#utility.yul\":5938:5944   */\n      dup1\n        /* \"#utility.yul\":5946:5952   */\n      0x00\n        /* \"#utility.yul\":5995:5998   */\n      0xa0\n        /* \"#utility.yul\":5983:5992   */\n      dup7\n        /* \"#utility.yul\":5974:5981   */\n      dup9\n        /* \"#utility.yul\":5970:5993   */\n      sub\n        /* \"#utility.yul\":5966:5999   */\n      slt\n        /* \"#utility.yul\":5963:6083   */\n      iszero\n      tag_173\n      jumpi\n        /* \"#utility.yul\":6002:6081   */\n      tag_174\n      tag_62\n      jump\t// in\n    tag_174:\n        /* \"#utility.yul\":5963:6083   */\n    tag_173:\n        /* \"#utility.yul\":6150:6151   */\n      0x00\n        /* \"#utility.yul\":6139:6148   */\n      dup7\n        /* \"#utility.yul\":6135:6152   */\n      add\n        /* \"#utility.yul\":6122:6153   */\n      calldataload\n        /* \"#utility.yul\":6180:6198   */\n      0xffffffffffffffff\n        /* \"#utility.yul\":6172:6178   */\n      dup2\n        /* \"#utility.yul\":6169:6199   */\n      gt\n        /* \"#utility.yul\":6166:6283   */\n      iszero\n      tag_175\n      jumpi\n        /* \"#utility.yul\":6202:6281   */\n      tag_176\n      tag_63\n      jump\t// in\n    tag_176:\n        /* \"#utility.yul\":6166:6283   */\n    tag_175:\n        /* \"#utility.yul\":6307:6370   */\n      tag_177\n        /* \"#utility.yul\":6362:6369   */\n      dup9\n        /* \"#utility.yul\":6353:6359   */\n      dup3\n        /* \"#utility.yul\":6342:6351   */\n      dup10\n        /* \"#utility.yul\":6338:6360   */\n      add\n        /* \"#utility.yul\":6307:6370   */\n      tag_86\n      jump\t// in\n    tag_177:\n        /* \"#utility.yul\":6297:6370   */\n      swap6\n      pop\n        /* \"#utility.yul\":6093:6380   */\n      pop\n        /* \"#utility.yul\":6447:6449   */\n      0x20\n        /* \"#utility.yul\":6436:6445   */\n      dup7\n        /* \"#utility.yul\":6432:6450   */\n      add\n        /* \"#utility.yul\":6419:6451   */\n      calldataload\n        /* \"#utility.yul\":6478:6496   */\n      0xffffffffffffffff\n        /* \"#utility.yul\":6470:6476   */\n      dup2\n        /* \"#utility.yul\":6467:6497   */\n      gt\n        /* \"#utility.yul\":6464:6581   */\n      iszero\n      tag_178\n      jumpi\n        /* \"#utility.yul\":6500:6579   */\n      tag_179\n      tag_63\n      jump\t// in\n    tag_179:\n        /* \"#utility.yul\":6464:6581   */\n    tag_178:\n        /* \"#utility.yul\":6605:6668   */\n      tag_180\n        /* \"#utility.yul\":6660:6667   */\n      dup9\n        /* \"#utility.yul\":6651:6657   */\n      dup3\n        /* \"#utility.yul\":6640:6649   */\n      dup10\n        /* \"#utility.yul\":6636:6658   */\n      add\n        /* \"#utility.yul\":6605:6668   */\n      tag_86\n      jump\t// in\n    tag_180:\n        /* \"#utility.yul\":6595:6668   */\n      swap5\n      pop\n        /* \"#utility.yul\":6390:6678   */\n      pop\n        /* \"#utility.yul\":6717:6719   */\n      0x40\n        /* \"#utility.yul\":6743:6796   */\n      tag_181\n        /* \"#utility.yul\":6788:6795   */\n      dup9\n        /* \"#utility.yul\":6779:6785   */\n      dup3\n        /* \"#utility.yul\":6768:6777   */\n      dup10\n        /* \"#utility.yul\":6764:6786   */\n      add\n        /* \"#utility.yul\":6743:6796   */\n      tag_66\n      jump\t// in\n    tag_181:\n        /* \"#utility.yul\":6733:6796   */\n      swap4\n      pop\n        /* \"#utility.yul\":6688:6806   */\n      pop\n        /* \"#utility.yul\":6873:6875   */\n      0x60\n        /* \"#utility.yul\":6862:6871   */\n      dup7\n        /* \"#utility.yul\":6858:6876   */\n      add\n        /* \"#utility.yul\":6845:6877   */\n      calldataload\n        /* \"#utility.yul\":6904:6922   */\n      0xffffffffffffffff\n        /* \"#utility.yul\":6896:6902   */\n      dup2\n        /* \"#utility.yul\":6893:6923   */\n      gt\n        /* \"#utility.yul\":6890:7007   */\n      iszero\n      tag_182\n      jumpi\n        /* \"#utility.yul\":6926:7005   */\n      tag_183\n      tag_63\n      jump\t// in\n    tag_183:\n        /* \"#utility.yul\":6890:7007   */\n    tag_182:\n        /* \"#utility.yul\":7031:7094   */\n      tag_184\n        /* \"#utility.yul\":7086:7093   */\n      dup9\n        /* \"#utility.yul\":7077:7083   */\n      dup3\n        /* \"#utility.yul\":7066:7075   */\n      dup10\n        /* \"#utility.yul\":7062:7084   */\n      add\n        /* \"#utility.yul\":7031:7094   */\n      tag_86\n      jump\t// in\n    tag_184:\n        /* \"#utility.yul\":7021:7094   */\n      swap3\n      pop\n        /* \"#utility.yul\":6816:7104   */\n      pop\n        /* \"#utility.yul\":7143:7146   */\n      0x80\n        /* \"#utility.yul\":7170:7223   */\n      tag_185\n        /* \"#utility.yul\":7215:7222   */\n      dup9\n        /* \"#utility.yul\":7206:7212   */\n      dup3\n        /* \"#utility.yul\":7195:7204   */\n      dup10\n        /* \"#utility.yul\":7191:7213   */\n      add\n        /* \"#utility.yul\":7170:7223   */\n      tag_66\n      jump\t// in\n    tag_185:\n        /* \"#utility.yul\":7160:7223   */\n      swap2\n      pop\n        /* \"#utility.yul\":7114:7233   */\n      pop\n        /* \"#utility.yul\":5789:7240   */\n      swap3\n      swap6\n      pop\n      swap3\n      swap6\n      swap1\n      swap4\n      pop\n      jump\t// out\n        /* \"#utility.yul\":7246:7468   */\n    tag_23:\n        /* \"#utility.yul\":7339:7343   */\n      0x00\n        /* \"#utility.yul\":7377:7379   */\n      0x20\n        /* \"#utility.yul\":7366:7375   */\n      dup3\n        /* \"#utility.yul\":7362:7380   */\n      add\n        /* \"#utility.yul\":7354:7380   */\n      swap1\n      pop\n        /* \"#utility.yul\":7390:7461   */\n      tag_187\n        /* \"#utility.yul\":7458:7459   */\n      0x00\n        /* \"#utility.yul\":7447:7456   */\n      dup4\n        /* \"#utility.yul\":7443:7460   */\n      add\n        /* \"#utility.yul\":7434:7440   */\n      dup5\n        /* \"#utility.yul\":7390:7461   */\n      tag_72\n      jump\t// in\n    tag_187:\n        /* \"#utility.yul\":7246:7468   */\n      swap3\n      swap2\n      pop\n      pop\n      jump\t// out\n        /* \"#utility.yul\":7474:7654   */\n    tag_87:\n        /* \"#utility.yul\":7522:7599   */\n      0x4e487b7100000000000000000000000000000000000000000000000000000000\n        /* \"#utility.yul\":7519:7520   */\n      0x00\n        /* \"#utility.yul\":7512:7600   */\n      mstore\n        /* \"#utility.yul\":7619:7623   */\n      0x22\n        /* \"#utility.yul\":7616:7617   */\n      0x04\n        /* \"#utility.yul\":7609:7624   */\n      mstore\n        /* \"#utility.yul\":7643:7647   */\n      0x24\n        /* \"#utility.yul\":7640:7641   */\n      0x00\n        /* \"#utility.yul\":7633:7648   */\n      revert\n        /* \"#utility.yul\":7660:7980   */\n    tag_28:\n        /* \"#utility.yul\":7704:7710   */\n      0x00\n        /* \"#utility.yul\":7741:7742   */\n      0x02\n        /* \"#utility.yul\":7735:7739   */\n      dup3\n        /* \"#utility.yul\":7731:7743   */\n      div\n        /* \"#utility.yul\":7721:7743   */\n      swap1\n      pop\n        /* \"#utility.yul\":7788:7789   */\n      0x01\n        /* \"#utility.yul\":7782:7786   */\n      dup3\n        /* \"#utility.yul\":7778:7790   */\n      and\n        /* \"#utility.yul\":7809:7827   */\n      dup1\n        /* \"#utility.yul\":7799:7880   */\n      tag_190\n      jumpi\n        /* \"#utility.yul\":7865:7869   */\n      0x7f\n        /* \"#utility.yul\":7857:7863   */\n      dup3\n        /* \"#utility.yul\":7853:7870   */\n      and\n        /* \"#utility.yul\":7843:7870   */\n      swap2\n      pop\n        /* \"#utility.yul\":7799:7880   */\n    tag_190:\n        /* \"#utility.yul\":7927:7929   */\n      0x20\n        /* \"#utility.yul\":7919:7925   */\n      dup3\n        /* \"#utility.yul\":7916:7930   */\n      lt\n        /* \"#utility.yul\":7896:7914   */\n      dup2\n        /* \"#utility.yul\":7893:7931   */\n      sub\n        /* \"#utility.yul\":7890:7974   */\n      tag_191\n      jumpi\n        /* \"#utility.yul\":7946:7964   */\n      tag_192\n      tag_87\n      jump\t// in\n    tag_192:\n        /* \"#utility.yul\":7890:7974   */\n    tag_191:\n        /* \"#utility.yul\":7711:7980   */\n      pop\n        /* \"#utility.yul\":7660:7980   */\n      swap2\n      swap1\n      pop\n      jump\t// out\n        /* \"#utility.yul\":7986:8127   */\n    tag_88:\n        /* \"#utility.yul\":8035:8039   */\n      0x00\n        /* \"#utility.yul\":8058:8061   */\n      dup2\n        /* \"#utility.yul\":8050:8061   */\n      swap1\n      pop\n        /* \"#utility.yul\":8081:8084   */\n      dup2\n        /* \"#utility.yul\":8078:8079   */\n      0x00\n        /* \"#utility.yul\":8071:8085   */\n      mstore\n        /* \"#utility.yul\":8115:8119   */\n      0x20\n        /* \"#utility.yul\":8112:8113   */\n      0x00\n        /* \"#utility.yul\":8102:8120   */\n      keccak256\n        /* \"#utility.yul\":8094:8120   */\n      swap1\n      pop\n        /* \"#utility.yul\":7986:8127   */\n      swap2\n      swap1\n      pop\n      jump\t// out\n        /* \"#utility.yul\":8133:8226   */\n    tag_89:\n        /* \"#utility.yul\":8170:8176   */\n      0x00\n        /* \"#utility.yul\":8217:8219   */\n      0x20\n        /* \"#utility.yul\":8212:8214   */\n      0x1f\n        /* \"#utility.yul\":8205:8210   */\n      dup4\n        /* \"#utility.yul\":8201:8215   */\n      add\n        /* \"#utility.yul\":8197:8220   */\n      div\n        /* \"#utility.yul\":8187:8220   */\n      swap1\n      pop\n        /* \"#utility.yul\":8133:8226   */\n      swap2\n      swap1\n      pop\n      jump\t// out\n        /* \"#utility.yul\":8232:8339   */\n    tag_90:\n        /* \"#utility.yul\":8276:8284   */\n      0x00\n        /* \"#utility.yul\":8326:8331   */\n      dup3\n        /* \"#utility.yul\":8320:8324   */\n      dup3\n        /* \"#utility.yul\":8316:8332   */\n      shl\n        /* \"#utility.yul\":8295:8332   */\n      swap1\n      pop\n        /* \"#utility.yul\":8232:8339   */\n      swap3\n      swap2\n      pop\n      pop\n      jump\t// out\n        /* \"#utility.yul\":8345:8738   */\n    tag_91:\n        /* \"#utility.yul\":8414:8420   */\n      0x00\n        /* \"#utility.yul\":8464:8465   */\n      0x08\n        /* \"#utility.yul\":8452:8462   */\n      dup4\n        /* \"#utility.yul\":8448:8466   */\n      mul\n        /* \"#utility.yul\":8487:8584   */\n      tag_197\n        /* \"#utility.yul\":8517:8583   */\n      0xffffffffffffffffffffffffffffffffffffffffffffffffffffffffffffffff\n        /* \"#utility.yul\":8506:8515   */\n      dup3\n        /* \"#utility.yul\":8487:8584   */\n      tag_90\n      jump\t// in\n    tag_197:\n        /* \"#utility.yul\":8605:8644   */\n      tag_198\n        /* \"#utility.yul\":8635:8643   */\n      dup7\n        /* \"#utility.yul\":8624:8633   */\n      dup4\n        /* \"#utility.yul\":8605:8644   */\n      tag_90\n      jump\t// in\n    tag_198:\n        /* \"#utility.yul\":8593:8644   */\n      swap6\n      pop\n        /* \"#utility.yul\":8677:8681   */\n      dup1\n        /* \"#utility.yul\":8673:8682   */\n      not\n        /* \"#utility.yul\":8666:8671   */\n      dup5\n        /* \"#utility.yul\":8662:8683   */\n      and\n        /* \"#utility.yul\":8653:8683   */\n      swap4\n      pop\n        /* \"#utility.yul\":8726:8730   */\n      dup1\n        /* \"#utility.yul\":8716:8724   */\n      dup7\n        /* \"#utility.yul\":8712:8731   */\n      and\n        /* \"#utility.yul\":8705:8710   */\n      dup5\n        /* \"#utility.yul\":8702:8732   */\n      or\n        /* \"#utility.yul\":8692:8732   */\n      swap3\n      pop\n        /* \"#utility.yul\":8421:8738   */\n      pop\n      pop\n        /* \"#utility.yul\":8345:8738   */\n      swap4\n      swap3\n      pop\n      pop\n      pop\n      jump\t// out\n        /* \"#utility.yul\":8744:8804   */\n    tag_92:\n        /* \"#utility.yul\":8772:8775   */\n      0x00\n        /* \"#utility.yul\":8793:8798   */\n      dup2\n        /* \"#utility.yul\":8786:8798   */\n      swap1\n      pop\n        /* \"#utility.yul\":8744:8804   */\n      swap2\n      swap1\n      pop\n      jump\t// out\n        /* \"#utility.yul\":8810:8952   */\n    tag_93:\n        /* \"#utility.yul\":8860:8869   */\n      0x00\n        /* \"#utility.yul\":8893:8946   */\n      tag_201\n        /* \"#utility.yul\":8911:8945   */\n      tag_202\n        /* \"#utility.yul\":8920:8944   */\n      tag_203\n        /* \"#utility.yul\":8938:8943   */\n      dup5\n        /* \"#utility.yul\":8920:8944   */\n      tag_64\n      jump\t// in\n    tag_203:\n        /* \"#utility.yul\":8911:8945   */\n      tag_92\n      jump\t// in\n    tag_202:\n        /* \"#utility.yul\":8893:8946   */\n      tag_64\n      jump\t// in\n    tag_201:\n        /* \"#utility.yul\":8880:8946   */\n      swap1\n      pop\n        /* \"#utility.yul\":8810:8952   */\n      swap2\n      swap1\n      pop\n      jump\t// out\n        /* \"#utility.yul\":8958:9033   */\n    tag_94:\n        /* \"#utility.yul\":9001:9004   */\n      0x00\n        /* \"#utility.yul\":9022:9027   */\n      dup2\n        /* \"#utility.yul\":9015:9027   */\n      swap1\n      pop\n        /* \"#utility.yul\":8958:9033   */\n      swap2\n      swap1\n      pop\n      jump\t// out\n        /* \"#utility.yul\":9039:9308   */\n    tag_95:\n        /* \"#utility.yul\":9149:9188   */\n      tag_206\n        /* \"#utility.yul\":9180:9187   */\n      dup4\n        /* \"#utility.yul\":9149:9188   */\n      tag_93\n      jump\t// in\n    tag_206:\n        /* \"#utility.yul\":9210:9301   */\n      tag_207\n        /* \"#utility.yul\":9259:9300   */\n      tag_208\n        /* \"#utility.yul\":9283:9299   */\n      dup3\n        /* \"#utility.yul\":9259:9300   */\n      tag_94\n      jump\t// in\n    tag_208:\n        /* \"#utility.yul\":9251:9257   */\n      dup5\n        /* \"#utility.yul\":9244:9248   */\n      dup5\n        /* \"#utility.yul\":9238:9249   */\n      sload\n        /* \"#utility.yul\":9210:9301   */\n      tag_91\n      jump\t// in\n    tag_207:\n        /* \"#utility.yul\":9204:9208   */\n      dup3\n        /* \"#utility.yul\":9197:9302   */\n      sstore\n        /* \"#utility.yul\":9115:9308   */\n      pop\n        /* \"#utility.yul\":9039:9308   */\n      pop\n      pop\n      pop\n      jump\t// out\n        /* \"#utility.yul\":9314:9387   */\n    tag_96:\n        /* \"#utility.yul\":9359:9362   */\n      0x00\n        /* \"#utility.yul\":9314:9387   */\n      swap1\n      jump\t// out\n        /* \"#utility.yul\":9393:9582   */\n    tag_97:\n        /* \"#utility.yul\":9470:9502   */\n      tag_211\n      tag_96\n      jump\t// in\n    tag_211:\n        /* \"#utility.yul\":9511:9576   */\n      tag_212\n        /* \"#utility.yul\":9569:9575   */\n      dup2\n        /* \"#utility.yul\":9561:9567   */\n      dup5\n        /* \"#utility.yul\":9555:9559   */\n      dup5\n        /* \"#utility.yul\":9511:9576   */\n      tag_95\n      jump\t// in\n    tag_212:\n        /* \"#utility.yul\":9446:9582   */\n      pop\n        /* \"#utility.yul\":9393:9582   */\n      pop\n      pop\n      jump\t// out\n        /* \"#utility.yul\":9588:9774   */\n    tag_98:\n        /* \"#utility.yul\":9648:9768   */\n    tag_214:\n        /* \"#utility.yul\":9665:9668   */\n      dup2\n        /* \"#utility.yul\":9658:9663   */\n      dup2\n        /* \"#utility.yul\":9655:9669   */\n      lt\n        /* \"#utility.yul\":9648:9768   */\n      iszero\n      tag_216\n      jumpi\n        /* \"#utility.yul\":9719:9758   */\n      tag_217\n        /* \"#utility.yul\":9756:9757   */\n      0x00\n        /* \"#utility.yul\":9749:9754   */\n      dup3\n        /* \"#utility.yul\":9719:9758   */\n      tag_97\n      jump\t// in\n    tag_217:\n        /* \"#utility.yul\":9692:9693   */\n      0x01\n        /* \"#utility.yul\":9685:9690   */\n      dup2\n        /* \"#utility.yul\":9681:9694   */\n      add\n        /* \"#utility.yul\":9672:9694   */\n      swap1\n      pop\n        /* \"#utility.yul\":9648:9768   */\n      jump(tag_214)\n    tag_216:\n        /* \"#utility.yul\":9588:9774   */\n      pop\n      pop\n      jump\t// out\n        /* \"#utility.yul\":9780:10323   */\n    tag_99:\n        /* \"#utility.yul\":9881:9883   */\n      0x1f\n        /* \"#utility.yul\":9876:9879   */\n      dup3\n        /* \"#utility.yul\":9873:9884   */\n      gt\n        /* \"#utility.yul\":9870:10316   */\n      iszero\n      tag_219\n      jumpi\n        /* \"#utility.yul\":9915:9953   */\n      tag_220\n        /* \"#utility.yul\":9947:9952   */\n      dup2\n        /* \"#utility.yul\":9915:9953   */\n      tag_88\n      jump\t// in\n    tag_220:\n        /* \"#utility.yul\":9999:10028   */\n      tag_221\n        /* \"#utility.yul\":10017:10027   */\n      dup5\n        /* \"#utility.yul\":9999:10028   */\n      tag_89\n      jump\t// in\n    tag_221:\n        /* \"#utility.yul\":9989:9997   */\n      dup2\n        /* \"#utility.yul\":9985:10029   */\n      add\n        /* \"#utility.yul\":10182:10184   */\n      0x20\n        /* \"#utility.yul\":10170:10180   */\n      dup6\n        /* \"#utility.yul\":10167:10185   */\n      lt\n        /* \"#utility.yul\":10164:10213   */\n      iszero\n      tag_222\n      jumpi\n        /* \"#utility.yul\":10203:10211   */\n      dup2\n        /* \"#utility.yul\":10188:10211   */\n      swap1\n      pop\n        /* \"#utility.yul\":10164:10213   */\n    tag_222:\n        /* \"#utility.yul\":10226:10306   */\n      tag_223\n        /* \"#utility.yul\":10282:10304   */\n      tag_224\n        /* \"#utility.yul\":10300:10303   */\n      dup6\n        /* \"#utility.yul\":10282:10304   */\n      tag_89\n      jump\t// in\n    tag_224:\n        /* \"#utility.yul\":10272:10280   */\n      dup4\n        /* \"#utility.yul\":10268:10305   */\n      add\n        /* \"#utility.yul\":10255:10266   */\n      dup3\n        /* \"#utility.yul\":10226:10306   */\n      tag_98\n      jump\t// in\n    tag_223:\n        /* \"#utility.yul\":9885:10316   */\n      pop\n      pop\n        /* \"#utility.yul\":9870:10316   */\n    tag_219:\n        /* \"#utility.yul\":9780:10323   */\n      pop\n      pop\n      pop\n      jump\t// out\n        /* \"#utility.yul\":10329:10446   */\n    tag_100:\n        /* \"#utility.yul\":10383:10391   */\n      0x00\n        /* \"#utility.yul\":10433:10438   */\n      dup3\n        /* \"#utility.yul\":10427:10431   */\n      dup3\n        /* \"#utility.yul\":10423:10439   */\n      shr\n        /* \"#utility.yul\":10402:10439   */\n      swap1\n      pop\n        /* \"#utility.yul\":10329:10446   */\n      swap3\n      swap2\n      pop\n      pop\n      jump\t// out\n        /* \"#utility.yul\":10452:10621   */\n    tag_101:\n        /* \"#utility.yul\":10496:10502   */\n      0x00\n        /* \"#utility.yul\":10529:10580   */\n      tag_227\n        /* \"#utility.yul\":10577:10578   */\n      0x00\n        /* \"#utility.yul\":10573:10579   */\n      not\n        /* \"#utility.yul\":10565:10570   */\n      dup5\n        /* \"#utility.yul\":10562:10563   */\n      0x08\n        /* \"#utility.yul\":10558:10571   */\n      mul\n        /* \"#utility.yul\":10529:10580   */\n      tag_100\n      jump\t// in\n    tag_227:\n        /* \"#utility.yul\":10525:10581   */\n      not\n        /* \"#utility.yul\":10610:10614   */\n      dup1\n        /* \"#utility.yul\":10604:10608   */\n      dup4\n        /* \"#utility.yul\":10600:10615   */\n      and\n        /* \"#utility.yul\":10590:10615   */\n      swap2\n      pop\n        /* \"#utility.yul\":10503:10621   */\n      pop\n        /* \"#utility.yul\":10452:10621   */\n      swap3\n      swap2\n      pop\n      pop\n      jump\t// out\n        /* \"#utility.yul\":10626:10921   */\n    tag_102:\n        /* \"#utility.yul\":10702:10706   */\n      0x00\n        /* \"#utility.yul\":10848:10877   */\n      tag_229\n        /* \"#utility.yul\":10873:10876   */\n      dup4\n        /* \"#utility.yul\":10867:10871   */\n      dup4\n        /* \"#utility.yul\":10848:10877   */\n      tag_101\n      jump\t// in\n    tag_229:\n        /* \"#utility.yul\":10840:10877   */\n      swap2\n      pop\n        /* \"#utility.yul\":10910:10913   */\n      dup3\n        /* \"#utility.yul\":10907:10908   */\n      0x02\n        /* \"#utility.yul\":10903:10914   */\n      mul\n        /* \"#utility.yul\":10897:10901   */\n      dup3\n        /* \"#utility.yul\":10894:10915   */\n      or\n        /* \"#utility.yul\":10886:10915   */\n      swap1\n      pop\n        /* \"#utility.yul\":10626:10921   */\n      swap3\n      swap2\n      pop\n      pop\n      jump\t// out\n        /* \"#utility.yul\":10926:12321   */\n    tag_45:\n        /* \"#utility.yul\":11043:11080   */\n      tag_231\n        /* \"#utility.yul\":11076:11079   */\n      dup3\n        /* \"#utility.yul\":11043:11080   */\n      tag_67\n      jump\t// in\n    tag_231:\n        /* \"#utility.yul\":11145:11163   */\n      0xffffffffffffffff\n        /* \"#utility.yul\":11137:11143   */\n      dup2\n        /* \"#utility.yul\":11134:11164   */\n      gt\n        /* \"#utility.yul\":11131:11187   */\n      iszero\n      tag_232\n      jumpi\n        /* \"#utility.yul\":11167:11185   */\n      tag_233\n      tag_80\n      jump\t// in\n    tag_233:\n        /* \"#utility.yul\":11131:11187   */\n    tag_232:\n        /* \"#utility.yul\":11211:11249   */\n      tag_234\n        /* \"#utility.yul\":11243:11247   */\n      dup3\n        /* \"#utility.yul\":11237:11248   */\n      sload\n        /* \"#utility.yul\":11211:11249   */\n      tag_28\n      jump\t// in\n    tag_234:\n        /* \"#utility.yul\":11296:11363   */\n      tag_235\n        /* \"#utility.yul\":11356:11362   */\n      dup3\n        /* \"#utility.yul\":11348:11354   */\n      dup3\n        /* \"#utility.yul\":11342:11346   */\n      dup6\n        /* \"#utility.yul\":11296:11363   */\n      tag_99\n      jump\t// in\n    tag_235:\n        /* \"#utility.yul\":11390:11391   */\n      0x00\n        /* \"#utility.yul\":11414:11418   */\n      0x20\n        /* \"#utility.yul\":11401:11418   */\n      swap1\n      pop\n        /* \"#utility.yul\":11446:11448   */\n      0x1f\n        /* \"#utility.yul\":11438:11444   */\n      dup4\n        /* \"#utility.yul\":11435:11449   */\n      gt\n        /* \"#utility.yul\":11463:11464   */\n      0x01\n        /* \"#utility.yul\":11458:12076   */\n      dup2\n      eq\n      tag_237\n      jumpi\n        /* \"#utility.yul\":12120:12121   */\n      0x00\n        /* \"#utility.yul\":12137:12143   */\n      dup5\n        /* \"#utility.yul\":12134:12211   */\n      iszero\n      tag_238\n      jumpi\n        /* \"#utility.yul\":12186:12195   */\n      dup3\n        /* \"#utility.yul\":12181:12184   */\n      dup8\n        /* \"#utility.yul\":12177:12196   */\n      add\n        /* \"#utility.yul\":12171:12197   */\n      mload\n        /* \"#utility.yul\":12162:12197   */\n      swap1\n      pop\n        /* \"#utility.yul\":12134:12211   */\n    tag_238:\n        /* \"#utility.yul\":12237:12304   */\n      tag_239\n        /* \"#utility.yul\":12297:12303   */\n      dup6\n        /* \"#utility.yul\":12290:12295   */\n      dup3\n        /* \"#utility.yul\":12237:12304   */\n      tag_102\n      jump\t// in\n    tag_239:\n        /* \"#utility.yul\":12231:12235   */\n      dup7\n        /* \"#utility.yul\":12224:12305   */\n      sstore\n        /* \"#utility.yul\":12093:12315   */\n      pop\n        /* \"#utility.yul\":11428:12315   */\n      jump(tag_236)\n        /* \"#utility.yul\":11458:12076   */\n    tag_237:\n        /* \"#utility.yul\":11510:11514   */\n      0x1f\n        /* \"#utility.yul\":11506:11515   */\n      not\n        /* \"#utility.yul\":11498:11504   */\n      dup5\n        /* \"#utility.yul\":11494:11516   */\n      and\n        /* \"#utility.yul\":11544:11581   */\n      tag_240\n        /* \"#utility.yul\":11576:11580   */\n      dup7\n        /* \"#utility.yul\":11544:11581   */\n      tag_88\n      jump\t// in\n    tag_240:\n        /* \"#utility.yul\":11603:11604   */\n      0x00\n        /* \"#utility.yul\":11617:11825   */\n    tag_241:\n        /* \"#utility.yul\":11631:11638   */\n      dup3\n        /* \"#utility.yul\":11628:11629   */\n      dup2\n        /* \"#utility.yul\":11625:11639   */\n      lt\n        /* \"#utility.yul\":11617:11825   */\n      iszero\n      tag_243\n      jumpi\n        /* \"#utility.yul\":11710:11719   */\n      dup5\n        /* \"#utility.yul\":11705:11708   */\n      dup10\n        /* \"#utility.yul\":11701:11720   */\n      add\n        /* \"#utility.yul\":11695:11721   */\n      mload\n        /* \"#utility.yul\":11687:11693   */\n      dup3\n        /* \"#utility.yul\":11680:11722   */\n      sstore\n        /* \"#utility.yul\":11761:11762   */\n      0x01\n        /* \"#utility.yul\":11753:11759   */\n      dup3\n        /* \"#utility.yul\":11749:11763   */\n      add\n        /* \"#utility.yul\":11739:11763   */\n      swap2\n      pop\n        /* \"#utility.yul\":11808:11810   */\n      0x20\n        /* \"#utility.yul\":11797:11806   */\n      dup6\n        /* \"#utility.yul\":11793:11811   */\n      add\n        /* \"#utility.yul\":11780:11811   */\n      swap5\n      pop\n        /* \"#utility.yul\":11654:11658   */\n      0x20\n        /* \"#utility.yul\":11651:11652   */\n      dup2\n        /* \"#utility.yul\":11647:11659   */\n      add\n        /* \"#utility.yul\":11642:11659   */\n      swap1\n      pop\n        /* \"#utility.yul\":11617:11825   */\n      jump(tag_241)\n    tag_243:\n        /* \"#utility.yul\":11853:11859   */\n      dup7\n        /* \"#utility.yul\":11844:11851   */\n      dup4\n        /* \"#utility.yul\":11841:11860   */\n      lt\n        /* \"#utility.yul\":11838:12017   */\n      iszero\n      tag_244\n      jumpi\n        /* \"#utility.yul\":11911:11920   */\n      dup5\n        /* \"#utility.yul\":11906:11909   */\n      dup10\n        /* \"#utility.yul\":11902:11921   */\n      add\n        /* \"#utility.yul\":11896:11922   */\n      mload\n        /* \"#utility.yul\":11954:12002   */\n      tag_245\n        /* \"#utility.yul\":11996:12000   */\n      0x1f\n        /* \"#utility.yul\":11988:11994   */\n      dup10\n        /* \"#utility.yul\":11984:12001   */\n      and\n        /* \"#utility.yul\":11973:11982   */\n      dup3\n        /* \"#utility.yul\":11954:12002   */\n      tag_101\n      jump\t// in\n    tag_245:\n        /* \"#utility.yul\":11946:11952   */\n      dup4\n        /* \"#utility.yul\":11939:12003   */\n      sstore\n        /* \"#utility.yul\":11861:12017   */\n      pop\n        /* \"#utility.yul\":11838:12017   */\n    tag_244:\n        /* \"#utility.yul\":12063:12064   */\n      0x01\n        /* \"#utility.yul\":12059:12060   */\n      0x02\n        /* \"#utility.yul\":12051:12057   */\n      dup9\n        /* \"#utility.yul\":12047:12061   */\n      mul\n        /* \"#utility.yul\":12043:12065   */\n      add\n        /* \"#utility.yul\":12037:12041   */\n      dup9\n        /* \"#utility.yul\":12030:12066   */\n      sstore\n        /* \"#utility.yul\":11465:12076   */\n      pop\n      pop\n      pop\n        /* \"#utility.yul\":11428:12315   */\n    tag_236:\n      pop\n        /* \"#utility.yul\":11018:12321   */\n      pop\n      pop\n      pop\n        /* \"#utility.yul\":10926:12321   */\n      pop\n      pop\n      jump\t// out\n        /* \"#utility.yul\":12327:12501   */\n    tag_103:\n        /* \"#utility.yul\":12467:12493   */\n      0x50726f7065727479206973206e6f7420666f722073616c650000000000000000\n        /* \"#utility.yul\":12463:12464   */\n      0x00\n        /* \"#utility.yul\":12455:12461   */\n      dup3\n        /* \"#utility.yul\":12451:12465   */\n      add\n        /* \"#utility.yul\":12444:12494   */\n      mstore\n        /* \"#utility.yul\":12327:12501   */\n      pop\n      jump\t// out\n        /* \"#utility.yul\":12507:12873   */\n    tag_104:\n        /* \"#utility.yul\":12649:12652   */\n      0x00\n        /* \"#utility.yul\":12670:12737   */\n      tag_248\n        /* \"#utility.yul\":12734:12736   */\n      0x18\n        /* \"#utility.yul\":12729:12732   */\n      dup4\n        /* \"#utility.yul\":12670:12737   */\n      tag_68\n      jump\t// in\n    tag_248:\n        /* \"#utility.yul\":12663:12737   */\n      swap2\n      pop\n        /* \"#utility.yul\":12746:12839   */\n      tag_249\n        /* \"#utility.yul\":12835:12838   */\n      dup3\n        /* \"#utility.yul\":12746:12839   */\n      tag_103\n      jump\t// in\n    tag_249:\n        /* \"#utility.yul\":12864:12866   */\n      0x20\n        /* \"#utility.yul\":12859:12862   */\n      dup3\n        /* \"#utility.yul\":12855:12867   */\n      add\n        /* \"#utility.yul\":12848:12867   */\n      swap1\n      pop\n        /* \"#utility.yul\":12507:12873   */\n      swap2\n      swap1\n      pop\n      jump\t// out\n        /* \"#utility.yul\":12879:13298   */\n    tag_54:\n        /* \"#utility.yul\":13045:13049   */\n      0x00\n        /* \"#utility.yul\":13083:13085   */\n      0x20\n        /* \"#utility.yul\":13072:13081   */\n      dup3\n        /* \"#utility.yul\":13068:13086   */\n      add\n        /* \"#utility.yul\":13060:13086   */\n      swap1\n      pop\n        /* \"#utility.yul\":13132:13141   */\n      dup2\n        /* \"#utility.yul\":13126:13130   */\n      dup2\n        /* \"#utility.yul\":13122:13142   */\n      sub\n        /* \"#utility.yul\":13118:13119   */\n      0x00\n        /* \"#utility.yul\":13107:13116   */\n      dup4\n        /* \"#utility.yul\":13103:13120   */\n      add\n        /* \"#utility.yul\":13096:13143   */\n      mstore\n        /* \"#utility.yul\":13160:13291   */\n      tag_251\n        /* \"#utility.yul\":13286:13290   */\n      dup2\n        /* \"#utility.yul\":13160:13291   */\n      tag_104\n      jump\t// in\n    tag_251:\n        /* \"#utility.yul\":13152:13291   */\n      swap1\n      pop\n        /* \"#utility.yul\":12879:13298   */\n      swap2\n      swap1\n      pop\n      jump\t// out\n        /* \"#utility.yul\":13304:13472   */\n    tag_105:\n        /* \"#utility.yul\":13444:13464   */\n      0x496e73756666696369656e742066756e64730000000000000000000000000000\n        /* \"#utility.yul\":13440:13441   */\n      0x00\n        /* \"#utility.yul\":13432:13438   */\n      dup3\n        /* \"#utility.yul\":13428:13442   */\n      add\n        /* \"#utility.yul\":13421:13465   */\n      mstore\n        /* \"#utility.yul\":13304:13472   */\n      pop\n      jump\t// out\n        /* \"#utility.yul\":13478:13844   */\n    tag_106:\n        /* \"#utility.yul\":13620:13623   */\n      0x00\n        /* \"#utility.yul\":13641:13708   */\n      tag_254\n        /* \"#utility.yul\":13705:13707   */\n      0x12\n        /* \"#utility.yul\":13700:13703   */\n      dup4\n        /* \"#utility.yul\":13641:13708   */\n      tag_68\n      jump\t// in\n    tag_254:\n        /* \"#utility.yul\":13634:13708   */\n      swap2\n      pop\n        /* \"#utility.yul\":13717:13810   */\n      tag_255\n        /* \"#utility.yul\":13806:13809   */\n      dup3\n        /* \"#utility.yul\":13717:13810   */\n      tag_105\n      jump\t// in\n    tag_255:\n        /* \"#utility.yul\":13835:13837   */\n      0x20\n        /* \"#utility.yul\":13830:13833   */\n      dup3\n        /* \"#utility.yul\":13826:13838   */\n      add\n        /* \"#utility.yul\":13819:13838   */\n      swap1\n      pop\n        /* \"#utility.yul\":13478:13844   */\n      swap2\n      swap1\n      pop\n      jump\t// out\n        /* \"#utility.yul\":13850:14269   */\n    tag_57:\n        /* \"#utility.yul\":14016:14020   */\n      0x00\n        /* \"#utility.yul\":14054:14056   */\n      0x20\n        /* \"#utility.yul\":14043:14052   */\n      dup3\n        /* \"#utility.yul\":14039:14057   */\n      add\n        /* \"#utility.yul\":14031:14057   */\n      swap1\n      pop\n        /* \"#utility.yul\":14103:14112   */\n      dup2\n        /* \"#utility.yul\":14097:14101   */\n      dup2\n        /* \"#utility.yul\":14093:14113   */\n      sub\n        /* \"#utility.yul\":14089:14090   */\n      0x00\n        /* \"#utility.yul\":14078:14087   */\n      dup4\n        /* \"#utility.yul\":14074:14091   */\n      add\n        /* \"#utility.yul\":14067:14114   */\n      mstore\n        /* \"#utility.yul\":14131:14262   */\n      tag_257\n        /* \"#utility.yul\":14257:14261   */\n      dup2\n        /* \"#utility.yul\":14131:14262   */\n      tag_106\n      jump\t// in\n    tag_257:\n        /* \"#utility.yul\":14123:14262   */\n      swap1\n      pop\n        /* \"#utility.yul\":13850:14269   */\n      swap2\n      swap1\n      pop\n      jump\t// out\n\n    auxdata: 0xa264697066735822122068d4e6315692b39fbe77179f634407f6e6e4c608f791f27503123f75c8aa2ebc64736f6c634300081a0033\n}\n",
				"bytecode": {
					"linkReferences": {},
					"object": "6080604052348015600e575f80fd5b50610d9c8061001c5f395ff3fe60806040526004361061003e575f3560e01c80630afd486f146100425780630cc03e3614610083578063c960de2c146100ab578063f0e29636146100e7575b5f80fd5b34801561004d575f80fd5b5061006860048036038101906100639190610646565b610103565b60405161007a96959493929190610749565b60405180910390f35b34801561008e575f80fd5b506100a960048036038101906100a491906108e9565b6102f8565b005b3480156100b6575f80fd5b506100d160048036038101906100cc9190610646565b610433565b6040516100de91906109b4565b60405180910390f35b61010160048036038101906100fc9190610646565b610453565b005b5f602052805f5260405f205f91509050805f018054610121906109fa565b80601f016020809104026020016040519081016040528092919081815260200182805461014d906109fa565b80156101985780601f1061016f57610100808354040283529160200191610198565b820191905f5260205f20905b81548152906001019060200180831161017b57829003601f168201915b5050505050908060010180546101ad906109fa565b80601f01602080910402602001604051908101604052809291908181526020018280546101d9906109fa565b80156102245780601f106101fb57610100808354040283529160200191610224565b820191905f5260205f20905b81548152906001019060200180831161020757829003601f168201915b505050505090806002015490806003015f9054906101000a900460ff16908060030160019054906101000a900473ffffffffffffffffffffffffffffffffffffffff1690806004018054610277906109fa565b80601f01602080910402602001604051908101604052809291908181526020018280546102a3906109fa565b80156102ee5780601f106102c5576101008083540402835291602001916102ee565b820191905f5260205f20905b8154815290600101906020018083116102d157829003601f168201915b5050505050905086565b5f6040518060c001604052808781526020018681526020018581526020016001151581526020013373ffffffffffffffffffffffffffffffffffffffff168152602001848152509050805f808481526020019081526020015f205f820151815f0190816103659190610bc7565b50602082015181600101908161037b9190610bc7565b50604082015181600201556060820151816003015f6101000a81548160ff02191690831515021790555060808201518160030160016101000a81548173ffffffffffffffffffffffffffffffffffffffff021916908373ffffffffffffffffffffffffffffffffffffffff16021790555060a08201518160040190816104019190610bc7565b50905050600182908060018154018082558091505060019003905f5260205f20015f9091909190915055505050505050565b60018181548110610442575f80fd5b905f5260205f20015f915090505481565b5f805f8381526020019081526020015f209050806003015f9054906101000a900460ff166104b6576040517f08c379a00000000000000000000000000000000000000000000000000000000081526004016104ad90610ce0565b60405180910390fd5b34816002015411156104fd576040517f08c379a00000000000000000000000000000000000000000000000000000000081526004016104f490610d48565b60405180910390fd5b338160030160016101000a81548173ffffffffffffffffffffffffffffffffffffffff021916908373ffffffffffffffffffffffffffffffffffffffff1602179055505f816003015f6101000a81548160ff0219169083151502179055508060030160019054906101000a900473ffffffffffffffffffffffffffffffffffffffff1673ffffffffffffffffffffffffffffffffffffffff166108fc826002015490811502906040515f60405180830381858888f193505050501580156105c6573d5f803e3d5ffd5b507f73d05632d7c5d108e8d22dfb9b1113d590819be3b610f10ba6471656939faa75826040516105f691906109b4565b60405180910390a15050565b5f604051905090565b5f80fd5b5f80fd5b5f819050919050565b61062581610613565b811461062f575f80fd5b50565b5f813590506106408161061c565b92915050565b5f6020828403121561065b5761065a61060b565b5b5f61066884828501610632565b91505092915050565b5f81519050919050565b5f82825260208201905092915050565b8281835e5f83830152505050565b5f601f19601f8301169050919050565b5f6106b382610671565b6106bd818561067b565b93506106cd81856020860161068b565b6106d681610699565b840191505092915050565b6106ea81610613565b82525050565b5f8115159050919050565b610704816106f0565b82525050565b5f73ffffffffffffffffffffffffffffffffffffffff82169050919050565b5f6107338261070a565b9050919050565b61074381610729565b82525050565b5f60c0820190508181035f83015261076181896106a9565b9050818103602083015261077581886106a9565b905061078460408301876106e1565b61079160608301866106fb565b61079e608083018561073a565b81810360a08301526107b081846106a9565b9050979650505050505050565b5f80fd5b5f80fd5b7f4e487b71000000000000000000000000000000000000000000000000000000005f52604160045260245ffd5b6107fb82610699565b810181811067ffffffffffffffff8211171561081a576108196107c5565b5b80604052505050565b5f61082c610602565b905061083882826107f2565b919050565b5f67ffffffffffffffff821115610857576108566107c5565b5b61086082610699565b9050602081019050919050565b828183375f83830152505050565b5f61088d6108888461083d565b610823565b9050828152602081018484840111156108a9576108a86107c1565b5b6108b484828561086d565b509392505050565b5f82601f8301126108d0576108cf6107bd565b5b81356108e084826020860161087b565b91505092915050565b5f805f805f60a086880312156109025761090161060b565b5b5f86013567ffffffffffffffff81111561091f5761091e61060f565b5b61092b888289016108bc565b955050602086013567ffffffffffffffff81111561094c5761094b61060f565b5b610958888289016108bc565b945050604061096988828901610632565b935050606086013567ffffffffffffffff81111561098a5761098961060f565b5b610996888289016108bc565b92505060806109a788828901610632565b9150509295509295909350565b5f6020820190506109c75f8301846106e1565b92915050565b7f4e487b71000000000000000000000000000000000000000000000000000000005f52602260045260245ffd5b5f6002820490506001821680610a1157607f821691505b602082108103610a2457610a236109cd565b5b50919050565b5f819050815f5260205f209050919050565b5f6020601f8301049050919050565b5f82821b905092915050565b5f60088302610a867fffffffffffffffffffffffffffffffffffffffffffffffffffffffffffffffff82610a4b565b610a908683610a4b565b95508019841693508086168417925050509392505050565b5f819050919050565b5f610acb610ac6610ac184610613565b610aa8565b610613565b9050919050565b5f819050919050565b610ae483610ab1565b610af8610af082610ad2565b848454610a57565b825550505050565b5f90565b610b0c610b00565b610b17818484610adb565b505050565b5b81811015610b3a57610b2f5f82610b04565b600181019050610b1d565b5050565b601f821115610b7f57610b5081610a2a565b610b5984610a3c565b81016020851015610b68578190505b610b7c610b7485610a3c565b830182610b1c565b50505b505050565b5f82821c905092915050565b5f610b9f5f1984600802610b84565b1980831691505092915050565b5f610bb78383610b90565b9150826002028217905092915050565b610bd082610671565b67ffffffffffffffff811115610be957610be86107c5565b5b610bf382546109fa565b610bfe828285610b3e565b5f60209050601f831160018114610c2f575f8415610c1d578287015190505b610c278582610bac565b865550610c8e565b601f198416610c3d86610a2a565b5f5b82811015610c6457848901518255600182019150602085019450602081019050610c3f565b86831015610c815784890151610c7d601f891682610b90565b8355505b6001600288020188555050505b505050505050565b7f50726f7065727479206973206e6f7420666f722073616c6500000000000000005f82015250565b5f610cca60188361067b565b9150610cd582610c96565b602082019050919050565b5f6020820190508181035f830152610cf781610cbe565b9050919050565b7f496e73756666696369656e742066756e647300000000000000000000000000005f82015250565b5f610d3260128361067b565b9150610d3d82610cfe565b602082019050919050565b5f6020820190508181035f830152610d5f81610d26565b905091905056fea264697066735822122068d4e6315692b39fbe77179f634407f6e6e4c608f791f27503123f75c8aa2ebc64736f6c634300081a0033",
					"opcodes": "PUSH1 0x80 PUSH1 0x40 MSTORE CALLVALUE DUP1 ISZERO PUSH1 0xE JUMPI PUSH0 DUP1 REVERT JUMPDEST POP PUSH2 0xD9C DUP1 PUSH2 0x1C PUSH0 CODECOPY PUSH0 RETURN INVALID PUSH1 0x80 PUSH1 0x40 MSTORE PUSH1 0x4 CALLDATASIZE LT PUSH2 0x3E JUMPI PUSH0 CALLDATALOAD PUSH1 0xE0 SHR DUP1 PUSH4 0xAFD486F EQ PUSH2 0x42 JUMPI DUP1 PUSH4 0xCC03E36 EQ PUSH2 0x83 JUMPI DUP1 PUSH4 0xC960DE2C EQ PUSH2 0xAB JUMPI DUP1 PUSH4 0xF0E29636 EQ PUSH2 0xE7 JUMPI JUMPDEST PUSH0 DUP1 REVERT JUMPDEST CALLVALUE DUP1 ISZERO PUSH2 0x4D JUMPI PUSH0 DUP1 REVERT JUMPDEST POP PUSH2 0x68 PUSH1 0x4 DUP1 CALLDATASIZE SUB DUP2 ADD SWAP1 PUSH2 0x63 SWAP2 SWAP1 PUSH2 0x646 JUMP JUMPDEST PUSH2 0x103 JUMP JUMPDEST PUSH1 0x40 MLOAD PUSH2 0x7A SWAP7 SWAP6 SWAP5 SWAP4 SWAP3 SWAP2 SWAP1 PUSH2 0x749 JUMP JUMPDEST PUSH1 0x40 MLOAD DUP1 SWAP2 SUB SWAP1 RETURN JUMPDEST CALLVALUE DUP1 ISZERO PUSH2 0x8E JUMPI PUSH0 DUP1 REVERT JUMPDEST POP PUSH2 0xA9 PUSH1 0x4 DUP1 CALLDATASIZE SUB DUP2 ADD SWAP1 PUSH2 0xA4 SWAP2 SWAP1 PUSH2 0x8E9 JUMP JUMPDEST PUSH2 0x2F8 JUMP JUMPDEST STOP JUMPDEST CALLVALUE DUP1 ISZERO PUSH2 0xB6 JUMPI PUSH0 DUP1 REVERT JUMPDEST POP PUSH2 0xD1 PUSH1 0x4 DUP1 CALLDATASIZE SUB DUP2 ADD SWAP1 PUSH2 0xCC SWAP2 SWAP1 PUSH2 0x646 JUMP JUMPDEST PUSH2 0x433 JUMP JUMPDEST PUSH1 0x40 MLOAD PUSH2 0xDE SWAP2 SWAP1 PUSH2 0x9B4 JUMP JUMPDEST PUSH1 0x40 MLOAD DUP1 SWAP2 SUB SWAP1 RETURN JUMPDEST PUSH2 0x101 PUSH1 0x4 DUP1 CALLDATASIZE SUB DUP2 ADD SWAP1 PUSH2 0xFC SWAP2 SWAP1 PUSH2 0x646 JUMP JUMPDEST PUSH2 0x453 JUMP JUMPDEST STOP JUMPDEST PUSH0 PUSH1 0x20 MSTORE DUP1 PUSH0 MSTORE PUSH1 0x40 PUSH0 KECCAK256 PUSH0 SWAP2 POP SWAP1 POP DUP1 PUSH0 ADD DUP1 SLOAD PUSH2 0x121 SWAP1 PUSH2 0x9FA JUMP JUMPDEST DUP1 PUSH1 0x1F ADD PUSH1 0x20 DUP1 SWAP2 DIV MUL PUSH1 0x20 ADD PUSH1 0x40 MLOAD SWAP1 DUP2 ADD PUSH1 0x40 MSTORE DUP1 SWAP3 SWAP2 SWAP1 DUP2 DUP2 MSTORE PUSH1 0x20 ADD DUP3 DUP1 SLOAD PUSH2 0x14D SWAP1 PUSH2 0x9FA JUMP JUMPDEST DUP1 ISZERO PUSH2 0x198 JUMPI DUP1 PUSH1 0x1F LT PUSH2 0x16F JUMPI PUSH2 0x100 DUP1 DUP4 SLOAD DIV MUL DUP4 MSTORE SWAP2 PUSH1 0x20 ADD SWAP2 PUSH2 0x198 JUMP JUMPDEST DUP3 ADD SWAP2 SWAP1 PUSH0 MSTORE PUSH1 0x20 PUSH0 KECCAK256 SWAP1 JUMPDEST DUP2 SLOAD DUP2 MSTORE SWAP1 PUSH1 0x1 ADD SWAP1 PUSH1 0x20 ADD DUP1 DUP4 GT PUSH2 0x17B JUMPI DUP3 SWAP1 SUB PUSH1 0x1F AND DUP3 ADD SWAP2 JUMPDEST POP POP POP POP POP SWAP1 DUP1 PUSH1 0x1 ADD DUP1 SLOAD PUSH2 0x1AD SWAP1 PUSH2 0x9FA JUMP JUMPDEST DUP1 PUSH1 0x1F ADD PUSH1 0x20 DUP1 SWAP2 DIV MUL PUSH1 0x20 ADD PUSH1 0x40 MLOAD SWAP1 DUP2 ADD PUSH1 0x40 MSTORE DUP1 SWAP3 SWAP2 SWAP1 DUP2 DUP2 MSTORE PUSH1 0x20 ADD DUP3 DUP1 SLOAD PUSH2 0x1D9 SWAP1 PUSH2 0x9FA JUMP JUMPDEST DUP1 ISZERO PUSH2 0x224 JUMPI DUP1 PUSH1 0x1F LT PUSH2 0x1FB JUMPI PUSH2 0x100 DUP1 DUP4 SLOAD DIV MUL DUP4 MSTORE SWAP2 PUSH1 0x20 ADD SWAP2 PUSH2 0x224 JUMP JUMPDEST DUP3 ADD SWAP2 SWAP1 PUSH0 MSTORE PUSH1 0x20 PUSH0 KECCAK256 SWAP1 JUMPDEST DUP2 SLOAD DUP2 MSTORE SWAP1 PUSH1 0x1 ADD SWAP1 PUSH1 0x20 ADD DUP1 DUP4 GT PUSH2 0x207 JUMPI DUP3 SWAP1 SUB PUSH1 0x1F AND DUP3 ADD SWAP2 JUMPDEST POP POP POP POP POP SWAP1 DUP1 PUSH1 0x2 ADD SLOAD SWAP1 DUP1 PUSH1 0x3 ADD PUSH0 SWAP1 SLOAD SWAP1 PUSH2 0x100 EXP SWAP1 DIV PUSH1 0xFF AND SWAP1 DUP1 PUSH1 0x3 ADD PUSH1 0x1 SWAP1 SLOAD SWAP1 PUSH2 0x100 EXP SWAP1 DIV PUSH20 0xFFFFFFFFFFFFFFFFFFFFFFFFFFFFFFFFFFFFFFFF AND SWAP1 DUP1 PUSH1 0x4 ADD DUP1 SLOAD PUSH2 0x277 SWAP1 PUSH2 0x9FA JUMP JUMPDEST DUP1 PUSH1 0x1F ADD PUSH1 0x20 DUP1 SWAP2 DIV MUL PUSH1 0x20 ADD PUSH1 0x40 MLOAD SWAP1 DUP2 ADD PUSH1 0x40 MSTORE DUP1 SWAP3 SWAP2 SWAP1 DUP2 DUP2 MSTORE PUSH1 0x20 ADD DUP3 DUP1 SLOAD PUSH2 0x2A3 SWAP1 PUSH2 0x9FA JUMP JUMPDEST DUP1 ISZERO PUSH2 0x2EE JUMPI DUP1 PUSH1 0x1F LT PUSH2 0x2C5 JUMPI PUSH2 0x100 DUP1 DUP4 SLOAD DIV MUL DUP4 MSTORE SWAP2 PUSH1 0x20 ADD SWAP2 PUSH2 0x2EE JUMP JUMPDEST DUP3 ADD SWAP2 SWAP1 PUSH0 MSTORE PUSH1 0x20 PUSH0 KECCAK256 SWAP1 JUMPDEST DUP2 SLOAD DUP2 MSTORE SWAP1 PUSH1 0x1 ADD SWAP1 PUSH1 0x20 ADD DUP1 DUP4 GT PUSH2 0x2D1 JUMPI DUP3 SWAP1 SUB PUSH1 0x1F AND DUP3 ADD SWAP2 JUMPDEST POP POP POP POP POP SWAP1 POP DUP7 JUMP JUMPDEST PUSH0 PUSH1 0x40 MLOAD DUP1 PUSH1 0xC0 ADD PUSH1 0x40 MSTORE DUP1 DUP8 DUP2 MSTORE PUSH1 0x20 ADD DUP7 DUP2 MSTORE PUSH1 0x20 ADD DUP6 DUP2 MSTORE PUSH1 0x20 ADD PUSH1 0x1 ISZERO ISZERO DUP2 MSTORE PUSH1 0x20 ADD CALLER PUSH20 0xFFFFFFFFFFFFFFFFFFFFFFFFFFFFFFFFFFFFFFFF AND DUP2 MSTORE PUSH1 0x20 ADD DUP5 DUP2 MSTORE POP SWAP1 POP DUP1 PUSH0 DUP1 DUP5 DUP2 MSTORE PUSH1 0x20 ADD SWAP1 DUP2 MSTORE PUSH1 0x20 ADD PUSH0 KECCAK256 PUSH0 DUP3 ADD MLOAD DUP2 PUSH0 ADD SWAP1 DUP2 PUSH2 0x365 SWAP2 SWAP1 PUSH2 0xBC7 JUMP JUMPDEST POP PUSH1 0x20 DUP3 ADD MLOAD DUP2 PUSH1 0x1 ADD SWAP1 DUP2 PUSH2 0x37B SWAP2 SWAP1 PUSH2 0xBC7 JUMP JUMPDEST POP PUSH1 0x40 DUP3 ADD MLOAD DUP2 PUSH1 0x2 ADD SSTORE PUSH1 0x60 DUP3 ADD MLOAD DUP2 PUSH1 0x3 ADD PUSH0 PUSH2 0x100 EXP DUP2 SLOAD DUP2 PUSH1 0xFF MUL NOT AND SWAP1 DUP4 ISZERO ISZERO MUL OR SWAP1 SSTORE POP PUSH1 0x80 DUP3 ADD MLOAD DUP2 PUSH1 0x3 ADD PUSH1 0x1 PUSH2 0x100 EXP DUP2 SLOAD DUP2 PUSH20 0xFFFFFFFFFFFFFFFFFFFFFFFFFFFFFFFFFFFFFFFF MUL NOT AND SWAP1 DUP4 PUSH20 0xFFFFFFFFFFFFFFFFFFFFFFFFFFFFFFFFFFFFFFFF AND MUL OR SWAP1 SSTORE POP PUSH1 0xA0 DUP3 ADD MLOAD DUP2 PUSH1 0x4 ADD SWAP1 DUP2 PUSH2 0x401 SWAP2 SWAP1 PUSH2 0xBC7 JUMP JUMPDEST POP SWAP1 POP POP PUSH1 0x1 DUP3 SWAP1 DUP1 PUSH1 0x1 DUP2 SLOAD ADD DUP1 DUP3 SSTORE DUP1 SWAP2 POP POP PUSH1 0x1 SWAP1 SUB SWAP1 PUSH0 MSTORE PUSH1 0x20 PUSH0 KECCAK256 ADD PUSH0 SWAP1 SWAP2 SWAP1 SWAP2 SWAP1 SWAP2 POP SSTORE POP POP POP POP POP POP JUMP JUMPDEST PUSH1 0x1 DUP2 DUP2 SLOAD DUP2 LT PUSH2 0x442 JUMPI PUSH0 DUP1 REVERT JUMPDEST SWAP1 PUSH0 MSTORE PUSH1 0x20 PUSH0 KECCAK256 ADD PUSH0 SWAP2 POP SWAP1 POP SLOAD DUP2 JUMP JUMPDEST PUSH0 DUP1 PUSH0 DUP4 DUP2 MSTORE PUSH1 0x20 ADD SWAP1 DUP2 MSTORE PUSH1 0x20 ADD PUSH0 KECCAK256 SWAP1 POP DUP1 PUSH1 0x3 ADD PUSH0 SWAP1 SLOAD SWAP1 PUSH2 0x100 EXP SWAP1 DIV PUSH1 0xFF AND PUSH2 0x4B6 JUMPI PUSH1 0x40 MLOAD PUSH32 0x8C379A000000000000000000000000000000000000000000000000000000000 DUP2 MSTORE PUSH1 0x4 ADD PUSH2 0x4AD SWAP1 PUSH2 0xCE0 JUMP JUMPDEST PUSH1 0x40 MLOAD DUP1 SWAP2 SUB SWAP1 REVERT JUMPDEST CALLVALUE DUP2 PUSH1 0x2 ADD SLOAD GT ISZERO PUSH2 0x4FD JUMPI PUSH1 0x40 MLOAD PUSH32 0x8C379A000000000000000000000000000000000000000000000000000000000 DUP2 MSTORE PUSH1 0x4 ADD PUSH2 0x4F4 SWAP1 PUSH2 0xD48 JUMP JUMPDEST PUSH1 0x40 MLOAD DUP1 SWAP2 SUB SWAP1 REVERT JUMPDEST CALLER DUP2 PUSH1 0x3 ADD PUSH1 0x1 PUSH2 0x100 EXP DUP2 SLOAD DUP2 PUSH20 0xFFFFFFFFFFFFFFFFFFFFFFFFFFFFFFFFFFFFFFFF MUL NOT AND SWAP1 DUP4 PUSH20 0xFFFFFFFFFFFFFFFFFFFFFFFFFFFFFFFFFFFFFFFF AND MUL OR SWAP1 SSTORE POP PUSH0 DUP2 PUSH1 0x3 ADD PUSH0 PUSH2 0x100 EXP DUP2 SLOAD DUP2 PUSH1 0xFF MUL NOT AND SWAP1 DUP4 ISZERO ISZERO MUL OR SWAP1 SSTORE POP DUP1 PUSH1 0x3 ADD PUSH1 0x1 SWAP1 SLOAD SWAP1 PUSH2 0x100 EXP SWAP1 DIV PUSH20 0xFFFFFFFFFFFFFFFFFFFFFFFFFFFFFFFFFFFFFFFF AND PUSH20 0xFFFFFFFFFFFFFFFFFFFFFFFFFFFFFFFFFFFFFFFF AND PUSH2 0x8FC DUP3 PUSH1 0x2 ADD SLOAD SWAP1 DUP2 ISZERO MUL SWAP1 PUSH1 0x40 MLOAD PUSH0 PUSH1 0x40 MLOAD DUP1 DUP4 SUB DUP2 DUP6 DUP9 DUP9 CALL SWAP4 POP POP POP POP ISZERO DUP1 ISZERO PUSH2 0x5C6 JUMPI RETURNDATASIZE PUSH0 DUP1 RETURNDATACOPY RETURNDATASIZE PUSH0 REVERT JUMPDEST POP PUSH32 0x73D05632D7C5D108E8D22DFB9B1113D590819BE3B610F10BA6471656939FAA75 DUP3 PUSH1 0x40 MLOAD PUSH2 0x5F6 SWAP2 SWAP1 PUSH2 0x9B4 JUMP JUMPDEST PUSH1 0x40 MLOAD DUP1 SWAP2 SUB SWAP1 LOG1 POP POP JUMP JUMPDEST PUSH0 PUSH1 0x40 MLOAD SWAP1 POP SWAP1 JUMP JUMPDEST PUSH0 DUP1 REVERT JUMPDEST PUSH0 DUP1 REVERT JUMPDEST PUSH0 DUP2 SWAP1 POP SWAP2 SWAP1 POP JUMP JUMPDEST PUSH2 0x625 DUP2 PUSH2 0x613 JUMP JUMPDEST DUP2 EQ PUSH2 0x62F JUMPI PUSH0 DUP1 REVERT JUMPDEST POP JUMP JUMPDEST PUSH0 DUP2 CALLDATALOAD SWAP1 POP PUSH2 0x640 DUP2 PUSH2 0x61C JUMP JUMPDEST SWAP3 SWAP2 POP POP JUMP JUMPDEST PUSH0 PUSH1 0x20 DUP3 DUP5 SUB SLT ISZERO PUSH2 0x65B JUMPI PUSH2 0x65A PUSH2 0x60B JUMP JUMPDEST JUMPDEST PUSH0 PUSH2 0x668 DUP5 DUP3 DUP6 ADD PUSH2 0x632 JUMP JUMPDEST SWAP2 POP POP SWAP3 SWAP2 POP POP JUMP JUMPDEST PUSH0 DUP2 MLOAD SWAP1 POP SWAP2 SWAP1 POP JUMP JUMPDEST PUSH0 DUP3 DUP3 MSTORE PUSH1 0x20 DUP3 ADD SWAP1 POP SWAP3 SWAP2 POP POP JUMP JUMPDEST DUP3 DUP2 DUP4 MCOPY PUSH0 DUP4 DUP4 ADD MSTORE POP POP POP JUMP JUMPDEST PUSH0 PUSH1 0x1F NOT PUSH1 0x1F DUP4 ADD AND SWAP1 POP SWAP2 SWAP1 POP JUMP JUMPDEST PUSH0 PUSH2 0x6B3 DUP3 PUSH2 0x671 JUMP JUMPDEST PUSH2 0x6BD DUP2 DUP6 PUSH2 0x67B JUMP JUMPDEST SWAP4 POP PUSH2 0x6CD DUP2 DUP6 PUSH1 0x20 DUP7 ADD PUSH2 0x68B JUMP JUMPDEST PUSH2 0x6D6 DUP2 PUSH2 0x699 JUMP JUMPDEST DUP5 ADD SWAP2 POP POP SWAP3 SWAP2 POP POP JUMP JUMPDEST PUSH2 0x6EA DUP2 PUSH2 0x613 JUMP JUMPDEST DUP3 MSTORE POP POP JUMP JUMPDEST PUSH0 DUP2 ISZERO ISZERO SWAP1 POP SWAP2 SWAP1 POP JUMP JUMPDEST PUSH2 0x704 DUP2 PUSH2 0x6F0 JUMP JUMPDEST DUP3 MSTORE POP POP JUMP JUMPDEST PUSH0 PUSH20 0xFFFFFFFFFFFFFFFFFFFFFFFFFFFFFFFFFFFFFFFF DUP3 AND SWAP1 POP SWAP2 SWAP1 POP JUMP JUMPDEST PUSH0 PUSH2 0x733 DUP3 PUSH2 0x70A JUMP JUMPDEST SWAP1 POP SWAP2 SWAP1 POP JUMP JUMPDEST PUSH2 0x743 DUP2 PUSH2 0x729 JUMP JUMPDEST DUP3 MSTORE POP POP JUMP JUMPDEST PUSH0 PUSH1 0xC0 DUP3 ADD SWAP1 POP DUP2 DUP2 SUB PUSH0 DUP4 ADD MSTORE PUSH2 0x761 DUP2 DUP10 PUSH2 0x6A9 JUMP JUMPDEST SWAP1 POP DUP2 DUP2 SUB PUSH1 0x20 DUP4 ADD MSTORE PUSH2 0x775 DUP2 DUP9 PUSH2 0x6A9 JUMP JUMPDEST SWAP1 POP PUSH2 0x784 PUSH1 0x40 DUP4 ADD DUP8 PUSH2 0x6E1 JUMP JUMPDEST PUSH2 0x791 PUSH1 0x60 DUP4 ADD DUP7 PUSH2 0x6FB JUMP JUMPDEST PUSH2 0x79E PUSH1 0x80 DUP4 ADD DUP6 PUSH2 0x73A JUMP JUMPDEST DUP2 DUP2 SUB PUSH1 0xA0 DUP4 ADD MSTORE PUSH2 0x7B0 DUP2 DUP5 PUSH2 0x6A9 JUMP JUMPDEST SWAP1 POP SWAP8 SWAP7 POP POP POP POP POP POP POP JUMP JUMPDEST PUSH0 DUP1 REVERT JUMPDEST PUSH0 DUP1 REVERT JUMPDEST PUSH32 0x4E487B7100000000000000000000000000000000000000000000000000000000 PUSH0 MSTORE PUSH1 0x41 PUSH1 0x4 MSTORE PUSH1 0x24 PUSH0 REVERT JUMPDEST PUSH2 0x7FB DUP3 PUSH2 0x699 JUMP JUMPDEST DUP2 ADD DUP2 DUP2 LT PUSH8 0xFFFFFFFFFFFFFFFF DUP3 GT OR ISZERO PUSH2 0x81A JUMPI PUSH2 0x819 PUSH2 0x7C5 JUMP JUMPDEST JUMPDEST DUP1 PUSH1 0x40 MSTORE POP POP POP JUMP JUMPDEST PUSH0 PUSH2 0x82C PUSH2 0x602 JUMP JUMPDEST SWAP1 POP PUSH2 0x838 DUP3 DUP3 PUSH2 0x7F2 JUMP JUMPDEST SWAP2 SWAP1 POP JUMP JUMPDEST PUSH0 PUSH8 0xFFFFFFFFFFFFFFFF DUP3 GT ISZERO PUSH2 0x857 JUMPI PUSH2 0x856 PUSH2 0x7C5 JUMP JUMPDEST JUMPDEST PUSH2 0x860 DUP3 PUSH2 0x699 JUMP JUMPDEST SWAP1 POP PUSH1 0x20 DUP2 ADD SWAP1 POP SWAP2 SWAP1 POP JUMP JUMPDEST DUP3 DUP2 DUP4 CALLDATACOPY PUSH0 DUP4 DUP4 ADD MSTORE POP POP POP JUMP JUMPDEST PUSH0 PUSH2 0x88D PUSH2 0x888 DUP5 PUSH2 0x83D JUMP JUMPDEST PUSH2 0x823 JUMP JUMPDEST SWAP1 POP DUP3 DUP2 MSTORE PUSH1 0x20 DUP2 ADD DUP5 DUP5 DUP5 ADD GT ISZERO PUSH2 0x8A9 JUMPI PUSH2 0x8A8 PUSH2 0x7C1 JUMP JUMPDEST JUMPDEST PUSH2 0x8B4 DUP5 DUP3 DUP6 PUSH2 0x86D JUMP JUMPDEST POP SWAP4 SWAP3 POP POP POP JUMP JUMPDEST PUSH0 DUP3 PUSH1 0x1F DUP4 ADD SLT PUSH2 0x8D0 JUMPI PUSH2 0x8CF PUSH2 0x7BD JUMP JUMPDEST JUMPDEST DUP2 CALLDATALOAD PUSH2 0x8E0 DUP5 DUP3 PUSH1 0x20 DUP7 ADD PUSH2 0x87B JUMP JUMPDEST SWAP2 POP POP SWAP3 SWAP2 POP POP JUMP JUMPDEST PUSH0 DUP1 PUSH0 DUP1 PUSH0 PUSH1 0xA0 DUP7 DUP9 SUB SLT ISZERO PUSH2 0x902 JUMPI PUSH2 0x901 PUSH2 0x60B JUMP JUMPDEST JUMPDEST PUSH0 DUP7 ADD CALLDATALOAD PUSH8 0xFFFFFFFFFFFFFFFF DUP2 GT ISZERO PUSH2 0x91F JUMPI PUSH2 0x91E PUSH2 0x60F JUMP JUMPDEST JUMPDEST PUSH2 0x92B DUP9 DUP3 DUP10 ADD PUSH2 0x8BC JUMP JUMPDEST SWAP6 POP POP PUSH1 0x20 DUP7 ADD CALLDATALOAD PUSH8 0xFFFFFFFFFFFFFFFF DUP2 GT ISZERO PUSH2 0x94C JUMPI PUSH2 0x94B PUSH2 0x60F JUMP JUMPDEST JUMPDEST PUSH2 0x958 DUP9 DUP3 DUP10 ADD PUSH2 0x8BC JUMP JUMPDEST SWAP5 POP POP PUSH1 0x40 PUSH2 0x969 DUP9 DUP3 DUP10 ADD PUSH2 0x632 JUMP JUMPDEST SWAP4 POP POP PUSH1 0x60 DUP7 ADD CALLDATALOAD PUSH8 0xFFFFFFFFFFFFFFFF DUP2 GT ISZERO PUSH2 0x98A JUMPI PUSH2 0x989 PUSH2 0x60F JUMP JUMPDEST JUMPDEST PUSH2 0x996 DUP9 DUP3 DUP10 ADD PUSH2 0x8BC JUMP JUMPDEST SWAP3 POP POP PUSH1 0x80 PUSH2 0x9A7 DUP9 DUP3 DUP10 ADD PUSH2 0x632 JUMP JUMPDEST SWAP2 POP POP SWAP3 SWAP6 POP SWAP3 SWAP6 SWAP1 SWAP4 POP JUMP JUMPDEST PUSH0 PUSH1 0x20 DUP3 ADD SWAP1 POP PUSH2 0x9C7 PUSH0 DUP4 ADD DUP5 PUSH2 0x6E1 JUMP JUMPDEST SWAP3 SWAP2 POP POP JUMP JUMPDEST PUSH32 0x4E487B7100000000000000000000000000000000000000000000000000000000 PUSH0 MSTORE PUSH1 0x22 PUSH1 0x4 MSTORE PUSH1 0x24 PUSH0 REVERT JUMPDEST PUSH0 PUSH1 0x2 DUP3 DIV SWAP1 POP PUSH1 0x1 DUP3 AND DUP1 PUSH2 0xA11 JUMPI PUSH1 0x7F DUP3 AND SWAP2 POP JUMPDEST PUSH1 0x20 DUP3 LT DUP2 SUB PUSH2 0xA24 JUMPI PUSH2 0xA23 PUSH2 0x9CD JUMP JUMPDEST JUMPDEST POP SWAP2 SWAP1 POP JUMP JUMPDEST PUSH0 DUP2 SWAP1 POP DUP2 PUSH0 MSTORE PUSH1 0x20 PUSH0 KECCAK256 SWAP1 POP SWAP2 SWAP1 POP JUMP JUMPDEST PUSH0 PUSH1 0x20 PUSH1 0x1F DUP4 ADD DIV SWAP1 POP SWAP2 SWAP1 POP JUMP JUMPDEST PUSH0 DUP3 DUP3 SHL SWAP1 POP SWAP3 SWAP2 POP POP JUMP JUMPDEST PUSH0 PUSH1 0x8 DUP4 MUL PUSH2 0xA86 PUSH32 0xFFFFFFFFFFFFFFFFFFFFFFFFFFFFFFFFFFFFFFFFFFFFFFFFFFFFFFFFFFFFFFFF DUP3 PUSH2 0xA4B JUMP JUMPDEST PUSH2 0xA90 DUP7 DUP4 PUSH2 0xA4B JUMP JUMPDEST SWAP6 POP DUP1 NOT DUP5 AND SWAP4 POP DUP1 DUP7 AND DUP5 OR SWAP3 POP POP POP SWAP4 SWAP3 POP POP POP JUMP JUMPDEST PUSH0 DUP2 SWAP1 POP SWAP2 SWAP1 POP JUMP JUMPDEST PUSH0 PUSH2 0xACB PUSH2 0xAC6 PUSH2 0xAC1 DUP5 PUSH2 0x613 JUMP JUMPDEST PUSH2 0xAA8 JUMP JUMPDEST PUSH2 0x613 JUMP JUMPDEST SWAP1 POP SWAP2 SWAP1 POP JUMP JUMPDEST PUSH0 DUP2 SWAP1 POP SWAP2 SWAP1 POP JUMP JUMPDEST PUSH2 0xAE4 DUP4 PUSH2 0xAB1 JUMP JUMPDEST PUSH2 0xAF8 PUSH2 0xAF0 DUP3 PUSH2 0xAD2 JUMP JUMPDEST DUP5 DUP5 SLOAD PUSH2 0xA57 JUMP JUMPDEST DUP3 SSTORE POP POP POP POP JUMP JUMPDEST PUSH0 SWAP1 JUMP JUMPDEST PUSH2 0xB0C PUSH2 0xB00 JUMP JUMPDEST PUSH2 0xB17 DUP2 DUP5 DUP5 PUSH2 0xADB JUMP JUMPDEST POP POP POP JUMP JUMPDEST JUMPDEST DUP2 DUP2 LT ISZERO PUSH2 0xB3A JUMPI PUSH2 0xB2F PUSH0 DUP3 PUSH2 0xB04 JUMP JUMPDEST PUSH1 0x1 DUP2 ADD SWAP1 POP PUSH2 0xB1D JUMP JUMPDEST POP POP JUMP JUMPDEST PUSH1 0x1F DUP3 GT ISZERO PUSH2 0xB7F JUMPI PUSH2 0xB50 DUP2 PUSH2 0xA2A JUMP JUMPDEST PUSH2 0xB59 DUP5 PUSH2 0xA3C JUMP JUMPDEST DUP2 ADD PUSH1 0x20 DUP6 LT ISZERO PUSH2 0xB68 JUMPI DUP2 SWAP1 POP JUMPDEST PUSH2 0xB7C PUSH2 0xB74 DUP6 PUSH2 0xA3C JUMP JUMPDEST DUP4 ADD DUP3 PUSH2 0xB1C JUMP JUMPDEST POP POP JUMPDEST POP POP POP JUMP JUMPDEST PUSH0 DUP3 DUP3 SHR SWAP1 POP SWAP3 SWAP2 POP POP JUMP JUMPDEST PUSH0 PUSH2 0xB9F PUSH0 NOT DUP5 PUSH1 0x8 MUL PUSH2 0xB84 JUMP JUMPDEST NOT DUP1 DUP4 AND SWAP2 POP POP SWAP3 SWAP2 POP POP JUMP JUMPDEST PUSH0 PUSH2 0xBB7 DUP4 DUP4 PUSH2 0xB90 JUMP JUMPDEST SWAP2 POP DUP3 PUSH1 0x2 MUL DUP3 OR SWAP1 POP SWAP3 SWAP2 POP POP JUMP JUMPDEST PUSH2 0xBD0 DUP3 PUSH2 0x671 JUMP JUMPDEST PUSH8 0xFFFFFFFFFFFFFFFF DUP2 GT ISZERO PUSH2 0xBE9 JUMPI PUSH2 0xBE8 PUSH2 0x7C5 JUMP JUMPDEST JUMPDEST PUSH2 0xBF3 DUP3 SLOAD PUSH2 0x9FA JUMP JUMPDEST PUSH2 0xBFE DUP3 DUP3 DUP6 PUSH2 0xB3E JUMP JUMPDEST PUSH0 PUSH1 0x20 SWAP1 POP PUSH1 0x1F DUP4 GT PUSH1 0x1 DUP2 EQ PUSH2 0xC2F JUMPI PUSH0 DUP5 ISZERO PUSH2 0xC1D JUMPI DUP3 DUP8 ADD MLOAD SWAP1 POP JUMPDEST PUSH2 0xC27 DUP6 DUP3 PUSH2 0xBAC JUMP JUMPDEST DUP7 SSTORE POP PUSH2 0xC8E JUMP JUMPDEST PUSH1 0x1F NOT DUP5 AND PUSH2 0xC3D DUP7 PUSH2 0xA2A JUMP JUMPDEST PUSH0 JUMPDEST DUP3 DUP2 LT ISZERO PUSH2 0xC64 JUMPI DUP5 DUP10 ADD MLOAD DUP3 SSTORE PUSH1 0x1 DUP3 ADD SWAP2 POP PUSH1 0x20 DUP6 ADD SWAP5 POP PUSH1 0x20 DUP2 ADD SWAP1 POP PUSH2 0xC3F JUMP JUMPDEST DUP7 DUP4 LT ISZERO PUSH2 0xC81 JUMPI DUP5 DUP10 ADD MLOAD PUSH2 0xC7D PUSH1 0x1F DUP10 AND DUP3 PUSH2 0xB90 JUMP JUMPDEST DUP4 SSTORE POP JUMPDEST PUSH1 0x1 PUSH1 0x2 DUP9 MUL ADD DUP9 SSTORE POP POP POP JUMPDEST POP POP POP POP POP POP JUMP JUMPDEST PUSH32 0x50726F7065727479206973206E6F7420666F722073616C650000000000000000 PUSH0 DUP3 ADD MSTORE POP JUMP JUMPDEST PUSH0 PUSH2 0xCCA PUSH1 0x18 DUP4 PUSH2 0x67B JUMP JUMPDEST SWAP2 POP PUSH2 0xCD5 DUP3 PUSH2 0xC96 JUMP JUMPDEST PUSH1 0x20 DUP3 ADD SWAP1 POP SWAP2 SWAP1 POP JUMP JUMPDEST PUSH0 PUSH1 0x20 DUP3 ADD SWAP1 POP DUP2 DUP2 SUB PUSH0 DUP4 ADD MSTORE PUSH2 0xCF7 DUP2 PUSH2 0xCBE JUMP JUMPDEST SWAP1 POP SWAP2 SWAP1 POP JUMP JUMPDEST PUSH32 0x496E73756666696369656E742066756E64730000000000000000000000000000 PUSH0 DUP3 ADD MSTORE POP JUMP JUMPDEST PUSH0 PUSH2 0xD32 PUSH1 0x12 DUP4 PUSH2 0x67B JUMP JUMPDEST SWAP2 POP PUSH2 0xD3D DUP3 PUSH2 0xCFE JUMP JUMPDEST PUSH1 0x20 DUP3 ADD SWAP1 POP SWAP2 SWAP1 POP JUMP JUMPDEST PUSH0 PUSH1 0x20 DUP3 ADD SWAP1 POP DUP2 DUP2 SUB PUSH0 DUP4 ADD MSTORE PUSH2 0xD5F DUP2 PUSH2 0xD26 JUMP JUMPDEST SWAP1 POP SWAP2 SWAP1 POP JUMP INVALID LOG2 PUSH5 0x6970667358 0x22 SLT KECCAK256 PUSH9 0xD4E6315692B39FBE77 OR SWAP16 PUSH4 0x4407F6E6 0xE4 0xC6 ADDMOD 0xF7 SWAP2 CALLCODE PUSH22 0x3123F75C8AA2EBC64736F6C634300081A0033000000 "
				},
				"gasEstimates": {
					"creation": {
						"codeDepositCost": "696800",
						"executionCost": "726",
						"totalCost": "697526"
					},
					"external": {
						"buyproperty(uint256)": "infinite",
						"listpropertyforsale(string,string,uint256,string,uint256)": "infinite",
						"propertyID(uint256)": "infinite",
						"propertylist(uint256)": "infinite"
					}
				},
				"methodIdentifiers": {
					"buyproperty(uint256)": "f0e29636",
					"listpropertyforsale(string,string,uint256,string,uint256)": "0cc03e36",
					"propertyID(uint256)": "c960de2c",
					"propertylist(uint256)": "0afd486f"
				}
			},
			"storageLayout": {
				"storage": [
					{
						"astId": 23,
						"contract": "contracts/Daulat Hussain/Real Estate Smart contract.sol:RealEstate",
						"label": "propertylist",
						"offset": 0,
						"slot": "0",
						"type": "t_mapping(t_uint256,t_struct(Property)18_storage)"
					},
					{
						"astId": 26,
						"contract": "contracts/Daulat Hussain/Real Estate Smart contract.sol:RealEstate",
						"label": "propertyID",
						"offset": 0,
						"slot": "1",
						"type": "t_array(t_uint256)dyn_storage"
					}
				],
				"types": {
					"t_address": {
						"encoding": "inplace",
						"label": "address",
						"numberOfBytes": "20"
					},
					"t_array(t_uint256)dyn_storage": {
						"base": "t_uint256",
						"encoding": "dynamic_array",
						"label": "uint256[]",
						"numberOfBytes": "32"
					},
					"t_bool": {
						"encoding": "inplace",
						"label": "bool",
						"numberOfBytes": "1"
					},
					"t_mapping(t_uint256,t_struct(Property)18_storage)": {
						"encoding": "mapping",
						"key": "t_uint256",
						"label": "mapping(uint256 => struct RealEstate.Property)",
						"numberOfBytes": "32",
						"value": "t_struct(Property)18_storage"
					},
					"t_string_storage": {
						"encoding": "bytes",
						"label": "string",
						"numberOfBytes": "32"
					},
					"t_struct(Property)18_storage": {
						"encoding": "inplace",
						"label": "struct RealEstate.Property",
						"members": [
							{
								"astId": 7,
								"contract": "contracts/Daulat Hussain/Real Estate Smart contract.sol:RealEstate",
								"label": "location",
								"offset": 0,
								"slot": "0",
								"type": "t_string_storage"
							},
							{
								"astId": 9,
								"contract": "contracts/Daulat Hussain/Real Estate Smart contract.sol:RealEstate",
								"label": "description",
								"offset": 0,
								"slot": "1",
								"type": "t_string_storage"
							},
							{
								"astId": 11,
								"contract": "contracts/Daulat Hussain/Real Estate Smart contract.sol:RealEstate",
								"label": "price",
								"offset": 0,
								"slot": "2",
								"type": "t_uint256"
							},
							{
								"astId": 13,
								"contract": "contracts/Daulat Hussain/Real Estate Smart contract.sol:RealEstate",
								"label": "forsale",
								"offset": 0,
								"slot": "3",
								"type": "t_bool"
							},
							{
								"astId": 15,
								"contract": "contracts/Daulat Hussain/Real Estate Smart contract.sol:RealEstate",
								"label": "owner",
								"offset": 1,
								"slot": "3",
								"type": "t_address"
							},
							{
								"astId": 17,
								"contract": "contracts/Daulat Hussain/Real Estate Smart contract.sol:RealEstate",
								"label": "title",
								"offset": 0,
								"slot": "4",
								"type": "t_string_storage"
							}
						],
						"numberOfBytes": "160"
					},
					"t_uint256": {
						"encoding": "inplace",
						"label": "uint256",
						"numberOfBytes": "32"
					}
				}
			},
			"userdoc": {
				"kind": "user",
				"methods": {},
				"version": 1
			}
		}
	}
}