{
	"contracts/Daulat Hussain/ABI Encode.sol": {
		"AbiEncode": {
			"abi": [
				{
					"inputs": [
						{
							"internalType": "address",
							"name": "to",
							"type": "address"
						},
						{
							"internalType": "uint256",
							"name": "amount",
							"type": "uint256"
						}
					],
					"name": "encodeCall",
					"outputs": [
						{
							"internalType": "bytes",
							"name": "",
							"type": "bytes"
						}
					],
					"stateMutability": "pure",
					"type": "function"
				},
				{
					"inputs": [
						{
							"internalType": "address",
							"name": "to",
							"type": "address"
						},
						{
							"internalType": "uint256",
							"name": "amount",
							"type": "uint256"
						}
					],
					"name": "encodeWithSignature",
					"outputs": [
						{
							"internalType": "bytes",
							"name": "",
							"type": "bytes"
						}
					],
					"stateMutability": "pure",
					"type": "function"
				},
				{
					"inputs": [
						{
							"internalType": "address",
							"name": "to",
							"type": "address"
						},
						{
							"internalType": "uint256",
							"name": "amount",
							"type": "uint256"
						}
					],
					"name": "encodedWithSelector",
					"outputs": [
						{
							"internalType": "bytes",
							"name": "",
							"type": "bytes"
						}
					],
					"stateMutability": "pure",
					"type": "function"
				},
				{
					"inputs": [
						{
							"internalType": "address",
							"name": "_contract",
							"type": "address"
						},
						{
							"internalType": "bytes",
							"name": "data",
							"type": "bytes"
						}
					],
					"name": "test",
					"outputs": [],
					"stateMutability": "nonpayable",
					"type": "function"
				}
			],
			"devdoc": {
				"kind": "dev",
				"methods": {},
				"version": 1
			},
			"evm": {
				"assembly": "    /* \"contracts/Daulat Hussain/ABI Encode.sol\":215:1189  contract AbiEncode{... */\n  mstore(0x40, 0x80)\n  callvalue\n  dup1\n  iszero\n  tag_1\n  jumpi\n  0x00\n  dup1\n  revert\ntag_1:\n  pop\n  dataSize(sub_0)\n  dup1\n  dataOffset(sub_0)\n  0x00\n  codecopy\n  0x00\n  return\nstop\n\nsub_0: assembly {\n        /* \"contracts/Daulat Hussain/ABI Encode.sol\":215:1189  contract AbiEncode{... */\n      mstore(0x40, 0x80)\n      callvalue\n      dup1\n      iszero\n      tag_1\n      jumpi\n      0x00\n      dup1\n      revert\n    tag_1:\n      pop\n      jumpi(tag_2, lt(calldatasize, 0x04))\n      shr(0xe0, calldataload(0x00))\n      dup1\n      0x25adff1c\n      eq\n      tag_3\n      jumpi\n      dup1\n      0x4ffbf3be\n      eq\n      tag_4\n      jumpi\n      dup1\n      0x7e3b06fb\n      eq\n      tag_5\n      jumpi\n      dup1\n      0x93e01418\n      eq\n      tag_6\n      jumpi\n    tag_2:\n      0x00\n      dup1\n      revert\n        /* \"contracts/Daulat Hussain/ABI Encode.sol\":984:1186  function encodeCall(address to, uint amount) external pure returns (bytes memory){... */\n    tag_3:\n      tag_7\n      0x04\n      dup1\n      calldatasize\n      sub\n      dup2\n      add\n      swap1\n      tag_8\n      swap2\n      swap1\n      tag_9\n      jump\t// in\n    tag_8:\n      tag_10\n      jump\t// in\n    tag_7:\n      mload(0x40)\n      tag_11\n      swap2\n      swap1\n      tag_12\n      jump\t// in\n    tag_11:\n      mload(0x40)\n      dup1\n      swap2\n      sub\n      swap1\n      return\n        /* \"contracts/Daulat Hussain/ABI Encode.sol\":688:978  function encodedWithSelector(address to, uint amount)... */\n    tag_4:\n      tag_13\n      0x04\n      dup1\n      calldatasize\n      sub\n      dup2\n      add\n      swap1\n      tag_14\n      swap2\n      swap1\n      tag_9\n      jump\t// in\n    tag_14:\n      tag_15\n      jump\t// in\n    tag_13:\n      mload(0x40)\n      tag_16\n      swap2\n      swap1\n      tag_12\n      jump\t// in\n    tag_16:\n      mload(0x40)\n      dup1\n      swap2\n      sub\n      swap1\n      return\n        /* \"contracts/Daulat Hussain/ABI Encode.sol\":401:676  function encodeWithSignature(address to, uint amount)... */\n    tag_5:\n      tag_17\n      0x04\n      dup1\n      calldatasize\n      sub\n      dup2\n      add\n      swap1\n      tag_18\n      swap2\n      swap1\n      tag_9\n      jump\t// in\n    tag_18:\n      tag_19\n      jump\t// in\n    tag_17:\n      mload(0x40)\n      tag_20\n      swap2\n      swap1\n      tag_12\n      jump\t// in\n    tag_20:\n      mload(0x40)\n      dup1\n      swap2\n      sub\n      swap1\n      return\n        /* \"contracts/Daulat Hussain/ABI Encode.sol\":240:393  function test(address _contract, bytes calldata data) external {... */\n    tag_6:\n      tag_21\n      0x04\n      dup1\n      calldatasize\n      sub\n      dup2\n      add\n      swap1\n      tag_22\n      swap2\n      swap1\n      tag_23\n      jump\t// in\n    tag_22:\n      tag_24\n      jump\t// in\n    tag_21:\n      stop\n        /* \"contracts/Daulat Hussain/ABI Encode.sol\":984:1186  function encodeCall(address to, uint amount) external pure returns (bytes memory){... */\n    tag_10:\n        /* \"contracts/Daulat Hussain/ABI Encode.sol\":1052:1064  bytes memory */\n      0x60\n        /* \"contracts/Daulat Hussain/ABI Encode.sol\":1166:1168  to */\n      dup3\n        /* \"contracts/Daulat Hussain/ABI Encode.sol\":1170:1176  amount */\n      dup3\n        /* \"contracts/Daulat Hussain/ABI Encode.sol\":1133:1178  abi.encodeCall(IERC20.transfer, (to, amount)) */\n      add(0x24, mload(0x40))\n      tag_26\n      swap3\n      swap2\n      swap1\n      tag_27\n      jump\t// in\n    tag_26:\n      mload(0x40)\n      0x20\n      dup2\n      dup4\n      sub\n      sub\n      dup2\n      mstore\n      swap1\n      0x40\n      mstore\n      shl(0xe0, 0xa9059cbb)\n      0x20\n      dup3\n      add\n      dup1\n      mload\n      0xffffffffffffffffffffffffffffffffffffffffffffffffffffffff\n      dup4\n      dup2\n      dup4\n      and\n      or\n      dup4\n      mstore\n      pop\n      pop\n      pop\n      pop\n        /* \"contracts/Daulat Hussain/ABI Encode.sol\":1126:1178  return abi.encodeCall(IERC20.transfer, (to, amount)) */\n      swap1\n      pop\n        /* \"contracts/Daulat Hussain/ABI Encode.sol\":984:1186  function encodeCall(address to, uint amount) external pure returns (bytes memory){... */\n      swap3\n      swap2\n      pop\n      pop\n      jump\t// out\n        /* \"contracts/Daulat Hussain/ABI Encode.sol\":688:978  function encodedWithSelector(address to, uint amount)... */\n    tag_15:\n        /* \"contracts/Daulat Hussain/ABI Encode.sol\":792:804  bytes memory */\n      0x60\n        /* \"contracts/Daulat Hussain/ABI Encode.sol\":929:953  IERC20.transfer.selector */\n      shl(0xe0, 0xa9059cbb)\n        /* \"contracts/Daulat Hussain/ABI Encode.sol\":955:957  to */\n      dup4\n        /* \"contracts/Daulat Hussain/ABI Encode.sol\":959:965  amount */\n      dup4\n        /* \"contracts/Daulat Hussain/ABI Encode.sol\":906:966  abi.encodeWithSelector(IERC20.transfer.selector, to, amount) */\n      add(0x24, mload(0x40))\n      tag_29\n      swap3\n      swap2\n      swap1\n      tag_27\n      jump\t// in\n    tag_29:\n      mload(0x40)\n      0x20\n      dup2\n      dup4\n      sub\n      sub\n      dup2\n      mstore\n      swap1\n      0x40\n      mstore\n      swap1\n      not(0xffffffffffffffffffffffffffffffffffffffffffffffffffffffff)\n      and\n      0x20\n      dup3\n      add\n      dup1\n      mload\n      0xffffffffffffffffffffffffffffffffffffffffffffffffffffffff\n      dup4\n      dup2\n      dup4\n      and\n      or\n      dup4\n      mstore\n      pop\n      pop\n      pop\n      pop\n        /* \"contracts/Daulat Hussain/ABI Encode.sol\":899:966  return abi.encodeWithSelector(IERC20.transfer.selector, to, amount) */\n      swap1\n      pop\n        /* \"contracts/Daulat Hussain/ABI Encode.sol\":688:978  function encodedWithSelector(address to, uint amount)... */\n      swap3\n      swap2\n      pop\n      pop\n      jump\t// out\n        /* \"contracts/Daulat Hussain/ABI Encode.sol\":401:676  function encodeWithSignature(address to, uint amount)... */\n    tag_19:\n        /* \"contracts/Daulat Hussain/ABI Encode.sol\":505:517  bytes memory */\n      0x60\n        /* \"contracts/Daulat Hussain/ABI Encode.sol\":657:659  to */\n      dup3\n        /* \"contracts/Daulat Hussain/ABI Encode.sol\":661:667  amount */\n      dup3\n        /* \"contracts/Daulat Hussain/ABI Encode.sol\":604:668  abi.encodeWithSignature(\"transfer(address,uint256)\", to, amount) */\n      add(0x24, mload(0x40))\n      tag_31\n      swap3\n      swap2\n      swap1\n      tag_27\n      jump\t// in\n    tag_31:\n      mload(0x40)\n      0x20\n      dup2\n      dup4\n      sub\n      sub\n      dup2\n      mstore\n      swap1\n      0x40\n      mstore\n      and(not(0xffffffffffffffffffffffffffffffffffffffffffffffffffffffff), 0xa9059cbb00000000000000000000000000000000000000000000000000000000)\n      0x20\n      dup3\n      add\n      dup1\n      mload\n      0xffffffffffffffffffffffffffffffffffffffffffffffffffffffff\n      dup4\n      dup2\n      dup4\n      and\n      or\n      dup4\n      mstore\n      pop\n      pop\n      pop\n      pop\n        /* \"contracts/Daulat Hussain/ABI Encode.sol\":597:668  return abi.encodeWithSignature(\"transfer(address,uint256)\", to, amount) */\n      swap1\n      pop\n        /* \"contracts/Daulat Hussain/ABI Encode.sol\":401:676  function encodeWithSignature(address to, uint amount)... */\n      swap3\n      swap2\n      pop\n      pop\n      jump\t// out\n        /* \"contracts/Daulat Hussain/ABI Encode.sol\":240:393  function test(address _contract, bytes calldata data) external {... */\n    tag_24:\n        /* \"contracts/Daulat Hussain/ABI Encode.sol\":315:322  bool ok */\n      0x00\n        /* \"contracts/Daulat Hussain/ABI Encode.sol\":328:337  _contract */\n      dup4\n        /* \"contracts/Daulat Hussain/ABI Encode.sol\":328:342  _contract.call */\n      0xffffffffffffffffffffffffffffffffffffffff\n      and\n        /* \"contracts/Daulat Hussain/ABI Encode.sol\":343:347  data */\n      dup4\n      dup4\n        /* \"contracts/Daulat Hussain/ABI Encode.sol\":328:348  _contract.call(data) */\n      mload(0x40)\n      tag_33\n      swap3\n      swap2\n      swap1\n      tag_34\n      jump\t// in\n    tag_33:\n      0x00\n      mload(0x40)\n      dup1\n      dup4\n      sub\n      dup2\n      0x00\n      dup7\n      gas\n      call\n      swap2\n      pop\n      pop\n      returndatasize\n      dup1\n      0x00\n      dup2\n      eq\n      tag_37\n      jumpi\n      mload(0x40)\n      swap2\n      pop\n      and(add(returndatasize, 0x3f), not(0x1f))\n      dup3\n      add\n      0x40\n      mstore\n      returndatasize\n      dup3\n      mstore\n      returndatasize\n      0x00\n      0x20\n      dup5\n      add\n      returndatacopy\n      jump(tag_36)\n    tag_37:\n      0x60\n      swap2\n      pop\n    tag_36:\n      pop\n        /* \"contracts/Daulat Hussain/ABI Encode.sol\":314:348  (bool ok, ) = _contract.call(data) */\n      pop\n      swap1\n      pop\n        /* \"contracts/Daulat Hussain/ABI Encode.sol\":367:369  ok */\n      dup1\n        /* \"contracts/Daulat Hussain/ABI Encode.sol\":359:385  require(ok, \"call falied\") */\n      tag_38\n      jumpi\n      mload(0x40)\n      0x08c379a000000000000000000000000000000000000000000000000000000000\n      dup2\n      mstore\n      0x04\n      add\n      tag_39\n      swap1\n      tag_40\n      jump\t// in\n    tag_39:\n      mload(0x40)\n      dup1\n      swap2\n      sub\n      swap1\n      revert\n    tag_38:\n        /* \"contracts/Daulat Hussain/ABI Encode.sol\":303:393  {... */\n      pop\n        /* \"contracts/Daulat Hussain/ABI Encode.sol\":240:393  function test(address _contract, bytes calldata data) external {... */\n      pop\n      pop\n      pop\n      jump\t// out\n        /* \"#utility.yul\":88:205   */\n    tag_42:\n        /* \"#utility.yul\":197:198   */\n      0x00\n        /* \"#utility.yul\":194:195   */\n      dup1\n        /* \"#utility.yul\":187:199   */\n      revert\n        /* \"#utility.yul\":211:328   */\n    tag_43:\n        /* \"#utility.yul\":320:321   */\n      0x00\n        /* \"#utility.yul\":317:318   */\n      dup1\n        /* \"#utility.yul\":310:322   */\n      revert\n        /* \"#utility.yul\":334:460   */\n    tag_44:\n        /* \"#utility.yul\":371:378   */\n      0x00\n        /* \"#utility.yul\":411:453   */\n      0xffffffffffffffffffffffffffffffffffffffff\n        /* \"#utility.yul\":404:409   */\n      dup3\n        /* \"#utility.yul\":400:454   */\n      and\n        /* \"#utility.yul\":389:454   */\n      swap1\n      pop\n        /* \"#utility.yul\":334:460   */\n      swap2\n      swap1\n      pop\n      jump\t// out\n        /* \"#utility.yul\":466:562   */\n    tag_45:\n        /* \"#utility.yul\":503:510   */\n      0x00\n        /* \"#utility.yul\":532:556   */\n      tag_74\n        /* \"#utility.yul\":550:555   */\n      dup3\n        /* \"#utility.yul\":532:556   */\n      tag_44\n      jump\t// in\n    tag_74:\n        /* \"#utility.yul\":521:556   */\n      swap1\n      pop\n        /* \"#utility.yul\":466:562   */\n      swap2\n      swap1\n      pop\n      jump\t// out\n        /* \"#utility.yul\":568:690   */\n    tag_46:\n        /* \"#utility.yul\":641:665   */\n      tag_76\n        /* \"#utility.yul\":659:664   */\n      dup2\n        /* \"#utility.yul\":641:665   */\n      tag_45\n      jump\t// in\n    tag_76:\n        /* \"#utility.yul\":634:639   */\n      dup2\n        /* \"#utility.yul\":631:666   */\n      eq\n        /* \"#utility.yul\":621:684   */\n      tag_77\n      jumpi\n        /* \"#utility.yul\":680:681   */\n      0x00\n        /* \"#utility.yul\":677:678   */\n      dup1\n        /* \"#utility.yul\":670:682   */\n      revert\n        /* \"#utility.yul\":621:684   */\n    tag_77:\n        /* \"#utility.yul\":568:690   */\n      pop\n      jump\t// out\n        /* \"#utility.yul\":696:835   */\n    tag_47:\n        /* \"#utility.yul\":742:747   */\n      0x00\n        /* \"#utility.yul\":780:786   */\n      dup2\n        /* \"#utility.yul\":767:787   */\n      calldataload\n        /* \"#utility.yul\":758:787   */\n      swap1\n      pop\n        /* \"#utility.yul\":796:829   */\n      tag_79\n        /* \"#utility.yul\":823:828   */\n      dup2\n        /* \"#utility.yul\":796:829   */\n      tag_46\n      jump\t// in\n    tag_79:\n        /* \"#utility.yul\":696:835   */\n      swap3\n      swap2\n      pop\n      pop\n      jump\t// out\n        /* \"#utility.yul\":841:918   */\n    tag_48:\n        /* \"#utility.yul\":878:885   */\n      0x00\n        /* \"#utility.yul\":907:912   */\n      dup2\n        /* \"#utility.yul\":896:912   */\n      swap1\n      pop\n        /* \"#utility.yul\":841:918   */\n      swap2\n      swap1\n      pop\n      jump\t// out\n        /* \"#utility.yul\":924:1046   */\n    tag_49:\n        /* \"#utility.yul\":997:1021   */\n      tag_82\n        /* \"#utility.yul\":1015:1020   */\n      dup2\n        /* \"#utility.yul\":997:1021   */\n      tag_48\n      jump\t// in\n    tag_82:\n        /* \"#utility.yul\":990:995   */\n      dup2\n        /* \"#utility.yul\":987:1022   */\n      eq\n        /* \"#utility.yul\":977:1040   */\n      tag_83\n      jumpi\n        /* \"#utility.yul\":1036:1037   */\n      0x00\n        /* \"#utility.yul\":1033:1034   */\n      dup1\n        /* \"#utility.yul\":1026:1038   */\n      revert\n        /* \"#utility.yul\":977:1040   */\n    tag_83:\n        /* \"#utility.yul\":924:1046   */\n      pop\n      jump\t// out\n        /* \"#utility.yul\":1052:1191   */\n    tag_50:\n        /* \"#utility.yul\":1098:1103   */\n      0x00\n        /* \"#utility.yul\":1136:1142   */\n      dup2\n        /* \"#utility.yul\":1123:1143   */\n      calldataload\n        /* \"#utility.yul\":1114:1143   */\n      swap1\n      pop\n        /* \"#utility.yul\":1152:1185   */\n      tag_85\n        /* \"#utility.yul\":1179:1184   */\n      dup2\n        /* \"#utility.yul\":1152:1185   */\n      tag_49\n      jump\t// in\n    tag_85:\n        /* \"#utility.yul\":1052:1191   */\n      swap3\n      swap2\n      pop\n      pop\n      jump\t// out\n        /* \"#utility.yul\":1197:1671   */\n    tag_9:\n        /* \"#utility.yul\":1265:1271   */\n      0x00\n        /* \"#utility.yul\":1273:1279   */\n      dup1\n        /* \"#utility.yul\":1322:1324   */\n      0x40\n        /* \"#utility.yul\":1310:1319   */\n      dup4\n        /* \"#utility.yul\":1301:1308   */\n      dup6\n        /* \"#utility.yul\":1297:1320   */\n      sub\n        /* \"#utility.yul\":1293:1325   */\n      slt\n        /* \"#utility.yul\":1290:1409   */\n      iszero\n      tag_87\n      jumpi\n        /* \"#utility.yul\":1328:1407   */\n      tag_88\n      tag_42\n      jump\t// in\n    tag_88:\n        /* \"#utility.yul\":1290:1409   */\n    tag_87:\n        /* \"#utility.yul\":1448:1449   */\n      0x00\n        /* \"#utility.yul\":1473:1526   */\n      tag_89\n        /* \"#utility.yul\":1518:1525   */\n      dup6\n        /* \"#utility.yul\":1509:1515   */\n      dup3\n        /* \"#utility.yul\":1498:1507   */\n      dup7\n        /* \"#utility.yul\":1494:1516   */\n      add\n        /* \"#utility.yul\":1473:1526   */\n      tag_47\n      jump\t// in\n    tag_89:\n        /* \"#utility.yul\":1463:1526   */\n      swap3\n      pop\n        /* \"#utility.yul\":1419:1536   */\n      pop\n        /* \"#utility.yul\":1575:1577   */\n      0x20\n        /* \"#utility.yul\":1601:1654   */\n      tag_90\n        /* \"#utility.yul\":1646:1653   */\n      dup6\n        /* \"#utility.yul\":1637:1643   */\n      dup3\n        /* \"#utility.yul\":1626:1635   */\n      dup7\n        /* \"#utility.yul\":1622:1644   */\n      add\n        /* \"#utility.yul\":1601:1654   */\n      tag_50\n      jump\t// in\n    tag_90:\n        /* \"#utility.yul\":1591:1654   */\n      swap2\n      pop\n        /* \"#utility.yul\":1546:1664   */\n      pop\n        /* \"#utility.yul\":1197:1671   */\n      swap3\n      pop\n      swap3\n      swap1\n      pop\n      jump\t// out\n        /* \"#utility.yul\":1677:1775   */\n    tag_51:\n        /* \"#utility.yul\":1728:1734   */\n      0x00\n        /* \"#utility.yul\":1762:1767   */\n      dup2\n        /* \"#utility.yul\":1756:1768   */\n      mload\n        /* \"#utility.yul\":1746:1768   */\n      swap1\n      pop\n        /* \"#utility.yul\":1677:1775   */\n      swap2\n      swap1\n      pop\n      jump\t// out\n        /* \"#utility.yul\":1781:1949   */\n    tag_52:\n        /* \"#utility.yul\":1864:1875   */\n      0x00\n        /* \"#utility.yul\":1898:1904   */\n      dup3\n        /* \"#utility.yul\":1893:1896   */\n      dup3\n        /* \"#utility.yul\":1886:1905   */\n      mstore\n        /* \"#utility.yul\":1938:1942   */\n      0x20\n        /* \"#utility.yul\":1933:1936   */\n      dup3\n        /* \"#utility.yul\":1929:1943   */\n      add\n        /* \"#utility.yul\":1914:1943   */\n      swap1\n      pop\n        /* \"#utility.yul\":1781:1949   */\n      swap3\n      swap2\n      pop\n      pop\n      jump\t// out\n        /* \"#utility.yul\":1955:2262   */\n    tag_53:\n        /* \"#utility.yul\":2023:2024   */\n      0x00\n        /* \"#utility.yul\":2033:2146   */\n    tag_94:\n        /* \"#utility.yul\":2047:2053   */\n      dup4\n        /* \"#utility.yul\":2044:2045   */\n      dup2\n        /* \"#utility.yul\":2041:2054   */\n      lt\n        /* \"#utility.yul\":2033:2146   */\n      iszero\n      tag_96\n      jumpi\n        /* \"#utility.yul\":2132:2133   */\n      dup1\n        /* \"#utility.yul\":2127:2130   */\n      dup3\n        /* \"#utility.yul\":2123:2134   */\n      add\n        /* \"#utility.yul\":2117:2135   */\n      mload\n        /* \"#utility.yul\":2113:2114   */\n      dup2\n        /* \"#utility.yul\":2108:2111   */\n      dup5\n        /* \"#utility.yul\":2104:2115   */\n      add\n        /* \"#utility.yul\":2097:2136   */\n      mstore\n        /* \"#utility.yul\":2069:2071   */\n      0x20\n        /* \"#utility.yul\":2066:2067   */\n      dup2\n        /* \"#utility.yul\":2062:2072   */\n      add\n        /* \"#utility.yul\":2057:2072   */\n      swap1\n      pop\n        /* \"#utility.yul\":2033:2146   */\n      jump(tag_94)\n    tag_96:\n        /* \"#utility.yul\":2164:2170   */\n      dup4\n        /* \"#utility.yul\":2161:2162   */\n      dup2\n        /* \"#utility.yul\":2158:2171   */\n      gt\n        /* \"#utility.yul\":2155:2256   */\n      iszero\n      tag_97\n      jumpi\n        /* \"#utility.yul\":2244:2245   */\n      0x00\n        /* \"#utility.yul\":2235:2241   */\n      dup5\n        /* \"#utility.yul\":2230:2233   */\n      dup5\n        /* \"#utility.yul\":2226:2242   */\n      add\n        /* \"#utility.yul\":2219:2246   */\n      mstore\n        /* \"#utility.yul\":2155:2256   */\n    tag_97:\n        /* \"#utility.yul\":2004:2262   */\n      pop\n        /* \"#utility.yul\":1955:2262   */\n      pop\n      pop\n      pop\n      jump\t// out\n        /* \"#utility.yul\":2268:2370   */\n    tag_54:\n        /* \"#utility.yul\":2309:2315   */\n      0x00\n        /* \"#utility.yul\":2360:2362   */\n      0x1f\n        /* \"#utility.yul\":2356:2363   */\n      not\n        /* \"#utility.yul\":2351:2353   */\n      0x1f\n        /* \"#utility.yul\":2344:2349   */\n      dup4\n        /* \"#utility.yul\":2340:2354   */\n      add\n        /* \"#utility.yul\":2336:2364   */\n      and\n        /* \"#utility.yul\":2326:2364   */\n      swap1\n      pop\n        /* \"#utility.yul\":2268:2370   */\n      swap2\n      swap1\n      pop\n      jump\t// out\n        /* \"#utility.yul\":2376:2736   */\n    tag_55:\n        /* \"#utility.yul\":2462:2465   */\n      0x00\n        /* \"#utility.yul\":2490:2528   */\n      tag_100\n        /* \"#utility.yul\":2522:2527   */\n      dup3\n        /* \"#utility.yul\":2490:2528   */\n      tag_51\n      jump\t// in\n    tag_100:\n        /* \"#utility.yul\":2544:2614   */\n      tag_101\n        /* \"#utility.yul\":2607:2613   */\n      dup2\n        /* \"#utility.yul\":2602:2605   */\n      dup6\n        /* \"#utility.yul\":2544:2614   */\n      tag_52\n      jump\t// in\n    tag_101:\n        /* \"#utility.yul\":2537:2614   */\n      swap4\n      pop\n        /* \"#utility.yul\":2623:2675   */\n      tag_102\n        /* \"#utility.yul\":2668:2674   */\n      dup2\n        /* \"#utility.yul\":2663:2666   */\n      dup6\n        /* \"#utility.yul\":2656:2660   */\n      0x20\n        /* \"#utility.yul\":2649:2654   */\n      dup7\n        /* \"#utility.yul\":2645:2661   */\n      add\n        /* \"#utility.yul\":2623:2675   */\n      tag_53\n      jump\t// in\n    tag_102:\n        /* \"#utility.yul\":2700:2729   */\n      tag_103\n        /* \"#utility.yul\":2722:2728   */\n      dup2\n        /* \"#utility.yul\":2700:2729   */\n      tag_54\n      jump\t// in\n    tag_103:\n        /* \"#utility.yul\":2695:2698   */\n      dup5\n        /* \"#utility.yul\":2691:2730   */\n      add\n        /* \"#utility.yul\":2684:2730   */\n      swap2\n      pop\n        /* \"#utility.yul\":2466:2736   */\n      pop\n        /* \"#utility.yul\":2376:2736   */\n      swap3\n      swap2\n      pop\n      pop\n      jump\t// out\n        /* \"#utility.yul\":2742:3051   */\n    tag_12:\n        /* \"#utility.yul\":2853:2857   */\n      0x00\n        /* \"#utility.yul\":2891:2893   */\n      0x20\n        /* \"#utility.yul\":2880:2889   */\n      dup3\n        /* \"#utility.yul\":2876:2894   */\n      add\n        /* \"#utility.yul\":2868:2894   */\n      swap1\n      pop\n        /* \"#utility.yul\":2940:2949   */\n      dup2\n        /* \"#utility.yul\":2934:2938   */\n      dup2\n        /* \"#utility.yul\":2930:2950   */\n      sub\n        /* \"#utility.yul\":2926:2927   */\n      0x00\n        /* \"#utility.yul\":2915:2924   */\n      dup4\n        /* \"#utility.yul\":2911:2928   */\n      add\n        /* \"#utility.yul\":2904:2951   */\n      mstore\n        /* \"#utility.yul\":2968:3044   */\n      tag_105\n        /* \"#utility.yul\":3039:3043   */\n      dup2\n        /* \"#utility.yul\":3030:3036   */\n      dup5\n        /* \"#utility.yul\":2968:3044   */\n      tag_55\n      jump\t// in\n    tag_105:\n        /* \"#utility.yul\":2960:3044   */\n      swap1\n      pop\n        /* \"#utility.yul\":2742:3051   */\n      swap3\n      swap2\n      pop\n      pop\n      jump\t// out\n        /* \"#utility.yul\":3057:3174   */\n    tag_56:\n        /* \"#utility.yul\":3166:3167   */\n      0x00\n        /* \"#utility.yul\":3163:3164   */\n      dup1\n        /* \"#utility.yul\":3156:3168   */\n      revert\n        /* \"#utility.yul\":3180:3297   */\n    tag_57:\n        /* \"#utility.yul\":3289:3290   */\n      0x00\n        /* \"#utility.yul\":3286:3287   */\n      dup1\n        /* \"#utility.yul\":3279:3291   */\n      revert\n        /* \"#utility.yul\":3303:3420   */\n    tag_58:\n        /* \"#utility.yul\":3412:3413   */\n      0x00\n        /* \"#utility.yul\":3409:3410   */\n      dup1\n        /* \"#utility.yul\":3402:3414   */\n      revert\n        /* \"#utility.yul\":3439:3991   */\n    tag_59:\n        /* \"#utility.yul\":3496:3504   */\n      0x00\n        /* \"#utility.yul\":3506:3512   */\n      dup1\n        /* \"#utility.yul\":3556:3559   */\n      dup4\n        /* \"#utility.yul\":3549:3553   */\n      0x1f\n        /* \"#utility.yul\":3541:3547   */\n      dup5\n        /* \"#utility.yul\":3537:3554   */\n      add\n        /* \"#utility.yul\":3533:3560   */\n      slt\n        /* \"#utility.yul\":3523:3645   */\n      tag_110\n      jumpi\n        /* \"#utility.yul\":3564:3643   */\n      tag_111\n      tag_56\n      jump\t// in\n    tag_111:\n        /* \"#utility.yul\":3523:3645   */\n    tag_110:\n        /* \"#utility.yul\":3677:3683   */\n      dup3\n        /* \"#utility.yul\":3664:3684   */\n      calldataload\n        /* \"#utility.yul\":3654:3684   */\n      swap1\n      pop\n        /* \"#utility.yul\":3707:3725   */\n      0xffffffffffffffff\n        /* \"#utility.yul\":3699:3705   */\n      dup2\n        /* \"#utility.yul\":3696:3726   */\n      gt\n        /* \"#utility.yul\":3693:3810   */\n      iszero\n      tag_112\n      jumpi\n        /* \"#utility.yul\":3729:3808   */\n      tag_113\n      tag_57\n      jump\t// in\n    tag_113:\n        /* \"#utility.yul\":3693:3810   */\n    tag_112:\n        /* \"#utility.yul\":3843:3847   */\n      0x20\n        /* \"#utility.yul\":3835:3841   */\n      dup4\n        /* \"#utility.yul\":3831:3848   */\n      add\n        /* \"#utility.yul\":3819:3848   */\n      swap2\n      pop\n        /* \"#utility.yul\":3897:3900   */\n      dup4\n        /* \"#utility.yul\":3889:3893   */\n      0x01\n        /* \"#utility.yul\":3881:3887   */\n      dup3\n        /* \"#utility.yul\":3877:3894   */\n      mul\n        /* \"#utility.yul\":3867:3875   */\n      dup4\n        /* \"#utility.yul\":3863:3895   */\n      add\n        /* \"#utility.yul\":3860:3901   */\n      gt\n        /* \"#utility.yul\":3857:3985   */\n      iszero\n      tag_114\n      jumpi\n        /* \"#utility.yul\":3904:3983   */\n      tag_115\n      tag_58\n      jump\t// in\n    tag_115:\n        /* \"#utility.yul\":3857:3985   */\n    tag_114:\n        /* \"#utility.yul\":3439:3991   */\n      swap3\n      pop\n      swap3\n      swap1\n      pop\n      jump\t// out\n        /* \"#utility.yul\":3997:4669   */\n    tag_23:\n        /* \"#utility.yul\":4076:4082   */\n      0x00\n        /* \"#utility.yul\":4084:4090   */\n      dup1\n        /* \"#utility.yul\":4092:4098   */\n      0x00\n        /* \"#utility.yul\":4141:4143   */\n      0x40\n        /* \"#utility.yul\":4129:4138   */\n      dup5\n        /* \"#utility.yul\":4120:4127   */\n      dup7\n        /* \"#utility.yul\":4116:4139   */\n      sub\n        /* \"#utility.yul\":4112:4144   */\n      slt\n        /* \"#utility.yul\":4109:4228   */\n      iszero\n      tag_117\n      jumpi\n        /* \"#utility.yul\":4147:4226   */\n      tag_118\n      tag_42\n      jump\t// in\n    tag_118:\n        /* \"#utility.yul\":4109:4228   */\n    tag_117:\n        /* \"#utility.yul\":4267:4268   */\n      0x00\n        /* \"#utility.yul\":4292:4345   */\n      tag_119\n        /* \"#utility.yul\":4337:4344   */\n      dup7\n        /* \"#utility.yul\":4328:4334   */\n      dup3\n        /* \"#utility.yul\":4317:4326   */\n      dup8\n        /* \"#utility.yul\":4313:4335   */\n      add\n        /* \"#utility.yul\":4292:4345   */\n      tag_47\n      jump\t// in\n    tag_119:\n        /* \"#utility.yul\":4282:4345   */\n      swap4\n      pop\n        /* \"#utility.yul\":4238:4355   */\n      pop\n        /* \"#utility.yul\":4422:4424   */\n      0x20\n        /* \"#utility.yul\":4411:4420   */\n      dup5\n        /* \"#utility.yul\":4407:4425   */\n      add\n        /* \"#utility.yul\":4394:4426   */\n      calldataload\n        /* \"#utility.yul\":4453:4471   */\n      0xffffffffffffffff\n        /* \"#utility.yul\":4445:4451   */\n      dup2\n        /* \"#utility.yul\":4442:4472   */\n      gt\n        /* \"#utility.yul\":4439:4556   */\n      iszero\n      tag_120\n      jumpi\n        /* \"#utility.yul\":4475:4554   */\n      tag_121\n      tag_43\n      jump\t// in\n    tag_121:\n        /* \"#utility.yul\":4439:4556   */\n    tag_120:\n        /* \"#utility.yul\":4588:4652   */\n      tag_122\n        /* \"#utility.yul\":4644:4651   */\n      dup7\n        /* \"#utility.yul\":4635:4641   */\n      dup3\n        /* \"#utility.yul\":4624:4633   */\n      dup8\n        /* \"#utility.yul\":4620:4642   */\n      add\n        /* \"#utility.yul\":4588:4652   */\n      tag_59\n      jump\t// in\n    tag_122:\n        /* \"#utility.yul\":4570:4652   */\n      swap3\n      pop\n      swap3\n      pop\n        /* \"#utility.yul\":4365:4662   */\n      pop\n        /* \"#utility.yul\":3997:4669   */\n      swap3\n      pop\n      swap3\n      pop\n      swap3\n      jump\t// out\n        /* \"#utility.yul\":4675:4793   */\n    tag_60:\n        /* \"#utility.yul\":4762:4786   */\n      tag_124\n        /* \"#utility.yul\":4780:4785   */\n      dup2\n        /* \"#utility.yul\":4762:4786   */\n      tag_45\n      jump\t// in\n    tag_124:\n        /* \"#utility.yul\":4757:4760   */\n      dup3\n        /* \"#utility.yul\":4750:4787   */\n      mstore\n        /* \"#utility.yul\":4675:4793   */\n      pop\n      pop\n      jump\t// out\n        /* \"#utility.yul\":4799:4917   */\n    tag_61:\n        /* \"#utility.yul\":4886:4910   */\n      tag_126\n        /* \"#utility.yul\":4904:4909   */\n      dup2\n        /* \"#utility.yul\":4886:4910   */\n      tag_48\n      jump\t// in\n    tag_126:\n        /* \"#utility.yul\":4881:4884   */\n      dup3\n        /* \"#utility.yul\":4874:4911   */\n      mstore\n        /* \"#utility.yul\":4799:4917   */\n      pop\n      pop\n      jump\t// out\n        /* \"#utility.yul\":4923:5255   */\n    tag_27:\n        /* \"#utility.yul\":5044:5048   */\n      0x00\n        /* \"#utility.yul\":5082:5084   */\n      0x40\n        /* \"#utility.yul\":5071:5080   */\n      dup3\n        /* \"#utility.yul\":5067:5085   */\n      add\n        /* \"#utility.yul\":5059:5085   */\n      swap1\n      pop\n        /* \"#utility.yul\":5095:5166   */\n      tag_128\n        /* \"#utility.yul\":5163:5164   */\n      0x00\n        /* \"#utility.yul\":5152:5161   */\n      dup4\n        /* \"#utility.yul\":5148:5165   */\n      add\n        /* \"#utility.yul\":5139:5145   */\n      dup6\n        /* \"#utility.yul\":5095:5166   */\n      tag_60\n      jump\t// in\n    tag_128:\n        /* \"#utility.yul\":5176:5248   */\n      tag_129\n        /* \"#utility.yul\":5244:5246   */\n      0x20\n        /* \"#utility.yul\":5233:5242   */\n      dup4\n        /* \"#utility.yul\":5229:5247   */\n      add\n        /* \"#utility.yul\":5220:5226   */\n      dup5\n        /* \"#utility.yul\":5176:5248   */\n      tag_61\n      jump\t// in\n    tag_129:\n        /* \"#utility.yul\":4923:5255   */\n      swap4\n      swap3\n      pop\n      pop\n      pop\n      jump\t// out\n        /* \"#utility.yul\":5261:5408   */\n    tag_62:\n        /* \"#utility.yul\":5362:5373   */\n      0x00\n        /* \"#utility.yul\":5399:5402   */\n      dup2\n        /* \"#utility.yul\":5384:5402   */\n      swap1\n      pop\n        /* \"#utility.yul\":5261:5408   */\n      swap3\n      swap2\n      pop\n      pop\n      jump\t// out\n        /* \"#utility.yul\":5414:5568   */\n    tag_63:\n        /* \"#utility.yul\":5498:5504   */\n      dup3\n        /* \"#utility.yul\":5493:5496   */\n      dup2\n        /* \"#utility.yul\":5488:5491   */\n      dup4\n        /* \"#utility.yul\":5475:5505   */\n      calldatacopy\n        /* \"#utility.yul\":5560:5561   */\n      0x00\n        /* \"#utility.yul\":5551:5557   */\n      dup4\n        /* \"#utility.yul\":5546:5549   */\n      dup4\n        /* \"#utility.yul\":5542:5558   */\n      add\n        /* \"#utility.yul\":5535:5562   */\n      mstore\n        /* \"#utility.yul\":5414:5568   */\n      pop\n      pop\n      pop\n      jump\t// out\n        /* \"#utility.yul\":5596:5910   */\n    tag_64:\n        /* \"#utility.yul\":5710:5713   */\n      0x00\n        /* \"#utility.yul\":5731:5819   */\n      tag_133\n        /* \"#utility.yul\":5812:5818   */\n      dup4\n        /* \"#utility.yul\":5807:5810   */\n      dup6\n        /* \"#utility.yul\":5731:5819   */\n      tag_62\n      jump\t// in\n    tag_133:\n        /* \"#utility.yul\":5724:5819   */\n      swap4\n      pop\n        /* \"#utility.yul\":5829:5872   */\n      tag_134\n        /* \"#utility.yul\":5865:5871   */\n      dup4\n        /* \"#utility.yul\":5860:5863   */\n      dup6\n        /* \"#utility.yul\":5853:5858   */\n      dup5\n        /* \"#utility.yul\":5829:5872   */\n      tag_63\n      jump\t// in\n    tag_134:\n        /* \"#utility.yul\":5897:5903   */\n      dup3\n        /* \"#utility.yul\":5892:5895   */\n      dup5\n        /* \"#utility.yul\":5888:5904   */\n      add\n        /* \"#utility.yul\":5881:5904   */\n      swap1\n      pop\n        /* \"#utility.yul\":5596:5910   */\n      swap4\n      swap3\n      pop\n      pop\n      pop\n      jump\t// out\n        /* \"#utility.yul\":5916:6207   */\n    tag_34:\n        /* \"#utility.yul\":6056:6059   */\n      0x00\n        /* \"#utility.yul\":6078:6181   */\n      tag_136\n        /* \"#utility.yul\":6177:6180   */\n      dup3\n        /* \"#utility.yul\":6168:6174   */\n      dup5\n        /* \"#utility.yul\":6160:6166   */\n      dup7\n        /* \"#utility.yul\":6078:6181   */\n      tag_64\n      jump\t// in\n    tag_136:\n        /* \"#utility.yul\":6071:6181   */\n      swap2\n      pop\n        /* \"#utility.yul\":6198:6201   */\n      dup2\n        /* \"#utility.yul\":6191:6201   */\n      swap1\n      pop\n        /* \"#utility.yul\":5916:6207   */\n      swap4\n      swap3\n      pop\n      pop\n      pop\n      jump\t// out\n        /* \"#utility.yul\":6213:6382   */\n    tag_65:\n        /* \"#utility.yul\":6297:6308   */\n      0x00\n        /* \"#utility.yul\":6331:6337   */\n      dup3\n        /* \"#utility.yul\":6326:6329   */\n      dup3\n        /* \"#utility.yul\":6319:6338   */\n      mstore\n        /* \"#utility.yul\":6371:6375   */\n      0x20\n        /* \"#utility.yul\":6366:6369   */\n      dup3\n        /* \"#utility.yul\":6362:6376   */\n      add\n        /* \"#utility.yul\":6347:6376   */\n      swap1\n      pop\n        /* \"#utility.yul\":6213:6382   */\n      swap3\n      swap2\n      pop\n      pop\n      jump\t// out\n        /* \"#utility.yul\":6388:6549   */\n    tag_66:\n        /* \"#utility.yul\":6528:6541   */\n      0x63616c6c2066616c696564000000000000000000000000000000000000000000\n        /* \"#utility.yul\":6524:6525   */\n      0x00\n        /* \"#utility.yul\":6516:6522   */\n      dup3\n        /* \"#utility.yul\":6512:6526   */\n      add\n        /* \"#utility.yul\":6505:6542   */\n      mstore\n        /* \"#utility.yul\":6388:6549   */\n      pop\n      jump\t// out\n        /* \"#utility.yul\":6555:6921   */\n    tag_67:\n        /* \"#utility.yul\":6697:6700   */\n      0x00\n        /* \"#utility.yul\":6718:6785   */\n      tag_140\n        /* \"#utility.yul\":6782:6784   */\n      0x0b\n        /* \"#utility.yul\":6777:6780   */\n      dup4\n        /* \"#utility.yul\":6718:6785   */\n      tag_65\n      jump\t// in\n    tag_140:\n        /* \"#utility.yul\":6711:6785   */\n      swap2\n      pop\n        /* \"#utility.yul\":6794:6887   */\n      tag_141\n        /* \"#utility.yul\":6883:6886   */\n      dup3\n        /* \"#utility.yul\":6794:6887   */\n      tag_66\n      jump\t// in\n    tag_141:\n        /* \"#utility.yul\":6912:6914   */\n      0x20\n        /* \"#utility.yul\":6907:6910   */\n      dup3\n        /* \"#utility.yul\":6903:6915   */\n      add\n        /* \"#utility.yul\":6896:6915   */\n      swap1\n      pop\n        /* \"#utility.yul\":6555:6921   */\n      swap2\n      swap1\n      pop\n      jump\t// out\n        /* \"#utility.yul\":6927:7346   */\n    tag_40:\n        /* \"#utility.yul\":7093:7097   */\n      0x00\n        /* \"#utility.yul\":7131:7133   */\n      0x20\n        /* \"#utility.yul\":7120:7129   */\n      dup3\n        /* \"#utility.yul\":7116:7134   */\n      add\n        /* \"#utility.yul\":7108:7134   */\n      swap1\n      pop\n        /* \"#utility.yul\":7180:7189   */\n      dup2\n        /* \"#utility.yul\":7174:7178   */\n      dup2\n        /* \"#utility.yul\":7170:7190   */\n      sub\n        /* \"#utility.yul\":7166:7167   */\n      0x00\n        /* \"#utility.yul\":7155:7164   */\n      dup4\n        /* \"#utility.yul\":7151:7168   */\n      add\n        /* \"#utility.yul\":7144:7191   */\n      mstore\n        /* \"#utility.yul\":7208:7339   */\n      tag_143\n        /* \"#utility.yul\":7334:7338   */\n      dup2\n        /* \"#utility.yul\":7208:7339   */\n      tag_67\n      jump\t// in\n    tag_143:\n        /* \"#utility.yul\":7200:7339   */\n      swap1\n      pop\n        /* \"#utility.yul\":6927:7346   */\n      swap2\n      swap1\n      pop\n      jump\t// out\n\n    auxdata: 0xa264697066735822122006fb3d4d63e74c813f9a7033f8ffd51cfd1b77b6d5afc9bad53a108fe53be7a664736f6c634300080d0033\n}\n",
				"bytecode": {
					"linkReferences": {},
					"object": "608060405234801561001057600080fd5b506106e0806100206000396000f3fe608060405234801561001057600080fd5b506004361061004c5760003560e01c806325adff1c146100515780634ffbf3be146100815780637e3b06fb146100b157806393e01418146100e1575b600080fd5b61006b600480360381019061006691906103ce565b6100fd565b60405161007891906104a7565b60405180910390f35b61009b600480360381019061009691906103ce565b61015f565b6040516100a891906104a7565b60405180910390f35b6100cb60048036038101906100c691906103ce565b6101e1565b6040516100d891906104a7565b60405180910390f35b6100fb60048036038101906100f6919061052e565b61027b565b005b606082826040516024016101129291906105ac565b60405160208183030381529060405263a9059cbb60e01b6020820180517bffffffffffffffffffffffffffffffffffffffffffffffffffffffff8381831617835250505050905092915050565b606063a9059cbb60e01b838360405160240161017c9291906105ac565b604051602081830303815290604052907bffffffffffffffffffffffffffffffffffffffffffffffffffffffff19166020820180517bffffffffffffffffffffffffffffffffffffffffffffffffffffffff8381831617835250505050905092915050565b606082826040516024016101f69291906105ac565b6040516020818303038152906040527fa9059cbb000000000000000000000000000000000000000000000000000000007bffffffffffffffffffffffffffffffffffffffffffffffffffffffff19166020820180517bffffffffffffffffffffffffffffffffffffffffffffffffffffffff8381831617835250505050905092915050565b60008373ffffffffffffffffffffffffffffffffffffffff1683836040516102a4929190610614565b6000604051808303816000865af19150503d80600081146102e1576040519150601f19603f3d011682016040523d82523d6000602084013e6102e6565b606091505b505090508061032a576040517f08c379a00000000000000000000000000000000000000000000000000000000081526004016103219061068a565b60405180910390fd5b50505050565b600080fd5b600080fd5b600073ffffffffffffffffffffffffffffffffffffffff82169050919050565b60006103658261033a565b9050919050565b6103758161035a565b811461038057600080fd5b50565b6000813590506103928161036c565b92915050565b6000819050919050565b6103ab81610398565b81146103b657600080fd5b50565b6000813590506103c8816103a2565b92915050565b600080604083850312156103e5576103e4610330565b5b60006103f385828601610383565b9250506020610404858286016103b9565b9150509250929050565b600081519050919050565b600082825260208201905092915050565b60005b8381101561044857808201518184015260208101905061042d565b83811115610457576000848401525b50505050565b6000601f19601f8301169050919050565b60006104798261040e565b6104838185610419565b935061049381856020860161042a565b61049c8161045d565b840191505092915050565b600060208201905081810360008301526104c1818461046e565b905092915050565b600080fd5b600080fd5b600080fd5b60008083601f8401126104ee576104ed6104c9565b5b8235905067ffffffffffffffff81111561050b5761050a6104ce565b5b602083019150836001820283011115610527576105266104d3565b5b9250929050565b60008060006040848603121561054757610546610330565b5b600061055586828701610383565b935050602084013567ffffffffffffffff81111561057657610575610335565b5b610582868287016104d8565b92509250509250925092565b6105978161035a565b82525050565b6105a681610398565b82525050565b60006040820190506105c1600083018561058e565b6105ce602083018461059d565b9392505050565b600081905092915050565b82818337600083830152505050565b60006105fb83856105d5565b93506106088385846105e0565b82840190509392505050565b60006106218284866105ef565b91508190509392505050565b600082825260208201905092915050565b7f63616c6c2066616c696564000000000000000000000000000000000000000000600082015250565b6000610674600b8361062d565b915061067f8261063e565b602082019050919050565b600060208201905081810360008301526106a381610667565b905091905056fea264697066735822122006fb3d4d63e74c813f9a7033f8ffd51cfd1b77b6d5afc9bad53a108fe53be7a664736f6c634300080d0033",
					"opcodes": "PUSH1 0x80 PUSH1 0x40 MSTORE CALLVALUE DUP1 ISZERO PUSH2 0x10 JUMPI PUSH1 0x0 DUP1 REVERT JUMPDEST POP PUSH2 0x6E0 DUP1 PUSH2 0x20 PUSH1 0x0 CODECOPY PUSH1 0x0 RETURN INVALID PUSH1 0x80 PUSH1 0x40 MSTORE CALLVALUE DUP1 ISZERO PUSH2 0x10 JUMPI PUSH1 0x0 DUP1 REVERT JUMPDEST POP PUSH1 0x4 CALLDATASIZE LT PUSH2 0x4C JUMPI PUSH1 0x0 CALLDATALOAD PUSH1 0xE0 SHR DUP1 PUSH4 0x25ADFF1C EQ PUSH2 0x51 JUMPI DUP1 PUSH4 0x4FFBF3BE EQ PUSH2 0x81 JUMPI DUP1 PUSH4 0x7E3B06FB EQ PUSH2 0xB1 JUMPI DUP1 PUSH4 0x93E01418 EQ PUSH2 0xE1 JUMPI JUMPDEST PUSH1 0x0 DUP1 REVERT JUMPDEST PUSH2 0x6B PUSH1 0x4 DUP1 CALLDATASIZE SUB DUP2 ADD SWAP1 PUSH2 0x66 SWAP2 SWAP1 PUSH2 0x3CE JUMP JUMPDEST PUSH2 0xFD JUMP JUMPDEST PUSH1 0x40 MLOAD PUSH2 0x78 SWAP2 SWAP1 PUSH2 0x4A7 JUMP JUMPDEST PUSH1 0x40 MLOAD DUP1 SWAP2 SUB SWAP1 RETURN JUMPDEST PUSH2 0x9B PUSH1 0x4 DUP1 CALLDATASIZE SUB DUP2 ADD SWAP1 PUSH2 0x96 SWAP2 SWAP1 PUSH2 0x3CE JUMP JUMPDEST PUSH2 0x15F JUMP JUMPDEST PUSH1 0x40 MLOAD PUSH2 0xA8 SWAP2 SWAP1 PUSH2 0x4A7 JUMP JUMPDEST PUSH1 0x40 MLOAD DUP1 SWAP2 SUB SWAP1 RETURN JUMPDEST PUSH2 0xCB PUSH1 0x4 DUP1 CALLDATASIZE SUB DUP2 ADD SWAP1 PUSH2 0xC6 SWAP2 SWAP1 PUSH2 0x3CE JUMP JUMPDEST PUSH2 0x1E1 JUMP JUMPDEST PUSH1 0x40 MLOAD PUSH2 0xD8 SWAP2 SWAP1 PUSH2 0x4A7 JUMP JUMPDEST PUSH1 0x40 MLOAD DUP1 SWAP2 SUB SWAP1 RETURN JUMPDEST PUSH2 0xFB PUSH1 0x4 DUP1 CALLDATASIZE SUB DUP2 ADD SWAP1 PUSH2 0xF6 SWAP2 SWAP1 PUSH2 0x52E JUMP JUMPDEST PUSH2 0x27B JUMP JUMPDEST STOP JUMPDEST PUSH1 0x60 DUP3 DUP3 PUSH1 0x40 MLOAD PUSH1 0x24 ADD PUSH2 0x112 SWAP3 SWAP2 SWAP1 PUSH2 0x5AC JUMP JUMPDEST PUSH1 0x40 MLOAD PUSH1 0x20 DUP2 DUP4 SUB SUB DUP2 MSTORE SWAP1 PUSH1 0x40 MSTORE PUSH4 0xA9059CBB PUSH1 0xE0 SHL PUSH1 0x20 DUP3 ADD DUP1 MLOAD PUSH28 0xFFFFFFFFFFFFFFFFFFFFFFFFFFFFFFFFFFFFFFFFFFFFFFFFFFFFFFFF DUP4 DUP2 DUP4 AND OR DUP4 MSTORE POP POP POP POP SWAP1 POP SWAP3 SWAP2 POP POP JUMP JUMPDEST PUSH1 0x60 PUSH4 0xA9059CBB PUSH1 0xE0 SHL DUP4 DUP4 PUSH1 0x40 MLOAD PUSH1 0x24 ADD PUSH2 0x17C SWAP3 SWAP2 SWAP1 PUSH2 0x5AC JUMP JUMPDEST PUSH1 0x40 MLOAD PUSH1 0x20 DUP2 DUP4 SUB SUB DUP2 MSTORE SWAP1 PUSH1 0x40 MSTORE SWAP1 PUSH28 0xFFFFFFFFFFFFFFFFFFFFFFFFFFFFFFFFFFFFFFFFFFFFFFFFFFFFFFFF NOT AND PUSH1 0x20 DUP3 ADD DUP1 MLOAD PUSH28 0xFFFFFFFFFFFFFFFFFFFFFFFFFFFFFFFFFFFFFFFFFFFFFFFFFFFFFFFF DUP4 DUP2 DUP4 AND OR DUP4 MSTORE POP POP POP POP SWAP1 POP SWAP3 SWAP2 POP POP JUMP JUMPDEST PUSH1 0x60 DUP3 DUP3 PUSH1 0x40 MLOAD PUSH1 0x24 ADD PUSH2 0x1F6 SWAP3 SWAP2 SWAP1 PUSH2 0x5AC JUMP JUMPDEST PUSH1 0x40 MLOAD PUSH1 0x20 DUP2 DUP4 SUB SUB DUP2 MSTORE SWAP1 PUSH1 0x40 MSTORE PUSH32 0xA9059CBB00000000000000000000000000000000000000000000000000000000 PUSH28 0xFFFFFFFFFFFFFFFFFFFFFFFFFFFFFFFFFFFFFFFFFFFFFFFFFFFFFFFF NOT AND PUSH1 0x20 DUP3 ADD DUP1 MLOAD PUSH28 0xFFFFFFFFFFFFFFFFFFFFFFFFFFFFFFFFFFFFFFFFFFFFFFFFFFFFFFFF DUP4 DUP2 DUP4 AND OR DUP4 MSTORE POP POP POP POP SWAP1 POP SWAP3 SWAP2 POP POP JUMP JUMPDEST PUSH1 0x0 DUP4 PUSH20 0xFFFFFFFFFFFFFFFFFFFFFFFFFFFFFFFFFFFFFFFF AND DUP4 DUP4 PUSH1 0x40 MLOAD PUSH2 0x2A4 SWAP3 SWAP2 SWAP1 PUSH2 0x614 JUMP JUMPDEST PUSH1 0x0 PUSH1 0x40 MLOAD DUP1 DUP4 SUB DUP2 PUSH1 0x0 DUP7 GAS CALL SWAP2 POP POP RETURNDATASIZE DUP1 PUSH1 0x0 DUP2 EQ PUSH2 0x2E1 JUMPI PUSH1 0x40 MLOAD SWAP2 POP PUSH1 0x1F NOT PUSH1 0x3F RETURNDATASIZE ADD AND DUP3 ADD PUSH1 0x40 MSTORE RETURNDATASIZE DUP3 MSTORE RETURNDATASIZE PUSH1 0x0 PUSH1 0x20 DUP5 ADD RETURNDATACOPY PUSH2 0x2E6 JUMP JUMPDEST PUSH1 0x60 SWAP2 POP JUMPDEST POP POP SWAP1 POP DUP1 PUSH2 0x32A JUMPI PUSH1 0x40 MLOAD PUSH32 0x8C379A000000000000000000000000000000000000000000000000000000000 DUP2 MSTORE PUSH1 0x4 ADD PUSH2 0x321 SWAP1 PUSH2 0x68A JUMP JUMPDEST PUSH1 0x40 MLOAD DUP1 SWAP2 SUB SWAP1 REVERT JUMPDEST POP POP POP POP JUMP JUMPDEST PUSH1 0x0 DUP1 REVERT JUMPDEST PUSH1 0x0 DUP1 REVERT JUMPDEST PUSH1 0x0 PUSH20 0xFFFFFFFFFFFFFFFFFFFFFFFFFFFFFFFFFFFFFFFF DUP3 AND SWAP1 POP SWAP2 SWAP1 POP JUMP JUMPDEST PUSH1 0x0 PUSH2 0x365 DUP3 PUSH2 0x33A JUMP JUMPDEST SWAP1 POP SWAP2 SWAP1 POP JUMP JUMPDEST PUSH2 0x375 DUP2 PUSH2 0x35A JUMP JUMPDEST DUP2 EQ PUSH2 0x380 JUMPI PUSH1 0x0 DUP1 REVERT JUMPDEST POP JUMP JUMPDEST PUSH1 0x0 DUP2 CALLDATALOAD SWAP1 POP PUSH2 0x392 DUP2 PUSH2 0x36C JUMP JUMPDEST SWAP3 SWAP2 POP POP JUMP JUMPDEST PUSH1 0x0 DUP2 SWAP1 POP SWAP2 SWAP1 POP JUMP JUMPDEST PUSH2 0x3AB DUP2 PUSH2 0x398 JUMP JUMPDEST DUP2 EQ PUSH2 0x3B6 JUMPI PUSH1 0x0 DUP1 REVERT JUMPDEST POP JUMP JUMPDEST PUSH1 0x0 DUP2 CALLDATALOAD SWAP1 POP PUSH2 0x3C8 DUP2 PUSH2 0x3A2 JUMP JUMPDEST SWAP3 SWAP2 POP POP JUMP JUMPDEST PUSH1 0x0 DUP1 PUSH1 0x40 DUP4 DUP6 SUB SLT ISZERO PUSH2 0x3E5 JUMPI PUSH2 0x3E4 PUSH2 0x330 JUMP JUMPDEST JUMPDEST PUSH1 0x0 PUSH2 0x3F3 DUP6 DUP3 DUP7 ADD PUSH2 0x383 JUMP JUMPDEST SWAP3 POP POP PUSH1 0x20 PUSH2 0x404 DUP6 DUP3 DUP7 ADD PUSH2 0x3B9 JUMP JUMPDEST SWAP2 POP POP SWAP3 POP SWAP3 SWAP1 POP JUMP JUMPDEST PUSH1 0x0 DUP2 MLOAD SWAP1 POP SWAP2 SWAP1 POP JUMP JUMPDEST PUSH1 0x0 DUP3 DUP3 MSTORE PUSH1 0x20 DUP3 ADD SWAP1 POP SWAP3 SWAP2 POP POP JUMP JUMPDEST PUSH1 0x0 JUMPDEST DUP4 DUP2 LT ISZERO PUSH2 0x448 JUMPI DUP1 DUP3 ADD MLOAD DUP2 DUP5 ADD MSTORE PUSH1 0x20 DUP2 ADD SWAP1 POP PUSH2 0x42D JUMP JUMPDEST DUP4 DUP2 GT ISZERO PUSH2 0x457 JUMPI PUSH1 0x0 DUP5 DUP5 ADD MSTORE JUMPDEST POP POP POP POP JUMP JUMPDEST PUSH1 0x0 PUSH1 0x1F NOT PUSH1 0x1F DUP4 ADD AND SWAP1 POP SWAP2 SWAP1 POP JUMP JUMPDEST PUSH1 0x0 PUSH2 0x479 DUP3 PUSH2 0x40E JUMP JUMPDEST PUSH2 0x483 DUP2 DUP6 PUSH2 0x419 JUMP JUMPDEST SWAP4 POP PUSH2 0x493 DUP2 DUP6 PUSH1 0x20 DUP7 ADD PUSH2 0x42A JUMP JUMPDEST PUSH2 0x49C DUP2 PUSH2 0x45D JUMP JUMPDEST DUP5 ADD SWAP2 POP POP SWAP3 SWAP2 POP POP JUMP JUMPDEST PUSH1 0x0 PUSH1 0x20 DUP3 ADD SWAP1 POP DUP2 DUP2 SUB PUSH1 0x0 DUP4 ADD MSTORE PUSH2 0x4C1 DUP2 DUP5 PUSH2 0x46E JUMP JUMPDEST SWAP1 POP SWAP3 SWAP2 POP POP JUMP JUMPDEST PUSH1 0x0 DUP1 REVERT JUMPDEST PUSH1 0x0 DUP1 REVERT JUMPDEST PUSH1 0x0 DUP1 REVERT JUMPDEST PUSH1 0x0 DUP1 DUP4 PUSH1 0x1F DUP5 ADD SLT PUSH2 0x4EE JUMPI PUSH2 0x4ED PUSH2 0x4C9 JUMP JUMPDEST JUMPDEST DUP3 CALLDATALOAD SWAP1 POP PUSH8 0xFFFFFFFFFFFFFFFF DUP2 GT ISZERO PUSH2 0x50B JUMPI PUSH2 0x50A PUSH2 0x4CE JUMP JUMPDEST JUMPDEST PUSH1 0x20 DUP4 ADD SWAP2 POP DUP4 PUSH1 0x1 DUP3 MUL DUP4 ADD GT ISZERO PUSH2 0x527 JUMPI PUSH2 0x526 PUSH2 0x4D3 JUMP JUMPDEST JUMPDEST SWAP3 POP SWAP3 SWAP1 POP JUMP JUMPDEST PUSH1 0x0 DUP1 PUSH1 0x0 PUSH1 0x40 DUP5 DUP7 SUB SLT ISZERO PUSH2 0x547 JUMPI PUSH2 0x546 PUSH2 0x330 JUMP JUMPDEST JUMPDEST PUSH1 0x0 PUSH2 0x555 DUP7 DUP3 DUP8 ADD PUSH2 0x383 JUMP JUMPDEST SWAP4 POP POP PUSH1 0x20 DUP5 ADD CALLDATALOAD PUSH8 0xFFFFFFFFFFFFFFFF DUP2 GT ISZERO PUSH2 0x576 JUMPI PUSH2 0x575 PUSH2 0x335 JUMP JUMPDEST JUMPDEST PUSH2 0x582 DUP7 DUP3 DUP8 ADD PUSH2 0x4D8 JUMP JUMPDEST SWAP3 POP SWAP3 POP POP SWAP3 POP SWAP3 POP SWAP3 JUMP JUMPDEST PUSH2 0x597 DUP2 PUSH2 0x35A JUMP JUMPDEST DUP3 MSTORE POP POP JUMP JUMPDEST PUSH2 0x5A6 DUP2 PUSH2 0x398 JUMP JUMPDEST DUP3 MSTORE POP POP JUMP JUMPDEST PUSH1 0x0 PUSH1 0x40 DUP3 ADD SWAP1 POP PUSH2 0x5C1 PUSH1 0x0 DUP4 ADD DUP6 PUSH2 0x58E JUMP JUMPDEST PUSH2 0x5CE PUSH1 0x20 DUP4 ADD DUP5 PUSH2 0x59D JUMP JUMPDEST SWAP4 SWAP3 POP POP POP JUMP JUMPDEST PUSH1 0x0 DUP2 SWAP1 POP SWAP3 SWAP2 POP POP JUMP JUMPDEST DUP3 DUP2 DUP4 CALLDATACOPY PUSH1 0x0 DUP4 DUP4 ADD MSTORE POP POP POP JUMP JUMPDEST PUSH1 0x0 PUSH2 0x5FB DUP4 DUP6 PUSH2 0x5D5 JUMP JUMPDEST SWAP4 POP PUSH2 0x608 DUP4 DUP6 DUP5 PUSH2 0x5E0 JUMP JUMPDEST DUP3 DUP5 ADD SWAP1 POP SWAP4 SWAP3 POP POP POP JUMP JUMPDEST PUSH1 0x0 PUSH2 0x621 DUP3 DUP5 DUP7 PUSH2 0x5EF JUMP JUMPDEST SWAP2 POP DUP2 SWAP1 POP SWAP4 SWAP3 POP POP POP JUMP JUMPDEST PUSH1 0x0 DUP3 DUP3 MSTORE PUSH1 0x20 DUP3 ADD SWAP1 POP SWAP3 SWAP2 POP POP JUMP JUMPDEST PUSH32 0x63616C6C2066616C696564000000000000000000000000000000000000000000 PUSH1 0x0 DUP3 ADD MSTORE POP JUMP JUMPDEST PUSH1 0x0 PUSH2 0x674 PUSH1 0xB DUP4 PUSH2 0x62D JUMP JUMPDEST SWAP2 POP PUSH2 0x67F DUP3 PUSH2 0x63E JUMP JUMPDEST PUSH1 0x20 DUP3 ADD SWAP1 POP SWAP2 SWAP1 POP JUMP JUMPDEST PUSH1 0x0 PUSH1 0x20 DUP3 ADD SWAP1 POP DUP2 DUP2 SUB PUSH1 0x0 DUP4 ADD MSTORE PUSH2 0x6A3 DUP2 PUSH2 0x667 JUMP JUMPDEST SWAP1 POP SWAP2 SWAP1 POP JUMP INVALID LOG2 PUSH5 0x6970667358 0x22 SLT KECCAK256 MOD 0xFB RETURNDATASIZE 0x4D PUSH4 0xE74C813F SWAP11 PUSH17 0x33F8FFD51CFD1B77B6D5AFC9BAD53A108F 0xE5 EXTCODESIZE 0xE7 0xA6 PUSH5 0x736F6C6343 STOP ADDMOD 0xD STOP CALLER "
				},
				"gasEstimates": {
					"creation": {
						"codeDepositCost": "352000",
						"executionCost": "386",
						"totalCost": "352386"
					},
					"external": {
						"encodeCall(address,uint256)": "infinite",
						"encodeWithSignature(address,uint256)": "infinite",
						"encodedWithSelector(address,uint256)": "infinite",
						"test(address,bytes)": "infinite"
					}
				},
				"methodIdentifiers": {
					"encodeCall(address,uint256)": "25adff1c",
					"encodeWithSignature(address,uint256)": "7e3b06fb",
					"encodedWithSelector(address,uint256)": "4ffbf3be",
					"test(address,bytes)": "93e01418"
				}
			},
			"storageLayout": {
				"storage": [],
				"types": null
			},
			"userdoc": {
				"kind": "user",
				"methods": {},
				"version": 1
			}
		}
	}
}