{
	"contracts/Daulat Hussain/Medical Smart Contract.sol": {
		"MecidalHistory": {
			"abi": [
				{
					"inputs": [
						{
							"internalType": "string",
							"name": "_name",
							"type": "string"
						},
						{
							"internalType": "uint256",
							"name": "_age",
							"type": "uint256"
						},
						{
							"internalType": "string[]",
							"name": "_conditions",
							"type": "string[]"
						},
						{
							"internalType": "string[]",
							"name": "_allergies",
							"type": "string[]"
						},
						{
							"internalType": "string[]",
							"name": "_medications",
							"type": "string[]"
						},
						{
							"internalType": "string[]",
							"name": "_procedures",
							"type": "string[]"
						}
					],
					"name": "addPatient",
					"outputs": [],
					"stateMutability": "nonpayable",
					"type": "function"
				},
				{
					"inputs": [
						{
							"internalType": "address",
							"name": "_patientAddress",
							"type": "address"
						}
					],
					"name": "getPatient",
					"outputs": [
						{
							"internalType": "string",
							"name": "",
							"type": "string"
						},
						{
							"internalType": "uint256",
							"name": "",
							"type": "uint256"
						},
						{
							"internalType": "string[]",
							"name": "",
							"type": "string[]"
						},
						{
							"internalType": "string[]",
							"name": "",
							"type": "string[]"
						},
						{
							"internalType": "string[]",
							"name": "",
							"type": "string[]"
						},
						{
							"internalType": "string[]",
							"name": "",
							"type": "string[]"
						}
					],
					"stateMutability": "view",
					"type": "function"
				},
				{
					"inputs": [
						{
							"internalType": "address",
							"name": "",
							"type": "address"
						}
					],
					"name": "patients",
					"outputs": [
						{
							"internalType": "string",
							"name": "name",
							"type": "string"
						},
						{
							"internalType": "uint256",
							"name": "age",
							"type": "uint256"
						}
					],
					"stateMutability": "view",
					"type": "function"
				},
				{
					"inputs": [
						{
							"internalType": "string[]",
							"name": "_conditions",
							"type": "string[]"
						},
						{
							"internalType": "string[]",
							"name": "_allergies",
							"type": "string[]"
						},
						{
							"internalType": "string[]",
							"name": "_medications",
							"type": "string[]"
						},
						{
							"internalType": "string[]",
							"name": "_procedures",
							"type": "string[]"
						}
					],
					"name": "updatePatient",
					"outputs": [],
					"stateMutability": "view",
					"type": "function"
				}
			],
			"devdoc": {
				"kind": "dev",
				"methods": {},
				"version": 1
			},
			"evm": {
				"assembly": "    /* \"contracts/Daulat Hussain/Medical Smart Contract.sol\":60:1786  contract MecidalHistory... */\n  mstore(0x40, 0x80)\n  callvalue\n  dup1\n  iszero\n  tag_1\n  jumpi\n  0x00\n  dup1\n  revert\ntag_1:\n  pop\n  dataSize(sub_0)\n  dup1\n  dataOffset(sub_0)\n  0x00\n  codecopy\n  0x00\n  return\nstop\n\nsub_0: assembly {\n        /* \"contracts/Daulat Hussain/Medical Smart Contract.sol\":60:1786  contract MecidalHistory... */\n      mstore(0x40, 0x80)\n      callvalue\n      dup1\n      iszero\n      tag_1\n      jumpi\n      0x00\n      dup1\n      revert\n    tag_1:\n      pop\n      jumpi(tag_2, lt(calldatasize, 0x04))\n      shr(0xe0, calldataload(0x00))\n      dup1\n      0x0869cfbc\n      eq\n      tag_3\n      jumpi\n      dup1\n      0x1dae7dfd\n      eq\n      tag_4\n      jumpi\n      dup1\n      0xb152829b\n      eq\n      tag_5\n      jumpi\n      dup1\n      0xb5368e20\n      eq\n      tag_6\n      jumpi\n    tag_2:\n      0x00\n      dup1\n      revert\n        /* \"contracts/Daulat Hussain/Medical Smart Contract.sol\":293:337  mapping (address => Patient) public patients */\n    tag_3:\n      tag_7\n      0x04\n      dup1\n      calldatasize\n      sub\n      dup2\n      add\n      swap1\n      tag_8\n      swap2\n      swap1\n      tag_9\n      jump\t// in\n    tag_8:\n      tag_10\n      jump\t// in\n    tag_7:\n      mload(0x40)\n      tag_11\n      swap3\n      swap2\n      swap1\n      tag_12\n      jump\t// in\n    tag_11:\n      mload(0x40)\n      dup1\n      swap2\n      sub\n      swap1\n      return\n        /* \"contracts/Daulat Hussain/Medical Smart Contract.sol\":346:918  function addPatient(... */\n    tag_4:\n      tag_13\n      0x04\n      dup1\n      calldatasize\n      sub\n      dup2\n      add\n      swap1\n      tag_14\n      swap2\n      swap1\n      tag_15\n      jump\t// in\n    tag_14:\n      tag_16\n      jump\t// in\n    tag_13:\n      stop\n        /* \"contracts/Daulat Hussain/Medical Smart Contract.sol\":926:1360  function updatePatient(... */\n    tag_5:\n      tag_17\n      0x04\n      dup1\n      calldatasize\n      sub\n      dup2\n      add\n      swap1\n      tag_18\n      swap2\n      swap1\n      tag_19\n      jump\t// in\n    tag_18:\n      tag_20\n      jump\t// in\n    tag_17:\n      stop\n        /* \"contracts/Daulat Hussain/Medical Smart Contract.sol\":1368:1781  function getPatient(address _patientAddress) public view returns(... */\n    tag_6:\n      tag_21\n      0x04\n      dup1\n      calldatasize\n      sub\n      dup2\n      add\n      swap1\n      tag_22\n      swap2\n      swap1\n      tag_9\n      jump\t// in\n    tag_22:\n      tag_23\n      jump\t// in\n    tag_21:\n      mload(0x40)\n      tag_24\n      swap7\n      swap6\n      swap5\n      swap4\n      swap3\n      swap2\n      swap1\n      tag_25\n      jump\t// in\n    tag_24:\n      mload(0x40)\n      dup1\n      swap2\n      sub\n      swap1\n      return\n        /* \"contracts/Daulat Hussain/Medical Smart Contract.sol\":293:337  mapping (address => Patient) public patients */\n    tag_10:\n      mstore(0x20, 0x00)\n      dup1\n      0x00\n      mstore\n      keccak256(0x00, 0x40)\n      0x00\n      swap2\n      pop\n      swap1\n      pop\n      dup1\n      0x00\n      add\n      dup1\n      sload\n      tag_26\n      swap1\n      tag_27\n      jump\t// in\n    tag_26:\n      dup1\n      0x1f\n      add\n      0x20\n      dup1\n      swap2\n      div\n      mul\n      0x20\n      add\n      mload(0x40)\n      swap1\n      dup2\n      add\n      0x40\n      mstore\n      dup1\n      swap3\n      swap2\n      swap1\n      dup2\n      dup2\n      mstore\n      0x20\n      add\n      dup3\n      dup1\n      sload\n      tag_28\n      swap1\n      tag_27\n      jump\t// in\n    tag_28:\n      dup1\n      iszero\n      tag_29\n      jumpi\n      dup1\n      0x1f\n      lt\n      tag_30\n      jumpi\n      0x0100\n      dup1\n      dup4\n      sload\n      div\n      mul\n      dup4\n      mstore\n      swap2\n      0x20\n      add\n      swap2\n      jump(tag_29)\n    tag_30:\n      dup3\n      add\n      swap2\n      swap1\n      0x00\n      mstore\n      keccak256(0x00, 0x20)\n      swap1\n    tag_31:\n      dup2\n      sload\n      dup2\n      mstore\n      swap1\n      0x01\n      add\n      swap1\n      0x20\n      add\n      dup1\n      dup4\n      gt\n      tag_31\n      jumpi\n      dup3\n      swap1\n      sub\n      0x1f\n      and\n      dup3\n      add\n      swap2\n    tag_29:\n      pop\n      pop\n      pop\n      pop\n      pop\n      swap1\n      dup1\n      0x01\n      add\n      sload\n      swap1\n      pop\n      dup3\n      jump\t// out\n        /* \"contracts/Daulat Hussain/Medical Smart Contract.sol\":346:918  function addPatient(... */\n    tag_16:\n        /* \"contracts/Daulat Hussain/Medical Smart Contract.sol\":604:626  Patient memory patient */\n      0x00\n        /* \"contracts/Daulat Hussain/Medical Smart Contract.sol\":629:864  Patient... */\n      mload(0x40)\n      dup1\n      0xc0\n      add\n      0x40\n      mstore\n      dup1\n        /* \"contracts/Daulat Hussain/Medical Smart Contract.sol\":668:673  _name */\n      dup9\n        /* \"contracts/Daulat Hussain/Medical Smart Contract.sol\":629:864  Patient... */\n      dup2\n      mstore\n      0x20\n      add\n        /* \"contracts/Daulat Hussain/Medical Smart Contract.sol\":693:697  _age */\n      dup8\n        /* \"contracts/Daulat Hussain/Medical Smart Contract.sol\":629:864  Patient... */\n      dup2\n      mstore\n      0x20\n      add\n        /* \"contracts/Daulat Hussain/Medical Smart Contract.sol\":725:736  _conditions */\n      dup7\n        /* \"contracts/Daulat Hussain/Medical Smart Contract.sol\":629:864  Patient... */\n      dup2\n      mstore\n      0x20\n      add\n        /* \"contracts/Daulat Hussain/Medical Smart Contract.sol\":763:773  _allergies */\n      dup6\n        /* \"contracts/Daulat Hussain/Medical Smart Contract.sol\":629:864  Patient... */\n      dup2\n      mstore\n      0x20\n      add\n        /* \"contracts/Daulat Hussain/Medical Smart Contract.sol\":802:814  _medications */\n      dup5\n        /* \"contracts/Daulat Hussain/Medical Smart Contract.sol\":629:864  Patient... */\n      dup2\n      mstore\n      0x20\n      add\n        /* \"contracts/Daulat Hussain/Medical Smart Contract.sol\":841:852  _procedures */\n      dup4\n        /* \"contracts/Daulat Hussain/Medical Smart Contract.sol\":629:864  Patient... */\n      dup2\n      mstore\n      pop\n        /* \"contracts/Daulat Hussain/Medical Smart Contract.sol\":604:864  Patient memory patient = Patient... */\n      swap1\n      pop\n        /* \"contracts/Daulat Hussain/Medical Smart Contract.sol\":900:907  patient */\n      dup1\n        /* \"contracts/Daulat Hussain/Medical Smart Contract.sol\":877:885  patients */\n      0x00\n        /* \"contracts/Daulat Hussain/Medical Smart Contract.sol\":877:897  patients[msg.sender] */\n      dup1\n        /* \"contracts/Daulat Hussain/Medical Smart Contract.sol\":886:896  msg.sender */\n      caller\n        /* \"contracts/Daulat Hussain/Medical Smart Contract.sol\":877:897  patients[msg.sender] */\n      0xffffffffffffffffffffffffffffffffffffffff\n      and\n      0xffffffffffffffffffffffffffffffffffffffff\n      and\n      dup2\n      mstore\n      0x20\n      add\n      swap1\n      dup2\n      mstore\n      0x20\n      add\n      0x00\n      keccak256\n        /* \"contracts/Daulat Hussain/Medical Smart Contract.sol\":877:907  patients[msg.sender] = patient */\n      0x00\n      dup3\n      add\n      mload\n      dup2\n      0x00\n      add\n      swap1\n      dup1\n      mload\n      swap1\n      0x20\n      add\n      swap1\n      tag_33\n      swap3\n      swap2\n      swap1\n      tag_34\n      jump\t// in\n    tag_33:\n      pop\n      0x20\n      dup3\n      add\n      mload\n      dup2\n      0x01\n      add\n      sstore\n      0x40\n      dup3\n      add\n      mload\n      dup2\n      0x02\n      add\n      swap1\n      dup1\n      mload\n      swap1\n      0x20\n      add\n      swap1\n      tag_35\n      swap3\n      swap2\n      swap1\n      tag_36\n      jump\t// in\n    tag_35:\n      pop\n      0x60\n      dup3\n      add\n      mload\n      dup2\n      0x03\n      add\n      swap1\n      dup1\n      mload\n      swap1\n      0x20\n      add\n      swap1\n      tag_37\n      swap3\n      swap2\n      swap1\n      tag_36\n      jump\t// in\n    tag_37:\n      pop\n      0x80\n      dup3\n      add\n      mload\n      dup2\n      0x04\n      add\n      swap1\n      dup1\n      mload\n      swap1\n      0x20\n      add\n      swap1\n      tag_38\n      swap3\n      swap2\n      swap1\n      tag_36\n      jump\t// in\n    tag_38:\n      pop\n      0xa0\n      dup3\n      add\n      mload\n      dup2\n      0x05\n      add\n      swap1\n      dup1\n      mload\n      swap1\n      0x20\n      add\n      swap1\n      tag_39\n      swap3\n      swap2\n      swap1\n      tag_36\n      jump\t// in\n    tag_39:\n      pop\n      swap1\n      pop\n      pop\n        /* \"contracts/Daulat Hussain/Medical Smart Contract.sol\":593:918  {... */\n      pop\n        /* \"contracts/Daulat Hussain/Medical Smart Contract.sol\":346:918  function addPatient(... */\n      pop\n      pop\n      pop\n      pop\n      pop\n      pop\n      jump\t// out\n        /* \"contracts/Daulat Hussain/Medical Smart Contract.sol\":926:1360  function updatePatient(... */\n    tag_20:\n        /* \"contracts/Daulat Hussain/Medical Smart Contract.sol\":1135:1157  Patient memory patient */\n      0x00\n        /* \"contracts/Daulat Hussain/Medical Smart Contract.sol\":1160:1168  patients */\n      dup1\n        /* \"contracts/Daulat Hussain/Medical Smart Contract.sol\":1160:1180  patients[msg.sender] */\n      0x00\n        /* \"contracts/Daulat Hussain/Medical Smart Contract.sol\":1169:1179  msg.sender */\n      caller\n        /* \"contracts/Daulat Hussain/Medical Smart Contract.sol\":1160:1180  patients[msg.sender] */\n      0xffffffffffffffffffffffffffffffffffffffff\n      and\n      0xffffffffffffffffffffffffffffffffffffffff\n      and\n      dup2\n      mstore\n      0x20\n      add\n      swap1\n      dup2\n      mstore\n      0x20\n      add\n      0x00\n      keccak256\n        /* \"contracts/Daulat Hussain/Medical Smart Contract.sol\":1135:1180  Patient memory patient = patients[msg.sender] */\n      mload(0x40)\n      dup1\n      0xc0\n      add\n      0x40\n      mstore\n      swap1\n      dup2\n      0x00\n      dup3\n      add\n      dup1\n      sload\n      tag_41\n      swap1\n      tag_27\n      jump\t// in\n    tag_41:\n      dup1\n      0x1f\n      add\n      0x20\n      dup1\n      swap2\n      div\n      mul\n      0x20\n      add\n      mload(0x40)\n      swap1\n      dup2\n      add\n      0x40\n      mstore\n      dup1\n      swap3\n      swap2\n      swap1\n      dup2\n      dup2\n      mstore\n      0x20\n      add\n      dup3\n      dup1\n      sload\n      tag_42\n      swap1\n      tag_27\n      jump\t// in\n    tag_42:\n      dup1\n      iszero\n      tag_43\n      jumpi\n      dup1\n      0x1f\n      lt\n      tag_44\n      jumpi\n      0x0100\n      dup1\n      dup4\n      sload\n      div\n      mul\n      dup4\n      mstore\n      swap2\n      0x20\n      add\n      swap2\n      jump(tag_43)\n    tag_44:\n      dup3\n      add\n      swap2\n      swap1\n      0x00\n      mstore\n      keccak256(0x00, 0x20)\n      swap1\n    tag_45:\n      dup2\n      sload\n      dup2\n      mstore\n      swap1\n      0x01\n      add\n      swap1\n      0x20\n      add\n      dup1\n      dup4\n      gt\n      tag_45\n      jumpi\n      dup3\n      swap1\n      sub\n      0x1f\n      and\n      dup3\n      add\n      swap2\n    tag_43:\n      pop\n      pop\n      pop\n      pop\n      pop\n      dup2\n      mstore\n      0x20\n      add\n      0x01\n      dup3\n      add\n      sload\n      dup2\n      mstore\n      0x20\n      add\n      0x02\n      dup3\n      add\n      dup1\n      sload\n      dup1\n      0x20\n      mul\n      0x20\n      add\n      mload(0x40)\n      swap1\n      dup2\n      add\n      0x40\n      mstore\n      dup1\n      swap3\n      swap2\n      swap1\n      dup2\n      dup2\n      mstore\n      0x20\n      add\n      0x00\n      swap1\n    tag_46:\n      dup3\n      dup3\n      lt\n      iszero\n      tag_47\n      jumpi\n      dup4\n      dup3\n      swap1\n      0x00\n      mstore\n      keccak256(0x00, 0x20)\n      add\n      dup1\n      sload\n      tag_49\n      swap1\n      tag_27\n      jump\t// in\n    tag_49:\n      dup1\n      0x1f\n      add\n      0x20\n      dup1\n      swap2\n      div\n      mul\n      0x20\n      add\n      mload(0x40)\n      swap1\n      dup2\n      add\n      0x40\n      mstore\n      dup1\n      swap3\n      swap2\n      swap1\n      dup2\n      dup2\n      mstore\n      0x20\n      add\n      dup3\n      dup1\n      sload\n      tag_50\n      swap1\n      tag_27\n      jump\t// in\n    tag_50:\n      dup1\n      iszero\n      tag_51\n      jumpi\n      dup1\n      0x1f\n      lt\n      tag_52\n      jumpi\n      0x0100\n      dup1\n      dup4\n      sload\n      div\n      mul\n      dup4\n      mstore\n      swap2\n      0x20\n      add\n      swap2\n      jump(tag_51)\n    tag_52:\n      dup3\n      add\n      swap2\n      swap1\n      0x00\n      mstore\n      keccak256(0x00, 0x20)\n      swap1\n    tag_53:\n      dup2\n      sload\n      dup2\n      mstore\n      swap1\n      0x01\n      add\n      swap1\n      0x20\n      add\n      dup1\n      dup4\n      gt\n      tag_53\n      jumpi\n      dup3\n      swap1\n      sub\n      0x1f\n      and\n      dup3\n      add\n      swap2\n    tag_51:\n      pop\n      pop\n      pop\n      pop\n      pop\n      dup2\n      mstore\n      0x20\n      add\n      swap1\n      0x01\n      add\n      swap1\n      jump(tag_46)\n    tag_47:\n      pop\n      pop\n      pop\n      pop\n      dup2\n      mstore\n      0x20\n      add\n      0x03\n      dup3\n      add\n      dup1\n      sload\n      dup1\n      0x20\n      mul\n      0x20\n      add\n      mload(0x40)\n      swap1\n      dup2\n      add\n      0x40\n      mstore\n      dup1\n      swap3\n      swap2\n      swap1\n      dup2\n      dup2\n      mstore\n      0x20\n      add\n      0x00\n      swap1\n    tag_54:\n      dup3\n      dup3\n      lt\n      iszero\n      tag_55\n      jumpi\n      dup4\n      dup3\n      swap1\n      0x00\n      mstore\n      keccak256(0x00, 0x20)\n      add\n      dup1\n      sload\n      tag_57\n      swap1\n      tag_27\n      jump\t// in\n    tag_57:\n      dup1\n      0x1f\n      add\n      0x20\n      dup1\n      swap2\n      div\n      mul\n      0x20\n      add\n      mload(0x40)\n      swap1\n      dup2\n      add\n      0x40\n      mstore\n      dup1\n      swap3\n      swap2\n      swap1\n      dup2\n      dup2\n      mstore\n      0x20\n      add\n      dup3\n      dup1\n      sload\n      tag_58\n      swap1\n      tag_27\n      jump\t// in\n    tag_58:\n      dup1\n      iszero\n      tag_59\n      jumpi\n      dup1\n      0x1f\n      lt\n      tag_60\n      jumpi\n      0x0100\n      dup1\n      dup4\n      sload\n      div\n      mul\n      dup4\n      mstore\n      swap2\n      0x20\n      add\n      swap2\n      jump(tag_59)\n    tag_60:\n      dup3\n      add\n      swap2\n      swap1\n      0x00\n      mstore\n      keccak256(0x00, 0x20)\n      swap1\n    tag_61:\n      dup2\n      sload\n      dup2\n      mstore\n      swap1\n      0x01\n      add\n      swap1\n      0x20\n      add\n      dup1\n      dup4\n      gt\n      tag_61\n      jumpi\n      dup3\n      swap1\n      sub\n      0x1f\n      and\n      dup3\n      add\n      swap2\n    tag_59:\n      pop\n      pop\n      pop\n      pop\n      pop\n      dup2\n      mstore\n      0x20\n      add\n      swap1\n      0x01\n      add\n      swap1\n      jump(tag_54)\n    tag_55:\n      pop\n      pop\n      pop\n      pop\n      dup2\n      mstore\n      0x20\n      add\n      0x04\n      dup3\n      add\n      dup1\n      sload\n      dup1\n      0x20\n      mul\n      0x20\n      add\n      mload(0x40)\n      swap1\n      dup2\n      add\n      0x40\n      mstore\n      dup1\n      swap3\n      swap2\n      swap1\n      dup2\n      dup2\n      mstore\n      0x20\n      add\n      0x00\n      swap1\n    tag_62:\n      dup3\n      dup3\n      lt\n      iszero\n      tag_63\n      jumpi\n      dup4\n      dup3\n      swap1\n      0x00\n      mstore\n      keccak256(0x00, 0x20)\n      add\n      dup1\n      sload\n      tag_65\n      swap1\n      tag_27\n      jump\t// in\n    tag_65:\n      dup1\n      0x1f\n      add\n      0x20\n      dup1\n      swap2\n      div\n      mul\n      0x20\n      add\n      mload(0x40)\n      swap1\n      dup2\n      add\n      0x40\n      mstore\n      dup1\n      swap3\n      swap2\n      swap1\n      dup2\n      dup2\n      mstore\n      0x20\n      add\n      dup3\n      dup1\n      sload\n      tag_66\n      swap1\n      tag_27\n      jump\t// in\n    tag_66:\n      dup1\n      iszero\n      tag_67\n      jumpi\n      dup1\n      0x1f\n      lt\n      tag_68\n      jumpi\n      0x0100\n      dup1\n      dup4\n      sload\n      div\n      mul\n      dup4\n      mstore\n      swap2\n      0x20\n      add\n      swap2\n      jump(tag_67)\n    tag_68:\n      dup3\n      add\n      swap2\n      swap1\n      0x00\n      mstore\n      keccak256(0x00, 0x20)\n      swap1\n    tag_69:\n      dup2\n      sload\n      dup2\n      mstore\n      swap1\n      0x01\n      add\n      swap1\n      0x20\n      add\n      dup1\n      dup4\n      gt\n      tag_69\n      jumpi\n      dup3\n      swap1\n      sub\n      0x1f\n      and\n      dup3\n      add\n      swap2\n    tag_67:\n      pop\n      pop\n      pop\n      pop\n      pop\n      dup2\n      mstore\n      0x20\n      add\n      swap1\n      0x01\n      add\n      swap1\n      jump(tag_62)\n    tag_63:\n      pop\n      pop\n      pop\n      pop\n      dup2\n      mstore\n      0x20\n      add\n      0x05\n      dup3\n      add\n      dup1\n      sload\n      dup1\n      0x20\n      mul\n      0x20\n      add\n      mload(0x40)\n      swap1\n      dup2\n      add\n      0x40\n      mstore\n      dup1\n      swap3\n      swap2\n      swap1\n      dup2\n      dup2\n      mstore\n      0x20\n      add\n      0x00\n      swap1\n    tag_70:\n      dup3\n      dup3\n      lt\n      iszero\n      tag_71\n      jumpi\n      dup4\n      dup3\n      swap1\n      0x00\n      mstore\n      keccak256(0x00, 0x20)\n      add\n      dup1\n      sload\n      tag_73\n      swap1\n      tag_27\n      jump\t// in\n    tag_73:\n      dup1\n      0x1f\n      add\n      0x20\n      dup1\n      swap2\n      div\n      mul\n      0x20\n      add\n      mload(0x40)\n      swap1\n      dup2\n      add\n      0x40\n      mstore\n      dup1\n      swap3\n      swap2\n      swap1\n      dup2\n      dup2\n      mstore\n      0x20\n      add\n      dup3\n      dup1\n      sload\n      tag_74\n      swap1\n      tag_27\n      jump\t// in\n    tag_74:\n      dup1\n      iszero\n      tag_75\n      jumpi\n      dup1\n      0x1f\n      lt\n      tag_76\n      jumpi\n      0x0100\n      dup1\n      dup4\n      sload\n      div\n      mul\n      dup4\n      mstore\n      swap2\n      0x20\n      add\n      swap2\n      jump(tag_75)\n    tag_76:\n      dup3\n      add\n      swap2\n      swap1\n      0x00\n      mstore\n      keccak256(0x00, 0x20)\n      swap1\n    tag_77:\n      dup2\n      sload\n      dup2\n      mstore\n      swap1\n      0x01\n      add\n      swap1\n      0x20\n      add\n      dup1\n      dup4\n      gt\n      tag_77\n      jumpi\n      dup3\n      swap1\n      sub\n      0x1f\n      and\n      dup3\n      add\n      swap2\n    tag_75:\n      pop\n      pop\n      pop\n      pop\n      pop\n      dup2\n      mstore\n      0x20\n      add\n      swap1\n      0x01\n      add\n      swap1\n      jump(tag_70)\n    tag_71:\n      pop\n      pop\n      pop\n      pop\n      dup2\n      mstore\n      pop\n      pop\n      swap1\n      pop\n        /* \"contracts/Daulat Hussain/Medical Smart Contract.sol\":1212:1223  _conditions */\n      dup5\n        /* \"contracts/Daulat Hussain/Medical Smart Contract.sol\":1191:1198  patient */\n      dup2\n        /* \"contracts/Daulat Hussain/Medical Smart Contract.sol\":1191:1209  patient.conditions */\n      0x40\n      add\n        /* \"contracts/Daulat Hussain/Medical Smart Contract.sol\":1191:1223  patient.conditions = _conditions */\n      dup2\n      swap1\n      mstore\n      pop\n        /* \"contracts/Daulat Hussain/Medical Smart Contract.sol\":1254:1264  _allergies */\n      dup4\n        /* \"contracts/Daulat Hussain/Medical Smart Contract.sol\":1234:1241  patient */\n      dup2\n        /* \"contracts/Daulat Hussain/Medical Smart Contract.sol\":1234:1251  patient.allergies */\n      0x60\n      add\n        /* \"contracts/Daulat Hussain/Medical Smart Contract.sol\":1234:1264  patient.allergies = _allergies */\n      dup2\n      swap1\n      mstore\n      pop\n        /* \"contracts/Daulat Hussain/Medical Smart Contract.sol\":1297:1309  _medications */\n      dup3\n        /* \"contracts/Daulat Hussain/Medical Smart Contract.sol\":1275:1282  patient */\n      dup2\n        /* \"contracts/Daulat Hussain/Medical Smart Contract.sol\":1275:1294  patient.medications */\n      0x80\n      add\n        /* \"contracts/Daulat Hussain/Medical Smart Contract.sol\":1275:1309  patient.medications = _medications */\n      dup2\n      swap1\n      mstore\n      pop\n        /* \"contracts/Daulat Hussain/Medical Smart Contract.sol\":1341:1352  _procedures */\n      dup2\n        /* \"contracts/Daulat Hussain/Medical Smart Contract.sol\":1320:1327  patient */\n      dup2\n        /* \"contracts/Daulat Hussain/Medical Smart Contract.sol\":1320:1338  patient.procedures */\n      0xa0\n      add\n        /* \"contracts/Daulat Hussain/Medical Smart Contract.sol\":1320:1352  patient.procedures = _procedures */\n      dup2\n      swap1\n      mstore\n      pop\n        /* \"contracts/Daulat Hussain/Medical Smart Contract.sol\":1124:1360  {... */\n      pop\n        /* \"contracts/Daulat Hussain/Medical Smart Contract.sol\":926:1360  function updatePatient(... */\n      pop\n      pop\n      pop\n      pop\n      jump\t// out\n        /* \"contracts/Daulat Hussain/Medical Smart Contract.sol\":1368:1781  function getPatient(address _patientAddress) public view returns(... */\n    tag_23:\n        /* \"contracts/Daulat Hussain/Medical Smart Contract.sol\":1443:1456  string memory */\n      0x60\n        /* \"contracts/Daulat Hussain/Medical Smart Contract.sol\":1467:1471  uint */\n      0x00\n        /* \"contracts/Daulat Hussain/Medical Smart Contract.sol\":1482:1498  string [] memory */\n      0x60\n        /* \"contracts/Daulat Hussain/Medical Smart Contract.sol\":1509:1525  string [] memory */\n      dup1\n        /* \"contracts/Daulat Hussain/Medical Smart Contract.sol\":1536:1552  string [] memory */\n      0x60\n        /* \"contracts/Daulat Hussain/Medical Smart Contract.sol\":1563:1579  string [] memory */\n      dup1\n        /* \"contracts/Daulat Hussain/Medical Smart Contract.sol\":1598:1620  Patient memory patient */\n      0x00\n        /* \"contracts/Daulat Hussain/Medical Smart Contract.sol\":1623:1631  patients */\n      dup1\n        /* \"contracts/Daulat Hussain/Medical Smart Contract.sol\":1623:1648  patients[_patientAddress] */\n      0x00\n        /* \"contracts/Daulat Hussain/Medical Smart Contract.sol\":1632:1647  _patientAddress */\n      dup10\n        /* \"contracts/Daulat Hussain/Medical Smart Contract.sol\":1623:1648  patients[_patientAddress] */\n      0xffffffffffffffffffffffffffffffffffffffff\n      and\n      0xffffffffffffffffffffffffffffffffffffffff\n      and\n      dup2\n      mstore\n      0x20\n      add\n      swap1\n      dup2\n      mstore\n      0x20\n      add\n      0x00\n      keccak256\n        /* \"contracts/Daulat Hussain/Medical Smart Contract.sol\":1598:1648  Patient memory patient = patients[_patientAddress] */\n      mload(0x40)\n      dup1\n      0xc0\n      add\n      0x40\n      mstore\n      swap1\n      dup2\n      0x00\n      dup3\n      add\n      dup1\n      sload\n      tag_79\n      swap1\n      tag_27\n      jump\t// in\n    tag_79:\n      dup1\n      0x1f\n      add\n      0x20\n      dup1\n      swap2\n      div\n      mul\n      0x20\n      add\n      mload(0x40)\n      swap1\n      dup2\n      add\n      0x40\n      mstore\n      dup1\n      swap3\n      swap2\n      swap1\n      dup2\n      dup2\n      mstore\n      0x20\n      add\n      dup3\n      dup1\n      sload\n      tag_80\n      swap1\n      tag_27\n      jump\t// in\n    tag_80:\n      dup1\n      iszero\n      tag_81\n      jumpi\n      dup1\n      0x1f\n      lt\n      tag_82\n      jumpi\n      0x0100\n      dup1\n      dup4\n      sload\n      div\n      mul\n      dup4\n      mstore\n      swap2\n      0x20\n      add\n      swap2\n      jump(tag_81)\n    tag_82:\n      dup3\n      add\n      swap2\n      swap1\n      0x00\n      mstore\n      keccak256(0x00, 0x20)\n      swap1\n    tag_83:\n      dup2\n      sload\n      dup2\n      mstore\n      swap1\n      0x01\n      add\n      swap1\n      0x20\n      add\n      dup1\n      dup4\n      gt\n      tag_83\n      jumpi\n      dup3\n      swap1\n      sub\n      0x1f\n      and\n      dup3\n      add\n      swap2\n    tag_81:\n      pop\n      pop\n      pop\n      pop\n      pop\n      dup2\n      mstore\n      0x20\n      add\n      0x01\n      dup3\n      add\n      sload\n      dup2\n      mstore\n      0x20\n      add\n      0x02\n      dup3\n      add\n      dup1\n      sload\n      dup1\n      0x20\n      mul\n      0x20\n      add\n      mload(0x40)\n      swap1\n      dup2\n      add\n      0x40\n      mstore\n      dup1\n      swap3\n      swap2\n      swap1\n      dup2\n      dup2\n      mstore\n      0x20\n      add\n      0x00\n      swap1\n    tag_84:\n      dup3\n      dup3\n      lt\n      iszero\n      tag_85\n      jumpi\n      dup4\n      dup3\n      swap1\n      0x00\n      mstore\n      keccak256(0x00, 0x20)\n      add\n      dup1\n      sload\n      tag_87\n      swap1\n      tag_27\n      jump\t// in\n    tag_87:\n      dup1\n      0x1f\n      add\n      0x20\n      dup1\n      swap2\n      div\n      mul\n      0x20\n      add\n      mload(0x40)\n      swap1\n      dup2\n      add\n      0x40\n      mstore\n      dup1\n      swap3\n      swap2\n      swap1\n      dup2\n      dup2\n      mstore\n      0x20\n      add\n      dup3\n      dup1\n      sload\n      tag_88\n      swap1\n      tag_27\n      jump\t// in\n    tag_88:\n      dup1\n      iszero\n      tag_89\n      jumpi\n      dup1\n      0x1f\n      lt\n      tag_90\n      jumpi\n      0x0100\n      dup1\n      dup4\n      sload\n      div\n      mul\n      dup4\n      mstore\n      swap2\n      0x20\n      add\n      swap2\n      jump(tag_89)\n    tag_90:\n      dup3\n      add\n      swap2\n      swap1\n      0x00\n      mstore\n      keccak256(0x00, 0x20)\n      swap1\n    tag_91:\n      dup2\n      sload\n      dup2\n      mstore\n      swap1\n      0x01\n      add\n      swap1\n      0x20\n      add\n      dup1\n      dup4\n      gt\n      tag_91\n      jumpi\n      dup3\n      swap1\n      sub\n      0x1f\n      and\n      dup3\n      add\n      swap2\n    tag_89:\n      pop\n      pop\n      pop\n      pop\n      pop\n      dup2\n      mstore\n      0x20\n      add\n      swap1\n      0x01\n      add\n      swap1\n      jump(tag_84)\n    tag_85:\n      pop\n      pop\n      pop\n      pop\n      dup2\n      mstore\n      0x20\n      add\n      0x03\n      dup3\n      add\n      dup1\n      sload\n      dup1\n      0x20\n      mul\n      0x20\n      add\n      mload(0x40)\n      swap1\n      dup2\n      add\n      0x40\n      mstore\n      dup1\n      swap3\n      swap2\n      swap1\n      dup2\n      dup2\n      mstore\n      0x20\n      add\n      0x00\n      swap1\n    tag_92:\n      dup3\n      dup3\n      lt\n      iszero\n      tag_93\n      jumpi\n      dup4\n      dup3\n      swap1\n      0x00\n      mstore\n      keccak256(0x00, 0x20)\n      add\n      dup1\n      sload\n      tag_95\n      swap1\n      tag_27\n      jump\t// in\n    tag_95:\n      dup1\n      0x1f\n      add\n      0x20\n      dup1\n      swap2\n      div\n      mul\n      0x20\n      add\n      mload(0x40)\n      swap1\n      dup2\n      add\n      0x40\n      mstore\n      dup1\n      swap3\n      swap2\n      swap1\n      dup2\n      dup2\n      mstore\n      0x20\n      add\n      dup3\n      dup1\n      sload\n      tag_96\n      swap1\n      tag_27\n      jump\t// in\n    tag_96:\n      dup1\n      iszero\n      tag_97\n      jumpi\n      dup1\n      0x1f\n      lt\n      tag_98\n      jumpi\n      0x0100\n      dup1\n      dup4\n      sload\n      div\n      mul\n      dup4\n      mstore\n      swap2\n      0x20\n      add\n      swap2\n      jump(tag_97)\n    tag_98:\n      dup3\n      add\n      swap2\n      swap1\n      0x00\n      mstore\n      keccak256(0x00, 0x20)\n      swap1\n    tag_99:\n      dup2\n      sload\n      dup2\n      mstore\n      swap1\n      0x01\n      add\n      swap1\n      0x20\n      add\n      dup1\n      dup4\n      gt\n      tag_99\n      jumpi\n      dup3\n      swap1\n      sub\n      0x1f\n      and\n      dup3\n      add\n      swap2\n    tag_97:\n      pop\n      pop\n      pop\n      pop\n      pop\n      dup2\n      mstore\n      0x20\n      add\n      swap1\n      0x01\n      add\n      swap1\n      jump(tag_92)\n    tag_93:\n      pop\n      pop\n      pop\n      pop\n      dup2\n      mstore\n      0x20\n      add\n      0x04\n      dup3\n      add\n      dup1\n      sload\n      dup1\n      0x20\n      mul\n      0x20\n      add\n      mload(0x40)\n      swap1\n      dup2\n      add\n      0x40\n      mstore\n      dup1\n      swap3\n      swap2\n      swap1\n      dup2\n      dup2\n      mstore\n      0x20\n      add\n      0x00\n      swap1\n    tag_100:\n      dup3\n      dup3\n      lt\n      iszero\n      tag_101\n      jumpi\n      dup4\n      dup3\n      swap1\n      0x00\n      mstore\n      keccak256(0x00, 0x20)\n      add\n      dup1\n      sload\n      tag_103\n      swap1\n      tag_27\n      jump\t// in\n    tag_103:\n      dup1\n      0x1f\n      add\n      0x20\n      dup1\n      swap2\n      div\n      mul\n      0x20\n      add\n      mload(0x40)\n      swap1\n      dup2\n      add\n      0x40\n      mstore\n      dup1\n      swap3\n      swap2\n      swap1\n      dup2\n      dup2\n      mstore\n      0x20\n      add\n      dup3\n      dup1\n      sload\n      tag_104\n      swap1\n      tag_27\n      jump\t// in\n    tag_104:\n      dup1\n      iszero\n      tag_105\n      jumpi\n      dup1\n      0x1f\n      lt\n      tag_106\n      jumpi\n      0x0100\n      dup1\n      dup4\n      sload\n      div\n      mul\n      dup4\n      mstore\n      swap2\n      0x20\n      add\n      swap2\n      jump(tag_105)\n    tag_106:\n      dup3\n      add\n      swap2\n      swap1\n      0x00\n      mstore\n      keccak256(0x00, 0x20)\n      swap1\n    tag_107:\n      dup2\n      sload\n      dup2\n      mstore\n      swap1\n      0x01\n      add\n      swap1\n      0x20\n      add\n      dup1\n      dup4\n      gt\n      tag_107\n      jumpi\n      dup3\n      swap1\n      sub\n      0x1f\n      and\n      dup3\n      add\n      swap2\n    tag_105:\n      pop\n      pop\n      pop\n      pop\n      pop\n      dup2\n      mstore\n      0x20\n      add\n      swap1\n      0x01\n      add\n      swap1\n      jump(tag_100)\n    tag_101:\n      pop\n      pop\n      pop\n      pop\n      dup2\n      mstore\n      0x20\n      add\n      0x05\n      dup3\n      add\n      dup1\n      sload\n      dup1\n      0x20\n      mul\n      0x20\n      add\n      mload(0x40)\n      swap1\n      dup2\n      add\n      0x40\n      mstore\n      dup1\n      swap3\n      swap2\n      swap1\n      dup2\n      dup2\n      mstore\n      0x20\n      add\n      0x00\n      swap1\n    tag_108:\n      dup3\n      dup3\n      lt\n      iszero\n      tag_109\n      jumpi\n      dup4\n      dup3\n      swap1\n      0x00\n      mstore\n      keccak256(0x00, 0x20)\n      add\n      dup1\n      sload\n      tag_111\n      swap1\n      tag_27\n      jump\t// in\n    tag_111:\n      dup1\n      0x1f\n      add\n      0x20\n      dup1\n      swap2\n      div\n      mul\n      0x20\n      add\n      mload(0x40)\n      swap1\n      dup2\n      add\n      0x40\n      mstore\n      dup1\n      swap3\n      swap2\n      swap1\n      dup2\n      dup2\n      mstore\n      0x20\n      add\n      dup3\n      dup1\n      sload\n      tag_112\n      swap1\n      tag_27\n      jump\t// in\n    tag_112:\n      dup1\n      iszero\n      tag_113\n      jumpi\n      dup1\n      0x1f\n      lt\n      tag_114\n      jumpi\n      0x0100\n      dup1\n      dup4\n      sload\n      div\n      mul\n      dup4\n      mstore\n      swap2\n      0x20\n      add\n      swap2\n      jump(tag_113)\n    tag_114:\n      dup3\n      add\n      swap2\n      swap1\n      0x00\n      mstore\n      keccak256(0x00, 0x20)\n      swap1\n    tag_115:\n      dup2\n      sload\n      dup2\n      mstore\n      swap1\n      0x01\n      add\n      swap1\n      0x20\n      add\n      dup1\n      dup4\n      gt\n      tag_115\n      jumpi\n      dup3\n      swap1\n      sub\n      0x1f\n      and\n      dup3\n      add\n      swap2\n    tag_113:\n      pop\n      pop\n      pop\n      pop\n      pop\n      dup2\n      mstore\n      0x20\n      add\n      swap1\n      0x01\n      add\n      swap1\n      jump(tag_108)\n    tag_109:\n      pop\n      pop\n      pop\n      pop\n      dup2\n      mstore\n      pop\n      pop\n      swap1\n      pop\n        /* \"contracts/Daulat Hussain/Medical Smart Contract.sol\":1667:1674  patient */\n      dup1\n        /* \"contracts/Daulat Hussain/Medical Smart Contract.sol\":1667:1679  patient.name */\n      0x00\n      add\n      mload\n        /* \"contracts/Daulat Hussain/Medical Smart Contract.sol\":1681:1688  patient */\n      dup2\n        /* \"contracts/Daulat Hussain/Medical Smart Contract.sol\":1681:1692  patient.age */\n      0x20\n      add\n      mload\n        /* \"contracts/Daulat Hussain/Medical Smart Contract.sol\":1694:1701  patient */\n      dup3\n        /* \"contracts/Daulat Hussain/Medical Smart Contract.sol\":1694:1712  patient.conditions */\n      0x40\n      add\n      mload\n        /* \"contracts/Daulat Hussain/Medical Smart Contract.sol\":1714:1721  patient */\n      dup4\n        /* \"contracts/Daulat Hussain/Medical Smart Contract.sol\":1714:1731  patient.allergies */\n      0x60\n      add\n      mload\n        /* \"contracts/Daulat Hussain/Medical Smart Contract.sol\":1733:1740  patient */\n      dup5\n        /* \"contracts/Daulat Hussain/Medical Smart Contract.sol\":1733:1752  patient.medications */\n      0x80\n      add\n      mload\n        /* \"contracts/Daulat Hussain/Medical Smart Contract.sol\":1754:1761  patient */\n      dup6\n        /* \"contracts/Daulat Hussain/Medical Smart Contract.sol\":1754:1772  patient.procedures */\n      0xa0\n      add\n      mload\n        /* \"contracts/Daulat Hussain/Medical Smart Contract.sol\":1659:1773  return (patient.name, patient.age, patient.conditions, patient.allergies, patient.medications, patient.procedures) */\n      swap7\n      pop\n      swap7\n      pop\n      swap7\n      pop\n      swap7\n      pop\n      swap7\n      pop\n      swap7\n      pop\n      pop\n        /* \"contracts/Daulat Hussain/Medical Smart Contract.sol\":1368:1781  function getPatient(address _patientAddress) public view returns(... */\n      swap2\n      swap4\n      swap6\n      pop\n      swap2\n      swap4\n      swap6\n      jump\t// out\n    tag_34:\n      dup3\n      dup1\n      sload\n      tag_116\n      swap1\n      tag_27\n      jump\t// in\n    tag_116:\n      swap1\n      0x00\n      mstore\n      keccak256(0x00, 0x20)\n      swap1\n      0x1f\n      add\n      0x20\n      swap1\n      div\n      dup2\n      add\n      swap3\n      dup3\n      tag_118\n      jumpi\n      0x00\n      dup6\n      sstore\n      jump(tag_117)\n    tag_118:\n      dup3\n      0x1f\n      lt\n      tag_119\n      jumpi\n      dup1\n      mload\n      not(0xff)\n      and\n      dup4\n      dup1\n      add\n      or\n      dup6\n      sstore\n      jump(tag_117)\n    tag_119:\n      dup3\n      dup1\n      add\n      0x01\n      add\n      dup6\n      sstore\n      dup3\n      iszero\n      tag_117\n      jumpi\n      swap2\n      dup3\n      add\n    tag_120:\n      dup3\n      dup2\n      gt\n      iszero\n      tag_121\n      jumpi\n      dup3\n      mload\n      dup3\n      sstore\n      swap2\n      0x20\n      add\n      swap2\n      swap1\n      0x01\n      add\n      swap1\n      jump(tag_120)\n    tag_121:\n    tag_117:\n      pop\n      swap1\n      pop\n      tag_122\n      swap2\n      swap1\n      tag_123\n      jump\t// in\n    tag_122:\n      pop\n      swap1\n      jump\t// out\n    tag_36:\n      dup3\n      dup1\n      sload\n      dup3\n      dup3\n      sstore\n      swap1\n      0x00\n      mstore\n      keccak256(0x00, 0x20)\n      swap1\n      dup2\n      add\n      swap3\n      dup3\n      iszero\n      tag_124\n      jumpi\n      swap2\n      0x20\n      mul\n      dup3\n      add\n    tag_125:\n      dup3\n      dup2\n      gt\n      iszero\n      tag_126\n      jumpi\n      dup3\n      mload\n      dup3\n      swap1\n      dup1\n      mload\n      swap1\n      0x20\n      add\n      swap1\n      tag_127\n      swap3\n      swap2\n      swap1\n      tag_34\n      jump\t// in\n    tag_127:\n      pop\n      swap2\n      0x20\n      add\n      swap2\n      swap1\n      0x01\n      add\n      swap1\n      jump(tag_125)\n    tag_126:\n    tag_124:\n      pop\n      swap1\n      pop\n      tag_128\n      swap2\n      swap1\n      tag_129\n      jump\t// in\n    tag_128:\n      pop\n      swap1\n      jump\t// out\n    tag_123:\n    tag_130:\n      dup1\n      dup3\n      gt\n      iszero\n      tag_131\n      jumpi\n      0x00\n      dup2\n      0x00\n      swap1\n      sstore\n      pop\n      0x01\n      add\n      jump(tag_130)\n    tag_131:\n      pop\n      swap1\n      jump\t// out\n    tag_129:\n    tag_132:\n      dup1\n      dup3\n      gt\n      iszero\n      tag_133\n      jumpi\n      0x00\n      dup2\n      dup2\n      tag_134\n      swap2\n      swap1\n      tag_135\n      jump\t// in\n    tag_134:\n      pop\n      0x01\n      add\n      jump(tag_132)\n    tag_133:\n      pop\n      swap1\n      jump\t// out\n    tag_135:\n      pop\n      dup1\n      sload\n      tag_136\n      swap1\n      tag_27\n      jump\t// in\n    tag_136:\n      0x00\n      dup3\n      sstore\n      dup1\n      0x1f\n      lt\n      tag_138\n      jumpi\n      pop\n      jump(tag_137)\n    tag_138:\n      0x1f\n      add\n      0x20\n      swap1\n      div\n      swap1\n      0x00\n      mstore\n      keccak256(0x00, 0x20)\n      swap1\n      dup2\n      add\n      swap1\n      tag_139\n      swap2\n      swap1\n      tag_123\n      jump\t// in\n    tag_139:\n    tag_137:\n      pop\n      jump\t// out\n        /* \"#utility.yul\":7:82   */\n    tag_140:\n        /* \"#utility.yul\":40:46   */\n      0x00\n        /* \"#utility.yul\":73:75   */\n      0x40\n        /* \"#utility.yul\":67:76   */\n      mload\n        /* \"#utility.yul\":57:76   */\n      swap1\n      pop\n        /* \"#utility.yul\":7:82   */\n      swap1\n      jump\t// out\n        /* \"#utility.yul\":88:205   */\n    tag_141:\n        /* \"#utility.yul\":197:198   */\n      0x00\n        /* \"#utility.yul\":194:195   */\n      dup1\n        /* \"#utility.yul\":187:199   */\n      revert\n        /* \"#utility.yul\":211:328   */\n    tag_142:\n        /* \"#utility.yul\":320:321   */\n      0x00\n        /* \"#utility.yul\":317:318   */\n      dup1\n        /* \"#utility.yul\":310:322   */\n      revert\n        /* \"#utility.yul\":334:460   */\n    tag_143:\n        /* \"#utility.yul\":371:378   */\n      0x00\n        /* \"#utility.yul\":411:453   */\n      0xffffffffffffffffffffffffffffffffffffffff\n        /* \"#utility.yul\":404:409   */\n      dup3\n        /* \"#utility.yul\":400:454   */\n      and\n        /* \"#utility.yul\":389:454   */\n      swap1\n      pop\n        /* \"#utility.yul\":334:460   */\n      swap2\n      swap1\n      pop\n      jump\t// out\n        /* \"#utility.yul\":466:562   */\n    tag_144:\n        /* \"#utility.yul\":503:510   */\n      0x00\n        /* \"#utility.yul\":532:556   */\n      tag_184\n        /* \"#utility.yul\":550:555   */\n      dup3\n        /* \"#utility.yul\":532:556   */\n      tag_143\n      jump\t// in\n    tag_184:\n        /* \"#utility.yul\":521:556   */\n      swap1\n      pop\n        /* \"#utility.yul\":466:562   */\n      swap2\n      swap1\n      pop\n      jump\t// out\n        /* \"#utility.yul\":568:690   */\n    tag_145:\n        /* \"#utility.yul\":641:665   */\n      tag_186\n        /* \"#utility.yul\":659:664   */\n      dup2\n        /* \"#utility.yul\":641:665   */\n      tag_144\n      jump\t// in\n    tag_186:\n        /* \"#utility.yul\":634:639   */\n      dup2\n        /* \"#utility.yul\":631:666   */\n      eq\n        /* \"#utility.yul\":621:684   */\n      tag_187\n      jumpi\n        /* \"#utility.yul\":680:681   */\n      0x00\n        /* \"#utility.yul\":677:678   */\n      dup1\n        /* \"#utility.yul\":670:682   */\n      revert\n        /* \"#utility.yul\":621:684   */\n    tag_187:\n        /* \"#utility.yul\":568:690   */\n      pop\n      jump\t// out\n        /* \"#utility.yul\":696:835   */\n    tag_146:\n        /* \"#utility.yul\":742:747   */\n      0x00\n        /* \"#utility.yul\":780:786   */\n      dup2\n        /* \"#utility.yul\":767:787   */\n      calldataload\n        /* \"#utility.yul\":758:787   */\n      swap1\n      pop\n        /* \"#utility.yul\":796:829   */\n      tag_189\n        /* \"#utility.yul\":823:828   */\n      dup2\n        /* \"#utility.yul\":796:829   */\n      tag_145\n      jump\t// in\n    tag_189:\n        /* \"#utility.yul\":696:835   */\n      swap3\n      swap2\n      pop\n      pop\n      jump\t// out\n        /* \"#utility.yul\":841:1170   */\n    tag_9:\n        /* \"#utility.yul\":900:906   */\n      0x00\n        /* \"#utility.yul\":949:951   */\n      0x20\n        /* \"#utility.yul\":937:946   */\n      dup3\n        /* \"#utility.yul\":928:935   */\n      dup5\n        /* \"#utility.yul\":924:947   */\n      sub\n        /* \"#utility.yul\":920:952   */\n      slt\n        /* \"#utility.yul\":917:1036   */\n      iszero\n      tag_191\n      jumpi\n        /* \"#utility.yul\":955:1034   */\n      tag_192\n      tag_141\n      jump\t// in\n    tag_192:\n        /* \"#utility.yul\":917:1036   */\n    tag_191:\n        /* \"#utility.yul\":1075:1076   */\n      0x00\n        /* \"#utility.yul\":1100:1153   */\n      tag_193\n        /* \"#utility.yul\":1145:1152   */\n      dup5\n        /* \"#utility.yul\":1136:1142   */\n      dup3\n        /* \"#utility.yul\":1125:1134   */\n      dup6\n        /* \"#utility.yul\":1121:1143   */\n      add\n        /* \"#utility.yul\":1100:1153   */\n      tag_146\n      jump\t// in\n    tag_193:\n        /* \"#utility.yul\":1090:1153   */\n      swap2\n      pop\n        /* \"#utility.yul\":1046:1163   */\n      pop\n        /* \"#utility.yul\":841:1170   */\n      swap3\n      swap2\n      pop\n      pop\n      jump\t// out\n        /* \"#utility.yul\":1176:1275   */\n    tag_147:\n        /* \"#utility.yul\":1228:1234   */\n      0x00\n        /* \"#utility.yul\":1262:1267   */\n      dup2\n        /* \"#utility.yul\":1256:1268   */\n      mload\n        /* \"#utility.yul\":1246:1268   */\n      swap1\n      pop\n        /* \"#utility.yul\":1176:1275   */\n      swap2\n      swap1\n      pop\n      jump\t// out\n        /* \"#utility.yul\":1281:1450   */\n    tag_148:\n        /* \"#utility.yul\":1365:1376   */\n      0x00\n        /* \"#utility.yul\":1399:1405   */\n      dup3\n        /* \"#utility.yul\":1394:1397   */\n      dup3\n        /* \"#utility.yul\":1387:1406   */\n      mstore\n        /* \"#utility.yul\":1439:1443   */\n      0x20\n        /* \"#utility.yul\":1434:1437   */\n      dup3\n        /* \"#utility.yul\":1430:1444   */\n      add\n        /* \"#utility.yul\":1415:1444   */\n      swap1\n      pop\n        /* \"#utility.yul\":1281:1450   */\n      swap3\n      swap2\n      pop\n      pop\n      jump\t// out\n        /* \"#utility.yul\":1456:1763   */\n    tag_149:\n        /* \"#utility.yul\":1524:1525   */\n      0x00\n        /* \"#utility.yul\":1534:1647   */\n    tag_197:\n        /* \"#utility.yul\":1548:1554   */\n      dup4\n        /* \"#utility.yul\":1545:1546   */\n      dup2\n        /* \"#utility.yul\":1542:1555   */\n      lt\n        /* \"#utility.yul\":1534:1647   */\n      iszero\n      tag_199\n      jumpi\n        /* \"#utility.yul\":1633:1634   */\n      dup1\n        /* \"#utility.yul\":1628:1631   */\n      dup3\n        /* \"#utility.yul\":1624:1635   */\n      add\n        /* \"#utility.yul\":1618:1636   */\n      mload\n        /* \"#utility.yul\":1614:1615   */\n      dup2\n        /* \"#utility.yul\":1609:1612   */\n      dup5\n        /* \"#utility.yul\":1605:1616   */\n      add\n        /* \"#utility.yul\":1598:1637   */\n      mstore\n        /* \"#utility.yul\":1570:1572   */\n      0x20\n        /* \"#utility.yul\":1567:1568   */\n      dup2\n        /* \"#utility.yul\":1563:1573   */\n      add\n        /* \"#utility.yul\":1558:1573   */\n      swap1\n      pop\n        /* \"#utility.yul\":1534:1647   */\n      jump(tag_197)\n    tag_199:\n        /* \"#utility.yul\":1665:1671   */\n      dup4\n        /* \"#utility.yul\":1662:1663   */\n      dup2\n        /* \"#utility.yul\":1659:1672   */\n      gt\n        /* \"#utility.yul\":1656:1757   */\n      iszero\n      tag_200\n      jumpi\n        /* \"#utility.yul\":1745:1746   */\n      0x00\n        /* \"#utility.yul\":1736:1742   */\n      dup5\n        /* \"#utility.yul\":1731:1734   */\n      dup5\n        /* \"#utility.yul\":1727:1743   */\n      add\n        /* \"#utility.yul\":1720:1747   */\n      mstore\n        /* \"#utility.yul\":1656:1757   */\n    tag_200:\n        /* \"#utility.yul\":1505:1763   */\n      pop\n        /* \"#utility.yul\":1456:1763   */\n      pop\n      pop\n      pop\n      jump\t// out\n        /* \"#utility.yul\":1769:1871   */\n    tag_150:\n        /* \"#utility.yul\":1810:1816   */\n      0x00\n        /* \"#utility.yul\":1861:1863   */\n      0x1f\n        /* \"#utility.yul\":1857:1864   */\n      not\n        /* \"#utility.yul\":1852:1854   */\n      0x1f\n        /* \"#utility.yul\":1845:1850   */\n      dup4\n        /* \"#utility.yul\":1841:1855   */\n      add\n        /* \"#utility.yul\":1837:1865   */\n      and\n        /* \"#utility.yul\":1827:1865   */\n      swap1\n      pop\n        /* \"#utility.yul\":1769:1871   */\n      swap2\n      swap1\n      pop\n      jump\t// out\n        /* \"#utility.yul\":1877:2241   */\n    tag_151:\n        /* \"#utility.yul\":1965:1968   */\n      0x00\n        /* \"#utility.yul\":1993:2032   */\n      tag_203\n        /* \"#utility.yul\":2026:2031   */\n      dup3\n        /* \"#utility.yul\":1993:2032   */\n      tag_147\n      jump\t// in\n    tag_203:\n        /* \"#utility.yul\":2048:2119   */\n      tag_204\n        /* \"#utility.yul\":2112:2118   */\n      dup2\n        /* \"#utility.yul\":2107:2110   */\n      dup6\n        /* \"#utility.yul\":2048:2119   */\n      tag_148\n      jump\t// in\n    tag_204:\n        /* \"#utility.yul\":2041:2119   */\n      swap4\n      pop\n        /* \"#utility.yul\":2128:2180   */\n      tag_205\n        /* \"#utility.yul\":2173:2179   */\n      dup2\n        /* \"#utility.yul\":2168:2171   */\n      dup6\n        /* \"#utility.yul\":2161:2165   */\n      0x20\n        /* \"#utility.yul\":2154:2159   */\n      dup7\n        /* \"#utility.yul\":2150:2166   */\n      add\n        /* \"#utility.yul\":2128:2180   */\n      tag_149\n      jump\t// in\n    tag_205:\n        /* \"#utility.yul\":2205:2234   */\n      tag_206\n        /* \"#utility.yul\":2227:2233   */\n      dup2\n        /* \"#utility.yul\":2205:2234   */\n      tag_150\n      jump\t// in\n    tag_206:\n        /* \"#utility.yul\":2200:2203   */\n      dup5\n        /* \"#utility.yul\":2196:2235   */\n      add\n        /* \"#utility.yul\":2189:2235   */\n      swap2\n      pop\n        /* \"#utility.yul\":1969:2241   */\n      pop\n        /* \"#utility.yul\":1877:2241   */\n      swap3\n      swap2\n      pop\n      pop\n      jump\t// out\n        /* \"#utility.yul\":2247:2324   */\n    tag_152:\n        /* \"#utility.yul\":2284:2291   */\n      0x00\n        /* \"#utility.yul\":2313:2318   */\n      dup2\n        /* \"#utility.yul\":2302:2318   */\n      swap1\n      pop\n        /* \"#utility.yul\":2247:2324   */\n      swap2\n      swap1\n      pop\n      jump\t// out\n        /* \"#utility.yul\":2330:2448   */\n    tag_153:\n        /* \"#utility.yul\":2417:2441   */\n      tag_209\n        /* \"#utility.yul\":2435:2440   */\n      dup2\n        /* \"#utility.yul\":2417:2441   */\n      tag_152\n      jump\t// in\n    tag_209:\n        /* \"#utility.yul\":2412:2415   */\n      dup3\n        /* \"#utility.yul\":2405:2442   */\n      mstore\n        /* \"#utility.yul\":2330:2448   */\n      pop\n      pop\n      jump\t// out\n        /* \"#utility.yul\":2454:2877   */\n    tag_12:\n        /* \"#utility.yul\":2595:2599   */\n      0x00\n        /* \"#utility.yul\":2633:2635   */\n      0x40\n        /* \"#utility.yul\":2622:2631   */\n      dup3\n        /* \"#utility.yul\":2618:2636   */\n      add\n        /* \"#utility.yul\":2610:2636   */\n      swap1\n      pop\n        /* \"#utility.yul\":2682:2691   */\n      dup2\n        /* \"#utility.yul\":2676:2680   */\n      dup2\n        /* \"#utility.yul\":2672:2692   */\n      sub\n        /* \"#utility.yul\":2668:2669   */\n      0x00\n        /* \"#utility.yul\":2657:2666   */\n      dup4\n        /* \"#utility.yul\":2653:2670   */\n      add\n        /* \"#utility.yul\":2646:2693   */\n      mstore\n        /* \"#utility.yul\":2710:2788   */\n      tag_211\n        /* \"#utility.yul\":2783:2787   */\n      dup2\n        /* \"#utility.yul\":2774:2780   */\n      dup6\n        /* \"#utility.yul\":2710:2788   */\n      tag_151\n      jump\t// in\n    tag_211:\n        /* \"#utility.yul\":2702:2788   */\n      swap1\n      pop\n        /* \"#utility.yul\":2798:2870   */\n      tag_212\n        /* \"#utility.yul\":2866:2868   */\n      0x20\n        /* \"#utility.yul\":2855:2864   */\n      dup4\n        /* \"#utility.yul\":2851:2869   */\n      add\n        /* \"#utility.yul\":2842:2848   */\n      dup5\n        /* \"#utility.yul\":2798:2870   */\n      tag_153\n      jump\t// in\n    tag_212:\n        /* \"#utility.yul\":2454:2877   */\n      swap4\n      swap3\n      pop\n      pop\n      pop\n      jump\t// out\n        /* \"#utility.yul\":2883:3000   */\n    tag_154:\n        /* \"#utility.yul\":2992:2993   */\n      0x00\n        /* \"#utility.yul\":2989:2990   */\n      dup1\n        /* \"#utility.yul\":2982:2994   */\n      revert\n        /* \"#utility.yul\":3006:3123   */\n    tag_155:\n        /* \"#utility.yul\":3115:3116   */\n      0x00\n        /* \"#utility.yul\":3112:3113   */\n      dup1\n        /* \"#utility.yul\":3105:3117   */\n      revert\n        /* \"#utility.yul\":3129:3309   */\n    tag_156:\n        /* \"#utility.yul\":3177:3254   */\n      0x4e487b7100000000000000000000000000000000000000000000000000000000\n        /* \"#utility.yul\":3174:3175   */\n      0x00\n        /* \"#utility.yul\":3167:3255   */\n      mstore\n        /* \"#utility.yul\":3274:3278   */\n      0x41\n        /* \"#utility.yul\":3271:3272   */\n      0x04\n        /* \"#utility.yul\":3264:3279   */\n      mstore\n        /* \"#utility.yul\":3298:3302   */\n      0x24\n        /* \"#utility.yul\":3295:3296   */\n      0x00\n        /* \"#utility.yul\":3288:3303   */\n      revert\n        /* \"#utility.yul\":3315:3596   */\n    tag_157:\n        /* \"#utility.yul\":3398:3425   */\n      tag_217\n        /* \"#utility.yul\":3420:3424   */\n      dup3\n        /* \"#utility.yul\":3398:3425   */\n      tag_150\n      jump\t// in\n    tag_217:\n        /* \"#utility.yul\":3390:3396   */\n      dup2\n        /* \"#utility.yul\":3386:3426   */\n      add\n        /* \"#utility.yul\":3528:3534   */\n      dup2\n        /* \"#utility.yul\":3516:3526   */\n      dup2\n        /* \"#utility.yul\":3513:3535   */\n      lt\n        /* \"#utility.yul\":3492:3510   */\n      0xffffffffffffffff\n        /* \"#utility.yul\":3480:3490   */\n      dup3\n        /* \"#utility.yul\":3477:3511   */\n      gt\n        /* \"#utility.yul\":3474:3536   */\n      or\n        /* \"#utility.yul\":3471:3559   */\n      iszero\n      tag_218\n      jumpi\n        /* \"#utility.yul\":3539:3557   */\n      tag_219\n      tag_156\n      jump\t// in\n    tag_219:\n        /* \"#utility.yul\":3471:3559   */\n    tag_218:\n        /* \"#utility.yul\":3579:3589   */\n      dup1\n        /* \"#utility.yul\":3575:3577   */\n      0x40\n        /* \"#utility.yul\":3568:3590   */\n      mstore\n        /* \"#utility.yul\":3358:3596   */\n      pop\n        /* \"#utility.yul\":3315:3596   */\n      pop\n      pop\n      jump\t// out\n        /* \"#utility.yul\":3602:3731   */\n    tag_158:\n        /* \"#utility.yul\":3636:3642   */\n      0x00\n        /* \"#utility.yul\":3663:3683   */\n      tag_221\n      tag_140\n      jump\t// in\n    tag_221:\n        /* \"#utility.yul\":3653:3683   */\n      swap1\n      pop\n        /* \"#utility.yul\":3692:3725   */\n      tag_222\n        /* \"#utility.yul\":3720:3724   */\n      dup3\n        /* \"#utility.yul\":3712:3718   */\n      dup3\n        /* \"#utility.yul\":3692:3725   */\n      tag_157\n      jump\t// in\n    tag_222:\n        /* \"#utility.yul\":3602:3731   */\n      swap2\n      swap1\n      pop\n      jump\t// out\n        /* \"#utility.yul\":3737:4045   */\n    tag_159:\n        /* \"#utility.yul\":3799:3803   */\n      0x00\n        /* \"#utility.yul\":3889:3907   */\n      0xffffffffffffffff\n        /* \"#utility.yul\":3881:3887   */\n      dup3\n        /* \"#utility.yul\":3878:3908   */\n      gt\n        /* \"#utility.yul\":3875:3931   */\n      iszero\n      tag_224\n      jumpi\n        /* \"#utility.yul\":3911:3929   */\n      tag_225\n      tag_156\n      jump\t// in\n    tag_225:\n        /* \"#utility.yul\":3875:3931   */\n    tag_224:\n        /* \"#utility.yul\":3949:3978   */\n      tag_226\n        /* \"#utility.yul\":3971:3977   */\n      dup3\n        /* \"#utility.yul\":3949:3978   */\n      tag_150\n      jump\t// in\n    tag_226:\n        /* \"#utility.yul\":3941:3978   */\n      swap1\n      pop\n        /* \"#utility.yul\":4033:4037   */\n      0x20\n        /* \"#utility.yul\":4027:4031   */\n      dup2\n        /* \"#utility.yul\":4023:4038   */\n      add\n        /* \"#utility.yul\":4015:4038   */\n      swap1\n      pop\n        /* \"#utility.yul\":3737:4045   */\n      swap2\n      swap1\n      pop\n      jump\t// out\n        /* \"#utility.yul\":4051:4205   */\n    tag_160:\n        /* \"#utility.yul\":4135:4141   */\n      dup3\n        /* \"#utility.yul\":4130:4133   */\n      dup2\n        /* \"#utility.yul\":4125:4128   */\n      dup4\n        /* \"#utility.yul\":4112:4142   */\n      calldatacopy\n        /* \"#utility.yul\":4197:4198   */\n      0x00\n        /* \"#utility.yul\":4188:4194   */\n      dup4\n        /* \"#utility.yul\":4183:4186   */\n      dup4\n        /* \"#utility.yul\":4179:4195   */\n      add\n        /* \"#utility.yul\":4172:4199   */\n      mstore\n        /* \"#utility.yul\":4051:4205   */\n      pop\n      pop\n      pop\n      jump\t// out\n        /* \"#utility.yul\":4211:4623   */\n    tag_161:\n        /* \"#utility.yul\":4289:4294   */\n      0x00\n        /* \"#utility.yul\":4314:4380   */\n      tag_229\n        /* \"#utility.yul\":4330:4379   */\n      tag_230\n        /* \"#utility.yul\":4372:4378   */\n      dup5\n        /* \"#utility.yul\":4330:4379   */\n      tag_159\n      jump\t// in\n    tag_230:\n        /* \"#utility.yul\":4314:4380   */\n      tag_158\n      jump\t// in\n    tag_229:\n        /* \"#utility.yul\":4305:4380   */\n      swap1\n      pop\n        /* \"#utility.yul\":4403:4409   */\n      dup3\n        /* \"#utility.yul\":4396:4401   */\n      dup2\n        /* \"#utility.yul\":4389:4410   */\n      mstore\n        /* \"#utility.yul\":4441:4445   */\n      0x20\n        /* \"#utility.yul\":4434:4439   */\n      dup2\n        /* \"#utility.yul\":4430:4446   */\n      add\n        /* \"#utility.yul\":4479:4482   */\n      dup5\n        /* \"#utility.yul\":4470:4476   */\n      dup5\n        /* \"#utility.yul\":4465:4468   */\n      dup5\n        /* \"#utility.yul\":4461:4477   */\n      add\n        /* \"#utility.yul\":4458:4483   */\n      gt\n        /* \"#utility.yul\":4455:4567   */\n      iszero\n      tag_231\n      jumpi\n        /* \"#utility.yul\":4486:4565   */\n      tag_232\n      tag_155\n      jump\t// in\n    tag_232:\n        /* \"#utility.yul\":4455:4567   */\n    tag_231:\n        /* \"#utility.yul\":4576:4617   */\n      tag_233\n        /* \"#utility.yul\":4610:4616   */\n      dup5\n        /* \"#utility.yul\":4605:4608   */\n      dup3\n        /* \"#utility.yul\":4600:4603   */\n      dup6\n        /* \"#utility.yul\":4576:4617   */\n      tag_160\n      jump\t// in\n    tag_233:\n        /* \"#utility.yul\":4295:4623   */\n      pop\n        /* \"#utility.yul\":4211:4623   */\n      swap4\n      swap3\n      pop\n      pop\n      pop\n      jump\t// out\n        /* \"#utility.yul\":4643:4983   */\n    tag_162:\n        /* \"#utility.yul\":4699:4704   */\n      0x00\n        /* \"#utility.yul\":4748:4751   */\n      dup3\n        /* \"#utility.yul\":4741:4745   */\n      0x1f\n        /* \"#utility.yul\":4733:4739   */\n      dup4\n        /* \"#utility.yul\":4729:4746   */\n      add\n        /* \"#utility.yul\":4725:4752   */\n      slt\n        /* \"#utility.yul\":4715:4837   */\n      tag_235\n      jumpi\n        /* \"#utility.yul\":4756:4835   */\n      tag_236\n      tag_154\n      jump\t// in\n    tag_236:\n        /* \"#utility.yul\":4715:4837   */\n    tag_235:\n        /* \"#utility.yul\":4873:4879   */\n      dup2\n        /* \"#utility.yul\":4860:4880   */\n      calldataload\n        /* \"#utility.yul\":4898:4977   */\n      tag_237\n        /* \"#utility.yul\":4973:4976   */\n      dup5\n        /* \"#utility.yul\":4965:4971   */\n      dup3\n        /* \"#utility.yul\":4958:4962   */\n      0x20\n        /* \"#utility.yul\":4950:4956   */\n      dup7\n        /* \"#utility.yul\":4946:4963   */\n      add\n        /* \"#utility.yul\":4898:4977   */\n      tag_161\n      jump\t// in\n    tag_237:\n        /* \"#utility.yul\":4889:4977   */\n      swap2\n      pop\n        /* \"#utility.yul\":4705:4983   */\n      pop\n        /* \"#utility.yul\":4643:4983   */\n      swap3\n      swap2\n      pop\n      pop\n      jump\t// out\n        /* \"#utility.yul\":4989:5111   */\n    tag_163:\n        /* \"#utility.yul\":5062:5086   */\n      tag_239\n        /* \"#utility.yul\":5080:5085   */\n      dup2\n        /* \"#utility.yul\":5062:5086   */\n      tag_152\n      jump\t// in\n    tag_239:\n        /* \"#utility.yul\":5055:5060   */\n      dup2\n        /* \"#utility.yul\":5052:5087   */\n      eq\n        /* \"#utility.yul\":5042:5105   */\n      tag_240\n      jumpi\n        /* \"#utility.yul\":5101:5102   */\n      0x00\n        /* \"#utility.yul\":5098:5099   */\n      dup1\n        /* \"#utility.yul\":5091:5103   */\n      revert\n        /* \"#utility.yul\":5042:5105   */\n    tag_240:\n        /* \"#utility.yul\":4989:5111   */\n      pop\n      jump\t// out\n        /* \"#utility.yul\":5117:5256   */\n    tag_164:\n        /* \"#utility.yul\":5163:5168   */\n      0x00\n        /* \"#utility.yul\":5201:5207   */\n      dup2\n        /* \"#utility.yul\":5188:5208   */\n      calldataload\n        /* \"#utility.yul\":5179:5208   */\n      swap1\n      pop\n        /* \"#utility.yul\":5217:5250   */\n      tag_242\n        /* \"#utility.yul\":5244:5249   */\n      dup2\n        /* \"#utility.yul\":5217:5250   */\n      tag_163\n      jump\t// in\n    tag_242:\n        /* \"#utility.yul\":5117:5256   */\n      swap3\n      swap2\n      pop\n      pop\n      jump\t// out\n        /* \"#utility.yul\":5262:5583   */\n    tag_165:\n        /* \"#utility.yul\":5349:5353   */\n      0x00\n        /* \"#utility.yul\":5439:5457   */\n      0xffffffffffffffff\n        /* \"#utility.yul\":5431:5437   */\n      dup3\n        /* \"#utility.yul\":5428:5458   */\n      gt\n        /* \"#utility.yul\":5425:5481   */\n      iszero\n      tag_244\n      jumpi\n        /* \"#utility.yul\":5461:5479   */\n      tag_245\n      tag_156\n      jump\t// in\n    tag_245:\n        /* \"#utility.yul\":5425:5481   */\n    tag_244:\n        /* \"#utility.yul\":5511:5515   */\n      0x20\n        /* \"#utility.yul\":5503:5509   */\n      dup3\n        /* \"#utility.yul\":5499:5516   */\n      mul\n        /* \"#utility.yul\":5491:5516   */\n      swap1\n      pop\n        /* \"#utility.yul\":5571:5575   */\n      0x20\n        /* \"#utility.yul\":5565:5569   */\n      dup2\n        /* \"#utility.yul\":5561:5576   */\n      add\n        /* \"#utility.yul\":5553:5576   */\n      swap1\n      pop\n        /* \"#utility.yul\":5262:5583   */\n      swap2\n      swap1\n      pop\n      jump\t// out\n        /* \"#utility.yul\":5589:5706   */\n    tag_166:\n        /* \"#utility.yul\":5698:5699   */\n      0x00\n        /* \"#utility.yul\":5695:5696   */\n      dup1\n        /* \"#utility.yul\":5688:5700   */\n      revert\n        /* \"#utility.yul\":5728:6673   */\n    tag_167:\n        /* \"#utility.yul\":5834:5839   */\n      0x00\n        /* \"#utility.yul\":5859:5950   */\n      tag_248\n        /* \"#utility.yul\":5875:5949   */\n      tag_249\n        /* \"#utility.yul\":5942:5948   */\n      dup5\n        /* \"#utility.yul\":5875:5949   */\n      tag_165\n      jump\t// in\n    tag_249:\n        /* \"#utility.yul\":5859:5950   */\n      tag_158\n      jump\t// in\n    tag_248:\n        /* \"#utility.yul\":5850:5950   */\n      swap1\n      pop\n        /* \"#utility.yul\":5970:5975   */\n      dup1\n        /* \"#utility.yul\":5999:6005   */\n      dup4\n        /* \"#utility.yul\":5992:5997   */\n      dup3\n        /* \"#utility.yul\":5985:6006   */\n      mstore\n        /* \"#utility.yul\":6033:6037   */\n      0x20\n        /* \"#utility.yul\":6026:6031   */\n      dup3\n        /* \"#utility.yul\":6022:6038   */\n      add\n        /* \"#utility.yul\":6015:6038   */\n      swap1\n      pop\n        /* \"#utility.yul\":6086:6090   */\n      0x20\n        /* \"#utility.yul\":6078:6084   */\n      dup5\n        /* \"#utility.yul\":6074:6091   */\n      mul\n        /* \"#utility.yul\":6066:6072   */\n      dup4\n        /* \"#utility.yul\":6062:6092   */\n      add\n        /* \"#utility.yul\":6115:6118   */\n      dup6\n        /* \"#utility.yul\":6107:6113   */\n      dup2\n        /* \"#utility.yul\":6104:6119   */\n      gt\n        /* \"#utility.yul\":6101:6223   */\n      iszero\n      tag_250\n      jumpi\n        /* \"#utility.yul\":6134:6213   */\n      tag_251\n      tag_166\n      jump\t// in\n    tag_251:\n        /* \"#utility.yul\":6101:6223   */\n    tag_250:\n        /* \"#utility.yul\":6249:6255   */\n      dup4\n        /* \"#utility.yul\":6232:6667   */\n    tag_252:\n        /* \"#utility.yul\":6266:6272   */\n      dup2\n        /* \"#utility.yul\":6261:6264   */\n      dup2\n        /* \"#utility.yul\":6258:6273   */\n      lt\n        /* \"#utility.yul\":6232:6667   */\n      iszero\n      tag_254\n      jumpi\n        /* \"#utility.yul\":6355:6358   */\n      dup1\n        /* \"#utility.yul\":6342:6359   */\n      calldataload\n        /* \"#utility.yul\":6391:6409   */\n      0xffffffffffffffff\n        /* \"#utility.yul\":6378:6389   */\n      dup2\n        /* \"#utility.yul\":6375:6410   */\n      gt\n        /* \"#utility.yul\":6372:6494   */\n      iszero\n      tag_255\n      jumpi\n        /* \"#utility.yul\":6413:6492   */\n      tag_256\n      tag_154\n      jump\t// in\n    tag_256:\n        /* \"#utility.yul\":6372:6494   */\n    tag_255:\n        /* \"#utility.yul\":6537:6548   */\n      dup1\n        /* \"#utility.yul\":6529:6535   */\n      dup7\n        /* \"#utility.yul\":6525:6549   */\n      add\n        /* \"#utility.yul\":6575:6622   */\n      tag_257\n        /* \"#utility.yul\":6618:6621   */\n      dup10\n        /* \"#utility.yul\":6606:6616   */\n      dup3\n        /* \"#utility.yul\":6575:6622   */\n      tag_162\n      jump\t// in\n    tag_257:\n        /* \"#utility.yul\":6570:6573   */\n      dup6\n        /* \"#utility.yul\":6563:6623   */\n      mstore\n        /* \"#utility.yul\":6652:6656   */\n      0x20\n        /* \"#utility.yul\":6647:6650   */\n      dup6\n        /* \"#utility.yul\":6643:6657   */\n      add\n        /* \"#utility.yul\":6636:6657   */\n      swap5\n      pop\n        /* \"#utility.yul\":6308:6667   */\n      pop\n      pop\n        /* \"#utility.yul\":6292:6296   */\n      0x20\n        /* \"#utility.yul\":6287:6290   */\n      dup2\n        /* \"#utility.yul\":6283:6297   */\n      add\n        /* \"#utility.yul\":6276:6297   */\n      swap1\n      pop\n        /* \"#utility.yul\":6232:6667   */\n      jump(tag_252)\n    tag_254:\n        /* \"#utility.yul\":6236:6257   */\n      pop\n        /* \"#utility.yul\":5840:6673   */\n      pop\n      pop\n        /* \"#utility.yul\":5728:6673   */\n      swap4\n      swap3\n      pop\n      pop\n      pop\n      jump\t// out\n        /* \"#utility.yul\":6695:7085   */\n    tag_168:\n        /* \"#utility.yul\":6776:6781   */\n      0x00\n        /* \"#utility.yul\":6825:6828   */\n      dup3\n        /* \"#utility.yul\":6818:6822   */\n      0x1f\n        /* \"#utility.yul\":6810:6816   */\n      dup4\n        /* \"#utility.yul\":6806:6823   */\n      add\n        /* \"#utility.yul\":6802:6829   */\n      slt\n        /* \"#utility.yul\":6792:6914   */\n      tag_259\n      jumpi\n        /* \"#utility.yul\":6833:6912   */\n      tag_260\n      tag_154\n      jump\t// in\n    tag_260:\n        /* \"#utility.yul\":6792:6914   */\n    tag_259:\n        /* \"#utility.yul\":6950:6956   */\n      dup2\n        /* \"#utility.yul\":6937:6957   */\n      calldataload\n        /* \"#utility.yul\":6975:7079   */\n      tag_261\n        /* \"#utility.yul\":7075:7078   */\n      dup5\n        /* \"#utility.yul\":7067:7073   */\n      dup3\n        /* \"#utility.yul\":7060:7064   */\n      0x20\n        /* \"#utility.yul\":7052:7058   */\n      dup7\n        /* \"#utility.yul\":7048:7065   */\n      add\n        /* \"#utility.yul\":6975:7079   */\n      tag_167\n      jump\t// in\n    tag_261:\n        /* \"#utility.yul\":6966:7079   */\n      swap2\n      pop\n        /* \"#utility.yul\":6782:7085   */\n      pop\n        /* \"#utility.yul\":6695:7085   */\n      swap3\n      swap2\n      pop\n      pop\n      jump\t// out\n        /* \"#utility.yul\":7091:9248   */\n    tag_15:\n        /* \"#utility.yul\":7345:7351   */\n      0x00\n        /* \"#utility.yul\":7353:7359   */\n      dup1\n        /* \"#utility.yul\":7361:7367   */\n      0x00\n        /* \"#utility.yul\":7369:7375   */\n      dup1\n        /* \"#utility.yul\":7377:7383   */\n      0x00\n        /* \"#utility.yul\":7385:7391   */\n      dup1\n        /* \"#utility.yul\":7434:7437   */\n      0xc0\n        /* \"#utility.yul\":7422:7431   */\n      dup8\n        /* \"#utility.yul\":7413:7420   */\n      dup10\n        /* \"#utility.yul\":7409:7432   */\n      sub\n        /* \"#utility.yul\":7405:7438   */\n      slt\n        /* \"#utility.yul\":7402:7522   */\n      iszero\n      tag_263\n      jumpi\n        /* \"#utility.yul\":7441:7520   */\n      tag_264\n      tag_141\n      jump\t// in\n    tag_264:\n        /* \"#utility.yul\":7402:7522   */\n    tag_263:\n        /* \"#utility.yul\":7589:7590   */\n      0x00\n        /* \"#utility.yul\":7578:7587   */\n      dup8\n        /* \"#utility.yul\":7574:7591   */\n      add\n        /* \"#utility.yul\":7561:7592   */\n      calldataload\n        /* \"#utility.yul\":7619:7637   */\n      0xffffffffffffffff\n        /* \"#utility.yul\":7611:7617   */\n      dup2\n        /* \"#utility.yul\":7608:7638   */\n      gt\n        /* \"#utility.yul\":7605:7722   */\n      iszero\n      tag_265\n      jumpi\n        /* \"#utility.yul\":7641:7720   */\n      tag_266\n      tag_142\n      jump\t// in\n    tag_266:\n        /* \"#utility.yul\":7605:7722   */\n    tag_265:\n        /* \"#utility.yul\":7746:7809   */\n      tag_267\n        /* \"#utility.yul\":7801:7808   */\n      dup10\n        /* \"#utility.yul\":7792:7798   */\n      dup3\n        /* \"#utility.yul\":7781:7790   */\n      dup11\n        /* \"#utility.yul\":7777:7799   */\n      add\n        /* \"#utility.yul\":7746:7809   */\n      tag_162\n      jump\t// in\n    tag_267:\n        /* \"#utility.yul\":7736:7809   */\n      swap7\n      pop\n        /* \"#utility.yul\":7532:7819   */\n      pop\n        /* \"#utility.yul\":7858:7860   */\n      0x20\n        /* \"#utility.yul\":7884:7937   */\n      tag_268\n        /* \"#utility.yul\":7929:7936   */\n      dup10\n        /* \"#utility.yul\":7920:7926   */\n      dup3\n        /* \"#utility.yul\":7909:7918   */\n      dup11\n        /* \"#utility.yul\":7905:7927   */\n      add\n        /* \"#utility.yul\":7884:7937   */\n      tag_164\n      jump\t// in\n    tag_268:\n        /* \"#utility.yul\":7874:7937   */\n      swap6\n      pop\n        /* \"#utility.yul\":7829:7947   */\n      pop\n        /* \"#utility.yul\":8014:8016   */\n      0x40\n        /* \"#utility.yul\":8003:8012   */\n      dup8\n        /* \"#utility.yul\":7999:8017   */\n      add\n        /* \"#utility.yul\":7986:8018   */\n      calldataload\n        /* \"#utility.yul\":8045:8063   */\n      0xffffffffffffffff\n        /* \"#utility.yul\":8037:8043   */\n      dup2\n        /* \"#utility.yul\":8034:8064   */\n      gt\n        /* \"#utility.yul\":8031:8148   */\n      iszero\n      tag_269\n      jumpi\n        /* \"#utility.yul\":8067:8146   */\n      tag_270\n      tag_142\n      jump\t// in\n    tag_270:\n        /* \"#utility.yul\":8031:8148   */\n    tag_269:\n        /* \"#utility.yul\":8172:8260   */\n      tag_271\n        /* \"#utility.yul\":8252:8259   */\n      dup10\n        /* \"#utility.yul\":8243:8249   */\n      dup3\n        /* \"#utility.yul\":8232:8241   */\n      dup11\n        /* \"#utility.yul\":8228:8250   */\n      add\n        /* \"#utility.yul\":8172:8260   */\n      tag_168\n      jump\t// in\n    tag_271:\n        /* \"#utility.yul\":8162:8260   */\n      swap5\n      pop\n        /* \"#utility.yul\":7957:8270   */\n      pop\n        /* \"#utility.yul\":8337:8339   */\n      0x60\n        /* \"#utility.yul\":8326:8335   */\n      dup8\n        /* \"#utility.yul\":8322:8340   */\n      add\n        /* \"#utility.yul\":8309:8341   */\n      calldataload\n        /* \"#utility.yul\":8368:8386   */\n      0xffffffffffffffff\n        /* \"#utility.yul\":8360:8366   */\n      dup2\n        /* \"#utility.yul\":8357:8387   */\n      gt\n        /* \"#utility.yul\":8354:8471   */\n      iszero\n      tag_272\n      jumpi\n        /* \"#utility.yul\":8390:8469   */\n      tag_273\n      tag_142\n      jump\t// in\n    tag_273:\n        /* \"#utility.yul\":8354:8471   */\n    tag_272:\n        /* \"#utility.yul\":8495:8583   */\n      tag_274\n        /* \"#utility.yul\":8575:8582   */\n      dup10\n        /* \"#utility.yul\":8566:8572   */\n      dup3\n        /* \"#utility.yul\":8555:8564   */\n      dup11\n        /* \"#utility.yul\":8551:8573   */\n      add\n        /* \"#utility.yul\":8495:8583   */\n      tag_168\n      jump\t// in\n    tag_274:\n        /* \"#utility.yul\":8485:8583   */\n      swap4\n      pop\n        /* \"#utility.yul\":8280:8593   */\n      pop\n        /* \"#utility.yul\":8660:8663   */\n      0x80\n        /* \"#utility.yul\":8649:8658   */\n      dup8\n        /* \"#utility.yul\":8645:8664   */\n      add\n        /* \"#utility.yul\":8632:8665   */\n      calldataload\n        /* \"#utility.yul\":8692:8710   */\n      0xffffffffffffffff\n        /* \"#utility.yul\":8684:8690   */\n      dup2\n        /* \"#utility.yul\":8681:8711   */\n      gt\n        /* \"#utility.yul\":8678:8795   */\n      iszero\n      tag_275\n      jumpi\n        /* \"#utility.yul\":8714:8793   */\n      tag_276\n      tag_142\n      jump\t// in\n    tag_276:\n        /* \"#utility.yul\":8678:8795   */\n    tag_275:\n        /* \"#utility.yul\":8819:8907   */\n      tag_277\n        /* \"#utility.yul\":8899:8906   */\n      dup10\n        /* \"#utility.yul\":8890:8896   */\n      dup3\n        /* \"#utility.yul\":8879:8888   */\n      dup11\n        /* \"#utility.yul\":8875:8897   */\n      add\n        /* \"#utility.yul\":8819:8907   */\n      tag_168\n      jump\t// in\n    tag_277:\n        /* \"#utility.yul\":8809:8907   */\n      swap3\n      pop\n        /* \"#utility.yul\":8603:8917   */\n      pop\n        /* \"#utility.yul\":8984:8987   */\n      0xa0\n        /* \"#utility.yul\":8973:8982   */\n      dup8\n        /* \"#utility.yul\":8969:8988   */\n      add\n        /* \"#utility.yul\":8956:8989   */\n      calldataload\n        /* \"#utility.yul\":9016:9034   */\n      0xffffffffffffffff\n        /* \"#utility.yul\":9008:9014   */\n      dup2\n        /* \"#utility.yul\":9005:9035   */\n      gt\n        /* \"#utility.yul\":9002:9119   */\n      iszero\n      tag_278\n      jumpi\n        /* \"#utility.yul\":9038:9117   */\n      tag_279\n      tag_142\n      jump\t// in\n    tag_279:\n        /* \"#utility.yul\":9002:9119   */\n    tag_278:\n        /* \"#utility.yul\":9143:9231   */\n      tag_280\n        /* \"#utility.yul\":9223:9230   */\n      dup10\n        /* \"#utility.yul\":9214:9220   */\n      dup3\n        /* \"#utility.yul\":9203:9212   */\n      dup11\n        /* \"#utility.yul\":9199:9221   */\n      add\n        /* \"#utility.yul\":9143:9231   */\n      tag_168\n      jump\t// in\n    tag_280:\n        /* \"#utility.yul\":9133:9231   */\n      swap2\n      pop\n        /* \"#utility.yul\":8927:9241   */\n      pop\n        /* \"#utility.yul\":7091:9248   */\n      swap3\n      swap6\n      pop\n      swap3\n      swap6\n      pop\n      swap3\n      swap6\n      jump\t// out\n        /* \"#utility.yul\":9254:10939   */\n    tag_19:\n        /* \"#utility.yul\":9480:9486   */\n      0x00\n        /* \"#utility.yul\":9488:9494   */\n      dup1\n        /* \"#utility.yul\":9496:9502   */\n      0x00\n        /* \"#utility.yul\":9504:9510   */\n      dup1\n        /* \"#utility.yul\":9553:9556   */\n      0x80\n        /* \"#utility.yul\":9541:9550   */\n      dup6\n        /* \"#utility.yul\":9532:9539   */\n      dup8\n        /* \"#utility.yul\":9528:9551   */\n      sub\n        /* \"#utility.yul\":9524:9557   */\n      slt\n        /* \"#utility.yul\":9521:9641   */\n      iszero\n      tag_282\n      jumpi\n        /* \"#utility.yul\":9560:9639   */\n      tag_283\n      tag_141\n      jump\t// in\n    tag_283:\n        /* \"#utility.yul\":9521:9641   */\n    tag_282:\n        /* \"#utility.yul\":9708:9709   */\n      0x00\n        /* \"#utility.yul\":9697:9706   */\n      dup6\n        /* \"#utility.yul\":9693:9710   */\n      add\n        /* \"#utility.yul\":9680:9711   */\n      calldataload\n        /* \"#utility.yul\":9738:9756   */\n      0xffffffffffffffff\n        /* \"#utility.yul\":9730:9736   */\n      dup2\n        /* \"#utility.yul\":9727:9757   */\n      gt\n        /* \"#utility.yul\":9724:9841   */\n      iszero\n      tag_284\n      jumpi\n        /* \"#utility.yul\":9760:9839   */\n      tag_285\n      tag_142\n      jump\t// in\n    tag_285:\n        /* \"#utility.yul\":9724:9841   */\n    tag_284:\n        /* \"#utility.yul\":9865:9953   */\n      tag_286\n        /* \"#utility.yul\":9945:9952   */\n      dup8\n        /* \"#utility.yul\":9936:9942   */\n      dup3\n        /* \"#utility.yul\":9925:9934   */\n      dup9\n        /* \"#utility.yul\":9921:9943   */\n      add\n        /* \"#utility.yul\":9865:9953   */\n      tag_168\n      jump\t// in\n    tag_286:\n        /* \"#utility.yul\":9855:9953   */\n      swap5\n      pop\n        /* \"#utility.yul\":9651:9963   */\n      pop\n        /* \"#utility.yul\":10030:10032   */\n      0x20\n        /* \"#utility.yul\":10019:10028   */\n      dup6\n        /* \"#utility.yul\":10015:10033   */\n      add\n        /* \"#utility.yul\":10002:10034   */\n      calldataload\n        /* \"#utility.yul\":10061:10079   */\n      0xffffffffffffffff\n        /* \"#utility.yul\":10053:10059   */\n      dup2\n        /* \"#utility.yul\":10050:10080   */\n      gt\n        /* \"#utility.yul\":10047:10164   */\n      iszero\n      tag_287\n      jumpi\n        /* \"#utility.yul\":10083:10162   */\n      tag_288\n      tag_142\n      jump\t// in\n    tag_288:\n        /* \"#utility.yul\":10047:10164   */\n    tag_287:\n        /* \"#utility.yul\":10188:10276   */\n      tag_289\n        /* \"#utility.yul\":10268:10275   */\n      dup8\n        /* \"#utility.yul\":10259:10265   */\n      dup3\n        /* \"#utility.yul\":10248:10257   */\n      dup9\n        /* \"#utility.yul\":10244:10266   */\n      add\n        /* \"#utility.yul\":10188:10276   */\n      tag_168\n      jump\t// in\n    tag_289:\n        /* \"#utility.yul\":10178:10276   */\n      swap4\n      pop\n        /* \"#utility.yul\":9973:10286   */\n      pop\n        /* \"#utility.yul\":10353:10355   */\n      0x40\n        /* \"#utility.yul\":10342:10351   */\n      dup6\n        /* \"#utility.yul\":10338:10356   */\n      add\n        /* \"#utility.yul\":10325:10357   */\n      calldataload\n        /* \"#utility.yul\":10384:10402   */\n      0xffffffffffffffff\n        /* \"#utility.yul\":10376:10382   */\n      dup2\n        /* \"#utility.yul\":10373:10403   */\n      gt\n        /* \"#utility.yul\":10370:10487   */\n      iszero\n      tag_290\n      jumpi\n        /* \"#utility.yul\":10406:10485   */\n      tag_291\n      tag_142\n      jump\t// in\n    tag_291:\n        /* \"#utility.yul\":10370:10487   */\n    tag_290:\n        /* \"#utility.yul\":10511:10599   */\n      tag_292\n        /* \"#utility.yul\":10591:10598   */\n      dup8\n        /* \"#utility.yul\":10582:10588   */\n      dup3\n        /* \"#utility.yul\":10571:10580   */\n      dup9\n        /* \"#utility.yul\":10567:10589   */\n      add\n        /* \"#utility.yul\":10511:10599   */\n      tag_168\n      jump\t// in\n    tag_292:\n        /* \"#utility.yul\":10501:10599   */\n      swap3\n      pop\n        /* \"#utility.yul\":10296:10609   */\n      pop\n        /* \"#utility.yul\":10676:10678   */\n      0x60\n        /* \"#utility.yul\":10665:10674   */\n      dup6\n        /* \"#utility.yul\":10661:10679   */\n      add\n        /* \"#utility.yul\":10648:10680   */\n      calldataload\n        /* \"#utility.yul\":10707:10725   */\n      0xffffffffffffffff\n        /* \"#utility.yul\":10699:10705   */\n      dup2\n        /* \"#utility.yul\":10696:10726   */\n      gt\n        /* \"#utility.yul\":10693:10810   */\n      iszero\n      tag_293\n      jumpi\n        /* \"#utility.yul\":10729:10808   */\n      tag_294\n      tag_142\n      jump\t// in\n    tag_294:\n        /* \"#utility.yul\":10693:10810   */\n    tag_293:\n        /* \"#utility.yul\":10834:10922   */\n      tag_295\n        /* \"#utility.yul\":10914:10921   */\n      dup8\n        /* \"#utility.yul\":10905:10911   */\n      dup3\n        /* \"#utility.yul\":10894:10903   */\n      dup9\n        /* \"#utility.yul\":10890:10912   */\n      add\n        /* \"#utility.yul\":10834:10922   */\n      tag_168\n      jump\t// in\n    tag_295:\n        /* \"#utility.yul\":10824:10922   */\n      swap2\n      pop\n        /* \"#utility.yul\":10619:10932   */\n      pop\n        /* \"#utility.yul\":9254:10939   */\n      swap3\n      swap6\n      swap2\n      swap5\n      pop\n      swap3\n      pop\n      jump\t// out\n        /* \"#utility.yul\":10945:11069   */\n    tag_169:\n        /* \"#utility.yul\":11022:11028   */\n      0x00\n        /* \"#utility.yul\":11056:11061   */\n      dup2\n        /* \"#utility.yul\":11050:11062   */\n      mload\n        /* \"#utility.yul\":11040:11062   */\n      swap1\n      pop\n        /* \"#utility.yul\":10945:11069   */\n      swap2\n      swap1\n      pop\n      jump\t// out\n        /* \"#utility.yul\":11075:11269   */\n    tag_170:\n        /* \"#utility.yul\":11184:11195   */\n      0x00\n        /* \"#utility.yul\":11218:11224   */\n      dup3\n        /* \"#utility.yul\":11213:11216   */\n      dup3\n        /* \"#utility.yul\":11206:11225   */\n      mstore\n        /* \"#utility.yul\":11258:11262   */\n      0x20\n        /* \"#utility.yul\":11253:11256   */\n      dup3\n        /* \"#utility.yul\":11249:11263   */\n      add\n        /* \"#utility.yul\":11234:11263   */\n      swap1\n      pop\n        /* \"#utility.yul\":11075:11269   */\n      swap3\n      swap2\n      pop\n      pop\n      jump\t// out\n        /* \"#utility.yul\":11275:11417   */\n    tag_171:\n        /* \"#utility.yul\":11352:11356   */\n      0x00\n        /* \"#utility.yul\":11375:11378   */\n      dup2\n        /* \"#utility.yul\":11367:11378   */\n      swap1\n      pop\n        /* \"#utility.yul\":11405:11409   */\n      0x20\n        /* \"#utility.yul\":11400:11403   */\n      dup3\n        /* \"#utility.yul\":11396:11410   */\n      add\n        /* \"#utility.yul\":11388:11410   */\n      swap1\n      pop\n        /* \"#utility.yul\":11275:11417   */\n      swap2\n      swap1\n      pop\n      jump\t// out\n        /* \"#utility.yul\":11423:11582   */\n    tag_172:\n        /* \"#utility.yul\":11497:11508   */\n      0x00\n        /* \"#utility.yul\":11531:11537   */\n      dup3\n        /* \"#utility.yul\":11526:11529   */\n      dup3\n        /* \"#utility.yul\":11519:11538   */\n      mstore\n        /* \"#utility.yul\":11571:11575   */\n      0x20\n        /* \"#utility.yul\":11566:11569   */\n      dup3\n        /* \"#utility.yul\":11562:11576   */\n      add\n        /* \"#utility.yul\":11547:11576   */\n      swap1\n      pop\n        /* \"#utility.yul\":11423:11582   */\n      swap3\n      swap2\n      pop\n      pop\n      jump\t// out\n        /* \"#utility.yul\":11588:11932   */\n    tag_173:\n        /* \"#utility.yul\":11666:11669   */\n      0x00\n        /* \"#utility.yul\":11694:11733   */\n      tag_301\n        /* \"#utility.yul\":11727:11732   */\n      dup3\n        /* \"#utility.yul\":11694:11733   */\n      tag_147\n      jump\t// in\n    tag_301:\n        /* \"#utility.yul\":11749:11810   */\n      tag_302\n        /* \"#utility.yul\":11803:11809   */\n      dup2\n        /* \"#utility.yul\":11798:11801   */\n      dup6\n        /* \"#utility.yul\":11749:11810   */\n      tag_172\n      jump\t// in\n    tag_302:\n        /* \"#utility.yul\":11742:11810   */\n      swap4\n      pop\n        /* \"#utility.yul\":11819:11871   */\n      tag_303\n        /* \"#utility.yul\":11864:11870   */\n      dup2\n        /* \"#utility.yul\":11859:11862   */\n      dup6\n        /* \"#utility.yul\":11852:11856   */\n      0x20\n        /* \"#utility.yul\":11845:11850   */\n      dup7\n        /* \"#utility.yul\":11841:11857   */\n      add\n        /* \"#utility.yul\":11819:11871   */\n      tag_149\n      jump\t// in\n    tag_303:\n        /* \"#utility.yul\":11896:11925   */\n      tag_304\n        /* \"#utility.yul\":11918:11924   */\n      dup2\n        /* \"#utility.yul\":11896:11925   */\n      tag_150\n      jump\t// in\n    tag_304:\n        /* \"#utility.yul\":11891:11894   */\n      dup5\n        /* \"#utility.yul\":11887:11926   */\n      add\n        /* \"#utility.yul\":11880:11926   */\n      swap2\n      pop\n        /* \"#utility.yul\":11670:11932   */\n      pop\n        /* \"#utility.yul\":11588:11932   */\n      swap3\n      swap2\n      pop\n      pop\n      jump\t// out\n        /* \"#utility.yul\":11938:12134   */\n    tag_174:\n        /* \"#utility.yul\":12027:12037   */\n      0x00\n        /* \"#utility.yul\":12062:12128   */\n      tag_306\n        /* \"#utility.yul\":12124:12127   */\n      dup4\n        /* \"#utility.yul\":12116:12122   */\n      dup4\n        /* \"#utility.yul\":12062:12128   */\n      tag_173\n      jump\t// in\n    tag_306:\n        /* \"#utility.yul\":12048:12128   */\n      swap1\n      pop\n        /* \"#utility.yul\":11938:12134   */\n      swap3\n      swap2\n      pop\n      pop\n      jump\t// out\n        /* \"#utility.yul\":12140:12263   */\n    tag_175:\n        /* \"#utility.yul\":12220:12224   */\n      0x00\n        /* \"#utility.yul\":12252:12256   */\n      0x20\n        /* \"#utility.yul\":12247:12250   */\n      dup3\n        /* \"#utility.yul\":12243:12257   */\n      add\n        /* \"#utility.yul\":12235:12257   */\n      swap1\n      pop\n        /* \"#utility.yul\":12140:12263   */\n      swap2\n      swap1\n      pop\n      jump\t// out\n        /* \"#utility.yul\":12297:13288   */\n    tag_176:\n        /* \"#utility.yul\":12436:12439   */\n      0x00\n        /* \"#utility.yul\":12465:12529   */\n      tag_309\n        /* \"#utility.yul\":12523:12528   */\n      dup3\n        /* \"#utility.yul\":12465:12529   */\n      tag_169\n      jump\t// in\n    tag_309:\n        /* \"#utility.yul\":12545:12641   */\n      tag_310\n        /* \"#utility.yul\":12634:12640   */\n      dup2\n        /* \"#utility.yul\":12629:12632   */\n      dup6\n        /* \"#utility.yul\":12545:12641   */\n      tag_170\n      jump\t// in\n    tag_310:\n        /* \"#utility.yul\":12538:12641   */\n      swap4\n      pop\n        /* \"#utility.yul\":12667:12670   */\n      dup4\n        /* \"#utility.yul\":12712:12716   */\n      0x20\n        /* \"#utility.yul\":12704:12710   */\n      dup3\n        /* \"#utility.yul\":12700:12717   */\n      mul\n        /* \"#utility.yul\":12695:12698   */\n      dup6\n        /* \"#utility.yul\":12691:12718   */\n      add\n        /* \"#utility.yul\":12742:12808   */\n      tag_311\n        /* \"#utility.yul\":12802:12807   */\n      dup6\n        /* \"#utility.yul\":12742:12808   */\n      tag_171\n      jump\t// in\n    tag_311:\n        /* \"#utility.yul\":12831:12838   */\n      dup1\n        /* \"#utility.yul\":12862:12863   */\n      0x00\n        /* \"#utility.yul\":12847:13243   */\n    tag_312:\n        /* \"#utility.yul\":12872:12878   */\n      dup6\n        /* \"#utility.yul\":12869:12870   */\n      dup2\n        /* \"#utility.yul\":12866:12879   */\n      lt\n        /* \"#utility.yul\":12847:13243   */\n      iszero\n      tag_314\n      jumpi\n        /* \"#utility.yul\":12943:12952   */\n      dup5\n        /* \"#utility.yul\":12937:12941   */\n      dup5\n        /* \"#utility.yul\":12933:12953   */\n      sub\n        /* \"#utility.yul\":12928:12931   */\n      dup10\n        /* \"#utility.yul\":12921:12954   */\n      mstore\n        /* \"#utility.yul\":12994:13000   */\n      dup2\n        /* \"#utility.yul\":12988:13001   */\n      mload\n        /* \"#utility.yul\":13022:13106   */\n      tag_315\n        /* \"#utility.yul\":13101:13105   */\n      dup6\n        /* \"#utility.yul\":13086:13099   */\n      dup3\n        /* \"#utility.yul\":13022:13106   */\n      tag_174\n      jump\t// in\n    tag_315:\n        /* \"#utility.yul\":13014:13106   */\n      swap5\n      pop\n        /* \"#utility.yul\":13129:13199   */\n      tag_316\n        /* \"#utility.yul\":13192:13198   */\n      dup4\n        /* \"#utility.yul\":13129:13199   */\n      tag_175\n      jump\t// in\n    tag_316:\n        /* \"#utility.yul\":13119:13199   */\n      swap3\n      pop\n        /* \"#utility.yul\":13228:13232   */\n      0x20\n        /* \"#utility.yul\":13223:13226   */\n      dup11\n        /* \"#utility.yul\":13219:13233   */\n      add\n        /* \"#utility.yul\":13212:13233   */\n      swap10\n      pop\n        /* \"#utility.yul\":12907:13243   */\n      pop\n        /* \"#utility.yul\":12894:12895   */\n      0x01\n        /* \"#utility.yul\":12891:12892   */\n      dup2\n        /* \"#utility.yul\":12887:12896   */\n      add\n        /* \"#utility.yul\":12882:12896   */\n      swap1\n      pop\n        /* \"#utility.yul\":12847:13243   */\n      jump(tag_312)\n    tag_314:\n        /* \"#utility.yul\":12851:12865   */\n      pop\n        /* \"#utility.yul\":13259:13263   */\n      dup3\n        /* \"#utility.yul\":13252:13263   */\n      swap8\n      pop\n        /* \"#utility.yul\":13279:13282   */\n      dup8\n        /* \"#utility.yul\":13272:13282   */\n      swap6\n      pop\n        /* \"#utility.yul\":12441:13288   */\n      pop\n      pop\n      pop\n      pop\n      pop\n        /* \"#utility.yul\":12297:13288   */\n      swap3\n      swap2\n      pop\n      pop\n      jump\t// out\n        /* \"#utility.yul\":13294:14924   */\n    tag_25:\n        /* \"#utility.yul\":13827:13831   */\n      0x00\n        /* \"#utility.yul\":13865:13868   */\n      0xc0\n        /* \"#utility.yul\":13854:13863   */\n      dup3\n        /* \"#utility.yul\":13850:13869   */\n      add\n        /* \"#utility.yul\":13842:13869   */\n      swap1\n      pop\n        /* \"#utility.yul\":13915:13924   */\n      dup2\n        /* \"#utility.yul\":13909:13913   */\n      dup2\n        /* \"#utility.yul\":13905:13925   */\n      sub\n        /* \"#utility.yul\":13901:13902   */\n      0x00\n        /* \"#utility.yul\":13890:13899   */\n      dup4\n        /* \"#utility.yul\":13886:13903   */\n      add\n        /* \"#utility.yul\":13879:13926   */\n      mstore\n        /* \"#utility.yul\":13943:14021   */\n      tag_318\n        /* \"#utility.yul\":14016:14020   */\n      dup2\n        /* \"#utility.yul\":14007:14013   */\n      dup10\n        /* \"#utility.yul\":13943:14021   */\n      tag_151\n      jump\t// in\n    tag_318:\n        /* \"#utility.yul\":13935:14021   */\n      swap1\n      pop\n        /* \"#utility.yul\":14031:14103   */\n      tag_319\n        /* \"#utility.yul\":14099:14101   */\n      0x20\n        /* \"#utility.yul\":14088:14097   */\n      dup4\n        /* \"#utility.yul\":14084:14102   */\n      add\n        /* \"#utility.yul\":14075:14081   */\n      dup9\n        /* \"#utility.yul\":14031:14103   */\n      tag_153\n      jump\t// in\n    tag_319:\n        /* \"#utility.yul\":14150:14159   */\n      dup2\n        /* \"#utility.yul\":14144:14148   */\n      dup2\n        /* \"#utility.yul\":14140:14160   */\n      sub\n        /* \"#utility.yul\":14135:14137   */\n      0x40\n        /* \"#utility.yul\":14124:14133   */\n      dup4\n        /* \"#utility.yul\":14120:14138   */\n      add\n        /* \"#utility.yul\":14113:14161   */\n      mstore\n        /* \"#utility.yul\":14178:14306   */\n      tag_320\n        /* \"#utility.yul\":14301:14305   */\n      dup2\n        /* \"#utility.yul\":14292:14298   */\n      dup8\n        /* \"#utility.yul\":14178:14306   */\n      tag_176\n      jump\t// in\n    tag_320:\n        /* \"#utility.yul\":14170:14306   */\n      swap1\n      pop\n        /* \"#utility.yul\":14353:14362   */\n      dup2\n        /* \"#utility.yul\":14347:14351   */\n      dup2\n        /* \"#utility.yul\":14343:14363   */\n      sub\n        /* \"#utility.yul\":14338:14340   */\n      0x60\n        /* \"#utility.yul\":14327:14336   */\n      dup4\n        /* \"#utility.yul\":14323:14341   */\n      add\n        /* \"#utility.yul\":14316:14364   */\n      mstore\n        /* \"#utility.yul\":14381:14509   */\n      tag_321\n        /* \"#utility.yul\":14504:14508   */\n      dup2\n        /* \"#utility.yul\":14495:14501   */\n      dup7\n        /* \"#utility.yul\":14381:14509   */\n      tag_176\n      jump\t// in\n    tag_321:\n        /* \"#utility.yul\":14373:14509   */\n      swap1\n      pop\n        /* \"#utility.yul\":14557:14566   */\n      dup2\n        /* \"#utility.yul\":14551:14555   */\n      dup2\n        /* \"#utility.yul\":14547:14567   */\n      sub\n        /* \"#utility.yul\":14541:14544   */\n      0x80\n        /* \"#utility.yul\":14530:14539   */\n      dup4\n        /* \"#utility.yul\":14526:14545   */\n      add\n        /* \"#utility.yul\":14519:14568   */\n      mstore\n        /* \"#utility.yul\":14585:14713   */\n      tag_322\n        /* \"#utility.yul\":14708:14712   */\n      dup2\n        /* \"#utility.yul\":14699:14705   */\n      dup6\n        /* \"#utility.yul\":14585:14713   */\n      tag_176\n      jump\t// in\n    tag_322:\n        /* \"#utility.yul\":14577:14713   */\n      swap1\n      pop\n        /* \"#utility.yul\":14761:14770   */\n      dup2\n        /* \"#utility.yul\":14755:14759   */\n      dup2\n        /* \"#utility.yul\":14751:14771   */\n      sub\n        /* \"#utility.yul\":14745:14748   */\n      0xa0\n        /* \"#utility.yul\":14734:14743   */\n      dup4\n        /* \"#utility.yul\":14730:14749   */\n      add\n        /* \"#utility.yul\":14723:14772   */\n      mstore\n        /* \"#utility.yul\":14789:14917   */\n      tag_323\n        /* \"#utility.yul\":14912:14916   */\n      dup2\n        /* \"#utility.yul\":14903:14909   */\n      dup5\n        /* \"#utility.yul\":14789:14917   */\n      tag_176\n      jump\t// in\n    tag_323:\n        /* \"#utility.yul\":14781:14917   */\n      swap1\n      pop\n        /* \"#utility.yul\":13294:14924   */\n      swap8\n      swap7\n      pop\n      pop\n      pop\n      pop\n      pop\n      pop\n      pop\n      jump\t// out\n        /* \"#utility.yul\":14930:15110   */\n    tag_177:\n        /* \"#utility.yul\":14978:15055   */\n      0x4e487b7100000000000000000000000000000000000000000000000000000000\n        /* \"#utility.yul\":14975:14976   */\n      0x00\n        /* \"#utility.yul\":14968:15056   */\n      mstore\n        /* \"#utility.yul\":15075:15079   */\n      0x22\n        /* \"#utility.yul\":15072:15073   */\n      0x04\n        /* \"#utility.yul\":15065:15080   */\n      mstore\n        /* \"#utility.yul\":15099:15103   */\n      0x24\n        /* \"#utility.yul\":15096:15097   */\n      0x00\n        /* \"#utility.yul\":15089:15104   */\n      revert\n        /* \"#utility.yul\":15116:15436   */\n    tag_27:\n        /* \"#utility.yul\":15160:15166   */\n      0x00\n        /* \"#utility.yul\":15197:15198   */\n      0x02\n        /* \"#utility.yul\":15191:15195   */\n      dup3\n        /* \"#utility.yul\":15187:15199   */\n      div\n        /* \"#utility.yul\":15177:15199   */\n      swap1\n      pop\n        /* \"#utility.yul\":15244:15245   */\n      0x01\n        /* \"#utility.yul\":15238:15242   */\n      dup3\n        /* \"#utility.yul\":15234:15246   */\n      and\n        /* \"#utility.yul\":15265:15283   */\n      dup1\n        /* \"#utility.yul\":15255:15336   */\n      tag_326\n      jumpi\n        /* \"#utility.yul\":15321:15325   */\n      0x7f\n        /* \"#utility.yul\":15313:15319   */\n      dup3\n        /* \"#utility.yul\":15309:15326   */\n      and\n        /* \"#utility.yul\":15299:15326   */\n      swap2\n      pop\n        /* \"#utility.yul\":15255:15336   */\n    tag_326:\n        /* \"#utility.yul\":15383:15385   */\n      0x20\n        /* \"#utility.yul\":15375:15381   */\n      dup3\n        /* \"#utility.yul\":15372:15386   */\n      lt\n        /* \"#utility.yul\":15352:15370   */\n      dup2\n        /* \"#utility.yul\":15349:15387   */\n      sub\n        /* \"#utility.yul\":15346:15430   */\n      tag_327\n      jumpi\n        /* \"#utility.yul\":15402:15420   */\n      tag_328\n      tag_177\n      jump\t// in\n    tag_328:\n        /* \"#utility.yul\":15346:15430   */\n    tag_327:\n        /* \"#utility.yul\":15167:15436   */\n      pop\n        /* \"#utility.yul\":15116:15436   */\n      swap2\n      swap1\n      pop\n      jump\t// out\n\n    auxdata: 0xa2646970667358221220bac1d7487aa9550b50af542def652e7cb5dcba54dbad982f74c5a73ffa2724f564736f6c634300080d0033\n}\n",
				"bytecode": {
					"linkReferences": {},
					"object": "608060405234801561001057600080fd5b506114fa806100206000396000f3fe608060405234801561001057600080fd5b506004361061004c5760003560e01c80630869cfbc146100515780631dae7dfd14610082578063b152829b1461009e578063b5368e20146100ba575b600080fd5b61006b60048036038101906100669190610d8e565b6100ef565b604051610079929190610e6d565b60405180910390f35b61009c600480360381019061009791906110e4565b61019b565b005b6100b860048036038101906100b391906111fd565b6102b2565b005b6100d460048036038101906100cf9190610d8e565b61072a565b6040516100e6969594939291906113e0565b60405180910390f35b600060205280600052604060002060009150905080600001805461011290611493565b80601f016020809104026020016040519081016040528092919081815260200182805461013e90611493565b801561018b5780601f106101605761010080835404028352916020019161018b565b820191906000526020600020905b81548152906001019060200180831161016e57829003601f168201915b5050505050908060010154905082565b60006040518060c00160405280888152602001878152602001868152602001858152602001848152602001838152509050806000803373ffffffffffffffffffffffffffffffffffffffff1673ffffffffffffffffffffffffffffffffffffffff1681526020019081526020016000206000820151816000019080519060200190610227929190610bb5565b5060208201518160010155604082015181600201908051906020019061024e929190610c3b565b50606082015181600301908051906020019061026b929190610c3b565b506080820151816004019080519060200190610288929190610c3b565b5060a08201518160050190805190602001906102a5929190610c3b565b5090505050505050505050565b60008060003373ffffffffffffffffffffffffffffffffffffffff1673ffffffffffffffffffffffffffffffffffffffff1681526020019081526020016000206040518060c001604052908160008201805461030d90611493565b80601f016020809104026020016040519081016040528092919081815260200182805461033990611493565b80156103865780601f1061035b57610100808354040283529160200191610386565b820191906000526020600020905b81548152906001019060200180831161036957829003601f168201915b505050505081526020016001820154815260200160028201805480602002602001604051908101604052809291908181526020016000905b8282101561046a5783829060005260206000200180546103dd90611493565b80601f016020809104026020016040519081016040528092919081815260200182805461040990611493565b80156104565780601f1061042b57610100808354040283529160200191610456565b820191906000526020600020905b81548152906001019060200180831161043957829003601f168201915b5050505050815260200190600101906103be565b50505050815260200160038201805480602002602001604051908101604052809291908181526020016000905b828210156105435783829060005260206000200180546104b690611493565b80601f01602080910402602001604051908101604052809291908181526020018280546104e290611493565b801561052f5780601f106105045761010080835404028352916020019161052f565b820191906000526020600020905b81548152906001019060200180831161051257829003601f168201915b505050505081526020019060010190610497565b50505050815260200160048201805480602002602001604051908101604052809291908181526020016000905b8282101561061c57838290600052602060002001805461058f90611493565b80601f01602080910402602001604051908101604052809291908181526020018280546105bb90611493565b80156106085780601f106105dd57610100808354040283529160200191610608565b820191906000526020600020905b8154815290600101906020018083116105eb57829003601f168201915b505050505081526020019060010190610570565b50505050815260200160058201805480602002602001604051908101604052809291908181526020016000905b828210156106f557838290600052602060002001805461066890611493565b80601f016020809104026020016040519081016040528092919081815260200182805461069490611493565b80156106e15780601f106106b6576101008083540402835291602001916106e1565b820191906000526020600020905b8154815290600101906020018083116106c457829003601f168201915b505050505081526020019060010190610649565b50505050815250509050848160400181905250838160600181905250828160800181905250818160a001819052505050505050565b6060600060608060608060008060008973ffffffffffffffffffffffffffffffffffffffff1673ffffffffffffffffffffffffffffffffffffffff1681526020019081526020016000206040518060c001604052908160008201805461078f90611493565b80601f01602080910402602001604051908101604052809291908181526020018280546107bb90611493565b80156108085780601f106107dd57610100808354040283529160200191610808565b820191906000526020600020905b8154815290600101906020018083116107eb57829003601f168201915b505050505081526020016001820154815260200160028201805480602002602001604051908101604052809291908181526020016000905b828210156108ec57838290600052602060002001805461085f90611493565b80601f016020809104026020016040519081016040528092919081815260200182805461088b90611493565b80156108d85780601f106108ad576101008083540402835291602001916108d8565b820191906000526020600020905b8154815290600101906020018083116108bb57829003601f168201915b505050505081526020019060010190610840565b50505050815260200160038201805480602002602001604051908101604052809291908181526020016000905b828210156109c557838290600052602060002001805461093890611493565b80601f016020809104026020016040519081016040528092919081815260200182805461096490611493565b80156109b15780601f10610986576101008083540402835291602001916109b1565b820191906000526020600020905b81548152906001019060200180831161099457829003601f168201915b505050505081526020019060010190610919565b50505050815260200160048201805480602002602001604051908101604052809291908181526020016000905b82821015610a9e578382906000526020600020018054610a1190611493565b80601f0160208091040260200160405190810160405280929190818152602001828054610a3d90611493565b8015610a8a5780601f10610a5f57610100808354040283529160200191610a8a565b820191906000526020600020905b815481529060010190602001808311610a6d57829003601f168201915b5050505050815260200190600101906109f2565b50505050815260200160058201805480602002602001604051908101604052809291908181526020016000905b82821015610b77578382906000526020600020018054610aea90611493565b80601f0160208091040260200160405190810160405280929190818152602001828054610b1690611493565b8015610b635780601f10610b3857610100808354040283529160200191610b63565b820191906000526020600020905b815481529060010190602001808311610b4657829003601f168201915b505050505081526020019060010190610acb565b50505050815250509050806000015181602001518260400151836060015184608001518560a001519650965096509650965096505091939550919395565b828054610bc190611493565b90600052602060002090601f016020900481019282610be35760008555610c2a565b82601f10610bfc57805160ff1916838001178555610c2a565b82800160010185558215610c2a579182015b82811115610c29578251825591602001919060010190610c0e565b5b509050610c379190610c9b565b5090565b828054828255906000526020600020908101928215610c8a579160200282015b82811115610c89578251829080519060200190610c79929190610bb5565b5091602001919060010190610c5b565b5b509050610c979190610cb8565b5090565b5b80821115610cb4576000816000905550600101610c9c565b5090565b5b80821115610cd85760008181610ccf9190610cdc565b50600101610cb9565b5090565b508054610ce890611493565b6000825580601f10610cfa5750610d19565b601f016020900490600052602060002090810190610d189190610c9b565b5b50565b6000604051905090565b600080fd5b600080fd5b600073ffffffffffffffffffffffffffffffffffffffff82169050919050565b6000610d5b82610d30565b9050919050565b610d6b81610d50565b8114610d7657600080fd5b50565b600081359050610d8881610d62565b92915050565b600060208284031215610da457610da3610d26565b5b6000610db284828501610d79565b91505092915050565b600081519050919050565b600082825260208201905092915050565b60005b83811015610df5578082015181840152602081019050610dda565b83811115610e04576000848401525b50505050565b6000601f19601f8301169050919050565b6000610e2682610dbb565b610e308185610dc6565b9350610e40818560208601610dd7565b610e4981610e0a565b840191505092915050565b6000819050919050565b610e6781610e54565b82525050565b60006040820190508181036000830152610e878185610e1b565b9050610e966020830184610e5e565b9392505050565b600080fd5b600080fd5b7f4e487b7100000000000000000000000000000000000000000000000000000000600052604160045260246000fd5b610edf82610e0a565b810181811067ffffffffffffffff82111715610efe57610efd610ea7565b5b80604052505050565b6000610f11610d1c565b9050610f1d8282610ed6565b919050565b600067ffffffffffffffff821115610f3d57610f3c610ea7565b5b610f4682610e0a565b9050602081019050919050565b82818337600083830152505050565b6000610f75610f7084610f22565b610f07565b905082815260208101848484011115610f9157610f90610ea2565b5b610f9c848285610f53565b509392505050565b600082601f830112610fb957610fb8610e9d565b5b8135610fc9848260208601610f62565b91505092915050565b610fdb81610e54565b8114610fe657600080fd5b50565b600081359050610ff881610fd2565b92915050565b600067ffffffffffffffff82111561101957611018610ea7565b5b602082029050602081019050919050565b600080fd5b600061104261103d84610ffe565b610f07565b905080838252602082019050602084028301858111156110655761106461102a565b5b835b818110156110ac57803567ffffffffffffffff81111561108a57611089610e9d565b5b8086016110978982610fa4565b85526020850194505050602081019050611067565b5050509392505050565b600082601f8301126110cb576110ca610e9d565b5b81356110db84826020860161102f565b91505092915050565b60008060008060008060c0878903121561110157611100610d26565b5b600087013567ffffffffffffffff81111561111f5761111e610d2b565b5b61112b89828a01610fa4565b965050602061113c89828a01610fe9565b955050604087013567ffffffffffffffff81111561115d5761115c610d2b565b5b61116989828a016110b6565b945050606087013567ffffffffffffffff81111561118a57611189610d2b565b5b61119689828a016110b6565b935050608087013567ffffffffffffffff8111156111b7576111b6610d2b565b5b6111c389828a016110b6565b92505060a087013567ffffffffffffffff8111156111e4576111e3610d2b565b5b6111f089828a016110b6565b9150509295509295509295565b6000806000806080858703121561121757611216610d26565b5b600085013567ffffffffffffffff81111561123557611234610d2b565b5b611241878288016110b6565b945050602085013567ffffffffffffffff81111561126257611261610d2b565b5b61126e878288016110b6565b935050604085013567ffffffffffffffff81111561128f5761128e610d2b565b5b61129b878288016110b6565b925050606085013567ffffffffffffffff8111156112bc576112bb610d2b565b5b6112c8878288016110b6565b91505092959194509250565b600081519050919050565b600082825260208201905092915050565b6000819050602082019050919050565b600082825260208201905092915050565b600061131c82610dbb565b6113268185611300565b9350611336818560208601610dd7565b61133f81610e0a565b840191505092915050565b60006113568383611311565b905092915050565b6000602082019050919050565b6000611376826112d4565b61138081856112df565b935083602082028501611392856112f0565b8060005b858110156113ce57848403895281516113af858261134a565b94506113ba8361135e565b925060208a01995050600181019050611396565b50829750879550505050505092915050565b600060c08201905081810360008301526113fa8189610e1b565b90506114096020830188610e5e565b818103604083015261141b818761136b565b9050818103606083015261142f818661136b565b90508181036080830152611443818561136b565b905081810360a0830152611457818461136b565b9050979650505050505050565b7f4e487b7100000000000000000000000000000000000000000000000000000000600052602260045260246000fd5b600060028204905060018216806114ab57607f821691505b6020821081036114be576114bd611464565b5b5091905056fea2646970667358221220bac1d7487aa9550b50af542def652e7cb5dcba54dbad982f74c5a73ffa2724f564736f6c634300080d0033",
					"opcodes": "PUSH1 0x80 PUSH1 0x40 MSTORE CALLVALUE DUP1 ISZERO PUSH2 0x10 JUMPI PUSH1 0x0 DUP1 REVERT JUMPDEST POP PUSH2 0x14FA DUP1 PUSH2 0x20 PUSH1 0x0 CODECOPY PUSH1 0x0 RETURN INVALID PUSH1 0x80 PUSH1 0x40 MSTORE CALLVALUE DUP1 ISZERO PUSH2 0x10 JUMPI PUSH1 0x0 DUP1 REVERT JUMPDEST POP PUSH1 0x4 CALLDATASIZE LT PUSH2 0x4C JUMPI PUSH1 0x0 CALLDATALOAD PUSH1 0xE0 SHR DUP1 PUSH4 0x869CFBC EQ PUSH2 0x51 JUMPI DUP1 PUSH4 0x1DAE7DFD EQ PUSH2 0x82 JUMPI DUP1 PUSH4 0xB152829B EQ PUSH2 0x9E JUMPI DUP1 PUSH4 0xB5368E20 EQ PUSH2 0xBA JUMPI JUMPDEST PUSH1 0x0 DUP1 REVERT JUMPDEST PUSH2 0x6B PUSH1 0x4 DUP1 CALLDATASIZE SUB DUP2 ADD SWAP1 PUSH2 0x66 SWAP2 SWAP1 PUSH2 0xD8E JUMP JUMPDEST PUSH2 0xEF JUMP JUMPDEST PUSH1 0x40 MLOAD PUSH2 0x79 SWAP3 SWAP2 SWAP1 PUSH2 0xE6D JUMP JUMPDEST PUSH1 0x40 MLOAD DUP1 SWAP2 SUB SWAP1 RETURN JUMPDEST PUSH2 0x9C PUSH1 0x4 DUP1 CALLDATASIZE SUB DUP2 ADD SWAP1 PUSH2 0x97 SWAP2 SWAP1 PUSH2 0x10E4 JUMP JUMPDEST PUSH2 0x19B JUMP JUMPDEST STOP JUMPDEST PUSH2 0xB8 PUSH1 0x4 DUP1 CALLDATASIZE SUB DUP2 ADD SWAP1 PUSH2 0xB3 SWAP2 SWAP1 PUSH2 0x11FD JUMP JUMPDEST PUSH2 0x2B2 JUMP JUMPDEST STOP JUMPDEST PUSH2 0xD4 PUSH1 0x4 DUP1 CALLDATASIZE SUB DUP2 ADD SWAP1 PUSH2 0xCF SWAP2 SWAP1 PUSH2 0xD8E JUMP JUMPDEST PUSH2 0x72A JUMP JUMPDEST PUSH1 0x40 MLOAD PUSH2 0xE6 SWAP7 SWAP6 SWAP5 SWAP4 SWAP3 SWAP2 SWAP1 PUSH2 0x13E0 JUMP JUMPDEST PUSH1 0x40 MLOAD DUP1 SWAP2 SUB SWAP1 RETURN JUMPDEST PUSH1 0x0 PUSH1 0x20 MSTORE DUP1 PUSH1 0x0 MSTORE PUSH1 0x40 PUSH1 0x0 KECCAK256 PUSH1 0x0 SWAP2 POP SWAP1 POP DUP1 PUSH1 0x0 ADD DUP1 SLOAD PUSH2 0x112 SWAP1 PUSH2 0x1493 JUMP JUMPDEST DUP1 PUSH1 0x1F ADD PUSH1 0x20 DUP1 SWAP2 DIV MUL PUSH1 0x20 ADD PUSH1 0x40 MLOAD SWAP1 DUP2 ADD PUSH1 0x40 MSTORE DUP1 SWAP3 SWAP2 SWAP1 DUP2 DUP2 MSTORE PUSH1 0x20 ADD DUP3 DUP1 SLOAD PUSH2 0x13E SWAP1 PUSH2 0x1493 JUMP JUMPDEST DUP1 ISZERO PUSH2 0x18B JUMPI DUP1 PUSH1 0x1F LT PUSH2 0x160 JUMPI PUSH2 0x100 DUP1 DUP4 SLOAD DIV MUL DUP4 MSTORE SWAP2 PUSH1 0x20 ADD SWAP2 PUSH2 0x18B JUMP JUMPDEST DUP3 ADD SWAP2 SWAP1 PUSH1 0x0 MSTORE PUSH1 0x20 PUSH1 0x0 KECCAK256 SWAP1 JUMPDEST DUP2 SLOAD DUP2 MSTORE SWAP1 PUSH1 0x1 ADD SWAP1 PUSH1 0x20 ADD DUP1 DUP4 GT PUSH2 0x16E JUMPI DUP3 SWAP1 SUB PUSH1 0x1F AND DUP3 ADD SWAP2 JUMPDEST POP POP POP POP POP SWAP1 DUP1 PUSH1 0x1 ADD SLOAD SWAP1 POP DUP3 JUMP JUMPDEST PUSH1 0x0 PUSH1 0x40 MLOAD DUP1 PUSH1 0xC0 ADD PUSH1 0x40 MSTORE DUP1 DUP9 DUP2 MSTORE PUSH1 0x20 ADD DUP8 DUP2 MSTORE PUSH1 0x20 ADD DUP7 DUP2 MSTORE PUSH1 0x20 ADD DUP6 DUP2 MSTORE PUSH1 0x20 ADD DUP5 DUP2 MSTORE PUSH1 0x20 ADD DUP4 DUP2 MSTORE POP SWAP1 POP DUP1 PUSH1 0x0 DUP1 CALLER PUSH20 0xFFFFFFFFFFFFFFFFFFFFFFFFFFFFFFFFFFFFFFFF AND PUSH20 0xFFFFFFFFFFFFFFFFFFFFFFFFFFFFFFFFFFFFFFFF AND DUP2 MSTORE PUSH1 0x20 ADD SWAP1 DUP2 MSTORE PUSH1 0x20 ADD PUSH1 0x0 KECCAK256 PUSH1 0x0 DUP3 ADD MLOAD DUP2 PUSH1 0x0 ADD SWAP1 DUP1 MLOAD SWAP1 PUSH1 0x20 ADD SWAP1 PUSH2 0x227 SWAP3 SWAP2 SWAP1 PUSH2 0xBB5 JUMP JUMPDEST POP PUSH1 0x20 DUP3 ADD MLOAD DUP2 PUSH1 0x1 ADD SSTORE PUSH1 0x40 DUP3 ADD MLOAD DUP2 PUSH1 0x2 ADD SWAP1 DUP1 MLOAD SWAP1 PUSH1 0x20 ADD SWAP1 PUSH2 0x24E SWAP3 SWAP2 SWAP1 PUSH2 0xC3B JUMP JUMPDEST POP PUSH1 0x60 DUP3 ADD MLOAD DUP2 PUSH1 0x3 ADD SWAP1 DUP1 MLOAD SWAP1 PUSH1 0x20 ADD SWAP1 PUSH2 0x26B SWAP3 SWAP2 SWAP1 PUSH2 0xC3B JUMP JUMPDEST POP PUSH1 0x80 DUP3 ADD MLOAD DUP2 PUSH1 0x4 ADD SWAP1 DUP1 MLOAD SWAP1 PUSH1 0x20 ADD SWAP1 PUSH2 0x288 SWAP3 SWAP2 SWAP1 PUSH2 0xC3B JUMP JUMPDEST POP PUSH1 0xA0 DUP3 ADD MLOAD DUP2 PUSH1 0x5 ADD SWAP1 DUP1 MLOAD SWAP1 PUSH1 0x20 ADD SWAP1 PUSH2 0x2A5 SWAP3 SWAP2 SWAP1 PUSH2 0xC3B JUMP JUMPDEST POP SWAP1 POP POP POP POP POP POP POP POP POP JUMP JUMPDEST PUSH1 0x0 DUP1 PUSH1 0x0 CALLER PUSH20 0xFFFFFFFFFFFFFFFFFFFFFFFFFFFFFFFFFFFFFFFF AND PUSH20 0xFFFFFFFFFFFFFFFFFFFFFFFFFFFFFFFFFFFFFFFF AND DUP2 MSTORE PUSH1 0x20 ADD SWAP1 DUP2 MSTORE PUSH1 0x20 ADD PUSH1 0x0 KECCAK256 PUSH1 0x40 MLOAD DUP1 PUSH1 0xC0 ADD PUSH1 0x40 MSTORE SWAP1 DUP2 PUSH1 0x0 DUP3 ADD DUP1 SLOAD PUSH2 0x30D SWAP1 PUSH2 0x1493 JUMP JUMPDEST DUP1 PUSH1 0x1F ADD PUSH1 0x20 DUP1 SWAP2 DIV MUL PUSH1 0x20 ADD PUSH1 0x40 MLOAD SWAP1 DUP2 ADD PUSH1 0x40 MSTORE DUP1 SWAP3 SWAP2 SWAP1 DUP2 DUP2 MSTORE PUSH1 0x20 ADD DUP3 DUP1 SLOAD PUSH2 0x339 SWAP1 PUSH2 0x1493 JUMP JUMPDEST DUP1 ISZERO PUSH2 0x386 JUMPI DUP1 PUSH1 0x1F LT PUSH2 0x35B JUMPI PUSH2 0x100 DUP1 DUP4 SLOAD DIV MUL DUP4 MSTORE SWAP2 PUSH1 0x20 ADD SWAP2 PUSH2 0x386 JUMP JUMPDEST DUP3 ADD SWAP2 SWAP1 PUSH1 0x0 MSTORE PUSH1 0x20 PUSH1 0x0 KECCAK256 SWAP1 JUMPDEST DUP2 SLOAD DUP2 MSTORE SWAP1 PUSH1 0x1 ADD SWAP1 PUSH1 0x20 ADD DUP1 DUP4 GT PUSH2 0x369 JUMPI DUP3 SWAP1 SUB PUSH1 0x1F AND DUP3 ADD SWAP2 JUMPDEST POP POP POP POP POP DUP2 MSTORE PUSH1 0x20 ADD PUSH1 0x1 DUP3 ADD SLOAD DUP2 MSTORE PUSH1 0x20 ADD PUSH1 0x2 DUP3 ADD DUP1 SLOAD DUP1 PUSH1 0x20 MUL PUSH1 0x20 ADD PUSH1 0x40 MLOAD SWAP1 DUP2 ADD PUSH1 0x40 MSTORE DUP1 SWAP3 SWAP2 SWAP1 DUP2 DUP2 MSTORE PUSH1 0x20 ADD PUSH1 0x0 SWAP1 JUMPDEST DUP3 DUP3 LT ISZERO PUSH2 0x46A JUMPI DUP4 DUP3 SWAP1 PUSH1 0x0 MSTORE PUSH1 0x20 PUSH1 0x0 KECCAK256 ADD DUP1 SLOAD PUSH2 0x3DD SWAP1 PUSH2 0x1493 JUMP JUMPDEST DUP1 PUSH1 0x1F ADD PUSH1 0x20 DUP1 SWAP2 DIV MUL PUSH1 0x20 ADD PUSH1 0x40 MLOAD SWAP1 DUP2 ADD PUSH1 0x40 MSTORE DUP1 SWAP3 SWAP2 SWAP1 DUP2 DUP2 MSTORE PUSH1 0x20 ADD DUP3 DUP1 SLOAD PUSH2 0x409 SWAP1 PUSH2 0x1493 JUMP JUMPDEST DUP1 ISZERO PUSH2 0x456 JUMPI DUP1 PUSH1 0x1F LT PUSH2 0x42B JUMPI PUSH2 0x100 DUP1 DUP4 SLOAD DIV MUL DUP4 MSTORE SWAP2 PUSH1 0x20 ADD SWAP2 PUSH2 0x456 JUMP JUMPDEST DUP3 ADD SWAP2 SWAP1 PUSH1 0x0 MSTORE PUSH1 0x20 PUSH1 0x0 KECCAK256 SWAP1 JUMPDEST DUP2 SLOAD DUP2 MSTORE SWAP1 PUSH1 0x1 ADD SWAP1 PUSH1 0x20 ADD DUP1 DUP4 GT PUSH2 0x439 JUMPI DUP3 SWAP1 SUB PUSH1 0x1F AND DUP3 ADD SWAP2 JUMPDEST POP POP POP POP POP DUP2 MSTORE PUSH1 0x20 ADD SWAP1 PUSH1 0x1 ADD SWAP1 PUSH2 0x3BE JUMP JUMPDEST POP POP POP POP DUP2 MSTORE PUSH1 0x20 ADD PUSH1 0x3 DUP3 ADD DUP1 SLOAD DUP1 PUSH1 0x20 MUL PUSH1 0x20 ADD PUSH1 0x40 MLOAD SWAP1 DUP2 ADD PUSH1 0x40 MSTORE DUP1 SWAP3 SWAP2 SWAP1 DUP2 DUP2 MSTORE PUSH1 0x20 ADD PUSH1 0x0 SWAP1 JUMPDEST DUP3 DUP3 LT ISZERO PUSH2 0x543 JUMPI DUP4 DUP3 SWAP1 PUSH1 0x0 MSTORE PUSH1 0x20 PUSH1 0x0 KECCAK256 ADD DUP1 SLOAD PUSH2 0x4B6 SWAP1 PUSH2 0x1493 JUMP JUMPDEST DUP1 PUSH1 0x1F ADD PUSH1 0x20 DUP1 SWAP2 DIV MUL PUSH1 0x20 ADD PUSH1 0x40 MLOAD SWAP1 DUP2 ADD PUSH1 0x40 MSTORE DUP1 SWAP3 SWAP2 SWAP1 DUP2 DUP2 MSTORE PUSH1 0x20 ADD DUP3 DUP1 SLOAD PUSH2 0x4E2 SWAP1 PUSH2 0x1493 JUMP JUMPDEST DUP1 ISZERO PUSH2 0x52F JUMPI DUP1 PUSH1 0x1F LT PUSH2 0x504 JUMPI PUSH2 0x100 DUP1 DUP4 SLOAD DIV MUL DUP4 MSTORE SWAP2 PUSH1 0x20 ADD SWAP2 PUSH2 0x52F JUMP JUMPDEST DUP3 ADD SWAP2 SWAP1 PUSH1 0x0 MSTORE PUSH1 0x20 PUSH1 0x0 KECCAK256 SWAP1 JUMPDEST DUP2 SLOAD DUP2 MSTORE SWAP1 PUSH1 0x1 ADD SWAP1 PUSH1 0x20 ADD DUP1 DUP4 GT PUSH2 0x512 JUMPI DUP3 SWAP1 SUB PUSH1 0x1F AND DUP3 ADD SWAP2 JUMPDEST POP POP POP POP POP DUP2 MSTORE PUSH1 0x20 ADD SWAP1 PUSH1 0x1 ADD SWAP1 PUSH2 0x497 JUMP JUMPDEST POP POP POP POP DUP2 MSTORE PUSH1 0x20 ADD PUSH1 0x4 DUP3 ADD DUP1 SLOAD DUP1 PUSH1 0x20 MUL PUSH1 0x20 ADD PUSH1 0x40 MLOAD SWAP1 DUP2 ADD PUSH1 0x40 MSTORE DUP1 SWAP3 SWAP2 SWAP1 DUP2 DUP2 MSTORE PUSH1 0x20 ADD PUSH1 0x0 SWAP1 JUMPDEST DUP3 DUP3 LT ISZERO PUSH2 0x61C JUMPI DUP4 DUP3 SWAP1 PUSH1 0x0 MSTORE PUSH1 0x20 PUSH1 0x0 KECCAK256 ADD DUP1 SLOAD PUSH2 0x58F SWAP1 PUSH2 0x1493 JUMP JUMPDEST DUP1 PUSH1 0x1F ADD PUSH1 0x20 DUP1 SWAP2 DIV MUL PUSH1 0x20 ADD PUSH1 0x40 MLOAD SWAP1 DUP2 ADD PUSH1 0x40 MSTORE DUP1 SWAP3 SWAP2 SWAP1 DUP2 DUP2 MSTORE PUSH1 0x20 ADD DUP3 DUP1 SLOAD PUSH2 0x5BB SWAP1 PUSH2 0x1493 JUMP JUMPDEST DUP1 ISZERO PUSH2 0x608 JUMPI DUP1 PUSH1 0x1F LT PUSH2 0x5DD JUMPI PUSH2 0x100 DUP1 DUP4 SLOAD DIV MUL DUP4 MSTORE SWAP2 PUSH1 0x20 ADD SWAP2 PUSH2 0x608 JUMP JUMPDEST DUP3 ADD SWAP2 SWAP1 PUSH1 0x0 MSTORE PUSH1 0x20 PUSH1 0x0 KECCAK256 SWAP1 JUMPDEST DUP2 SLOAD DUP2 MSTORE SWAP1 PUSH1 0x1 ADD SWAP1 PUSH1 0x20 ADD DUP1 DUP4 GT PUSH2 0x5EB JUMPI DUP3 SWAP1 SUB PUSH1 0x1F AND DUP3 ADD SWAP2 JUMPDEST POP POP POP POP POP DUP2 MSTORE PUSH1 0x20 ADD SWAP1 PUSH1 0x1 ADD SWAP1 PUSH2 0x570 JUMP JUMPDEST POP POP POP POP DUP2 MSTORE PUSH1 0x20 ADD PUSH1 0x5 DUP3 ADD DUP1 SLOAD DUP1 PUSH1 0x20 MUL PUSH1 0x20 ADD PUSH1 0x40 MLOAD SWAP1 DUP2 ADD PUSH1 0x40 MSTORE DUP1 SWAP3 SWAP2 SWAP1 DUP2 DUP2 MSTORE PUSH1 0x20 ADD PUSH1 0x0 SWAP1 JUMPDEST DUP3 DUP3 LT ISZERO PUSH2 0x6F5 JUMPI DUP4 DUP3 SWAP1 PUSH1 0x0 MSTORE PUSH1 0x20 PUSH1 0x0 KECCAK256 ADD DUP1 SLOAD PUSH2 0x668 SWAP1 PUSH2 0x1493 JUMP JUMPDEST DUP1 PUSH1 0x1F ADD PUSH1 0x20 DUP1 SWAP2 DIV MUL PUSH1 0x20 ADD PUSH1 0x40 MLOAD SWAP1 DUP2 ADD PUSH1 0x40 MSTORE DUP1 SWAP3 SWAP2 SWAP1 DUP2 DUP2 MSTORE PUSH1 0x20 ADD DUP3 DUP1 SLOAD PUSH2 0x694 SWAP1 PUSH2 0x1493 JUMP JUMPDEST DUP1 ISZERO PUSH2 0x6E1 JUMPI DUP1 PUSH1 0x1F LT PUSH2 0x6B6 JUMPI PUSH2 0x100 DUP1 DUP4 SLOAD DIV MUL DUP4 MSTORE SWAP2 PUSH1 0x20 ADD SWAP2 PUSH2 0x6E1 JUMP JUMPDEST DUP3 ADD SWAP2 SWAP1 PUSH1 0x0 MSTORE PUSH1 0x20 PUSH1 0x0 KECCAK256 SWAP1 JUMPDEST DUP2 SLOAD DUP2 MSTORE SWAP1 PUSH1 0x1 ADD SWAP1 PUSH1 0x20 ADD DUP1 DUP4 GT PUSH2 0x6C4 JUMPI DUP3 SWAP1 SUB PUSH1 0x1F AND DUP3 ADD SWAP2 JUMPDEST POP POP POP POP POP DUP2 MSTORE PUSH1 0x20 ADD SWAP1 PUSH1 0x1 ADD SWAP1 PUSH2 0x649 JUMP JUMPDEST POP POP POP POP DUP2 MSTORE POP POP SWAP1 POP DUP5 DUP2 PUSH1 0x40 ADD DUP2 SWAP1 MSTORE POP DUP4 DUP2 PUSH1 0x60 ADD DUP2 SWAP1 MSTORE POP DUP3 DUP2 PUSH1 0x80 ADD DUP2 SWAP1 MSTORE POP DUP2 DUP2 PUSH1 0xA0 ADD DUP2 SWAP1 MSTORE POP POP POP POP POP POP JUMP JUMPDEST PUSH1 0x60 PUSH1 0x0 PUSH1 0x60 DUP1 PUSH1 0x60 DUP1 PUSH1 0x0 DUP1 PUSH1 0x0 DUP10 PUSH20 0xFFFFFFFFFFFFFFFFFFFFFFFFFFFFFFFFFFFFFFFF AND PUSH20 0xFFFFFFFFFFFFFFFFFFFFFFFFFFFFFFFFFFFFFFFF AND DUP2 MSTORE PUSH1 0x20 ADD SWAP1 DUP2 MSTORE PUSH1 0x20 ADD PUSH1 0x0 KECCAK256 PUSH1 0x40 MLOAD DUP1 PUSH1 0xC0 ADD PUSH1 0x40 MSTORE SWAP1 DUP2 PUSH1 0x0 DUP3 ADD DUP1 SLOAD PUSH2 0x78F SWAP1 PUSH2 0x1493 JUMP JUMPDEST DUP1 PUSH1 0x1F ADD PUSH1 0x20 DUP1 SWAP2 DIV MUL PUSH1 0x20 ADD PUSH1 0x40 MLOAD SWAP1 DUP2 ADD PUSH1 0x40 MSTORE DUP1 SWAP3 SWAP2 SWAP1 DUP2 DUP2 MSTORE PUSH1 0x20 ADD DUP3 DUP1 SLOAD PUSH2 0x7BB SWAP1 PUSH2 0x1493 JUMP JUMPDEST DUP1 ISZERO PUSH2 0x808 JUMPI DUP1 PUSH1 0x1F LT PUSH2 0x7DD JUMPI PUSH2 0x100 DUP1 DUP4 SLOAD DIV MUL DUP4 MSTORE SWAP2 PUSH1 0x20 ADD SWAP2 PUSH2 0x808 JUMP JUMPDEST DUP3 ADD SWAP2 SWAP1 PUSH1 0x0 MSTORE PUSH1 0x20 PUSH1 0x0 KECCAK256 SWAP1 JUMPDEST DUP2 SLOAD DUP2 MSTORE SWAP1 PUSH1 0x1 ADD SWAP1 PUSH1 0x20 ADD DUP1 DUP4 GT PUSH2 0x7EB JUMPI DUP3 SWAP1 SUB PUSH1 0x1F AND DUP3 ADD SWAP2 JUMPDEST POP POP POP POP POP DUP2 MSTORE PUSH1 0x20 ADD PUSH1 0x1 DUP3 ADD SLOAD DUP2 MSTORE PUSH1 0x20 ADD PUSH1 0x2 DUP3 ADD DUP1 SLOAD DUP1 PUSH1 0x20 MUL PUSH1 0x20 ADD PUSH1 0x40 MLOAD SWAP1 DUP2 ADD PUSH1 0x40 MSTORE DUP1 SWAP3 SWAP2 SWAP1 DUP2 DUP2 MSTORE PUSH1 0x20 ADD PUSH1 0x0 SWAP1 JUMPDEST DUP3 DUP3 LT ISZERO PUSH2 0x8EC JUMPI DUP4 DUP3 SWAP1 PUSH1 0x0 MSTORE PUSH1 0x20 PUSH1 0x0 KECCAK256 ADD DUP1 SLOAD PUSH2 0x85F SWAP1 PUSH2 0x1493 JUMP JUMPDEST DUP1 PUSH1 0x1F ADD PUSH1 0x20 DUP1 SWAP2 DIV MUL PUSH1 0x20 ADD PUSH1 0x40 MLOAD SWAP1 DUP2 ADD PUSH1 0x40 MSTORE DUP1 SWAP3 SWAP2 SWAP1 DUP2 DUP2 MSTORE PUSH1 0x20 ADD DUP3 DUP1 SLOAD PUSH2 0x88B SWAP1 PUSH2 0x1493 JUMP JUMPDEST DUP1 ISZERO PUSH2 0x8D8 JUMPI DUP1 PUSH1 0x1F LT PUSH2 0x8AD JUMPI PUSH2 0x100 DUP1 DUP4 SLOAD DIV MUL DUP4 MSTORE SWAP2 PUSH1 0x20 ADD SWAP2 PUSH2 0x8D8 JUMP JUMPDEST DUP3 ADD SWAP2 SWAP1 PUSH1 0x0 MSTORE PUSH1 0x20 PUSH1 0x0 KECCAK256 SWAP1 JUMPDEST DUP2 SLOAD DUP2 MSTORE SWAP1 PUSH1 0x1 ADD SWAP1 PUSH1 0x20 ADD DUP1 DUP4 GT PUSH2 0x8BB JUMPI DUP3 SWAP1 SUB PUSH1 0x1F AND DUP3 ADD SWAP2 JUMPDEST POP POP POP POP POP DUP2 MSTORE PUSH1 0x20 ADD SWAP1 PUSH1 0x1 ADD SWAP1 PUSH2 0x840 JUMP JUMPDEST POP POP POP POP DUP2 MSTORE PUSH1 0x20 ADD PUSH1 0x3 DUP3 ADD DUP1 SLOAD DUP1 PUSH1 0x20 MUL PUSH1 0x20 ADD PUSH1 0x40 MLOAD SWAP1 DUP2 ADD PUSH1 0x40 MSTORE DUP1 SWAP3 SWAP2 SWAP1 DUP2 DUP2 MSTORE PUSH1 0x20 ADD PUSH1 0x0 SWAP1 JUMPDEST DUP3 DUP3 LT ISZERO PUSH2 0x9C5 JUMPI DUP4 DUP3 SWAP1 PUSH1 0x0 MSTORE PUSH1 0x20 PUSH1 0x0 KECCAK256 ADD DUP1 SLOAD PUSH2 0x938 SWAP1 PUSH2 0x1493 JUMP JUMPDEST DUP1 PUSH1 0x1F ADD PUSH1 0x20 DUP1 SWAP2 DIV MUL PUSH1 0x20 ADD PUSH1 0x40 MLOAD SWAP1 DUP2 ADD PUSH1 0x40 MSTORE DUP1 SWAP3 SWAP2 SWAP1 DUP2 DUP2 MSTORE PUSH1 0x20 ADD DUP3 DUP1 SLOAD PUSH2 0x964 SWAP1 PUSH2 0x1493 JUMP JUMPDEST DUP1 ISZERO PUSH2 0x9B1 JUMPI DUP1 PUSH1 0x1F LT PUSH2 0x986 JUMPI PUSH2 0x100 DUP1 DUP4 SLOAD DIV MUL DUP4 MSTORE SWAP2 PUSH1 0x20 ADD SWAP2 PUSH2 0x9B1 JUMP JUMPDEST DUP3 ADD SWAP2 SWAP1 PUSH1 0x0 MSTORE PUSH1 0x20 PUSH1 0x0 KECCAK256 SWAP1 JUMPDEST DUP2 SLOAD DUP2 MSTORE SWAP1 PUSH1 0x1 ADD SWAP1 PUSH1 0x20 ADD DUP1 DUP4 GT PUSH2 0x994 JUMPI DUP3 SWAP1 SUB PUSH1 0x1F AND DUP3 ADD SWAP2 JUMPDEST POP POP POP POP POP DUP2 MSTORE PUSH1 0x20 ADD SWAP1 PUSH1 0x1 ADD SWAP1 PUSH2 0x919 JUMP JUMPDEST POP POP POP POP DUP2 MSTORE PUSH1 0x20 ADD PUSH1 0x4 DUP3 ADD DUP1 SLOAD DUP1 PUSH1 0x20 MUL PUSH1 0x20 ADD PUSH1 0x40 MLOAD SWAP1 DUP2 ADD PUSH1 0x40 MSTORE DUP1 SWAP3 SWAP2 SWAP1 DUP2 DUP2 MSTORE PUSH1 0x20 ADD PUSH1 0x0 SWAP1 JUMPDEST DUP3 DUP3 LT ISZERO PUSH2 0xA9E JUMPI DUP4 DUP3 SWAP1 PUSH1 0x0 MSTORE PUSH1 0x20 PUSH1 0x0 KECCAK256 ADD DUP1 SLOAD PUSH2 0xA11 SWAP1 PUSH2 0x1493 JUMP JUMPDEST DUP1 PUSH1 0x1F ADD PUSH1 0x20 DUP1 SWAP2 DIV MUL PUSH1 0x20 ADD PUSH1 0x40 MLOAD SWAP1 DUP2 ADD PUSH1 0x40 MSTORE DUP1 SWAP3 SWAP2 SWAP1 DUP2 DUP2 MSTORE PUSH1 0x20 ADD DUP3 DUP1 SLOAD PUSH2 0xA3D SWAP1 PUSH2 0x1493 JUMP JUMPDEST DUP1 ISZERO PUSH2 0xA8A JUMPI DUP1 PUSH1 0x1F LT PUSH2 0xA5F JUMPI PUSH2 0x100 DUP1 DUP4 SLOAD DIV MUL DUP4 MSTORE SWAP2 PUSH1 0x20 ADD SWAP2 PUSH2 0xA8A JUMP JUMPDEST DUP3 ADD SWAP2 SWAP1 PUSH1 0x0 MSTORE PUSH1 0x20 PUSH1 0x0 KECCAK256 SWAP1 JUMPDEST DUP2 SLOAD DUP2 MSTORE SWAP1 PUSH1 0x1 ADD SWAP1 PUSH1 0x20 ADD DUP1 DUP4 GT PUSH2 0xA6D JUMPI DUP3 SWAP1 SUB PUSH1 0x1F AND DUP3 ADD SWAP2 JUMPDEST POP POP POP POP POP DUP2 MSTORE PUSH1 0x20 ADD SWAP1 PUSH1 0x1 ADD SWAP1 PUSH2 0x9F2 JUMP JUMPDEST POP POP POP POP DUP2 MSTORE PUSH1 0x20 ADD PUSH1 0x5 DUP3 ADD DUP1 SLOAD DUP1 PUSH1 0x20 MUL PUSH1 0x20 ADD PUSH1 0x40 MLOAD SWAP1 DUP2 ADD PUSH1 0x40 MSTORE DUP1 SWAP3 SWAP2 SWAP1 DUP2 DUP2 MSTORE PUSH1 0x20 ADD PUSH1 0x0 SWAP1 JUMPDEST DUP3 DUP3 LT ISZERO PUSH2 0xB77 JUMPI DUP4 DUP3 SWAP1 PUSH1 0x0 MSTORE PUSH1 0x20 PUSH1 0x0 KECCAK256 ADD DUP1 SLOAD PUSH2 0xAEA SWAP1 PUSH2 0x1493 JUMP JUMPDEST DUP1 PUSH1 0x1F ADD PUSH1 0x20 DUP1 SWAP2 DIV MUL PUSH1 0x20 ADD PUSH1 0x40 MLOAD SWAP1 DUP2 ADD PUSH1 0x40 MSTORE DUP1 SWAP3 SWAP2 SWAP1 DUP2 DUP2 MSTORE PUSH1 0x20 ADD DUP3 DUP1 SLOAD PUSH2 0xB16 SWAP1 PUSH2 0x1493 JUMP JUMPDEST DUP1 ISZERO PUSH2 0xB63 JUMPI DUP1 PUSH1 0x1F LT PUSH2 0xB38 JUMPI PUSH2 0x100 DUP1 DUP4 SLOAD DIV MUL DUP4 MSTORE SWAP2 PUSH1 0x20 ADD SWAP2 PUSH2 0xB63 JUMP JUMPDEST DUP3 ADD SWAP2 SWAP1 PUSH1 0x0 MSTORE PUSH1 0x20 PUSH1 0x0 KECCAK256 SWAP1 JUMPDEST DUP2 SLOAD DUP2 MSTORE SWAP1 PUSH1 0x1 ADD SWAP1 PUSH1 0x20 ADD DUP1 DUP4 GT PUSH2 0xB46 JUMPI DUP3 SWAP1 SUB PUSH1 0x1F AND DUP3 ADD SWAP2 JUMPDEST POP POP POP POP POP DUP2 MSTORE PUSH1 0x20 ADD SWAP1 PUSH1 0x1 ADD SWAP1 PUSH2 0xACB JUMP JUMPDEST POP POP POP POP DUP2 MSTORE POP POP SWAP1 POP DUP1 PUSH1 0x0 ADD MLOAD DUP2 PUSH1 0x20 ADD MLOAD DUP3 PUSH1 0x40 ADD MLOAD DUP4 PUSH1 0x60 ADD MLOAD DUP5 PUSH1 0x80 ADD MLOAD DUP6 PUSH1 0xA0 ADD MLOAD SWAP7 POP SWAP7 POP SWAP7 POP SWAP7 POP SWAP7 POP SWAP7 POP POP SWAP2 SWAP4 SWAP6 POP SWAP2 SWAP4 SWAP6 JUMP JUMPDEST DUP3 DUP1 SLOAD PUSH2 0xBC1 SWAP1 PUSH2 0x1493 JUMP JUMPDEST SWAP1 PUSH1 0x0 MSTORE PUSH1 0x20 PUSH1 0x0 KECCAK256 SWAP1 PUSH1 0x1F ADD PUSH1 0x20 SWAP1 DIV DUP2 ADD SWAP3 DUP3 PUSH2 0xBE3 JUMPI PUSH1 0x0 DUP6 SSTORE PUSH2 0xC2A JUMP JUMPDEST DUP3 PUSH1 0x1F LT PUSH2 0xBFC JUMPI DUP1 MLOAD PUSH1 0xFF NOT AND DUP4 DUP1 ADD OR DUP6 SSTORE PUSH2 0xC2A JUMP JUMPDEST DUP3 DUP1 ADD PUSH1 0x1 ADD DUP6 SSTORE DUP3 ISZERO PUSH2 0xC2A JUMPI SWAP2 DUP3 ADD JUMPDEST DUP3 DUP2 GT ISZERO PUSH2 0xC29 JUMPI DUP3 MLOAD DUP3 SSTORE SWAP2 PUSH1 0x20 ADD SWAP2 SWAP1 PUSH1 0x1 ADD SWAP1 PUSH2 0xC0E JUMP JUMPDEST JUMPDEST POP SWAP1 POP PUSH2 0xC37 SWAP2 SWAP1 PUSH2 0xC9B JUMP JUMPDEST POP SWAP1 JUMP JUMPDEST DUP3 DUP1 SLOAD DUP3 DUP3 SSTORE SWAP1 PUSH1 0x0 MSTORE PUSH1 0x20 PUSH1 0x0 KECCAK256 SWAP1 DUP2 ADD SWAP3 DUP3 ISZERO PUSH2 0xC8A JUMPI SWAP2 PUSH1 0x20 MUL DUP3 ADD JUMPDEST DUP3 DUP2 GT ISZERO PUSH2 0xC89 JUMPI DUP3 MLOAD DUP3 SWAP1 DUP1 MLOAD SWAP1 PUSH1 0x20 ADD SWAP1 PUSH2 0xC79 SWAP3 SWAP2 SWAP1 PUSH2 0xBB5 JUMP JUMPDEST POP SWAP2 PUSH1 0x20 ADD SWAP2 SWAP1 PUSH1 0x1 ADD SWAP1 PUSH2 0xC5B JUMP JUMPDEST JUMPDEST POP SWAP1 POP PUSH2 0xC97 SWAP2 SWAP1 PUSH2 0xCB8 JUMP JUMPDEST POP SWAP1 JUMP JUMPDEST JUMPDEST DUP1 DUP3 GT ISZERO PUSH2 0xCB4 JUMPI PUSH1 0x0 DUP2 PUSH1 0x0 SWAP1 SSTORE POP PUSH1 0x1 ADD PUSH2 0xC9C JUMP JUMPDEST POP SWAP1 JUMP JUMPDEST JUMPDEST DUP1 DUP3 GT ISZERO PUSH2 0xCD8 JUMPI PUSH1 0x0 DUP2 DUP2 PUSH2 0xCCF SWAP2 SWAP1 PUSH2 0xCDC JUMP JUMPDEST POP PUSH1 0x1 ADD PUSH2 0xCB9 JUMP JUMPDEST POP SWAP1 JUMP JUMPDEST POP DUP1 SLOAD PUSH2 0xCE8 SWAP1 PUSH2 0x1493 JUMP JUMPDEST PUSH1 0x0 DUP3 SSTORE DUP1 PUSH1 0x1F LT PUSH2 0xCFA JUMPI POP PUSH2 0xD19 JUMP JUMPDEST PUSH1 0x1F ADD PUSH1 0x20 SWAP1 DIV SWAP1 PUSH1 0x0 MSTORE PUSH1 0x20 PUSH1 0x0 KECCAK256 SWAP1 DUP2 ADD SWAP1 PUSH2 0xD18 SWAP2 SWAP1 PUSH2 0xC9B JUMP JUMPDEST JUMPDEST POP JUMP JUMPDEST PUSH1 0x0 PUSH1 0x40 MLOAD SWAP1 POP SWAP1 JUMP JUMPDEST PUSH1 0x0 DUP1 REVERT JUMPDEST PUSH1 0x0 DUP1 REVERT JUMPDEST PUSH1 0x0 PUSH20 0xFFFFFFFFFFFFFFFFFFFFFFFFFFFFFFFFFFFFFFFF DUP3 AND SWAP1 POP SWAP2 SWAP1 POP JUMP JUMPDEST PUSH1 0x0 PUSH2 0xD5B DUP3 PUSH2 0xD30 JUMP JUMPDEST SWAP1 POP SWAP2 SWAP1 POP JUMP JUMPDEST PUSH2 0xD6B DUP2 PUSH2 0xD50 JUMP JUMPDEST DUP2 EQ PUSH2 0xD76 JUMPI PUSH1 0x0 DUP1 REVERT JUMPDEST POP JUMP JUMPDEST PUSH1 0x0 DUP2 CALLDATALOAD SWAP1 POP PUSH2 0xD88 DUP2 PUSH2 0xD62 JUMP JUMPDEST SWAP3 SWAP2 POP POP JUMP JUMPDEST PUSH1 0x0 PUSH1 0x20 DUP3 DUP5 SUB SLT ISZERO PUSH2 0xDA4 JUMPI PUSH2 0xDA3 PUSH2 0xD26 JUMP JUMPDEST JUMPDEST PUSH1 0x0 PUSH2 0xDB2 DUP5 DUP3 DUP6 ADD PUSH2 0xD79 JUMP JUMPDEST SWAP2 POP POP SWAP3 SWAP2 POP POP JUMP JUMPDEST PUSH1 0x0 DUP2 MLOAD SWAP1 POP SWAP2 SWAP1 POP JUMP JUMPDEST PUSH1 0x0 DUP3 DUP3 MSTORE PUSH1 0x20 DUP3 ADD SWAP1 POP SWAP3 SWAP2 POP POP JUMP JUMPDEST PUSH1 0x0 JUMPDEST DUP4 DUP2 LT ISZERO PUSH2 0xDF5 JUMPI DUP1 DUP3 ADD MLOAD DUP2 DUP5 ADD MSTORE PUSH1 0x20 DUP2 ADD SWAP1 POP PUSH2 0xDDA JUMP JUMPDEST DUP4 DUP2 GT ISZERO PUSH2 0xE04 JUMPI PUSH1 0x0 DUP5 DUP5 ADD MSTORE JUMPDEST POP POP POP POP JUMP JUMPDEST PUSH1 0x0 PUSH1 0x1F NOT PUSH1 0x1F DUP4 ADD AND SWAP1 POP SWAP2 SWAP1 POP JUMP JUMPDEST PUSH1 0x0 PUSH2 0xE26 DUP3 PUSH2 0xDBB JUMP JUMPDEST PUSH2 0xE30 DUP2 DUP6 PUSH2 0xDC6 JUMP JUMPDEST SWAP4 POP PUSH2 0xE40 DUP2 DUP6 PUSH1 0x20 DUP7 ADD PUSH2 0xDD7 JUMP JUMPDEST PUSH2 0xE49 DUP2 PUSH2 0xE0A JUMP JUMPDEST DUP5 ADD SWAP2 POP POP SWAP3 SWAP2 POP POP JUMP JUMPDEST PUSH1 0x0 DUP2 SWAP1 POP SWAP2 SWAP1 POP JUMP JUMPDEST PUSH2 0xE67 DUP2 PUSH2 0xE54 JUMP JUMPDEST DUP3 MSTORE POP POP JUMP JUMPDEST PUSH1 0x0 PUSH1 0x40 DUP3 ADD SWAP1 POP DUP2 DUP2 SUB PUSH1 0x0 DUP4 ADD MSTORE PUSH2 0xE87 DUP2 DUP6 PUSH2 0xE1B JUMP JUMPDEST SWAP1 POP PUSH2 0xE96 PUSH1 0x20 DUP4 ADD DUP5 PUSH2 0xE5E JUMP JUMPDEST SWAP4 SWAP3 POP POP POP JUMP JUMPDEST PUSH1 0x0 DUP1 REVERT JUMPDEST PUSH1 0x0 DUP1 REVERT JUMPDEST PUSH32 0x4E487B7100000000000000000000000000000000000000000000000000000000 PUSH1 0x0 MSTORE PUSH1 0x41 PUSH1 0x4 MSTORE PUSH1 0x24 PUSH1 0x0 REVERT JUMPDEST PUSH2 0xEDF DUP3 PUSH2 0xE0A JUMP JUMPDEST DUP2 ADD DUP2 DUP2 LT PUSH8 0xFFFFFFFFFFFFFFFF DUP3 GT OR ISZERO PUSH2 0xEFE JUMPI PUSH2 0xEFD PUSH2 0xEA7 JUMP JUMPDEST JUMPDEST DUP1 PUSH1 0x40 MSTORE POP POP POP JUMP JUMPDEST PUSH1 0x0 PUSH2 0xF11 PUSH2 0xD1C JUMP JUMPDEST SWAP1 POP PUSH2 0xF1D DUP3 DUP3 PUSH2 0xED6 JUMP JUMPDEST SWAP2 SWAP1 POP JUMP JUMPDEST PUSH1 0x0 PUSH8 0xFFFFFFFFFFFFFFFF DUP3 GT ISZERO PUSH2 0xF3D JUMPI PUSH2 0xF3C PUSH2 0xEA7 JUMP JUMPDEST JUMPDEST PUSH2 0xF46 DUP3 PUSH2 0xE0A JUMP JUMPDEST SWAP1 POP PUSH1 0x20 DUP2 ADD SWAP1 POP SWAP2 SWAP1 POP JUMP JUMPDEST DUP3 DUP2 DUP4 CALLDATACOPY PUSH1 0x0 DUP4 DUP4 ADD MSTORE POP POP POP JUMP JUMPDEST PUSH1 0x0 PUSH2 0xF75 PUSH2 0xF70 DUP5 PUSH2 0xF22 JUMP JUMPDEST PUSH2 0xF07 JUMP JUMPDEST SWAP1 POP DUP3 DUP2 MSTORE PUSH1 0x20 DUP2 ADD DUP5 DUP5 DUP5 ADD GT ISZERO PUSH2 0xF91 JUMPI PUSH2 0xF90 PUSH2 0xEA2 JUMP JUMPDEST JUMPDEST PUSH2 0xF9C DUP5 DUP3 DUP6 PUSH2 0xF53 JUMP JUMPDEST POP SWAP4 SWAP3 POP POP POP JUMP JUMPDEST PUSH1 0x0 DUP3 PUSH1 0x1F DUP4 ADD SLT PUSH2 0xFB9 JUMPI PUSH2 0xFB8 PUSH2 0xE9D JUMP JUMPDEST JUMPDEST DUP2 CALLDATALOAD PUSH2 0xFC9 DUP5 DUP3 PUSH1 0x20 DUP7 ADD PUSH2 0xF62 JUMP JUMPDEST SWAP2 POP POP SWAP3 SWAP2 POP POP JUMP JUMPDEST PUSH2 0xFDB DUP2 PUSH2 0xE54 JUMP JUMPDEST DUP2 EQ PUSH2 0xFE6 JUMPI PUSH1 0x0 DUP1 REVERT JUMPDEST POP JUMP JUMPDEST PUSH1 0x0 DUP2 CALLDATALOAD SWAP1 POP PUSH2 0xFF8 DUP2 PUSH2 0xFD2 JUMP JUMPDEST SWAP3 SWAP2 POP POP JUMP JUMPDEST PUSH1 0x0 PUSH8 0xFFFFFFFFFFFFFFFF DUP3 GT ISZERO PUSH2 0x1019 JUMPI PUSH2 0x1018 PUSH2 0xEA7 JUMP JUMPDEST JUMPDEST PUSH1 0x20 DUP3 MUL SWAP1 POP PUSH1 0x20 DUP2 ADD SWAP1 POP SWAP2 SWAP1 POP JUMP JUMPDEST PUSH1 0x0 DUP1 REVERT JUMPDEST PUSH1 0x0 PUSH2 0x1042 PUSH2 0x103D DUP5 PUSH2 0xFFE JUMP JUMPDEST PUSH2 0xF07 JUMP JUMPDEST SWAP1 POP DUP1 DUP4 DUP3 MSTORE PUSH1 0x20 DUP3 ADD SWAP1 POP PUSH1 0x20 DUP5 MUL DUP4 ADD DUP6 DUP2 GT ISZERO PUSH2 0x1065 JUMPI PUSH2 0x1064 PUSH2 0x102A JUMP JUMPDEST JUMPDEST DUP4 JUMPDEST DUP2 DUP2 LT ISZERO PUSH2 0x10AC JUMPI DUP1 CALLDATALOAD PUSH8 0xFFFFFFFFFFFFFFFF DUP2 GT ISZERO PUSH2 0x108A JUMPI PUSH2 0x1089 PUSH2 0xE9D JUMP JUMPDEST JUMPDEST DUP1 DUP7 ADD PUSH2 0x1097 DUP10 DUP3 PUSH2 0xFA4 JUMP JUMPDEST DUP6 MSTORE PUSH1 0x20 DUP6 ADD SWAP5 POP POP POP PUSH1 0x20 DUP2 ADD SWAP1 POP PUSH2 0x1067 JUMP JUMPDEST POP POP POP SWAP4 SWAP3 POP POP POP JUMP JUMPDEST PUSH1 0x0 DUP3 PUSH1 0x1F DUP4 ADD SLT PUSH2 0x10CB JUMPI PUSH2 0x10CA PUSH2 0xE9D JUMP JUMPDEST JUMPDEST DUP2 CALLDATALOAD PUSH2 0x10DB DUP5 DUP3 PUSH1 0x20 DUP7 ADD PUSH2 0x102F JUMP JUMPDEST SWAP2 POP POP SWAP3 SWAP2 POP POP JUMP JUMPDEST PUSH1 0x0 DUP1 PUSH1 0x0 DUP1 PUSH1 0x0 DUP1 PUSH1 0xC0 DUP8 DUP10 SUB SLT ISZERO PUSH2 0x1101 JUMPI PUSH2 0x1100 PUSH2 0xD26 JUMP JUMPDEST JUMPDEST PUSH1 0x0 DUP8 ADD CALLDATALOAD PUSH8 0xFFFFFFFFFFFFFFFF DUP2 GT ISZERO PUSH2 0x111F JUMPI PUSH2 0x111E PUSH2 0xD2B JUMP JUMPDEST JUMPDEST PUSH2 0x112B DUP10 DUP3 DUP11 ADD PUSH2 0xFA4 JUMP JUMPDEST SWAP7 POP POP PUSH1 0x20 PUSH2 0x113C DUP10 DUP3 DUP11 ADD PUSH2 0xFE9 JUMP JUMPDEST SWAP6 POP POP PUSH1 0x40 DUP8 ADD CALLDATALOAD PUSH8 0xFFFFFFFFFFFFFFFF DUP2 GT ISZERO PUSH2 0x115D JUMPI PUSH2 0x115C PUSH2 0xD2B JUMP JUMPDEST JUMPDEST PUSH2 0x1169 DUP10 DUP3 DUP11 ADD PUSH2 0x10B6 JUMP JUMPDEST SWAP5 POP POP PUSH1 0x60 DUP8 ADD CALLDATALOAD PUSH8 0xFFFFFFFFFFFFFFFF DUP2 GT ISZERO PUSH2 0x118A JUMPI PUSH2 0x1189 PUSH2 0xD2B JUMP JUMPDEST JUMPDEST PUSH2 0x1196 DUP10 DUP3 DUP11 ADD PUSH2 0x10B6 JUMP JUMPDEST SWAP4 POP POP PUSH1 0x80 DUP8 ADD CALLDATALOAD PUSH8 0xFFFFFFFFFFFFFFFF DUP2 GT ISZERO PUSH2 0x11B7 JUMPI PUSH2 0x11B6 PUSH2 0xD2B JUMP JUMPDEST JUMPDEST PUSH2 0x11C3 DUP10 DUP3 DUP11 ADD PUSH2 0x10B6 JUMP JUMPDEST SWAP3 POP POP PUSH1 0xA0 DUP8 ADD CALLDATALOAD PUSH8 0xFFFFFFFFFFFFFFFF DUP2 GT ISZERO PUSH2 0x11E4 JUMPI PUSH2 0x11E3 PUSH2 0xD2B JUMP JUMPDEST JUMPDEST PUSH2 0x11F0 DUP10 DUP3 DUP11 ADD PUSH2 0x10B6 JUMP JUMPDEST SWAP2 POP POP SWAP3 SWAP6 POP SWAP3 SWAP6 POP SWAP3 SWAP6 JUMP JUMPDEST PUSH1 0x0 DUP1 PUSH1 0x0 DUP1 PUSH1 0x80 DUP6 DUP8 SUB SLT ISZERO PUSH2 0x1217 JUMPI PUSH2 0x1216 PUSH2 0xD26 JUMP JUMPDEST JUMPDEST PUSH1 0x0 DUP6 ADD CALLDATALOAD PUSH8 0xFFFFFFFFFFFFFFFF DUP2 GT ISZERO PUSH2 0x1235 JUMPI PUSH2 0x1234 PUSH2 0xD2B JUMP JUMPDEST JUMPDEST PUSH2 0x1241 DUP8 DUP3 DUP9 ADD PUSH2 0x10B6 JUMP JUMPDEST SWAP5 POP POP PUSH1 0x20 DUP6 ADD CALLDATALOAD PUSH8 0xFFFFFFFFFFFFFFFF DUP2 GT ISZERO PUSH2 0x1262 JUMPI PUSH2 0x1261 PUSH2 0xD2B JUMP JUMPDEST JUMPDEST PUSH2 0x126E DUP8 DUP3 DUP9 ADD PUSH2 0x10B6 JUMP JUMPDEST SWAP4 POP POP PUSH1 0x40 DUP6 ADD CALLDATALOAD PUSH8 0xFFFFFFFFFFFFFFFF DUP2 GT ISZERO PUSH2 0x128F JUMPI PUSH2 0x128E PUSH2 0xD2B JUMP JUMPDEST JUMPDEST PUSH2 0x129B DUP8 DUP3 DUP9 ADD PUSH2 0x10B6 JUMP JUMPDEST SWAP3 POP POP PUSH1 0x60 DUP6 ADD CALLDATALOAD PUSH8 0xFFFFFFFFFFFFFFFF DUP2 GT ISZERO PUSH2 0x12BC JUMPI PUSH2 0x12BB PUSH2 0xD2B JUMP JUMPDEST JUMPDEST PUSH2 0x12C8 DUP8 DUP3 DUP9 ADD PUSH2 0x10B6 JUMP JUMPDEST SWAP2 POP POP SWAP3 SWAP6 SWAP2 SWAP5 POP SWAP3 POP JUMP JUMPDEST PUSH1 0x0 DUP2 MLOAD SWAP1 POP SWAP2 SWAP1 POP JUMP JUMPDEST PUSH1 0x0 DUP3 DUP3 MSTORE PUSH1 0x20 DUP3 ADD SWAP1 POP SWAP3 SWAP2 POP POP JUMP JUMPDEST PUSH1 0x0 DUP2 SWAP1 POP PUSH1 0x20 DUP3 ADD SWAP1 POP SWAP2 SWAP1 POP JUMP JUMPDEST PUSH1 0x0 DUP3 DUP3 MSTORE PUSH1 0x20 DUP3 ADD SWAP1 POP SWAP3 SWAP2 POP POP JUMP JUMPDEST PUSH1 0x0 PUSH2 0x131C DUP3 PUSH2 0xDBB JUMP JUMPDEST PUSH2 0x1326 DUP2 DUP6 PUSH2 0x1300 JUMP JUMPDEST SWAP4 POP PUSH2 0x1336 DUP2 DUP6 PUSH1 0x20 DUP7 ADD PUSH2 0xDD7 JUMP JUMPDEST PUSH2 0x133F DUP2 PUSH2 0xE0A JUMP JUMPDEST DUP5 ADD SWAP2 POP POP SWAP3 SWAP2 POP POP JUMP JUMPDEST PUSH1 0x0 PUSH2 0x1356 DUP4 DUP4 PUSH2 0x1311 JUMP JUMPDEST SWAP1 POP SWAP3 SWAP2 POP POP JUMP JUMPDEST PUSH1 0x0 PUSH1 0x20 DUP3 ADD SWAP1 POP SWAP2 SWAP1 POP JUMP JUMPDEST PUSH1 0x0 PUSH2 0x1376 DUP3 PUSH2 0x12D4 JUMP JUMPDEST PUSH2 0x1380 DUP2 DUP6 PUSH2 0x12DF JUMP JUMPDEST SWAP4 POP DUP4 PUSH1 0x20 DUP3 MUL DUP6 ADD PUSH2 0x1392 DUP6 PUSH2 0x12F0 JUMP JUMPDEST DUP1 PUSH1 0x0 JUMPDEST DUP6 DUP2 LT ISZERO PUSH2 0x13CE JUMPI DUP5 DUP5 SUB DUP10 MSTORE DUP2 MLOAD PUSH2 0x13AF DUP6 DUP3 PUSH2 0x134A JUMP JUMPDEST SWAP5 POP PUSH2 0x13BA DUP4 PUSH2 0x135E JUMP JUMPDEST SWAP3 POP PUSH1 0x20 DUP11 ADD SWAP10 POP POP PUSH1 0x1 DUP2 ADD SWAP1 POP PUSH2 0x1396 JUMP JUMPDEST POP DUP3 SWAP8 POP DUP8 SWAP6 POP POP POP POP POP POP SWAP3 SWAP2 POP POP JUMP JUMPDEST PUSH1 0x0 PUSH1 0xC0 DUP3 ADD SWAP1 POP DUP2 DUP2 SUB PUSH1 0x0 DUP4 ADD MSTORE PUSH2 0x13FA DUP2 DUP10 PUSH2 0xE1B JUMP JUMPDEST SWAP1 POP PUSH2 0x1409 PUSH1 0x20 DUP4 ADD DUP9 PUSH2 0xE5E JUMP JUMPDEST DUP2 DUP2 SUB PUSH1 0x40 DUP4 ADD MSTORE PUSH2 0x141B DUP2 DUP8 PUSH2 0x136B JUMP JUMPDEST SWAP1 POP DUP2 DUP2 SUB PUSH1 0x60 DUP4 ADD MSTORE PUSH2 0x142F DUP2 DUP7 PUSH2 0x136B JUMP JUMPDEST SWAP1 POP DUP2 DUP2 SUB PUSH1 0x80 DUP4 ADD MSTORE PUSH2 0x1443 DUP2 DUP6 PUSH2 0x136B JUMP JUMPDEST SWAP1 POP DUP2 DUP2 SUB PUSH1 0xA0 DUP4 ADD MSTORE PUSH2 0x1457 DUP2 DUP5 PUSH2 0x136B JUMP JUMPDEST SWAP1 POP SWAP8 SWAP7 POP POP POP POP POP POP POP JUMP JUMPDEST PUSH32 0x4E487B7100000000000000000000000000000000000000000000000000000000 PUSH1 0x0 MSTORE PUSH1 0x22 PUSH1 0x4 MSTORE PUSH1 0x24 PUSH1 0x0 REVERT JUMPDEST PUSH1 0x0 PUSH1 0x2 DUP3 DIV SWAP1 POP PUSH1 0x1 DUP3 AND DUP1 PUSH2 0x14AB JUMPI PUSH1 0x7F DUP3 AND SWAP2 POP JUMPDEST PUSH1 0x20 DUP3 LT DUP2 SUB PUSH2 0x14BE JUMPI PUSH2 0x14BD PUSH2 0x1464 JUMP JUMPDEST JUMPDEST POP SWAP2 SWAP1 POP JUMP INVALID LOG2 PUSH5 0x6970667358 0x22 SLT KECCAK256 0xBA 0xC1 0xD7 BASEFEE PUSH27 0xA9550B50AF542DEF652E7CB5DCBA54DBAD982F74C5A73FFA2724F5 PUSH5 0x736F6C6343 STOP ADDMOD 0xD STOP CALLER "
				},
				"gasEstimates": {
					"creation": {
						"codeDepositCost": "1074000",
						"executionCost": "1114",
						"totalCost": "1075114"
					},
					"external": {
						"addPatient(string,uint256,string[],string[],string[],string[])": "infinite",
						"getPatient(address)": "infinite",
						"patients(address)": "infinite",
						"updatePatient(string[],string[],string[],string[])": "infinite"
					}
				},
				"methodIdentifiers": {
					"addPatient(string,uint256,string[],string[],string[],string[])": "1dae7dfd",
					"getPatient(address)": "b5368e20",
					"patients(address)": "0869cfbc",
					"updatePatient(string[],string[],string[],string[])": "b152829b"
				}
			},
			"storageLayout": {
				"storage": [
					{
						"astId": 23,
						"contract": "contracts/Daulat Hussain/Medical Smart Contract.sol:MecidalHistory",
						"label": "patients",
						"offset": 0,
						"slot": "0",
						"type": "t_mapping(t_address,t_struct(Patient)18_storage)"
					}
				],
				"types": {
					"t_address": {
						"encoding": "inplace",
						"label": "address",
						"numberOfBytes": "20"
					},
					"t_array(t_string_storage)dyn_storage": {
						"base": "t_string_storage",
						"encoding": "dynamic_array",
						"label": "string[]",
						"numberOfBytes": "32"
					},
					"t_mapping(t_address,t_struct(Patient)18_storage)": {
						"encoding": "mapping",
						"key": "t_address",
						"label": "mapping(address => struct MecidalHistory.Patient)",
						"numberOfBytes": "32",
						"value": "t_struct(Patient)18_storage"
					},
					"t_string_storage": {
						"encoding": "bytes",
						"label": "string",
						"numberOfBytes": "32"
					},
					"t_struct(Patient)18_storage": {
						"encoding": "inplace",
						"label": "struct MecidalHistory.Patient",
						"members": [
							{
								"astId": 3,
								"contract": "contracts/Daulat Hussain/Medical Smart Contract.sol:MecidalHistory",
								"label": "name",
								"offset": 0,
								"slot": "0",
								"type": "t_string_storage"
							},
							{
								"astId": 5,
								"contract": "contracts/Daulat Hussain/Medical Smart Contract.sol:MecidalHistory",
								"label": "age",
								"offset": 0,
								"slot": "1",
								"type": "t_uint256"
							},
							{
								"astId": 8,
								"contract": "contracts/Daulat Hussain/Medical Smart Contract.sol:MecidalHistory",
								"label": "conditions",
								"offset": 0,
								"slot": "2",
								"type": "t_array(t_string_storage)dyn_storage"
							},
							{
								"astId": 11,
								"contract": "contracts/Daulat Hussain/Medical Smart Contract.sol:MecidalHistory",
								"label": "allergies",
								"offset": 0,
								"slot": "3",
								"type": "t_array(t_string_storage)dyn_storage"
							},
							{
								"astId": 14,
								"contract": "contracts/Daulat Hussain/Medical Smart Contract.sol:MecidalHistory",
								"label": "medications",
								"offset": 0,
								"slot": "4",
								"type": "t_array(t_string_storage)dyn_storage"
							},
							{
								"astId": 17,
								"contract": "contracts/Daulat Hussain/Medical Smart Contract.sol:MecidalHistory",
								"label": "procedures",
								"offset": 0,
								"slot": "5",
								"type": "t_array(t_string_storage)dyn_storage"
							}
						],
						"numberOfBytes": "192"
					},
					"t_uint256": {
						"encoding": "inplace",
						"label": "uint256",
						"numberOfBytes": "32"
					}
				}
			},
			"userdoc": {
				"kind": "user",
				"methods": {},
				"version": 1
			}
		}
	}
}