{
	"contracts/Daulat Hussain/call keyword.sol": {
		"caller": {
			"abi": [
				{
					"anonymous": false,
					"inputs": [
						{
							"indexed": false,
							"internalType": "bool",
							"name": "success",
							"type": "bool"
						},
						{
							"indexed": false,
							"internalType": "bytes",
							"name": "data",
							"type": "bytes"
						}
					],
					"name": "Response",
					"type": "event"
				},
				{
					"inputs": [
						{
							"internalType": "address payable",
							"name": "_addr",
							"type": "address"
						}
					],
					"name": "testCallDoesNotExist",
					"outputs": [],
					"stateMutability": "payable",
					"type": "function"
				},
				{
					"inputs": [
						{
							"internalType": "address payable",
							"name": "_addr",
							"type": "address"
						}
					],
					"name": "testCallFoo",
					"outputs": [],
					"stateMutability": "payable",
					"type": "function"
				}
			],
			"devdoc": {
				"kind": "dev",
				"methods": {},
				"version": 1
			},
			"evm": {
				"assembly": "    /* \"contracts/Daulat Hussain/call keyword.sol\":452:1055  contract caller... */\n  mstore(0x40, 0x80)\n  callvalue\n  dup1\n  iszero\n  tag_1\n  jumpi\n  0x00\n  dup1\n  revert\ntag_1:\n  pop\n  dataSize(sub_0)\n  dup1\n  dataOffset(sub_0)\n  0x00\n  codecopy\n  0x00\n  return\nstop\n\nsub_0: assembly {\n        /* \"contracts/Daulat Hussain/call keyword.sol\":452:1055  contract caller... */\n      mstore(0x40, 0x80)\n      jumpi(tag_1, lt(calldatasize, 0x04))\n      shr(0xe0, calldataload(0x00))\n      dup1\n      0x87ba6179\n      eq\n      tag_2\n      jumpi\n      dup1\n      0xff00726c\n      eq\n      tag_3\n      jumpi\n    tag_1:\n      0x00\n      dup1\n      revert\n        /* \"contracts/Daulat Hussain/call keyword.sol\":525:800  function testCallFoo(address payable _addr) public payable ... */\n    tag_2:\n      tag_4\n      0x04\n      dup1\n      calldatasize\n      sub\n      dup2\n      add\n      swap1\n      tag_5\n      swap2\n      swap1\n      tag_6\n      jump\t// in\n    tag_5:\n      tag_7\n      jump\t// in\n    tag_4:\n      stop\n        /* \"contracts/Daulat Hussain/call keyword.sol\":808:1052  function testCallDoesNotExist(address payable _addr)public payable... */\n    tag_3:\n      tag_8\n      0x04\n      dup1\n      calldatasize\n      sub\n      dup2\n      add\n      swap1\n      tag_9\n      swap2\n      swap1\n      tag_6\n      jump\t// in\n    tag_9:\n      tag_10\n      jump\t// in\n    tag_8:\n      stop\n        /* \"contracts/Daulat Hussain/call keyword.sol\":525:800  function testCallFoo(address payable _addr) public payable ... */\n    tag_7:\n        /* \"contracts/Daulat Hussain/call keyword.sol\":602:614  bool success */\n      0x00\n        /* \"contracts/Daulat Hussain/call keyword.sol\":616:633  bytes memory data */\n      dup1\n        /* \"contracts/Daulat Hussain/call keyword.sol\":637:642  _addr */\n      dup3\n        /* \"contracts/Daulat Hussain/call keyword.sol\":637:647  _addr.call */\n      0xffffffffffffffffffffffffffffffffffffffff\n      and\n        /* \"contracts/Daulat Hussain/call keyword.sol\":655:664  msg.value */\n      callvalue\n        /* \"contracts/Daulat Hussain/call keyword.sol\":671:675  5000 */\n      0x1388\n        /* \"contracts/Daulat Hussain/call keyword.sol\":637:751  _addr.call{value: msg.value, gas: 5000}... */\n      swap1\n        /* \"contracts/Daulat Hussain/call keyword.sol\":746:749  123 */\n      0x7b\n        /* \"contracts/Daulat Hussain/call keyword.sol\":687:750  abi.encodeWithSignature(\"foo(string,uint256)\", \"call foo\", 123) */\n      add(0x24, mload(0x40))\n      tag_12\n      swap2\n      swap1\n      tag_13\n      jump\t// in\n    tag_12:\n      mload(0x40)\n      0x20\n      dup2\n      dup4\n      sub\n      sub\n      dup2\n      mstore\n      swap1\n      0x40\n      mstore\n      and(not(0xffffffffffffffffffffffffffffffffffffffffffffffffffffffff), 0x24ccab8f00000000000000000000000000000000000000000000000000000000)\n      0x20\n      dup3\n      add\n      dup1\n      mload\n      0xffffffffffffffffffffffffffffffffffffffffffffffffffffffff\n      dup4\n      dup2\n      dup4\n      and\n      or\n      dup4\n      mstore\n      pop\n      pop\n      pop\n      pop\n        /* \"contracts/Daulat Hussain/call keyword.sol\":637:751  _addr.call{value: msg.value, gas: 5000}... */\n      mload(0x40)\n      tag_14\n      swap2\n      swap1\n      tag_15\n      jump\t// in\n    tag_14:\n      0x00\n      mload(0x40)\n      dup1\n      dup4\n      sub\n      dup2\n      dup6\n      dup9\n      dup9\n      call\n      swap4\n      pop\n      pop\n      pop\n      pop\n      returndatasize\n      dup1\n      0x00\n      dup2\n      eq\n      tag_18\n      jumpi\n      mload(0x40)\n      swap2\n      pop\n      and(add(returndatasize, 0x3f), not(0x1f))\n      dup3\n      add\n      0x40\n      mstore\n      returndatasize\n      dup3\n      mstore\n      returndatasize\n      0x00\n      0x20\n      dup5\n      add\n      returndatacopy\n      jump(tag_17)\n    tag_18:\n      0x60\n      swap2\n      pop\n    tag_17:\n      pop\n        /* \"contracts/Daulat Hussain/call keyword.sol\":601:751  (bool success, bytes memory data) = _addr.call{value: msg.value, gas: 5000}... */\n      swap2\n      pop\n      swap2\n      pop\n        /* \"contracts/Daulat Hussain/call keyword.sol\":769:792  Response(success, data) */\n      0x13848c3e38f8886f3f5d2ad9dff80d8092c2bbb8efd5b887a99c2c6cfc09ac2a\n        /* \"contracts/Daulat Hussain/call keyword.sol\":778:785  success */\n      dup3\n        /* \"contracts/Daulat Hussain/call keyword.sol\":787:791  data */\n      dup3\n        /* \"contracts/Daulat Hussain/call keyword.sol\":769:792  Response(success, data) */\n      mload(0x40)\n      tag_19\n      swap3\n      swap2\n      swap1\n      tag_20\n      jump\t// in\n    tag_19:\n      mload(0x40)\n      dup1\n      swap2\n      sub\n      swap1\n      log1\n        /* \"contracts/Daulat Hussain/call keyword.sol\":590:800  {... */\n      pop\n      pop\n        /* \"contracts/Daulat Hussain/call keyword.sol\":525:800  function testCallFoo(address payable _addr) public payable ... */\n      pop\n      jump\t// out\n        /* \"contracts/Daulat Hussain/call keyword.sol\":808:1052  function testCallDoesNotExist(address payable _addr)public payable... */\n    tag_10:\n        /* \"contracts/Daulat Hussain/call keyword.sol\":892:904  bool success */\n      0x00\n        /* \"contracts/Daulat Hussain/call keyword.sol\":906:923  bytes memory data */\n      dup1\n        /* \"contracts/Daulat Hussain/call keyword.sol\":927:932  _addr */\n      dup3\n        /* \"contracts/Daulat Hussain/call keyword.sol\":927:937  _addr.call */\n      0xffffffffffffffffffffffffffffffffffffffff\n      and\n        /* \"contracts/Daulat Hussain/call keyword.sol\":945:954  msg.value */\n      callvalue\n        /* \"contracts/Daulat Hussain/call keyword.sol\":956:998  abi.encodeWithSignature(\"doesNotExists()\") */\n      add(0x24, mload(0x40))\n      mload(0x40)\n      0x20\n      dup2\n      dup4\n      sub\n      sub\n      dup2\n      mstore\n      swap1\n      0x40\n      mstore\n      and(not(0xffffffffffffffffffffffffffffffffffffffffffffffffffffffff), 0x5976465300000000000000000000000000000000000000000000000000000000)\n      0x20\n      dup3\n      add\n      dup1\n      mload\n      0xffffffffffffffffffffffffffffffffffffffffffffffffffffffff\n      dup4\n      dup2\n      dup4\n      and\n      or\n      dup4\n      mstore\n      pop\n      pop\n      pop\n      pop\n        /* \"contracts/Daulat Hussain/call keyword.sol\":927:999  _addr.call{value: msg.value}(abi.encodeWithSignature(\"doesNotExists()\")) */\n      mload(0x40)\n      tag_22\n      swap2\n      swap1\n      tag_15\n      jump\t// in\n    tag_22:\n      0x00\n      mload(0x40)\n      dup1\n      dup4\n      sub\n      dup2\n      dup6\n      dup8\n      gas\n      call\n      swap3\n      pop\n      pop\n      pop\n      returndatasize\n      dup1\n      0x00\n      dup2\n      eq\n      tag_25\n      jumpi\n      mload(0x40)\n      swap2\n      pop\n      and(add(returndatasize, 0x3f), not(0x1f))\n      dup3\n      add\n      0x40\n      mstore\n      returndatasize\n      dup3\n      mstore\n      returndatasize\n      0x00\n      0x20\n      dup5\n      add\n      returndatacopy\n      jump(tag_24)\n    tag_25:\n      0x60\n      swap2\n      pop\n    tag_24:\n      pop\n        /* \"contracts/Daulat Hussain/call keyword.sol\":891:999  (bool success, bytes memory data) = _addr.call{value: msg.value}(abi.encodeWithSignature(\"doesNotExists()\")) */\n      swap2\n      pop\n      swap2\n      pop\n        /* \"contracts/Daulat Hussain/call keyword.sol\":1021:1044  Response(success, data) */\n      0x13848c3e38f8886f3f5d2ad9dff80d8092c2bbb8efd5b887a99c2c6cfc09ac2a\n        /* \"contracts/Daulat Hussain/call keyword.sol\":1030:1037  success */\n      dup3\n        /* \"contracts/Daulat Hussain/call keyword.sol\":1039:1043  data */\n      dup3\n        /* \"contracts/Daulat Hussain/call keyword.sol\":1021:1044  Response(success, data) */\n      mload(0x40)\n      tag_26\n      swap3\n      swap2\n      swap1\n      tag_20\n      jump\t// in\n    tag_26:\n      mload(0x40)\n      dup1\n      swap2\n      sub\n      swap1\n      log1\n        /* \"contracts/Daulat Hussain/call keyword.sol\":880:1052  {... */\n      pop\n      pop\n        /* \"contracts/Daulat Hussain/call keyword.sol\":808:1052  function testCallDoesNotExist(address payable _addr)public payable... */\n      pop\n      jump\t// out\n        /* \"#utility.yul\":88:205   */\n    tag_28:\n        /* \"#utility.yul\":197:198   */\n      0x00\n        /* \"#utility.yul\":194:195   */\n      dup1\n        /* \"#utility.yul\":187:199   */\n      revert\n        /* \"#utility.yul\":334:460   */\n    tag_30:\n        /* \"#utility.yul\":371:378   */\n      0x00\n        /* \"#utility.yul\":411:453   */\n      0xffffffffffffffffffffffffffffffffffffffff\n        /* \"#utility.yul\":404:409   */\n      dup3\n        /* \"#utility.yul\":400:454   */\n      and\n        /* \"#utility.yul\":389:454   */\n      swap1\n      pop\n        /* \"#utility.yul\":334:460   */\n      swap2\n      swap1\n      pop\n      jump\t// out\n        /* \"#utility.yul\":466:570   */\n    tag_31:\n        /* \"#utility.yul\":511:518   */\n      0x00\n        /* \"#utility.yul\":540:564   */\n      tag_57\n        /* \"#utility.yul\":558:563   */\n      dup3\n        /* \"#utility.yul\":540:564   */\n      tag_30\n      jump\t// in\n    tag_57:\n        /* \"#utility.yul\":529:564   */\n      swap1\n      pop\n        /* \"#utility.yul\":466:570   */\n      swap2\n      swap1\n      pop\n      jump\t// out\n        /* \"#utility.yul\":576:714   */\n    tag_32:\n        /* \"#utility.yul\":657:689   */\n      tag_59\n        /* \"#utility.yul\":683:688   */\n      dup2\n        /* \"#utility.yul\":657:689   */\n      tag_31\n      jump\t// in\n    tag_59:\n        /* \"#utility.yul\":650:655   */\n      dup2\n        /* \"#utility.yul\":647:690   */\n      eq\n        /* \"#utility.yul\":637:708   */\n      tag_60\n      jumpi\n        /* \"#utility.yul\":704:705   */\n      0x00\n        /* \"#utility.yul\":701:702   */\n      dup1\n        /* \"#utility.yul\":694:706   */\n      revert\n        /* \"#utility.yul\":637:708   */\n    tag_60:\n        /* \"#utility.yul\":576:714   */\n      pop\n      jump\t// out\n        /* \"#utility.yul\":720:875   */\n    tag_33:\n        /* \"#utility.yul\":774:779   */\n      0x00\n        /* \"#utility.yul\":812:818   */\n      dup2\n        /* \"#utility.yul\":799:819   */\n      calldataload\n        /* \"#utility.yul\":790:819   */\n      swap1\n      pop\n        /* \"#utility.yul\":828:869   */\n      tag_62\n        /* \"#utility.yul\":863:868   */\n      dup2\n        /* \"#utility.yul\":828:869   */\n      tag_32\n      jump\t// in\n    tag_62:\n        /* \"#utility.yul\":720:875   */\n      swap3\n      swap2\n      pop\n      pop\n      jump\t// out\n        /* \"#utility.yul\":881:1226   */\n    tag_6:\n        /* \"#utility.yul\":948:954   */\n      0x00\n        /* \"#utility.yul\":997:999   */\n      0x20\n        /* \"#utility.yul\":985:994   */\n      dup3\n        /* \"#utility.yul\":976:983   */\n      dup5\n        /* \"#utility.yul\":972:995   */\n      sub\n        /* \"#utility.yul\":968:1000   */\n      slt\n        /* \"#utility.yul\":965:1084   */\n      iszero\n      tag_64\n      jumpi\n        /* \"#utility.yul\":1003:1082   */\n      tag_65\n      tag_28\n      jump\t// in\n    tag_65:\n        /* \"#utility.yul\":965:1084   */\n    tag_64:\n        /* \"#utility.yul\":1123:1124   */\n      0x00\n        /* \"#utility.yul\":1148:1209   */\n      tag_66\n        /* \"#utility.yul\":1201:1208   */\n      dup5\n        /* \"#utility.yul\":1192:1198   */\n      dup3\n        /* \"#utility.yul\":1181:1190   */\n      dup6\n        /* \"#utility.yul\":1177:1199   */\n      add\n        /* \"#utility.yul\":1148:1209   */\n      tag_33\n      jump\t// in\n    tag_66:\n        /* \"#utility.yul\":1138:1209   */\n      swap2\n      pop\n        /* \"#utility.yul\":1094:1219   */\n      pop\n        /* \"#utility.yul\":881:1226   */\n      swap3\n      swap2\n      pop\n      pop\n      jump\t// out\n        /* \"#utility.yul\":1232:1401   */\n    tag_34:\n        /* \"#utility.yul\":1316:1327   */\n      0x00\n        /* \"#utility.yul\":1350:1356   */\n      dup3\n        /* \"#utility.yul\":1345:1348   */\n      dup3\n        /* \"#utility.yul\":1338:1357   */\n      mstore\n        /* \"#utility.yul\":1390:1394   */\n      0x20\n        /* \"#utility.yul\":1385:1388   */\n      dup3\n        /* \"#utility.yul\":1381:1395   */\n      add\n        /* \"#utility.yul\":1366:1395   */\n      swap1\n      pop\n        /* \"#utility.yul\":1232:1401   */\n      swap3\n      swap2\n      pop\n      pop\n      jump\t// out\n        /* \"#utility.yul\":1407:1565   */\n    tag_35:\n        /* \"#utility.yul\":1547:1557   */\n      0x63616c6c20666f6f000000000000000000000000000000000000000000000000\n        /* \"#utility.yul\":1543:1544   */\n      0x00\n        /* \"#utility.yul\":1535:1541   */\n      dup3\n        /* \"#utility.yul\":1531:1545   */\n      add\n        /* \"#utility.yul\":1524:1558   */\n      mstore\n        /* \"#utility.yul\":1407:1565   */\n      pop\n      jump\t// out\n        /* \"#utility.yul\":1571:1936   */\n    tag_36:\n        /* \"#utility.yul\":1713:1716   */\n      0x00\n        /* \"#utility.yul\":1734:1800   */\n      tag_70\n        /* \"#utility.yul\":1798:1799   */\n      0x08\n        /* \"#utility.yul\":1793:1796   */\n      dup4\n        /* \"#utility.yul\":1734:1800   */\n      tag_34\n      jump\t// in\n    tag_70:\n        /* \"#utility.yul\":1727:1800   */\n      swap2\n      pop\n        /* \"#utility.yul\":1809:1902   */\n      tag_71\n        /* \"#utility.yul\":1898:1901   */\n      dup3\n        /* \"#utility.yul\":1809:1902   */\n      tag_35\n      jump\t// in\n    tag_71:\n        /* \"#utility.yul\":1927:1929   */\n      0x20\n        /* \"#utility.yul\":1922:1925   */\n      dup3\n        /* \"#utility.yul\":1918:1930   */\n      add\n        /* \"#utility.yul\":1911:1930   */\n      swap1\n      pop\n        /* \"#utility.yul\":1571:1936   */\n      swap2\n      swap1\n      pop\n      jump\t// out\n        /* \"#utility.yul\":1942:2029   */\n    tag_37:\n        /* \"#utility.yul\":1989:1996   */\n      0x00\n        /* \"#utility.yul\":2018:2023   */\n      dup2\n        /* \"#utility.yul\":2007:2023   */\n      swap1\n      pop\n        /* \"#utility.yul\":1942:2029   */\n      swap2\n      swap1\n      pop\n      jump\t// out\n        /* \"#utility.yul\":2035:2121   */\n    tag_38:\n        /* \"#utility.yul\":2070:2077   */\n      0x00\n        /* \"#utility.yul\":2110:2114   */\n      0xff\n        /* \"#utility.yul\":2103:2108   */\n      dup3\n        /* \"#utility.yul\":2099:2115   */\n      and\n        /* \"#utility.yul\":2088:2115   */\n      swap1\n      pop\n        /* \"#utility.yul\":2035:2121   */\n      swap2\n      swap1\n      pop\n      jump\t// out\n        /* \"#utility.yul\":2127:2187   */\n    tag_39:\n        /* \"#utility.yul\":2155:2158   */\n      0x00\n        /* \"#utility.yul\":2176:2181   */\n      dup2\n        /* \"#utility.yul\":2169:2181   */\n      swap1\n      pop\n        /* \"#utility.yul\":2127:2187   */\n      swap2\n      swap1\n      pop\n      jump\t// out\n        /* \"#utility.yul\":2193:2351   */\n    tag_40:\n        /* \"#utility.yul\":2251:2260   */\n      0x00\n        /* \"#utility.yul\":2284:2345   */\n      tag_76\n        /* \"#utility.yul\":2300:2344   */\n      tag_77\n        /* \"#utility.yul\":2309:2343   */\n      tag_78\n        /* \"#utility.yul\":2337:2342   */\n      dup5\n        /* \"#utility.yul\":2309:2343   */\n      tag_37\n      jump\t// in\n    tag_78:\n        /* \"#utility.yul\":2300:2344   */\n      tag_39\n      jump\t// in\n    tag_77:\n        /* \"#utility.yul\":2284:2345   */\n      tag_38\n      jump\t// in\n    tag_76:\n        /* \"#utility.yul\":2271:2345   */\n      swap1\n      pop\n        /* \"#utility.yul\":2193:2351   */\n      swap2\n      swap1\n      pop\n      jump\t// out\n        /* \"#utility.yul\":2357:2504   */\n    tag_41:\n        /* \"#utility.yul\":2452:2497   */\n      tag_80\n        /* \"#utility.yul\":2491:2496   */\n      dup2\n        /* \"#utility.yul\":2452:2497   */\n      tag_40\n      jump\t// in\n    tag_80:\n        /* \"#utility.yul\":2447:2450   */\n      dup3\n        /* \"#utility.yul\":2440:2498   */\n      mstore\n        /* \"#utility.yul\":2357:2504   */\n      pop\n      pop\n      jump\t// out\n        /* \"#utility.yul\":2510:3055   */\n    tag_13:\n        /* \"#utility.yul\":2712:2716   */\n      0x00\n        /* \"#utility.yul\":2750:2752   */\n      0x40\n        /* \"#utility.yul\":2739:2748   */\n      dup3\n        /* \"#utility.yul\":2735:2753   */\n      add\n        /* \"#utility.yul\":2727:2753   */\n      swap1\n      pop\n        /* \"#utility.yul\":2799:2808   */\n      dup2\n        /* \"#utility.yul\":2793:2797   */\n      dup2\n        /* \"#utility.yul\":2789:2809   */\n      sub\n        /* \"#utility.yul\":2785:2786   */\n      0x00\n        /* \"#utility.yul\":2774:2783   */\n      dup4\n        /* \"#utility.yul\":2770:2787   */\n      add\n        /* \"#utility.yul\":2763:2810   */\n      mstore\n        /* \"#utility.yul\":2827:2958   */\n      tag_82\n        /* \"#utility.yul\":2953:2957   */\n      dup2\n        /* \"#utility.yul\":2827:2958   */\n      tag_36\n      jump\t// in\n    tag_82:\n        /* \"#utility.yul\":2819:2958   */\n      swap1\n      pop\n        /* \"#utility.yul\":2968:3048   */\n      tag_83\n        /* \"#utility.yul\":3044:3046   */\n      0x20\n        /* \"#utility.yul\":3033:3042   */\n      dup4\n        /* \"#utility.yul\":3029:3047   */\n      add\n        /* \"#utility.yul\":3020:3026   */\n      dup5\n        /* \"#utility.yul\":2968:3048   */\n      tag_41\n      jump\t// in\n    tag_83:\n        /* \"#utility.yul\":2510:3055   */\n      swap3\n      swap2\n      pop\n      pop\n      jump\t// out\n        /* \"#utility.yul\":3061:3159   */\n    tag_42:\n        /* \"#utility.yul\":3112:3118   */\n      0x00\n        /* \"#utility.yul\":3146:3151   */\n      dup2\n        /* \"#utility.yul\":3140:3152   */\n      mload\n        /* \"#utility.yul\":3130:3152   */\n      swap1\n      pop\n        /* \"#utility.yul\":3061:3159   */\n      swap2\n      swap1\n      pop\n      jump\t// out\n        /* \"#utility.yul\":3165:3312   */\n    tag_43:\n        /* \"#utility.yul\":3266:3277   */\n      0x00\n        /* \"#utility.yul\":3303:3306   */\n      dup2\n        /* \"#utility.yul\":3288:3306   */\n      swap1\n      pop\n        /* \"#utility.yul\":3165:3312   */\n      swap3\n      swap2\n      pop\n      pop\n      jump\t// out\n        /* \"#utility.yul\":3318:3625   */\n    tag_44:\n        /* \"#utility.yul\":3386:3387   */\n      0x00\n        /* \"#utility.yul\":3396:3509   */\n    tag_87:\n        /* \"#utility.yul\":3410:3416   */\n      dup4\n        /* \"#utility.yul\":3407:3408   */\n      dup2\n        /* \"#utility.yul\":3404:3417   */\n      lt\n        /* \"#utility.yul\":3396:3509   */\n      iszero\n      tag_89\n      jumpi\n        /* \"#utility.yul\":3495:3496   */\n      dup1\n        /* \"#utility.yul\":3490:3493   */\n      dup3\n        /* \"#utility.yul\":3486:3497   */\n      add\n        /* \"#utility.yul\":3480:3498   */\n      mload\n        /* \"#utility.yul\":3476:3477   */\n      dup2\n        /* \"#utility.yul\":3471:3474   */\n      dup5\n        /* \"#utility.yul\":3467:3478   */\n      add\n        /* \"#utility.yul\":3460:3499   */\n      mstore\n        /* \"#utility.yul\":3432:3434   */\n      0x20\n        /* \"#utility.yul\":3429:3430   */\n      dup2\n        /* \"#utility.yul\":3425:3435   */\n      add\n        /* \"#utility.yul\":3420:3435   */\n      swap1\n      pop\n        /* \"#utility.yul\":3396:3509   */\n      jump(tag_87)\n    tag_89:\n        /* \"#utility.yul\":3527:3533   */\n      dup4\n        /* \"#utility.yul\":3524:3525   */\n      dup2\n        /* \"#utility.yul\":3521:3534   */\n      gt\n        /* \"#utility.yul\":3518:3619   */\n      iszero\n      tag_90\n      jumpi\n        /* \"#utility.yul\":3607:3608   */\n      0x00\n        /* \"#utility.yul\":3598:3604   */\n      dup5\n        /* \"#utility.yul\":3593:3596   */\n      dup5\n        /* \"#utility.yul\":3589:3605   */\n      add\n        /* \"#utility.yul\":3582:3609   */\n      mstore\n        /* \"#utility.yul\":3518:3619   */\n    tag_90:\n        /* \"#utility.yul\":3367:3625   */\n      pop\n        /* \"#utility.yul\":3318:3625   */\n      pop\n      pop\n      pop\n      jump\t// out\n        /* \"#utility.yul\":3631:4004   */\n    tag_45:\n        /* \"#utility.yul\":3735:3738   */\n      0x00\n        /* \"#utility.yul\":3763:3801   */\n      tag_92\n        /* \"#utility.yul\":3795:3800   */\n      dup3\n        /* \"#utility.yul\":3763:3801   */\n      tag_42\n      jump\t// in\n    tag_92:\n        /* \"#utility.yul\":3817:3905   */\n      tag_93\n        /* \"#utility.yul\":3898:3904   */\n      dup2\n        /* \"#utility.yul\":3893:3896   */\n      dup6\n        /* \"#utility.yul\":3817:3905   */\n      tag_43\n      jump\t// in\n    tag_93:\n        /* \"#utility.yul\":3810:3905   */\n      swap4\n      pop\n        /* \"#utility.yul\":3914:3966   */\n      tag_94\n        /* \"#utility.yul\":3959:3965   */\n      dup2\n        /* \"#utility.yul\":3954:3957   */\n      dup6\n        /* \"#utility.yul\":3947:3951   */\n      0x20\n        /* \"#utility.yul\":3940:3945   */\n      dup7\n        /* \"#utility.yul\":3936:3952   */\n      add\n        /* \"#utility.yul\":3914:3966   */\n      tag_44\n      jump\t// in\n    tag_94:\n        /* \"#utility.yul\":3991:3997   */\n      dup1\n        /* \"#utility.yul\":3986:3989   */\n      dup5\n        /* \"#utility.yul\":3982:3998   */\n      add\n        /* \"#utility.yul\":3975:3998   */\n      swap2\n      pop\n        /* \"#utility.yul\":3739:4004   */\n      pop\n        /* \"#utility.yul\":3631:4004   */\n      swap3\n      swap2\n      pop\n      pop\n      jump\t// out\n        /* \"#utility.yul\":4010:4281   */\n    tag_15:\n        /* \"#utility.yul\":4140:4143   */\n      0x00\n        /* \"#utility.yul\":4162:4255   */\n      tag_96\n        /* \"#utility.yul\":4251:4254   */\n      dup3\n        /* \"#utility.yul\":4242:4248   */\n      dup5\n        /* \"#utility.yul\":4162:4255   */\n      tag_45\n      jump\t// in\n    tag_96:\n        /* \"#utility.yul\":4155:4255   */\n      swap2\n      pop\n        /* \"#utility.yul\":4272:4275   */\n      dup2\n        /* \"#utility.yul\":4265:4275   */\n      swap1\n      pop\n        /* \"#utility.yul\":4010:4281   */\n      swap3\n      swap2\n      pop\n      pop\n      jump\t// out\n        /* \"#utility.yul\":4287:4377   */\n    tag_46:\n        /* \"#utility.yul\":4321:4328   */\n      0x00\n        /* \"#utility.yul\":4364:4369   */\n      dup2\n        /* \"#utility.yul\":4357:4370   */\n      iszero\n        /* \"#utility.yul\":4350:4371   */\n      iszero\n        /* \"#utility.yul\":4339:4371   */\n      swap1\n      pop\n        /* \"#utility.yul\":4287:4377   */\n      swap2\n      swap1\n      pop\n      jump\t// out\n        /* \"#utility.yul\":4383:4492   */\n    tag_47:\n        /* \"#utility.yul\":4464:4485   */\n      tag_99\n        /* \"#utility.yul\":4479:4484   */\n      dup2\n        /* \"#utility.yul\":4464:4485   */\n      tag_46\n      jump\t// in\n    tag_99:\n        /* \"#utility.yul\":4459:4462   */\n      dup3\n        /* \"#utility.yul\":4452:4486   */\n      mstore\n        /* \"#utility.yul\":4383:4492   */\n      pop\n      pop\n      jump\t// out\n        /* \"#utility.yul\":4498:4666   */\n    tag_48:\n        /* \"#utility.yul\":4581:4592   */\n      0x00\n        /* \"#utility.yul\":4615:4621   */\n      dup3\n        /* \"#utility.yul\":4610:4613   */\n      dup3\n        /* \"#utility.yul\":4603:4622   */\n      mstore\n        /* \"#utility.yul\":4655:4659   */\n      0x20\n        /* \"#utility.yul\":4650:4653   */\n      dup3\n        /* \"#utility.yul\":4646:4660   */\n      add\n        /* \"#utility.yul\":4631:4660   */\n      swap1\n      pop\n        /* \"#utility.yul\":4498:4666   */\n      swap3\n      swap2\n      pop\n      pop\n      jump\t// out\n        /* \"#utility.yul\":4672:4774   */\n    tag_49:\n        /* \"#utility.yul\":4713:4719   */\n      0x00\n        /* \"#utility.yul\":4764:4766   */\n      0x1f\n        /* \"#utility.yul\":4760:4767   */\n      not\n        /* \"#utility.yul\":4755:4757   */\n      0x1f\n        /* \"#utility.yul\":4748:4753   */\n      dup4\n        /* \"#utility.yul\":4744:4758   */\n      add\n        /* \"#utility.yul\":4740:4768   */\n      and\n        /* \"#utility.yul\":4730:4768   */\n      swap1\n      pop\n        /* \"#utility.yul\":4672:4774   */\n      swap2\n      swap1\n      pop\n      jump\t// out\n        /* \"#utility.yul\":4780:5140   */\n    tag_50:\n        /* \"#utility.yul\":4866:4869   */\n      0x00\n        /* \"#utility.yul\":4894:4932   */\n      tag_103\n        /* \"#utility.yul\":4926:4931   */\n      dup3\n        /* \"#utility.yul\":4894:4932   */\n      tag_42\n      jump\t// in\n    tag_103:\n        /* \"#utility.yul\":4948:5018   */\n      tag_104\n        /* \"#utility.yul\":5011:5017   */\n      dup2\n        /* \"#utility.yul\":5006:5009   */\n      dup6\n        /* \"#utility.yul\":4948:5018   */\n      tag_48\n      jump\t// in\n    tag_104:\n        /* \"#utility.yul\":4941:5018   */\n      swap4\n      pop\n        /* \"#utility.yul\":5027:5079   */\n      tag_105\n        /* \"#utility.yul\":5072:5078   */\n      dup2\n        /* \"#utility.yul\":5067:5070   */\n      dup6\n        /* \"#utility.yul\":5060:5064   */\n      0x20\n        /* \"#utility.yul\":5053:5058   */\n      dup7\n        /* \"#utility.yul\":5049:5065   */\n      add\n        /* \"#utility.yul\":5027:5079   */\n      tag_44\n      jump\t// in\n    tag_105:\n        /* \"#utility.yul\":5104:5133   */\n      tag_106\n        /* \"#utility.yul\":5126:5132   */\n      dup2\n        /* \"#utility.yul\":5104:5133   */\n      tag_49\n      jump\t// in\n    tag_106:\n        /* \"#utility.yul\":5099:5102   */\n      dup5\n        /* \"#utility.yul\":5095:5134   */\n      add\n        /* \"#utility.yul\":5088:5134   */\n      swap2\n      pop\n        /* \"#utility.yul\":4870:5140   */\n      pop\n        /* \"#utility.yul\":4780:5140   */\n      swap3\n      swap2\n      pop\n      pop\n      jump\t// out\n        /* \"#utility.yul\":5146:5553   */\n    tag_20:\n        /* \"#utility.yul\":5279:5283   */\n      0x00\n        /* \"#utility.yul\":5317:5319   */\n      0x40\n        /* \"#utility.yul\":5306:5315   */\n      dup3\n        /* \"#utility.yul\":5302:5320   */\n      add\n        /* \"#utility.yul\":5294:5320   */\n      swap1\n      pop\n        /* \"#utility.yul\":5330:5395   */\n      tag_108\n        /* \"#utility.yul\":5392:5393   */\n      0x00\n        /* \"#utility.yul\":5381:5390   */\n      dup4\n        /* \"#utility.yul\":5377:5394   */\n      add\n        /* \"#utility.yul\":5368:5374   */\n      dup6\n        /* \"#utility.yul\":5330:5395   */\n      tag_47\n      jump\t// in\n    tag_108:\n        /* \"#utility.yul\":5442:5451   */\n      dup2\n        /* \"#utility.yul\":5436:5440   */\n      dup2\n        /* \"#utility.yul\":5432:5452   */\n      sub\n        /* \"#utility.yul\":5427:5429   */\n      0x20\n        /* \"#utility.yul\":5416:5425   */\n      dup4\n        /* \"#utility.yul\":5412:5430   */\n      add\n        /* \"#utility.yul\":5405:5453   */\n      mstore\n        /* \"#utility.yul\":5470:5546   */\n      tag_109\n        /* \"#utility.yul\":5541:5545   */\n      dup2\n        /* \"#utility.yul\":5532:5538   */\n      dup5\n        /* \"#utility.yul\":5470:5546   */\n      tag_50\n      jump\t// in\n    tag_109:\n        /* \"#utility.yul\":5462:5546   */\n      swap1\n      pop\n        /* \"#utility.yul\":5146:5553   */\n      swap4\n      swap3\n      pop\n      pop\n      pop\n      jump\t// out\n\n    auxdata: 0xa264697066735822122036b2dee4d54a59a438ae7825e5d8b9a3204d87ac51fbbdbedab052a85dd3f90764736f6c634300080d0033\n}\n",
				"bytecode": {
					"linkReferences": {},
					"object": "608060405234801561001057600080fd5b506105b1806100206000396000f3fe6080604052600436106100295760003560e01c806387ba61791461002e578063ff00726c1461004a575b600080fd5b6100486004803603810190610043919061033a565b610066565b005b610064600480360381019061005f919061033a565b6101a7565b005b6000808273ffffffffffffffffffffffffffffffffffffffff163461138890607b6040516024016100979190610416565b6040516020818303038152906040527f24ccab8f000000000000000000000000000000000000000000000000000000007bffffffffffffffffffffffffffffffffffffffffffffffffffffffff19166020820180517bffffffffffffffffffffffffffffffffffffffffffffffffffffffff838183161783525050505060405161012191906104be565b600060405180830381858888f193505050503d806000811461015f576040519150601f19603f3d011682016040523d82523d6000602084013e610164565b606091505b50915091507f13848c3e38f8886f3f5d2ad9dff80d8092c2bbb8efd5b887a99c2c6cfc09ac2a828260405161019a92919061054b565b60405180910390a1505050565b6000808273ffffffffffffffffffffffffffffffffffffffff16346040516024016040516020818303038152906040527f59764653000000000000000000000000000000000000000000000000000000007bffffffffffffffffffffffffffffffffffffffffffffffffffffffff19166020820180517bffffffffffffffffffffffffffffffffffffffffffffffffffffffff838183161783525050505060405161025291906104be565b60006040518083038185875af1925050503d806000811461028f576040519150601f19603f3d011682016040523d82523d6000602084013e610294565b606091505b50915091507f13848c3e38f8886f3f5d2ad9dff80d8092c2bbb8efd5b887a99c2c6cfc09ac2a82826040516102ca92919061054b565b60405180910390a1505050565b600080fd5b600073ffffffffffffffffffffffffffffffffffffffff82169050919050565b6000610307826102dc565b9050919050565b610317816102fc565b811461032257600080fd5b50565b6000813590506103348161030e565b92915050565b6000602082840312156103505761034f6102d7565b5b600061035e84828501610325565b91505092915050565b600082825260208201905092915050565b7f63616c6c20666f6f000000000000000000000000000000000000000000000000600082015250565b60006103ae600883610367565b91506103b982610378565b602082019050919050565b6000819050919050565b600060ff82169050919050565b6000819050919050565b60006104006103fb6103f6846103c4565b6103db565b6103ce565b9050919050565b610410816103e5565b82525050565b6000604082019050818103600083015261042f816103a1565b905061043e6020830184610407565b92915050565b600081519050919050565b600081905092915050565b60005b8381101561047857808201518184015260208101905061045d565b83811115610487576000848401525b50505050565b600061049882610444565b6104a2818561044f565b93506104b281856020860161045a565b80840191505092915050565b60006104ca828461048d565b915081905092915050565b60008115159050919050565b6104ea816104d5565b82525050565b600082825260208201905092915050565b6000601f19601f8301169050919050565b600061051d82610444565b61052781856104f0565b935061053781856020860161045a565b61054081610501565b840191505092915050565b600060408201905061056060008301856104e1565b81810360208301526105728184610512565b9050939250505056fea264697066735822122036b2dee4d54a59a438ae7825e5d8b9a3204d87ac51fbbdbedab052a85dd3f90764736f6c634300080d0033",
					"opcodes": "PUSH1 0x80 PUSH1 0x40 MSTORE CALLVALUE DUP1 ISZERO PUSH2 0x10 JUMPI PUSH1 0x0 DUP1 REVERT JUMPDEST POP PUSH2 0x5B1 DUP1 PUSH2 0x20 PUSH1 0x0 CODECOPY PUSH1 0x0 RETURN INVALID PUSH1 0x80 PUSH1 0x40 MSTORE PUSH1 0x4 CALLDATASIZE LT PUSH2 0x29 JUMPI PUSH1 0x0 CALLDATALOAD PUSH1 0xE0 SHR DUP1 PUSH4 0x87BA6179 EQ PUSH2 0x2E JUMPI DUP1 PUSH4 0xFF00726C EQ PUSH2 0x4A JUMPI JUMPDEST PUSH1 0x0 DUP1 REVERT JUMPDEST PUSH2 0x48 PUSH1 0x4 DUP1 CALLDATASIZE SUB DUP2 ADD SWAP1 PUSH2 0x43 SWAP2 SWAP1 PUSH2 0x33A JUMP JUMPDEST PUSH2 0x66 JUMP JUMPDEST STOP JUMPDEST PUSH2 0x64 PUSH1 0x4 DUP1 CALLDATASIZE SUB DUP2 ADD SWAP1 PUSH2 0x5F SWAP2 SWAP1 PUSH2 0x33A JUMP JUMPDEST PUSH2 0x1A7 JUMP JUMPDEST STOP JUMPDEST PUSH1 0x0 DUP1 DUP3 PUSH20 0xFFFFFFFFFFFFFFFFFFFFFFFFFFFFFFFFFFFFFFFF AND CALLVALUE PUSH2 0x1388 SWAP1 PUSH1 0x7B PUSH1 0x40 MLOAD PUSH1 0x24 ADD PUSH2 0x97 SWAP2 SWAP1 PUSH2 0x416 JUMP JUMPDEST PUSH1 0x40 MLOAD PUSH1 0x20 DUP2 DUP4 SUB SUB DUP2 MSTORE SWAP1 PUSH1 0x40 MSTORE PUSH32 0x24CCAB8F00000000000000000000000000000000000000000000000000000000 PUSH28 0xFFFFFFFFFFFFFFFFFFFFFFFFFFFFFFFFFFFFFFFFFFFFFFFFFFFFFFFF NOT AND PUSH1 0x20 DUP3 ADD DUP1 MLOAD PUSH28 0xFFFFFFFFFFFFFFFFFFFFFFFFFFFFFFFFFFFFFFFFFFFFFFFFFFFFFFFF DUP4 DUP2 DUP4 AND OR DUP4 MSTORE POP POP POP POP PUSH1 0x40 MLOAD PUSH2 0x121 SWAP2 SWAP1 PUSH2 0x4BE JUMP JUMPDEST PUSH1 0x0 PUSH1 0x40 MLOAD DUP1 DUP4 SUB DUP2 DUP6 DUP9 DUP9 CALL SWAP4 POP POP POP POP RETURNDATASIZE DUP1 PUSH1 0x0 DUP2 EQ PUSH2 0x15F JUMPI PUSH1 0x40 MLOAD SWAP2 POP PUSH1 0x1F NOT PUSH1 0x3F RETURNDATASIZE ADD AND DUP3 ADD PUSH1 0x40 MSTORE RETURNDATASIZE DUP3 MSTORE RETURNDATASIZE PUSH1 0x0 PUSH1 0x20 DUP5 ADD RETURNDATACOPY PUSH2 0x164 JUMP JUMPDEST PUSH1 0x60 SWAP2 POP JUMPDEST POP SWAP2 POP SWAP2 POP PUSH32 0x13848C3E38F8886F3F5D2AD9DFF80D8092C2BBB8EFD5B887A99C2C6CFC09AC2A DUP3 DUP3 PUSH1 0x40 MLOAD PUSH2 0x19A SWAP3 SWAP2 SWAP1 PUSH2 0x54B JUMP JUMPDEST PUSH1 0x40 MLOAD DUP1 SWAP2 SUB SWAP1 LOG1 POP POP POP JUMP JUMPDEST PUSH1 0x0 DUP1 DUP3 PUSH20 0xFFFFFFFFFFFFFFFFFFFFFFFFFFFFFFFFFFFFFFFF AND CALLVALUE PUSH1 0x40 MLOAD PUSH1 0x24 ADD PUSH1 0x40 MLOAD PUSH1 0x20 DUP2 DUP4 SUB SUB DUP2 MSTORE SWAP1 PUSH1 0x40 MSTORE PUSH32 0x5976465300000000000000000000000000000000000000000000000000000000 PUSH28 0xFFFFFFFFFFFFFFFFFFFFFFFFFFFFFFFFFFFFFFFFFFFFFFFFFFFFFFFF NOT AND PUSH1 0x20 DUP3 ADD DUP1 MLOAD PUSH28 0xFFFFFFFFFFFFFFFFFFFFFFFFFFFFFFFFFFFFFFFFFFFFFFFFFFFFFFFF DUP4 DUP2 DUP4 AND OR DUP4 MSTORE POP POP POP POP PUSH1 0x40 MLOAD PUSH2 0x252 SWAP2 SWAP1 PUSH2 0x4BE JUMP JUMPDEST PUSH1 0x0 PUSH1 0x40 MLOAD DUP1 DUP4 SUB DUP2 DUP6 DUP8 GAS CALL SWAP3 POP POP POP RETURNDATASIZE DUP1 PUSH1 0x0 DUP2 EQ PUSH2 0x28F JUMPI PUSH1 0x40 MLOAD SWAP2 POP PUSH1 0x1F NOT PUSH1 0x3F RETURNDATASIZE ADD AND DUP3 ADD PUSH1 0x40 MSTORE RETURNDATASIZE DUP3 MSTORE RETURNDATASIZE PUSH1 0x0 PUSH1 0x20 DUP5 ADD RETURNDATACOPY PUSH2 0x294 JUMP JUMPDEST PUSH1 0x60 SWAP2 POP JUMPDEST POP SWAP2 POP SWAP2 POP PUSH32 0x13848C3E38F8886F3F5D2AD9DFF80D8092C2BBB8EFD5B887A99C2C6CFC09AC2A DUP3 DUP3 PUSH1 0x40 MLOAD PUSH2 0x2CA SWAP3 SWAP2 SWAP1 PUSH2 0x54B JUMP JUMPDEST PUSH1 0x40 MLOAD DUP1 SWAP2 SUB SWAP1 LOG1 POP POP POP JUMP JUMPDEST PUSH1 0x0 DUP1 REVERT JUMPDEST PUSH1 0x0 PUSH20 0xFFFFFFFFFFFFFFFFFFFFFFFFFFFFFFFFFFFFFFFF DUP3 AND SWAP1 POP SWAP2 SWAP1 POP JUMP JUMPDEST PUSH1 0x0 PUSH2 0x307 DUP3 PUSH2 0x2DC JUMP JUMPDEST SWAP1 POP SWAP2 SWAP1 POP JUMP JUMPDEST PUSH2 0x317 DUP2 PUSH2 0x2FC JUMP JUMPDEST DUP2 EQ PUSH2 0x322 JUMPI PUSH1 0x0 DUP1 REVERT JUMPDEST POP JUMP JUMPDEST PUSH1 0x0 DUP2 CALLDATALOAD SWAP1 POP PUSH2 0x334 DUP2 PUSH2 0x30E JUMP JUMPDEST SWAP3 SWAP2 POP POP JUMP JUMPDEST PUSH1 0x0 PUSH1 0x20 DUP3 DUP5 SUB SLT ISZERO PUSH2 0x350 JUMPI PUSH2 0x34F PUSH2 0x2D7 JUMP JUMPDEST JUMPDEST PUSH1 0x0 PUSH2 0x35E DUP5 DUP3 DUP6 ADD PUSH2 0x325 JUMP JUMPDEST SWAP2 POP POP SWAP3 SWAP2 POP POP JUMP JUMPDEST PUSH1 0x0 DUP3 DUP3 MSTORE PUSH1 0x20 DUP3 ADD SWAP1 POP SWAP3 SWAP2 POP POP JUMP JUMPDEST PUSH32 0x63616C6C20666F6F000000000000000000000000000000000000000000000000 PUSH1 0x0 DUP3 ADD MSTORE POP JUMP JUMPDEST PUSH1 0x0 PUSH2 0x3AE PUSH1 0x8 DUP4 PUSH2 0x367 JUMP JUMPDEST SWAP2 POP PUSH2 0x3B9 DUP3 PUSH2 0x378 JUMP JUMPDEST PUSH1 0x20 DUP3 ADD SWAP1 POP SWAP2 SWAP1 POP JUMP JUMPDEST PUSH1 0x0 DUP2 SWAP1 POP SWAP2 SWAP1 POP JUMP JUMPDEST PUSH1 0x0 PUSH1 0xFF DUP3 AND SWAP1 POP SWAP2 SWAP1 POP JUMP JUMPDEST PUSH1 0x0 DUP2 SWAP1 POP SWAP2 SWAP1 POP JUMP JUMPDEST PUSH1 0x0 PUSH2 0x400 PUSH2 0x3FB PUSH2 0x3F6 DUP5 PUSH2 0x3C4 JUMP JUMPDEST PUSH2 0x3DB JUMP JUMPDEST PUSH2 0x3CE JUMP JUMPDEST SWAP1 POP SWAP2 SWAP1 POP JUMP JUMPDEST PUSH2 0x410 DUP2 PUSH2 0x3E5 JUMP JUMPDEST DUP3 MSTORE POP POP JUMP JUMPDEST PUSH1 0x0 PUSH1 0x40 DUP3 ADD SWAP1 POP DUP2 DUP2 SUB PUSH1 0x0 DUP4 ADD MSTORE PUSH2 0x42F DUP2 PUSH2 0x3A1 JUMP JUMPDEST SWAP1 POP PUSH2 0x43E PUSH1 0x20 DUP4 ADD DUP5 PUSH2 0x407 JUMP JUMPDEST SWAP3 SWAP2 POP POP JUMP JUMPDEST PUSH1 0x0 DUP2 MLOAD SWAP1 POP SWAP2 SWAP1 POP JUMP JUMPDEST PUSH1 0x0 DUP2 SWAP1 POP SWAP3 SWAP2 POP POP JUMP JUMPDEST PUSH1 0x0 JUMPDEST DUP4 DUP2 LT ISZERO PUSH2 0x478 JUMPI DUP1 DUP3 ADD MLOAD DUP2 DUP5 ADD MSTORE PUSH1 0x20 DUP2 ADD SWAP1 POP PUSH2 0x45D JUMP JUMPDEST DUP4 DUP2 GT ISZERO PUSH2 0x487 JUMPI PUSH1 0x0 DUP5 DUP5 ADD MSTORE JUMPDEST POP POP POP POP JUMP JUMPDEST PUSH1 0x0 PUSH2 0x498 DUP3 PUSH2 0x444 JUMP JUMPDEST PUSH2 0x4A2 DUP2 DUP6 PUSH2 0x44F JUMP JUMPDEST SWAP4 POP PUSH2 0x4B2 DUP2 DUP6 PUSH1 0x20 DUP7 ADD PUSH2 0x45A JUMP JUMPDEST DUP1 DUP5 ADD SWAP2 POP POP SWAP3 SWAP2 POP POP JUMP JUMPDEST PUSH1 0x0 PUSH2 0x4CA DUP3 DUP5 PUSH2 0x48D JUMP JUMPDEST SWAP2 POP DUP2 SWAP1 POP SWAP3 SWAP2 POP POP JUMP JUMPDEST PUSH1 0x0 DUP2 ISZERO ISZERO SWAP1 POP SWAP2 SWAP1 POP JUMP JUMPDEST PUSH2 0x4EA DUP2 PUSH2 0x4D5 JUMP JUMPDEST DUP3 MSTORE POP POP JUMP JUMPDEST PUSH1 0x0 DUP3 DUP3 MSTORE PUSH1 0x20 DUP3 ADD SWAP1 POP SWAP3 SWAP2 POP POP JUMP JUMPDEST PUSH1 0x0 PUSH1 0x1F NOT PUSH1 0x1F DUP4 ADD AND SWAP1 POP SWAP2 SWAP1 POP JUMP JUMPDEST PUSH1 0x0 PUSH2 0x51D DUP3 PUSH2 0x444 JUMP JUMPDEST PUSH2 0x527 DUP2 DUP6 PUSH2 0x4F0 JUMP JUMPDEST SWAP4 POP PUSH2 0x537 DUP2 DUP6 PUSH1 0x20 DUP7 ADD PUSH2 0x45A JUMP JUMPDEST PUSH2 0x540 DUP2 PUSH2 0x501 JUMP JUMPDEST DUP5 ADD SWAP2 POP POP SWAP3 SWAP2 POP POP JUMP JUMPDEST PUSH1 0x0 PUSH1 0x40 DUP3 ADD SWAP1 POP PUSH2 0x560 PUSH1 0x0 DUP4 ADD DUP6 PUSH2 0x4E1 JUMP JUMPDEST DUP2 DUP2 SUB PUSH1 0x20 DUP4 ADD MSTORE PUSH2 0x572 DUP2 DUP5 PUSH2 0x512 JUMP JUMPDEST SWAP1 POP SWAP4 SWAP3 POP POP POP JUMP INVALID LOG2 PUSH5 0x6970667358 0x22 SLT KECCAK256 CALLDATASIZE 0xB2 0xDE 0xE4 0xD5 0x4A MSIZE LOG4 CODESIZE 0xAE PUSH25 0x25E5D8B9A3204D87AC51FBBDBEDAB052A85DD3F90764736F6C PUSH4 0x4300080D STOP CALLER "
				},
				"gasEstimates": {
					"creation": {
						"codeDepositCost": "291400",
						"executionCost": "331",
						"totalCost": "291731"
					},
					"external": {
						"testCallDoesNotExist(address)": "infinite",
						"testCallFoo(address)": "infinite"
					}
				},
				"methodIdentifiers": {
					"testCallDoesNotExist(address)": "ff00726c",
					"testCallFoo(address)": "87ba6179"
				}
			},
			"storageLayout": {
				"storage": [],
				"types": null
			},
			"userdoc": {
				"kind": "user",
				"methods": {},
				"version": 1
			}
		}
	}
}